:020000040000fa
:080000000002040000000000f2
:020000040000fa
:040008001c030000d5
:020000040000fa
:04000c001c030000d1
:020000040000fa
:040010001c030000cd
:020000040000fa
:040014001c030000c9
:020000040000fa
:040018001c030000c5
:020000040000fa
:04001c001c030000c1
:020000040000fa
:040020001c030000bd
:020000040000fa
:040024001c030000b9
:020000040000fa
:040028001c030000b5
:020000040000fa
:04002c001c030000b1
:020000040000fa
:040030001c030000ad
:020000040000fa
:040034001c030000a9
:020000040000fa
:040038001c030000a5
:020000040000fa
:04003c001c030000a1
:020000040000fa
:040040001c0300009d
:020000040000fa
:040044001c03000099
:020000040000fa
:040048001c03000095
:020000040000fa
:04004c001c03000091
:020000040000fa
:040050001c0300008d
:020000040000fa
:040054001c03000089
:020000040000fa
:040058001c03000085
:020000040000fa
:04005c001c03000081
:020000040000fa
:040060001c0300007d
:020000040000fa
:040064001c03000079
:020000040000fa
:040068001c03000075
:020000040000fa
:04006c001c03000071
:020000040000fa
:040070001c0300006d
:020000040000fa
:040074001c03000069
:020000040000fa
:040078001c03000065
:020000040000fa
:04007c001c03000061
:020000040000fa
:040080001c0300005d
:020000040000fa
:040084001c03000059
:020000040000fa
:040088001c03000055
:020000040000fa
:04008c001c03000051
:020000040000fa
:040090001c0300004d
:020000040000fa
:040094001c03000049
:020000040000fa
:040098001c03000045
:020000040000fa
:04009c001c03000041
:020000040000fa
:0400a0001c0300003d
:020000040000fa
:0400a4001c03000039
:020000040000fa
:0400a8001c03000035
:020000040000fa
:0400ac00fa02000054
:020000040000fa
:0400b0001c0300002d
:020000040000fa
:0400b4001c03000029
:020000040000fa
:0400b8001c03000025
:020000040000fa
:0400bc001c03000021
:020000040000fa
:0400c0001c0300001d
:020000040000fa
:0400c4001c03000019
:020000040000fa
:0400c8001c03000015
:020000040000fa
:0400cc001c03000011
:020000040000fa
:0400d0001c0300000d
:020000040000fa
:0400d4001c03000009
:020000040000fa
:0400d8001c03000005
:020000040000fa
:0400dc001c03000001
:020000040000fa
:0400e0001c030000fd
:020000040000fa
:0400e4001c030000f9
:020000040000fa
:0400e8001c030000f5
:020000040000fa
:0400ec001c030000f1
:020000040000fa
:0400f0001c030000ed
:020000040000fa
:0400f4001c030000e9
:020000040000fa
:0400f8001c030000e5
:020000040000fa
:0400fc001c030000e1
:020000040000fa
:040100001c030000dc
:020000040000fa
:040104001c030000d8
:020000040000fa
:040108001c030000d4
:020000040000fa
:04010c001c030000d0
:020000040000fa
:040110001c030000cc
:020000040000fa
:040114001c030000c8
:020000040000fa
:040118001c030000c4
:020000040000fa
:04011c001c030000c0
:020000040000fa
:040120001c030000bc
:020000040000fa
:040124001c030000b8
:020000040000fa
:040128001c030000b4
:020000040000fa
:04012c001c030000b0
:020000040000fa
:040130001c030000ac
:020000040000fa
:040134001c030000a8
:020000040000fa
:040138001c030000a4
:020000040000fa
:04013c001c030000a0
:020000040000fa
:040140001c0300009c
:020000040000fa
:040144001c03000098
:020000040000fa
:040148001c03000094
:020000040000fa
:04014c001c03000090
:020000040000fa
:040150001c0300008c
:020000040000fa
:040154001c03000088
:020000040000fa
:040158001c03000084
:020000040000fa
:04015c001c03000080
:020000040000fa
:040160001c0300007c
:020000040000fa
:040164001c03000078
:020000040000fa
:040168001c03000074
:020000040000fa
:04016c001c03000070
:020000040000fa
:040170001c0300006c
:020000040000fa
:040174001c03000068
:020000040000fa
:040178001c03000064
:020000040000fa
:04017c001c03000060
:020000040000fa
:040180001c0300005c
:020000040000fa
:040184001c03000058
:020000040000fa
:040188001c03000054
:020000040000fa
:04018c001c03000050
:020000040000fa
:040190001c0300004c
:020000040000fa
:040194001c03000048
:020000040000fa
:040198001c03000044
:020000040000fa
:04019c001c03000040
:020000040000fa
:0401a0001c0300003c
:020000040000fa
:0401a4001c03000038
:020000040000fa
:0401a8001c03000034
:020000040000fa
:0401ac001c03000030
:020000040000fa
:0401b0001c0300002c
:020000040000fa
:0401b4001c03000028
:020000040000fa
:0401b8001c03000024
:020000040000fa
:0401bc001c03000020
:020000040000fa
:0401c0001c0300001c
:020000040000fa
:0401c4001c03000018
:020000040000fa
:0401c8001c03000014
:020000040000fa
:0401cc001c03000010
:020000040000fa
:0401d0001c0300000c
:020000040000fa
:0401d4001c03000008
:020000040000fa
:0401d8001c03000004
:020000040000fa
:0401dc001c03000000
:020000040000fa
:0401e0001c030000fc
:020000040000fa
:0401e4001c030000f8
:020000040000fa
:0401e8001c030000f4
:020000040000fa
:0401ec001c030000f0
:020000040000fa
:0401f0001c030000ec
:020000040000fa
:0401f4001c030000e8
:020000040000fa
:0401f8001c030000e4
:020000040000fa
:0401fc001c030000e0
:020000040000fa
:040200001c030000db
:020000040000fa
:040204001c030000d7
:020000040000fa
:040208001c030000d3
:020000040000fa
:04020c001c030000cf
:020000040000fa
:040210001c030000cb
:020000040000fa
:040214001c030000c7
:020000040000fa
:040218001c030000c3
:020000040000fa
:04021c001c030000bf
:020000040000fa
:040220001c030000bb
:020000040000fa
:040224001c030000b7
:020000040000fa
:040228001c030000b3
:020000040000fa
:04022c001c030000af
:020000040000fa
:040230001c030000ab
:020000040000fa
:040234001c030000a7
:020000040000fa
:040238001c030000a3
:020000040000fa
:04023c001c0300009f
:020000040000fa
:040240001c0300009b
:020000040000fa
:040244001c03000097
:020000040000fa
:040248001c03000093
:020000040000fa
:04024c001c0300008f
:020000040000fa
:040250001c0300008b
:020000040000fa
:040254001c03000087
:020000040000fa
:040258001c03000083
:020000040000fa
:04025c001c0300007f
:020000040000fa
:040260001c0300007b
:020000040000fa
:040264001c03000077
:020000040000fa
:040268001c03000073
:020000040000fa
:04026c001c0300006f
:020000040000fa
:040270001c0300006b
:020000040000fa
:040274001c03000067
:020000040000fa
:040278001c03000063
:020000040000fa
:04027c001c0300005f
:020000040000fa
:040280001c0300005b
:020000040000fa
:100400004f0021000eff24000e01880000000000b4
:10041000000020000000e000020032000001200087
:100420002002880014000700850007000000e0009b
:1004300003003a00a08320000100200002003700e2
:100440000000200001002000810f70000100320038
:100450000f000700000020000000e0000200320052
:1004600000000200000000002a0802000000000056
:100470000040da000000fe00200020000000e00044
:1004800002003200100020009001880000000600e9
:10049000a1028800800478000000eb001f003700f4
:1004a000e284440054a0b4009905ba00e2844400f8
:1004b00054a0b4009906ba00e284440054a0b400e9
:1004c0000006eb00476fde00fd07b200ae018800ba
:1004d000636ce10003003a000ad801000000eb0061
:1004e0000e003700606ce10008003a00004deb00a0
:1004f0000a05e800020039003420ec000af0a000f0
:100500008b05e900f9ff3e00040037006168e10057
:10051000010032000086eb000b00070019c7ba008b
:100520000e04e0001905ba0003003a000a00e000da
:10053000dbff3a0000000600fe07b200ae028800b2
:100540008a047800f5ff37000cd0a300e20f4d00bd
:100550001c00390089027800354dba000a05e80010
:10056000020039003420ec000af0a0008b05e900fd
:100570000f003200254dba000a05e80002003900dc
:100580003420ec000af0a0008b05e90008003200de
:100590000c00e0000600320015cdba000a05e800a4
:1005a000020039003420ec000af0a0008b05e900bd
:1005b0008984e80054a0b4000b00e000e2ff3a0098
:1005c000000006009902ba00055d78008b05e9007d
:1005d000f7ff3200c82ade00055d78008b05e900d0
:1005e000f3ff32000c00e000f1ff320019ddba0029
:1005f000eeff3700801f78000000fa0020408000e6
:10060000620060000000e00008003200028ea800d6
:10061000128ea80012aea80040138000008088004f
:100620000428a90010c0b30002f0b7000080fa004f
:100630004f007800004006000040da000000fe0095
:100640000000050003f0a200889fbe008a9fbe0044
:100650008c1f7800f3000700fa0033006450e100bb
:100660004f0032006420e1005200320003826c002f
:1006700007003b000905d0000306d000820f54009c
:100680000c065d000200390002003200890178008a
:10069000030678008582550004003d000003fd003c
:1006a0008103fd008502ea008b854200840f720001
:1006b00002003b0060001000e08018006011b800ec
:1006c0000005eb007a28e1000a00390006007800f6
:1006d000c75ddd00f707b200878075002d00370089
:1006e000828171000a017800610560008180d1007b
:1006f0000080d3008502e900f9ff3b0006044000ba
:100700008784480002003b0060041400e0841c0061
:100710000988a300070032008a817100828171007c
:10072000610164008904d1000884d3008b05e800ce
:10073000170037000978a30013003a000b00e0000f
:10074000130034008b05e9000804440089844c0040
:100750000a4474000978a3000d003a000b00e00081
:10076000070034008b05e9000804440089844c002c
:1007700001003a000b0020000978a300f7ff3200c7
:100780000001eb0002003700828171000a0178004d
:10079000690007000cf0a70001f0a000b2003700cc
:1007a0006420e10002003a00838f6c00b200330045
:1007b0000801be000200be00ab003700889fbe00eb
:1007c0008a9fbe008c1f7800960007009d003300b2
:1007d00003866c006450e1002e0032006420e100ca
:1007e000330032006150e1002f0032006120e1004f
:1007f0003100320085855500eb07b000090020006c
:1008000008042000050037000804440089844c00d7
:100810000a0031000603430087834b0000015300a8
:1008200081815b00f8ff33000203be000800a000d6
:100830000804440089844c00f6ff3900c639dd0005
:100840008301730001003200130020008904d100ed
:100850000884d3000998a300050032000800a7000f
:100860000300a0008904d1000884d3008b05e800b0
:100870008904d1000884d3000001eb000281d2007a
:100880002d00070001f0a1000cf0a70001f0a0006e
:10089000750037006420e100770032000801be00d7
:1008a0000200be00f7ff37006120e1007200320055
:1008b0006000b800f3ff37000000200001f82700b7
:1008c000f0ff37000001be00410007000470a700e0
:1008d00003f0a10003f8a30013003a006509b1007a
:1008e00010003200090035006928e10002003500df
:1008f0000100280000000500000040008180480041
:100900008502e900fcff3a0000000600f88f420073
:10091000050035008100d1000080d3008502e80089
:10092000fcff3a00000006008000eb00000005001c
:100930006011b800870037008100200061805500f9
:100940000b003d000b00200061fe2f000100e100c4
:100950001d00340082817100610164008904d100ae
:100960000884d3000000e800faff3a00710020007c
:1009700061006400030070000200600009003200a2
:1009800061044400e0844c000988a50005003200a1
:100990008b05e8006808e10002003a008904d100f4
:1009a0000884d300f20f20000258e10005003d004a
:1009b000c75ddd00f907b200898075000800780086
:1009c000000006000bf827008b00780000000500ef
:1009d000c70ade00f107b200f50fb20008003200ce
:1009e000e1cf4200020032000170a00024000500a7
:1009f000810f70000100320004080500440005006a
:100a0000810f700002003a00140005008502e90021
:100a10000000400081c04800fcff3b000170a000c6
:100a2000240005000004be00e9ff07000003be002b
:100a30000405be000200be00e5ff0700844f7500fc
:100a4000000006000200be006450e1000500360010
:100a50006420e100020036000968a30001003a00aa
:100a60000800be000160a0004f0678004f05be00e0
:100a70004f04be0000000600f0ff2f00f1ff27002a
:100a8000f9ff3700889fbe008a9fbe008c1f780048
:100a9000e4ff0700ebff330003866c006450e100c5
:100aa000240032006420e100270032006150e100a0
:100ab000220032006120e100210032008b854200db
:100ac000eb07b1000134b800003ab8000804420056
:100ad00089844a00013ab8000030b800888040009c
:100ae00009014a00040033000000400081804800f2
:100af000020149008b05e900c909dd00830170008e
:100b00000100320013002000c814de004814dd008c
:100b10004709de001200b200c808de000884700039
:100b200085ff070001f0a1000cf0a70001f0a00074
:100b3000cdff37006120e100cfff32000801be0089
:100b40000200be00f7ff37006150e100fcff3a00f1
:100b5000c9ff3700889fbe008a9fbe0000827000d8
:100b60000402710004827100260032000004be00fd
:100b70000200be006011b8006b0920009502200041
:100b80000182cf000a0039000541b1000082cf0088
:100b9000070039000541b1000982cf000400390087
:100ba0000541b1000882cf00010039000541b100c4
:100bb00005425200120032000a003b00828171009f
:100bc000610164008100d1000080d3008984d300da
:100bd0000884d3008b05e8000442e800f7ff3a00e0
:100be000070037000804440089844c0000004800d6
:100bf000818048008b05e9000442e900f9ff3a00d2
:100c00004dff07004f05be004f04be000000060068
:020000040000fa
:100c10000400fa00100798000000eb00000f7800b5
:100c20001e009000100078004c00dd00000f7800de
:100c30001e00900010009000ca00dd0000c02000df
:100c4000008060001e0f70001e009000b000900039
:100c5000f01f2000008060001e0f700000000000e8
:100c600090708000700060000000e000fcff320027
:100c7000128ea9001e007800810007000080fa0093
:100c8000000006000000fa003a000700108ea900dc
:100c9000128ea8000080fa00000006000200fa0090
:100ca000004f78001e407800540007000080fa00d2
:100cb000000006001800fa00300f98000040eb001a
:100cc000004f7800be08900020072000808f500061
:100cd0001c0036003e0890002007b1008000eb00a9
:100ce00013ff0700100798002107980002802700d3
:100cf000636124001e009000ae009000affe07006c
:100d000030079800410798000200200003302400bb
:100d10003e009000ce0090005aff07005007980058
:100d2000610798000200200003f023005e0090009d
:100d3000ee00900044fe0700e2fe0700004f78003e
:100d4000020037000040eb00004f78000000eb008d
:100d5000700798000000eb00000f98001e80fb0059
:100d6000200f98006e004700a9ff07000080fa00de
:100d7000000006000000fa0003d0bf000004a2003b
:100d80000004e0001b0032000040eb001b000700e5
:100d90006382a9006362a9006342a8006302a800fd
:100da00062c2a90062a2a8001113800030fe2f00c9
:100db000008060001013880011138000c0ff2f0016
:100dc000008060001013880065e2a9006402a90099
:100dd0000428a90081428000f0f82f000080600004
:100de0000050a000804288002428a90010c0b30051
:100df00003f0b7000080fa00000006000200fa00cd
:100e0000004f78001e4078000004e0001700320018
:100e1000118ea800114ea900116ea9002428a80067
:100e200041348000f00f2c00808060000090200092
:100e300001007000403488004134800000fc2f0025
:100e4000008060000030a0004034880061368000df
:100e500000f82f0080806000c002200001007000b8
:100e60006036880061e2a8000300370061e2a90053
:100e70002428a900118ea9000080fa0000000600b5
:100e80000200fa00000f78009e00780041138800ed
:100e90000080fa00000006000000fa0040a7a90048
:100ea000113a8000f08f2f00008060000080a000c9
:100eb000103a880042e7a90042c7a9004207a800eb
:100ec00000000000113a80000000270080806000d0
:100ed00000002100808f5000faff3a004fe7a80081
:100ee0004f87a900713a8000f00f2f00008060004a
:100ef000703a88000080fa00000006000000fa0046
:100f000045e7a9004587a90045a7a90045c7a9004d
:100f10004567a9004507a9004527a9004547a9003d
:100f200044c7a90044e7a9004407a9004427a90031
:100f30004447a9004467a9004487a900313a8000ca
:100f400000e02f0080806000a004200001007000fd
:100f5000303a88000080fa00000006000000fa0025
:100f6000002eef000e2eef00022eef00102eef00ed
:100f70001e2eef00122eef000080fa000000060087
:100f80000000fa00c028ef00c428ef00c628ef00d8
:100f9000c1e8a9000080fa00000006000200fa0083
:100fa000004f78001e4078000004e0000700320087
:100fb00011028000f0f12f00008060001002880014
:100fc0004460a900c3e8a8000500370011028000b2
:100fd000000e20000100700010028800c3e8a90084
:100fe0000080fa00000006000200fa00004f7800be
:100ff0001e4078000004e000080032000428a90028
:1010000081428000f0f82f00008060000050a000b6
:10101000804288002428a800010037002428a90065
:101020000080fa00000006000000fa000040eb001b
:10103000daff0700b1ff070097ff0700c7ff0700af
:10104000cfff070010c0b300d4ff07000080fa00f4
:10105000000006000000fa00f3ff070009ff070088
:1010600010c0b3000dff0700401f200011ff070054
:04107000ffff370047
:020000040000fa
:1010740000100000040000008000000000000000d8
:020000040000fa
:020000040002f8
:04afe000cfff00009f
:020000040000fa
:020000040002f8
:04afe400efff00007b
:020000040000fa
:020000040002f8
:04afe8007fff0000e7
:020000040000fa
:020000040002f8
:04afec007bff0000e7
:020000040000fa
:020000040002f8
:04aff000f9ff000065
:020000040000fa
:020000040002f8
:04aff400ffff00005b
:00000001FF
