:020000040000fa
:080000000002040000000000f2
:020000040000fa
:0400080006030000eb
:020000040000fa
:04000c0006030000e7
:020000040000fa
:0400100006030000e3
:020000040000fa
:0400140006030000df
:020000040000fa
:0400180006030000db
:020000040000fa
:04001c0006030000d7
:020000040000fa
:0400200006030000d3
:020000040000fa
:0400240006030000cf
:020000040000fa
:0400280006030000cb
:020000040000fa
:04002c0006030000c7
:020000040000fa
:0400300006030000c3
:020000040000fa
:0400340006030000bf
:020000040000fa
:0400380006030000bb
:020000040000fa
:04003c0006030000b7
:020000040000fa
:0400400006030000b3
:020000040000fa
:0400440006030000af
:020000040000fa
:0400480006030000ab
:020000040000fa
:04004c0006030000a7
:020000040000fa
:0400500006030000a3
:020000040000fa
:04005400d4260000ae
:020000040000fa
:04005800060300009b
:020000040000fa
:04005c000603000097
:020000040000fa
:040060000603000093
:020000040000fa
:04006400060300008f
:020000040000fa
:04006800060300008b
:020000040000fa
:04006c000603000087
:020000040000fa
:040070000603000083
:020000040000fa
:04007400060300007f
:020000040000fa
:04007800060300007b
:020000040000fa
:04007c000603000077
:020000040000fa
:040080000603000073
:020000040000fa
:04008400060300006f
:020000040000fa
:04008800060300006b
:020000040000fa
:04008c000603000067
:020000040000fa
:040090000603000063
:020000040000fa
:04009400060300005f
:020000040000fa
:04009800060300005b
:020000040000fa
:04009c000603000057
:020000040000fa
:0400a0000603000053
:020000040000fa
:0400a400060300004f
:020000040000fa
:0400a800060300004b
:020000040000fa
:0400ac000603000047
:020000040000fa
:0400b0000603000043
:020000040000fa
:0400b400060300003f
:020000040000fa
:0400b800060300003b
:020000040000fa
:0400bc000603000037
:020000040000fa
:0400c0000603000033
:020000040000fa
:0400c400060300002f
:020000040000fa
:0400c800060300002b
:020000040000fa
:0400cc000603000027
:020000040000fa
:0400d0000603000023
:020000040000fa
:0400d400060300001f
:020000040000fa
:0400d800060300001b
:020000040000fa
:0400dc000603000017
:020000040000fa
:0400e0000603000013
:020000040000fa
:0400e400060300000f
:020000040000fa
:0400e800060300000b
:020000040000fa
:0400ec000603000007
:020000040000fa
:0400f0000603000003
:020000040000fa
:0400f40006030000ff
:020000040000fa
:0400f80006030000fb
:020000040000fa
:0400fc0006030000f7
:020000040000fa
:0401000006030000f2
:020000040000fa
:0401040006030000ee
:020000040000fa
:0401080006030000ea
:020000040000fa
:04010c0006030000e6
:020000040000fa
:0401100006030000e2
:020000040000fa
:0401140006030000de
:020000040000fa
:0401180006030000da
:020000040000fa
:04011c0006030000d6
:020000040000fa
:0401200006030000d2
:020000040000fa
:0401240006030000ce
:020000040000fa
:0401280006030000ca
:020000040000fa
:04012c0006030000c6
:020000040000fa
:0401300006030000c2
:020000040000fa
:0401340006030000be
:020000040000fa
:0401380006030000ba
:020000040000fa
:04013c0006030000b6
:020000040000fa
:0401400006030000b2
:020000040000fa
:0401440006030000ae
:020000040000fa
:0401480006030000aa
:020000040000fa
:04014c0006030000a6
:020000040000fa
:0401500006030000a2
:020000040000fa
:04015400060300009e
:020000040000fa
:04015800060300009a
:020000040000fa
:04015c000603000096
:020000040000fa
:040160000603000092
:020000040000fa
:04016400060300008e
:020000040000fa
:04016800060300008a
:020000040000fa
:04016c000603000086
:020000040000fa
:040170000603000082
:020000040000fa
:04017400060300007e
:020000040000fa
:04017800060300007a
:020000040000fa
:04017c000603000076
:020000040000fa
:040180000603000072
:020000040000fa
:04018400060300006e
:020000040000fa
:04018800060300006a
:020000040000fa
:04018c000603000066
:020000040000fa
:040190000603000062
:020000040000fa
:04019400060300005e
:020000040000fa
:04019800060300005a
:020000040000fa
:04019c000603000056
:020000040000fa
:0401a0000603000052
:020000040000fa
:0401a400060300004e
:020000040000fa
:0401a800060300004a
:020000040000fa
:0401ac000603000046
:020000040000fa
:0401b0000603000042
:020000040000fa
:0401b400060300003e
:020000040000fa
:0401b800060300003a
:020000040000fa
:0401bc000603000036
:020000040000fa
:0401c0000603000032
:020000040000fa
:0401c400060300002e
:020000040000fa
:0401c800060300002a
:020000040000fa
:0401cc000603000026
:020000040000fa
:0401d0000603000022
:020000040000fa
:0401d400060300001e
:020000040000fa
:0401d800060300001a
:020000040000fa
:0401dc000603000016
:020000040000fa
:0401e0000603000012
:020000040000fa
:0401e400060300000e
:020000040000fa
:0401e800060300000a
:020000040000fa
:0401ec000603000006
:020000040000fa
:0401f0000603000002
:020000040000fa
:0401f40006030000fe
:020000040000fa
:0401f80006030000fa
:020000040000fa
:0401fc0006030000f6
:020000040000fa
:0402000006030000f1
:020000040000fa
:0402040006030000ed
:020000040000fa
:0402080006030000e9
:020000040000fa
:04020c0006030000e5
:020000040000fa
:0402100006030000e1
:020000040000fa
:0402140006030000dd
:020000040000fa
:0402180006030000d9
:020000040000fa
:04021c0006030000d5
:020000040000fa
:0402200006030000d1
:020000040000fa
:0402240006030000cd
:020000040000fa
:0402280006030000c9
:020000040000fa
:04022c0006030000c5
:020000040000fa
:0402300006030000c1
:020000040000fa
:0402340006030000bd
:020000040000fa
:0402380006030000b9
:020000040000fa
:04023c0006030000b5
:020000040000fa
:0402400006030000b1
:020000040000fa
:0402440006030000ad
:020000040000fa
:0402480006030000a9
:020000040000fa
:04024c0006030000a5
:020000040000fa
:0402500006030000a1
:020000040000fa
:04025400060300009d
:020000040000fa
:040258000603000099
:020000040000fa
:04025c000603000095
:020000040000fa
:040260000603000091
:020000040000fa
:04026400060300008d
:020000040000fa
:040268000603000089
:020000040000fa
:04026c000603000085
:020000040000fa
:040270000603000081
:020000040000fa
:04027400060300007d
:020000040000fa
:040278000603000079
:020000040000fa
:04027c000603000075
:020000040000fa
:040280000603000071
:020000040000fa
:100400004f2421000eff21000e0188000000000093
:10041000000020000000e000020032000001200087
:100420002002880014000700da0007000000e00046
:1004300003003a00e05222000100200002003700d1
:100440000000200001002000810f70000100320038
:100450000f000700000020000000e0000200320052
:1004600000000200000000007c27020000000000e5
:100470000040da000000fe00400220000000e00022
:1004800002003200002020009001880000000600d9
:10049000a1028800800478000000eb001f003700f4
:1004a000e284440054a0b4009905ba00e2844400f8
:1004b00054a0b4009906ba00e284440054a0b400e9
:1004c0000006eb00476fde00fd07b200ae018800ba
:1004d000636ce10003003a000ad801000000eb0061
:1004e0000e003700606ce10008003a00004deb00a0
:1004f0000a05e800020039003420ec000af0a000f0
:100500008b05e900f9ff3e00040037006168e10057
:10051000010032000086eb000b00070019c7ba008b
:100520001905ba000e04e00003003a000a00e000da
:10053000dbff3a0000000600fe07b200ae028800b2
:100540008a047800f5ff37000cd0a300e20f4d00bd
:100550001c00390089027800354dba000a05e80010
:10056000020039003420ec000af0a0008b05e900fd
:100570000f003200254dba000a05e80002003900dc
:100580003420ec000af0a0008b05e90008003200de
:100590000c00e0000600320015cdba000a05e800a4
:1005a000020039003420ec000af0a0008b05e900bd
:1005b0008984e80054a0b4000b00e000e2ff3a0098
:1005c000000006009902ba00055d78008b05e9007d
:1005d000f7ff3200c82ade00055d78008b05e900d0
:1005e000f3ff32000c00e000f1ff320019ddba0029
:1005f000eeff3700000000000000000000000000d7
:100600000000000000000000000000000040da00d0
:100610000000fe000a00fa0011002000b1bf9f0098
:10062000c0bf9f006a805700140b07004fb89700a7
:100630000080fa00000006000a00fa00e20f5000f5
:100640001f003e0000928000e10f500006003200c3
:1006500080232000452320002323200004232000a2
:100660000000e00004003a00802220004522200023
:1006700023222000042220000600280094036300a7
:1006800002003a0007087800140a730013a8a300b8
:1006900001003a0013a0a000020078000500370016
:1006a0001388a300feff32003102fb00840a7800a9
:1006b0000000e9000000e000f9ff3a000800370000
:1006c00033002000b3bf9f00c0bf9f00d1bf9f0079
:1006d000e2bf9f006a805700ea0a07006fb99700df
:1006e000020078000080fa00000006000a00fa000c
:1006f00051002000b1bf9f00c0bf9f006a8057001b
:10070000e20a07005fb897000080fa0000000600c8
:10071000889fbe0080047800109280000000e000f6
:1007200004003a000e0007000084eb000000e00027
:1007300008003500189280000900e0000500320032
:1007400009004400060007000000e00001003d0031
:100750000084eb00080078004f04be000000060093
:10076000800078000100e00003003a000000200053
:1007700010928800000005000080eb0002002000bd
:10078000828f500002003e00119288000000eb00b2
:100790000000060000000500839f68000100e000e3
:1007a00002003d0060001000e08018000300e0003f
:1007b00002003d0060011100e08119000500070002
:1007c0004f00e00002003b0060001000e0801800d5
:1007d000000006006022b800060220000000d000e1
:1007e0008180d2000482d2008582d2000000a00065
:1007f0000202520083825a000300310002024200ca
:1008000083824a000000a1000603e900f3ff3a00da
:10081000000006000112210037023700889fbe0049
:1008200000047800010078008204780088017800d4
:1008300009017800110020009f020700890f500075
:10084000010032000004eb00080078004f04be00f5
:10085000000006000000fa00e88157004fb9970039
:1008600001122100e0402000020007000080fa0091
:10087000000006006200fa00889fbe008a1f780010
:100880000005780081047800020478008300780075
:1008900080f92f000f0040004a0207009a979f003e
:1008a000a9979f000000eb00b09f9f001885fb00f8
:1008b0008a04fb000a05ea004f55de0050022000c2
:1008c000808f54000d003200e10f55000b003a00fc
:1008d0000a017800880078002f9097009f91970078
:1008e00003000100a0979f000000e0008e0032008e
:1008f0003f9897000000e800b09f9f000a04440062
:1009000050022000808f5400040032000900e000f3
:10091000e6ff3a003f989700840037000000eb00a4
:10092000909f9f00809f9f00f0979f00e0979f00ff
:10093000d0979f00c0979f00070037000123210038
:100940000100500000004000412221008080400052
:100950005f98970011007000d09f9f008804780076
:1009600009047800384578008a00fb000023210044
:10097000070207000000e000f0ff3a00a1c2b30048
:10098000814f55000e003a00cf8897000180e900a2
:10099000c08f9f0010007800c09f9f000000e00003
:1009a00005003d000000ea00c09f9f005f9897008f
:1009b0000020a000d09f9f000904e8000f0037002e
:1009c000c09f9f000000eb0005003700f2ff2700ea
:1009d000820f500002003200ea00b900008040009f
:1009e0000904780088047800b900fb000103b10015
:1009f000e98f5000f5ff3600c09f9f00e0c2b300b2
:100a0000984f1000020032000080eb001900370000
:100a1000a0c2b300d84f100007003a00cf8897005b
:100a20000180e900c08f9f0010007800a09f9f0008
:100a30000804e800100037000000eb00a09f9f00b2
:100a40008800780005003700f3ff2700830f50006f
:100a500002003200ea00b900000041000104780001
:100a6000880078003101fb000203b100e90f51005a
:100a7000f5ff3600a09f9f00984478008900fb0096
:100a8000c0212100c20107000000e0000200320086
:100a90000804e800010037008044eb00c97f9f0094
:100aa00080c6b30080cf540004003a0098cf1400f1
:100ab0000a003a006640500006003700c0c6b30086
:100ac00080cf540005003a0098cf140003003a008c
:100ad00065404000c07f9f000804e800e3fb2f0052
:100ae0008f8141001841780081f92f008f804000ec
:100af000a0f92f000f004000100007000000e000e8
:100b000009003a00e1fb2f008f804000a0f92f0080
:100b10000f004000f40507000000e000020035006f
:100b20000804e80061ff37000080eb004f05780003
:100b30004f04be000080fa0000000600889fbe003f
:100b40008a1f78000004780082447800030578004a
:100b500070c6b30080cf540021003c0000c0e90003
:100b600080cf5400d4003d007240500080cf54002c
:100b70003e0132000d003c006c40500080cf54001c
:100b800051013c0000c0e90080cf5400ca003d0084
:100b900050c2b30080cf5400480132007c40400076
:100ba00080cf540048013a00c300370010c6b3009c
:100bb00080cf5400c000320004003c006940500067
:100bc00080cf540040013a006b00370030c6b300bc
:100bd00080cf5400180032000040e80009003700c0
:100be00000c7b30080cf54001201320008003c005f
:100bf00000c0e90080cf5400db0032005e003c0002
:100c00006540500080cf54002f013a00100037009b
:100c100050c7b30080cf54005700320063404000fb
:100c200080cf5400540032006540500080cf540003
:100c300025013a000d0137001181e9008208780092
:100c40007800900000054500124d7800240137001f
:100c500028609000c2c6b300824f500007003a00df
:100c60001101780064005100800878001000be0077
:100c70004f89de00820178001100370012c7b300ef
:100c8000824f500003003200a2c6b300824f5000d2
:100c900006003a00110178006800510080087800d1
:100ca0005001be004000be00050037001180e90081
:100cb0008008780010007800cf80de006109b9005c
:100cc000009cbe000294be002862900085c6b3005e
:100cd000854f52000d00320025c6b300854f5200eb
:100ce00004003a000000fb00cf80de006109b9007b
:100cf0000800370045c7b300854f5200030032009b
:100d0000e6c24200854f520004003a00cf80de0068
:100d10006109b900009cbe000294be003802be000a
:100d20002803be0078009000e00f5200e08f5a00c8
:100d3000e00f5b00e08f5b0003003d00800045009a
:100d4000d2c2b3000a003700881090000118a30037
:100d50000300320080004500b2c2b3000400370037
:100d60000108a3004f0032008000450002c2b3001a
:100d7000824878004900370028609000c2c6b3005e
:100d8000824f500006003a001101780064005100c3
:100d9000800878001000be006011b8001100370014
:100da00012c7b300824f500003003200a2c6b30046
:100db000824f500006003a0011017800680051008f
:100dc000800878005001be004000be0005003700da
:100dd0001180e90080087800100078008000eb00a6
:100de0006011b800009cbe000294be002862900012
:100df00085c6b300854f52000d00320025c6b300f2
:100e0000854f520004003a000080fb008000eb0098
:100e10006011b8000800370045c7b300854f520085
:100e200003003200e6c24200854f520004003a003f
:100e30008000eb006011b800009cbe000294be0070
:100e4000081090000038a300160032003800be00e1
:100e50002801be00e00f5000e08f5800e00f59005d
:100e6000e08f59000f00320080c7b30080cf5400dc
:100e70000300320080c5b30080cf540009003a005f
:100e8000780090008000450002c3b30082487800db
:100e90000000e80080004500894878000000e80074
:100ea0007004980078009000000545006a049800de
:100eb000894078006a00370028619000c0c4b30000
:100ec000804f510006003a0011017800680051007f
:100ed000800878005001be004000be0005003700c9
:100ee0001101780064005100800878001000be00f5
:100ef00091090700009cbe000294be00b80090005b
:100f0000780090000100e00003003d0080004500f3
:100f1000d2c2b3000a003700881090000118a30065
:100f20000300320080004500b2c2b3000400370065
:100f30000108a300050032008000450002c2b30092
:100f4000824878000000e800700498007800900063
:100f5000000545006a049800894078000800780080
:100f6000870107006000370028619000c3c6b30006
:100f70001180e900834f5100220032000a003c003a
:100f8000e4c15100834f51002500320083c1e800c5
:100f9000834f510013003200e8c15100834f5100cc
:100fa0001e003a000a00370043c7b300834f5100c8
:100fb0001b003200e6c14100834f5100180032008f
:100fc000e9c15100834f510014003a000500370079
:100fd0008008780010007800485c9000084878008d
:100fe000410037008008780010007800680a9000ff
:100ff000cfa2de00612bb9000498be000690be00af
:1010000039003700800878001000780068099000e7
:10101000cf91de000288be00330037001180e90066
:101020008008780010007800680c900008087800ac
:101030002d0037001180e90080087800100078004a
:10104000cf80de006109b900009cbe000294be00a2
:1010500078009000000545006a04980081c7b3003d
:1010600008007800690307001f0037001180e900bd
:1010700080087800100578006a049800d80c900069
:101080000900e00004003d000a007800ef000700be
:101090008004780007003700090178008000eb0029
:1010a0000a007800d80007000000e00001003200cc
:1010b0008a045000190c98000b003700780090004b
:1010c0000005450005003700780090000005450048
:1010d0000904e00001003a0059c2b300094d78004c
:1010e0000000e800700498000000eb004f05780055
:1010f0004f04be0000000600889fbe008a1f7800d3
:101100000004be00c900900069009000808f50006c
:101110000500390009007800d20007008080eb004c
:101120000000e000160035000845780049009000f6
:1011300008587800c00498001900780000b8a3008f
:1011400004003a0000a8a30007003200ea4f540050
:1011500005003a00090078001c0007008080eb00c1
:101160000000e00006003a0000c020001900600006
:101170000200320049009000e00498008a80fb00e1
:10118000010078004f0578004f04be000000060003
:101190008001eb00030037008301e8000404e00055
:1011a000050032000301400012427800814f5200d6
:1011b000f9ff3a00010037000001eb00020078005f
:1011c000000006000108780000000600889fbe00ad
:1011d0008a1f7800000478000800e0000d003a0043
:1011e000e8162100700544008004eb0058007800e8
:1011f0000000e00004003200f4ff07000000e000ff
:1012000001003d008084eb008a0f5400f7ff3a0094
:101210002500370000002200180060008004eb0069
:1012200021003200a80490000f003700090151008e
:10123000384090000000fb0089007800fefc0700a9
:101240000000e00007003c002800900040049800e7
:1012500060049800500c98001890a0008084eb0067
:10126000110037008084440048019000828f5400b0
:10127000eeff3900280090004004980098007800a4
:1012800002c020000281600001003a003800900096
:1012900001e8a3000200320060049800010037005a
:1012a000500c98008004eb00090078004f0578008e
:1012b0004f04be0000000600889fbe008a9fbe004b
:1012c0008c9fbe008e1f7800000678000104780015
:1012d00002007800830478008881b9000207780052
:1012e0000e00e000420032000800e0004100320041
:1012f0008e057800c900900069009000808f500032
:101300000400390009007800560007000000e000e2
:101310002900350000402000190060000a0032005a
:101320000b017800a10020000c00780036000700b7
:10133000800678000d00e00006003200610516000e
:101340000a854600040037000b0578008006eb0094
:10135000010037000b05780049009000e90090007b
:10136000808050008a8f5000020031000105780013
:101370008006eb000a0178008c0078002c00070042
:101380008a855500490090000a004000c00498007a
:101390000d00e00004003200090078008bff070018
:1013a0000000e00004003a000b00e0000200320000
:1013b0000a064600cfff37000080200019006000b9
:1013c000020032000900780080ff070000c0200002
:1013d000190060000200320049009000e00498000b
:1013e0008b055700110009008885d80001003700df
:1013f0000000eb004f0778004f06be004f05be000f
:101400004f04be000000060003003700b0cf1000fc
:10141000050032000201e900800178000200e000ce
:10142000faff3a0000000500030078000000060003
:101430008001780002003700b15978000201e9000c
:101440000200e000fcff3a00000006008000780087
:10145000010178003104e000fdff3a000000510076
:1014600000000600889fbe008a1f780000047800f4
:10147000c8009000680190000000eb00828f5000cf
:101480003c003900180078002200290002016000a9
:10149000e20f510007003200012024000000e000ac
:1014a00001003d0001202000008c70000080eb0056
:1014b000300037000200260002006000820f50005a
:1014c00009003a0038009000808f50000600390073
:1014d000080078003dff0700800078000080eb00e6
:1014e0000100e00023003a001805780000c0200049
:1014f0000000650018003a00a80490006002200077
:1015000008004000808f540013003a0000202000a3
:10151000e3050700200498000000e00005003a0001
:1015200029049800490498008904e80039049800c7
:10153000080037000a60a0000a0c780040049800f8
:10154000012020008080400031049800400c980069
:10155000500c9800220407002800900050049800c6
:10156000380090006004980000002600180c7000fd
:101570000000eb004f0578004f04be00000006009d
:10158000cf04b000889fbe008a9fbe008c9fbe0023
:101590008e1f780000067800814678003c00be006f
:1015a0002c01be00d0979f00e1979f00f2979f000b
:1015b000839f9f0010c6b30080cf560012003200f8
:1015c00010c4b30080cf56000f0032005c089000ba
:1015d0000000e00002003d0060002000090037002c
:1015e0000000e00008003a0070c6b30080cf56004b
:1015f0000300320070c4b30080cf560002003a00ee
:1016000010002000500e98008c00780080fa2f0007
:101610000f004000d3010700e20f50000f003a0016
:1016200030002000100e98000018210011c6b300f1
:1016300081cf560019003200e4c0400081cf56002f
:1016400016003200401821008140e80081cf56008a
:1016500012003a0000182100100037000000e000de
:101660001400340030002000100e98008018210073
:1016700011c6b30081cf560008003200e4c040001c
:1016800081cf560005003200c01821008140e800db
:1016900081cf560001003a0080182100ec00900034
:1016a000b0487800b068780010407800904098000a
:1016b000a601370011c6b30081cf560003003200e7
:1016c00011c4b30081cf56000e003a00ec00900028
:1016d00002c3b300825878006106980082c5b30047
:1016e00013c6b30083cf560001003a0082c7b3008f
:1016f0008258780061069800fc0090008180e80024
:10170000710698000000e00005003a00c0979f00b5
:101710008001eb0022fb2f000f0141008701370001
:1017200010c6b30080cf56000600320010c4b300cc
:1017300080cf56009a003a00111a2100d1b79f00bd
:101740000200370002192100d2b79f005c08900008
:101750001b0220000000e000010035008005e800c9
:101760000b05e8006022b8006033b8005f90970076
:10177000ef9097007f9197008f999700c50607001b
:10178000000278003c00be002c01be000400e00016
:1017900001003d0003f0a200d0979f00e1979f0059
:1017a000f2979f00839f9f00cf919700e4815100a3
:1017b000c3979f000040eb00a0779f003efb2f00e7
:1017c0000f07470031003700c2012000030020004e
:1017d000a0fa2f000f004000510407005f9097000f
:1017e000ef9097007f9197008f99970090b79f0097
:1017f000a1b79f00b2b79f00c3b79f006d07070056
:101800000004be00670555004240a9000c003400ea
:10181000940707000002be000203be001fb097003d
:10182000afb097003fb19700cfb197001a080700fb
:10183000d0979f00e1979f00f2979f00839f9f00a2
:101840006707470070002000050037006f676400dd
:10185000cc48dd004444de0008847000c4ccde00c7
:10186000e00f5400e08f5c00050034000000e90048
:10187000e10f4000f5ff3a00010037000067eb0080
:101880000000e900fdff3b00670747000a00e00099
:10189000090034006022b8006033b8005f90970000
:1018a000ef9097007f9197008f9997007e06070031
:1018b0000000e000c4ff3c0032fb2f000f0141009c
:1018c000020757008e0178008b0f5700010034008b
:1018d0008b0178000300e0002b0035000040eb0096
:1018e0008e8f51000a003d0082fa2f000f01410047
:1018f00003004100b0489000f0c0b300e7cf5000b3
:1019000003003c000040eb0001003700810178003b
:101910008300e90034fb2f000f0242000101420066
:1019200012427800804f5200f8ff3200ef4f500013
:1019300001003a000449e8000100e00007003d0012
:101940008301e800cf929700e4824200c5979f0090
:1019500022fb2f000f0141000200370032fb2f0055
:101960000f014100830041000300780004003700ac
:101970004102fb00dfb297000482420094487800e5
:101980000000e900faff3b005c0890000000e00066
:10199000ea003d000300e900500e9800e700370020
:1019a0005f949700ef9497007f9597008f9d970025
:1019b0006022b8006033b8000800be000a01be0013
:1019c000340607000000e00005003d000bf0a20017
:1019d000d8979f00e9979f00fa979f008b9f9f00e1
:1019e00070592700cf9097000088b900026a28003c
:1019f0001300200068fb070064045000c8979f0094
:101a000015003b0063041400c0ff2f0000046400b5
:101a10000800ea00c0979f005f909700ef90970042
:101a20007f9197008f9997002a1b210007003700ac
:101a30000808a300030032003a02be002a03be00d9
:101a4000200707000884d100680545000800e00071
:101a5000f7ff3c001a0037000800e0001c003200cd
:101a6000c0ff2f0000046400c8979f002a1b2100bc
:101a70006000b8000200200003ff230007003700c9
:101a80000808a300030032003a02be002a03be0089
:101a90000c0707000884d100680545000800e00035
:101aa000f7ff3c000002be000203be005f909700fb
:101ab000ef9097007f9197008f999700ff0507009f
:101ac000d0979f00e1979f00f2979f00839f9f0010
:101ad0005c0f900060c6b30080cf56000400320057
:101ae0006000200061c4b30081cf560002003a00bc
:101af000cf9097006a8040000e074000f30f570018
:101b0000010034003e01200000c3b300a0779f0015
:101b10003bfb2f008f854500350037005fb09700f5
:101b2000efb097007fb197008fb99700a10607002b
:101b30000004be00680757004240a90010003400ae
:101b4000c80607000002be000203be005fb0970097
:101b5000efb097007fb197008fb997004e0707004d
:101b60006022b80046782d0077192400d5060700ba
:101b7000d0979f00e1979f00f2979f00839f9f005f
:101b8000e88545008a0020000801be000c003700ef
:101b9000a400200005002000a0fd2f000f00400041
:101ba000f10207005fa89700efa897007fa99700b0
:101bb0008fb1970004c3b300846541000001be00eb
:101bc000e00f5100e08f5900060034000a05e900db
:101bd000e10f4500eeff3a000200370000c3b300fa
:101be000806578000a05e900fcff3b00e8854500b8
:101bf0000e00e0000d0034005f909700ef9097001a
:101c00007f9197008f999700d0b79f00e1b79f0011
:101c1000f2b79f0083bf9f006022b8006033b80016
:101c2000a10507000000e000bcff3c0031fb2f00d5
:101c30008f804000818555004f91970067004100db
:101c4000c0979f00020037008b05e9000000e90003
:101c5000010178008200780003c3b300b1cf110006
:101c6000f9ff3200c0979f00dc09900061c6b30005
:101c700081cf56000300320061c4b30081cf56000b
:101c800002003a000000e8000900370010002000c0
:101c900051c6b30081cf5600050032000d407800d8
:101ca00050c4b2000080fb000000e9004f00de00dd
:101cb000830140008b8f5100010034008b017800bc
:101cc0000300e0001d00350000c3b3008b8f5100fe
:101cd00006003d00030241006940400041c3b300db
:101ce00094cf100001003c00694050008300e900df
:101cf0008100410001003700840178000302e900ff
:101d000001037800a142780080cf5200faff320030
:101d100091c3b300814f500001003a00054be80029
:101d20000400e00005003d000201e9008301e80035
:101d30004f9297000402e800c4979f004f929700cb
:101d40008d4078000c007800ff0307004f077800f3
:101d50004f06be004f05be004f04be00cf04b100c9
:101d600000000600889fbe0000047800e684400062
:101d70001900d0004500de00f27f2000820f5000e5
:101d800010003a00000ceb00990478006f816400a9
:101d9000200020001b003a00210190000200e0001a
:101da00018003a00110190000200e00015003a000e
:101db000100020001100e00012003200200020007e
:101dc000100037000000e00004003a000100780035
:101dd000870207000000e00008003c00f200280035
:101de0001901610001fe2300810c710021c02f0048
:101df000010c40000080eb0002003700000ceb00fb
:101e00000000eb004f04be0000000600fc87470006
:101e1000889fbe008a9fbe008c9fbe008e1f7800e8
:101e20000006780080c5b30080cf50000a00320061
:101e30007740400080cf50000a00320069404000e7
:101e400080cf50000b003200b020210080bf9f00e7
:101e5000ae0020000a003700a21f210082bf9f00b1
:101e600006003700b320210083bf9f008e002000b2
:101e700003003700b420210084bf9f000e01200022
:101e80003c02be002c03be000605be000404be00da
:101e900040c6b30080cf50000300320065404000d0
:101ea00080cf50000b003a00e00f5200e08f5a0044
:101eb000e00f5b00e08f5b0006003d006000b800b3
:101ec0006011b800040450008584580006055900cc
:101ed00087855900e80f57000400320040002000b9
:101ee000f00f57003a003a000100370030002000a0
:101ef000e00f5400e08f5c00e00f5d00e08f5d00bc
:101f000004003a00dc0890008d0120000100e00090
:101f1000070032008e00e900888060008fba9700c9
:101f20008180420091407800f1ef9f007d01200008
:101f3000800078008100e900050033008b05d100a6
:101f40000a85d3008984d3000884d300f9ff3700c1
:101f5000089ebe000a96be00130037008d06e900f9
:101f60008e00e900848060000fb997008100410075
:101f70001141780083fd2f008d81410082f77900a7
:101f8000800178008301e900050033008783d100d8
:101f90000683d3008582d3000482d300f9ff370083
:101fa000049ebe000696be003c02be002c03be008e
:101fb000e00f5200e08f5a00e00f5b00e08f5b0003
:101fc000910034000d00e000e4ff3c008e0037007b
:101fd0002c60900081c6b300814f50000b0032008e
:101fe00006003c000004e00008003200e6c050009b
:101ff000814f500052003a0004003700c1c6b300c0
:10200000814f50004e003a00230037000800e000e6
:1020100004003a005c0890008d0120000000e00000
:1020200007003200110009000e84d8000fba970093
:102030000100420010407800f0ef9f007d01200079
:10204000110009000e84d8000b00370011000900b0
:102050000e04d8008d06e9008e81b90002045400f8
:102060008fb89700088440009841780082fd2f00c7
:102070000d01410083777900000478000800e0003a
:10208000020032000d00e000f0ff3c00cfc4de0093
:10209000614db90027003700e00f5400e08f5c006d
:1020a00004003a005c0890008d0120000000e00070
:1020b000080032006171b9000800be00f805070091
:1020c0000fba97008000420091407800f1ef9f0026
:1020d0007d0120006171b9000800be00bdf9070054
:1020e0000c0037006171b9000800be00aaf90700b2
:1020f0008d06e90080f1b900020454008fba970000
:10210000088442009841780082fd2f000d014100b3
:10211000837779000004be00e00f5000e08f580084
:10212000020032000d00e000eeff3c004fcdde006b
:102130008a057800089ebe000a96be00320037006d
:10214000e00f5400e08f5c00e00f5d00e08f5d0069
:1021500004003a005c0890008d0120000000e000bf
:102160000a0032006172b900612bb9000800be009c
:102170000a01be00730607000fba970080004200f4
:1021800091407800f1ef9f007d0120006172b9005d
:10219000612bb9000800be000a01be0062060700fc
:1021a0000e0037006172b900612bb9000800be0053
:1021b0000a01be00670607008d06e90080f2b9003b
:1021c000040454008fba97000884420098427800b3
:1021d00084fd2f000d02420085777a00009ebe002c
:1021e0000296be003c04be002c05be00e00f540069
:1021f000e08f5c00e00f5d00e08f5d0002003400c6
:102200000d00e000e7ff3c00e80f570010003a0027
:102210000c1090000038a3000d003200f78f56001c
:1022200006003e0080fd2f000d004000ef407800ca
:1022300000c3b30080cf50000500320002c3b300da
:1022400071fd2f008d8040008d06e90082f7780037
:1022500078811600120e98006c00900083fd2f000c
:102260008f8141008d80410071fc07001c089000a7
:10227000dc089000810f500006003d0000805000f7
:10228000000e98000c1090000040a100001698006d
:102290000f0037000100e0000d003d008c109000a1
:1022a000f4806000f08f500009003a007c09900033
:1022b000fc009000810051000c09900082805000c9
:1022c000008050004240a90001003400000e980038
:1022d0004f0778004f06be004f05be004f04be00fa
:1022e000cf01b100000006000400fa00889fbe0084
:1022f0008a9fbe008c1f78000004780001067800d9
:10230000f80d900078009000808555000808900036
:102310008085550018089000808555002808900099
:102320008085550038089000808555004808900049
:10233000808555000002220090bf9f00000323000b
:10234000a0bf9f00081090000028a30015003a00cd
:102350000b00e000130034000b0578008a047800bd
:10236000e20f55000100360029002000c80190004e
:1023700009017800ee80570058009000030001002a
:10238000500498000000e0008c00320068089000c3
:1023900009004000600c9800090555004240a90062
:1023a000eeff3c00780190000200e0000c003400d9
:1023b000c80190008c0078005800900003000100d4
:1023c000500498008080eb000000e0007c003200a8
:1023d000e80890007800900000804000600c9800b1
:1023e000880c90000900e000110034000905780015
:1023f000e28f5400010036002a002000c80190003e
:102400000a017800ec80570058009000030001009a
:10241000500498000000e000680032006808900056
:102420000a004000600c98008a845400edff3700d9
:10243000180990000200e0000c003400c801900070
:10244000e80090005800900003000100500498003c
:102450008080eb000000e00059003200e8089000a6
:102460001808900000804000600c9800a80c9000b4
:102470000900e0001100340009057800e28f5400e3
:10248000010036002a002000c80190000a017800ef
:10249000ec805700580090000300010050049800a1
:1024a0000000e00045003200680890000a0040008b
:1024b000600c98008a845400edff370038099000c2
:1024c0000200e0000e003400e800900018089000c0
:1024d00080804000c8019000580090000300010077
:1024e000500498008080eb000000e00034003200cf
:1024f000e80890003808900000804000600c9800c8
:10250000c80c90000900e0001100340009057800b3
:10251000e28f5400010036002a002000c80190001c
:102520000a017800ec805700580090000300010079
:10253000500498000000e00020003200680890007d
:102540000a004000600c98008a845400edff3700b8
:10255000081090008000eb000028a3001800320053
:102560000b00e000160034008b04780009057800a9
:10257000e28f5400010036002a002000c8019000bc
:102580000a017800ee805700580090000300010017
:10259000500498000000e000080032006808900035
:1025a0000a004000600c98008a8454004240a90050
:1025b000eeff3c008000eb00010037008080eb0064
:1025c000010078004f0678004f05be004f04be00a2
:1025d0000080fa0000000600203921007700370053
:1025e000881f7800a82321001804e00003003a00a7
:1025f000f9ff070020c0b300004c78004f047800ba
:1026000000000600889fbe000004780008007800e3
:10261000eefa070080047800000420001800600033
:102620000200320028009000380107000000eb0093
:1026300020049800384090000004e00005003500b8
:102640000000fb00f3f707000000e000010032008b
:102650008084eb00181090000000e00008003200b9
:1026600022f807000000e000010032008084eb0047
:1026700018109000250107000000eb0010149800ce
:102680000008200018006000150032000001eb0077
:102690006000b8000202d0000317210003024200cc
:1026a000940f140005003a000000400081804800ab
:1026b000008041000008eb00060037006100400088
:1026c000e08048000201e800e80f5000e08f580069
:1026d000f0ff3a00080078000c0107000e003700f8
:1026e000000c780000c0eb0030449800600220002d
:1026f000080040002004980040049800500498000e
:10270000400c980060049800500c980070049800e9
:1027100076004400000c9800090078004f04be00c9
:1027200000000600881f78000004eb006140b8003c
:10273000e2ff2f00f3ff2f005c040700e2172100e7
:1027400080004100110078000000e000010032002c
:10275000acff07000804e800e80f5400f3ff3a005c
:102760004f04780000000600881f78008a9fbe0092
:102770008c9fbe00000478000205be000406be0067
:102780000401be000a00be0003f80700008cbe0072
:102790000c01be00450407000005550081855d0061
:1027a0002a0498003b049800080078004f06be00f9
:1027b0004f05be004f047800000006000100200015
:1027c0000100e00009003200010080000100e0008b
:1027d000060032008100e900010088008100d0007d
:1027e000020080008280400080087800000006001f
:1027f000e600400011017800050028008502610014
:102800006f0161008208780002003200120020008f
:1028100011003700a0019000120020000300e0002a
:102820000d003a00900190000300e0000a003a0019
:102830001000e00008003a00360037006403400052
:102840009608780080017800530b78009009780092
:102850000408780070015100110278000400e000c3
:10286000f6ff3200130037006402400014037800c2
:102870004f33de00838141008308730080017800bc
:10288000d3037800cf3bde00140378000603430037
:10289000068a7300130278000402420010037800d5
:1028a0004f33de00860972009001780003884100f2
:1028b0000201e90091017800ef8f5100eaff360034
:1028c0001000370080017800530378004f33dd009b
:1028d0001002d100040873006402400094037800e1
:1028e000cf3bdd001303d10086897300110378000c
:1028f0004f33dd009401d100030a73009108d10029
:102900000201e80091017800ff8f5100edff3e00c9
:10291000ef886100918872000200780000000600d4
:102920000400fa00889fbe0000047800e60444001a
:10293000190078008000d000c508de00f47f200078
:10294000848f50000e003a00ef006000200020004d
:102950006b003a00a80090000100e00068003a0017
:10296000980090000100e00065003a00100020008f
:102970001800e000620032002000200060003700f4
:102980000100e0000a003a0008007800c2bf9f0082
:10299000d3bf9f0096ff0700800078000000eb0087
:1029a0004fb99700dfb997000100e00054003c00e8
:1029b0004f88de000281400083014800e07f200054
:1029c000800f5100e08f59000d0034001900e00025
:1029d00004003d006000b8000200200003ff2f004b
:1029e000030037006000b8000200200003ff27004a
:1029f000009cbe000294be00100020004000370082
:102a0000e00f5100e08f5900050034004411dd0053
:102a1000f000280019006000800c710037003700ba
:102a20001900780004002800040260006f006000b4
:102a30000040a000800c7800d0fc2f00f1ff2f0098
:102a4000800f5100818f590006003d00840c7800f2
:102a50000000eb002004980010049800000ceb002c
:102a6000270037006f01410006003700080078009a
:102a7000500c7800e40044001108780099087800b0
:102a8000800ceb00700051007001410001fe2f002e
:102a900082804000ef8f4000f4ff35000000ea0024
:102aa000150032008800780070011000d102780013
:102ab000822add00980178008019de00038c720004
:102ac0006404440098027800822add0091017800b5
:102ad0008019de0083887200990078000209dd0009
:102ae000980078008008de00010c710099007800e1
:102af0000008de00800c7800990c72000080eb006a
:102b00004f04be000080fa00000006000000e00054
:102b10002f003200c0017800e38f51002c003600f6
:102b20000308a3002a003a00c19180000100e000e0
:102b300002003200810f50000400310011009800a3
:102b4000c0918800160037008200780011019000c3
:102b50000200e00002003200800f5100faff39004d
:102b60001102780084824000850f5000180039005f
:102b7000808f520003003a00830842000100780071
:102b8000070037000200e00003003200830140002c
:102b9000830f51000e003900120098009000980039
:102ba000900090000100e000090032001001400098
:102bb000828f500006003a00622321000009eb00da
:102bc0001001780011084100910090001100980058
:102bd00000000600889fbe0000047800b1918000cc
:102be0000100e00002003200010078000d00370013
:102bf000c19180008023210004003700910f540010
:102c0000250036000180e800910090000100e000fe
:102c1000faff3a0010003700920f54001e003600f1
:102c20000280e800100178000200e000faff3a009c
:102c300011017800c1918000802321000400370039
:102c4000910f5400140036000180e80091009000bc
:102c5000828f5000faff3a00e9918000888f54007b
:102c60000100310088047800090078006e01070037
:102c70000000e00004003a00888f54000500320094
:102c80008904d100f5ff3700091878009fff07007d
:102c9000d2ff37000000eb004f04be00000006002a
:102ca000881f7800630440000800a1008000eb004a
:102cb000800f540021003600e30f540001003e0055
:102cc0004800200008007800c2ff07008000eb00e9
:102cd0000000e000190032009000780091017800b7
:102ce00064815100880f51000300310011019000f0
:102cf00002087800070037000881400002087800c9
:102d0000910190001301980010017800110914003e
:102d100088087800100178000000eb000200e00055
:102d200004003200920190000300e0000100320034
:102d30000280e800b09188008180e80001007800fe
:102d40004f04780000000600f0874700889fbe000f
:102d50008a9fbe008c9fbe008e1f78000004780002
:102d6000814478000205be00040678000b00e000f4
:102d700002003c001b002000ea23210060c6b300d3
:102d800080cf54000e00320060c4b30080cf5400e6
:102d90000b00320070c6b30080cf54000300320035
:102da00070c4b30080cf54009d003a00e40f460089
:102db0008300350058089000800f560080003d00c9
:102dc0000c06e80060c6b30080cf5400100032004b
:102dd00060c4b30080cf54000d0032000810900092
:102de0000038a30004003a0058089000808f550076
:102df00001003d005b0c9800580890000c0050004a
:102e0000500c980002003b000000eb00500c9800b2
:102e100098089000680090000c00e00028003c003a
:102e20000100400002c3b300024878008100e800be
:102e3000110c9800580890000000e00003003c00ce
:102e4000081090000038a3000600320068009000cf
:102e500001004000e2c2b300024878008100e800af
:102e6000110c9800580890008c00ea00810f500067
:102e700001003d000006ea008c00ea00210c9800e9
:102e8000000646005c0c98008b0f560001003400d1
:102e90000b0678003c0c9800e800900018089000a1
:102ea000008040000c0178008a00780060f907007b
:102eb000580890000c0650004c0c9800c2003700d7
:102ec0008c8f550019003d00010040000b01780077
:102ed0008a00780056f90700180890000080450025
:102ee000100c98008b0556002b0c9800d808900009
:102ef0000100e00003003c00881090000138a300ae
:102f000007003200e800900000804000e1c2b300fa
:102f100001487800380890000000e800300c980064
:102f200058089000400c9800a700370001004000ae
:102f30000c0178008a0078003df90700180890001d
:102f400000004600100c98008c855500d8089000b1
:102f50000100e00003003c00881090000138a3004d
:102f600006003200e800900080804000e2c2b3001a
:102f7000824878000000e800100c98005808900083
:102f8000808f55000100340080057800e800900033
:102f900018089000008040008c0045000b0178006c
:102fa00023f90700180890000b004000100c98004f
:102fb000580890008b0550002b0c980082003700b9
:102fc00070c6b30080cf54000300320070c4b30059
:102fd00080cf540012003a0058089000808f5500ae
:102fe00004003d00081090000038a30001003a00e2
:102ff0005b0c9800580890000000e900500c980005
:1030000002003b000000eb00500c980070c6b300bb
:1030100080cf540009003a0059c6b3000c003700b5
:1030200010c6b30080cf54000600320010c4b300b5
:1030300080cf540006003a000400370059c4b300a2
:103040000300370009c7b3000100370009c5b3000a
:1030500018089000e8009000808040009a487800ae
:103060000000e800100c9800d80890000100e00073
:1030700003003c00881090000138a30006003200d5
:10308000e800900080804000e2c2b30082487800ef
:103090000000e800100c9800580890000000e000c4
:1030a000100034008b05e900808f550001003400ca
:1030b00080057800e800900018089000008040002b
:1030c0008a00e8000b017800d9f807001808900082
:1030d0000b004000100c9800580890008b05500021
:1030e0002b0c9800e8009000180890000080400029
:1030f000095878000005e8000c00e00004003500e5
:10310000b1c2b300014878008a0678000400370095
:10311000d1c2b300014878008a0678000c06ea00a4
:10312000fd8557000007eb0009003700a2002000d2
:103130008c00780072805700450007007fb0970030
:103140008fb89700816d7800000678000e07e800c0
:103150000c00e000f5ff3c00e10f570013003c00bd
:1031600050c6b30080cf54000300320050c4b300f7
:1031700080cf540003003a008a06780000c3b300f1
:10318000805e78000e00e00008003a0000c3b30043
:10319000805e7800050037000e07e900fc805700cc
:1031a0000e80400001c3b30090de40000e00e0003e
:1031b000f9ff3c00e80090001808900000804000f3
:1031c000808656003d0c9800081090007400600046
:1031d000f00f50000e003a00980890007800900020
:1031e00000804000a808900001004000b80890004e
:1031f00001004000c808900001004000f80890005d
:10320000810f500002003d0000805000000c98002b
:103210004f0778004f06be004f05be004f04be00aa
:103220000f01b10000000600800078000000eb00f4
:103230000100e000050034000100780034f50700cb
:10324000e10f400001003a000000eb000000060022
:103250008002780001037800110009000203d80001
:1032600080017800830a78008299b90082005300b7
:1032700091029800050078000000060000c0da0006
:103280000000060000c0da000000060000c0da00fe
:10329000000006008f1fd100090307008f87e90097
:1032a0000000e00000000600809feb000403070020
:1032b0008f87e9000000e000000006002800fa0007
:1032c000889fbe008a9fbe008c9fbe0003866b0055
:1032d000800007006400e100440032006408e1005f
:1032e0004a0032006100e100460032006108e1005e
:1032f00049003200ec0647006000b8003d02be0005
:103300003d03be00f48657006011b8003d04be00c6
:103310003d05be007d0320000b0037000000a0002b
:103320008d06e900130032000402420085824a0043
:1033300006034b0087834b0000004000818048005b
:1033400002014900838149000802520089825a0023
:103350000a035b008b835b00f0ff3b000802420026
:1033600089824a000a034b008b834b008d06e900db
:10337000edff3a008482720086827200f707b20085
:103380008782720001003200150020001e049000a8
:103390003e0b900006035400e63fb0000368a30014
:1033a000070032000000a7000500a0008301d10043
:1033b0000281d3008180d3000080d3000603e8009f
:1033c0008301d1000281d3008180d3000080d3002b
:1033d0000002eb000482d2001200070003f0a100fb
:1033e0000cf0a70003f0a0004e0037006402470075
:1033f0006408e100480032003400be003401be0021
:10340000f6ff37006108e100430032006011b800a8
:103410006000b800f1ff370003ff27000200200022
:10342000fbff37001800200057002000080453005d
:103430000d003d000600200097fc2f000740e10032
:103440001e00340084827200610260008301d1009a
:103450000281d3008180d3000080d3000804e800fb
:10346000f8ff3a0047002000610460000504740082
:10347000040464000d00320061004000e080480058
:1034800060014900e081490003b8a500070032004f
:103490000603e8006538e10004003a008301d1002a
:1034a0000281d3008180d3000080d300f87f200008
:1034b0000830e10003003500080378006000b80020
:1034c0006011b8004433dd00f300b20083017300e3
:1034d00000000600680447000294be000094be008d
:1034e000fc0447008694be008494be000900780066
:1034f000bc02070008007800ba02070099007800b3
:10350000814f70000b003b000800be0095020700d1
:103510004f00b10003003700f3ff2700f2ff2f0038
:103520006110b9004f06be004f05be004f04be003b
:103530000080fa0000000600810378004c000700bc
:103540000001be006000b8000478a30013003a0038
:103550006220e10015003e000d0039008301d1001a
:103560000281d3008180d3008301d1000281d30086
:103570008180d3008301d1000281d3008180d300f8
:103580000538b000c42add00f300b2008381720068
:1035900007f0a70003f0a00000000600f3ff2700db
:1035a000f2ff2f006110b900fbff370003ff270077
:1035b000f7ff37001400fa00889fbe008a9fbe0004
:1035c0008c9fbe000004be000205be0068004700dc
:1035d0000a90be000890be00820207000070a7009b
:1035e0000bf0a100304320009e0290008082520028
:1035f000b0fe2f000028e10011003d00b0fc2f00bc
:103600000028e100150034001e0990008e0890008b
:103610007e0090000501b0000201d1008180d3003e
:103620000080d3008502e800fbff3a000b00e000b9
:10363000bcff3b0060001000e0801800b9ff3700bd
:10364000f0ff2f00f1ff27000b00e000b5ff3b006b
:103650000100280000002000b2ff37006000b80021
:10366000b0ff37004f89de00820178008402370006
:10367000c70ade00f107b200f50fb2000800320001
:10368000e1cf4200020032000170a00024000500da
:10369000810f70000100320004080500440005009d
:1036a000810f700002003a00140005008502e90055
:1036b0000000400081c04800fcff3b000170a000fa
:1036c000240005002800fa00889fbe008a9fbe00e3
:1036d0008c9fbe0003866b007eff07000028a300be
:1036e00064003a000128a30067003a000008a30024
:1036f00062003a000108a30065003a001e00900035
:10370000be08900081064000ed3fb100f4805700f4
:10371000ee019000111ab8008e099000311bb8001c
:103720009e099000311cb800511db800f485570067
:1037300046000700fe0190003a0007008b85e80074
:103740003e0007008e09900040000700ee01900047
:10375000340007008b85e800380007008e099000d0
:10376000400007009e0990001b18b8008904400023
:103770000a854800fe019000340007008b85e800b0
:1037800038000700ee019000300007008e0990001d
:103790001b18b800890440000a8548000a98a30055
:1037a00008003a000402420085824a0006034b00ea
:1037b00087834b0008044c0089844c000a054d00a7
:1037c0008d06e90084827200850273004c3add00a8
:1037d000850272000100320015002000443ade002c
:1037e0001400b2004538de00cb45dd000b00700050
:1037f000c540de00cb4ddd008b8070004549de000a
:10380000cb55dd000b017100c551de000d037800c2
:1038100004ff070003f0a1000cf0a70003f0a000d4
:1038200040ff37001b18b80085024000068348009f
:10383000e0834b0060044c00070037001b18b80001
:103840000603400087834800faff37001b18b800c2
:103850008703400008844800e0844c0060054d0068
:10386000000006001b18b8000804400089844800c6
:10387000faff37000108a30027ff3a005800be00f6
:103880005801be00e3ff37000008a30022ff3a0002
:1038900009047800f9ff370007f0a2000b01370098
:1038a000ccf307000400be0000000600020ab900c5
:1038b000001bb9000200b8008100420081004300f3
:1038c00000000600889fbe008a9fbe0030044200b0
:1038d000b0844a0030054b0090854b006000b10079
:1038e0000898be000a90be000440e10005c8e1004f
:1038f00006d0e10007d8e100020031006800400076
:103900001008e8004f05be004f04be00000006008e
:10391000889fbe008a9fbe003004be002005be0006
:103920000418540005985c0006185d0007985d00b7
:10393000110020000440e10005c8e10006d0e100cc
:1039400007d8e100010039008000eb00108810006a
:103950004f05be004f04be00000006001200fa0032
:10396000889fbe008a9fbe008c9fbe00e0b79f006c
:10397000f1b79f0082bf9f0093bf9f000605be0066
:103980000404be000000eb00d0b79f00c0b79f004a
:10399000b0b79f00a0b79f0090b79f000006eb0054
:1039a0005fb19700cfb09700820141003fb0970010
:1039b0000200e00004003d00370007007e80570051
:1039c000c0ff070003003700330007007e80570068
:1039d000cfff0700dfb697000d00e0000c003500b8
:1039e0006fb29700ffb297000fbb97009fbb970085
:1039f00010002000010020006011b80000027200d9
:103a00008182720002037300838373001b0007002e
:103a10000c06e80001042000810f5600e0ff3a0088
:103a20000d00e00004003d000802be000a03be00d5
:103a30007e805700a3ff07005fa897000000e0000a
:103a400005003a001fb29700afb297003fb397004e
:103a5000cfb39700090007006fb09700ffb0970041
:103a60000fb997009fb997004f06be004f05be00e3
:103a70004f04be000080fa000000060001000700ad
:103a800000000600a4b79f00b5b79f00c6b79f000f
:103a9000d7b79f00000006004f09de008281710049
:103aa000b3b79f004f01de0081804000828070002c
:103ab000a1b79f008fb097004f09de0000004000c3
:103ac0000200700090b79f007fa897004f01de00b2
:103ad000818040008280700081b79f000d00070048
:103ae0004f3ade000000400004007000f0af9f007d
:103af000080007000402420085824a0006034b00ca
:103b000087834b00dfff07000802be000a03be00e8
:103b1000000006002fb29700bfb297004fb3970086
:103b2000dfb3970000000600881f7800180020000f
:103b3000881f780089ff07008f87e9004f0478000d
:103b400000000600801feb0084ff07008f87e9005c
:103b500000000600889fbe008a9fbe00e00f500054
:103b6000e08f5800e00f5900e08f59000c003d0035
:103b70006044b8006055b8000000540081805c00cb
:103b800002015d0083815d00180020001500070020
:103b900008003d00180007000004eb000500370096
:103ba0000004eb000f00070002003d0012000700b8
:103bb00018002000dcff07000800e00006003200cb
:103bc0006022b8006033b8000000520081805a00c3
:103bd00002015b0083815b004f05be004f04be0005
:103be00000000600e00f5200e08f5a00e00f5b007b
:103bf000e08f5b00000006006044b8006055b8002c
:103c00000402540085825c0006035d0087835d002a
:103c100000000600889fbe008a9fbe008c1f7800af
:103c2000e00f5000e08f5800e00f5900e08f59007e
:103c30000d003d006044b8006055b800000054001d
:103c400081805c0002015d0083815d001c0020001a
:103c50000820e10009a8e1000ab0e1000bb8e1008a
:103c60000d003d00080037000006eb00e00f520099
:103c7000e08f5a00e00f5b00e08f5b0006003d0024
:103c80006044b8006055b8000402540085825c00ae
:103c900006035d0087835d00aaff07000c00e000bb
:103ca000060032006022b8006033b8000000520005
:103cb00081805a0002015b0083815b004f0678001f
:103cc0004f05be004f04be00000006002800fa00a9
:103cd000889fbe008a9fbe008c9fbe0007067800aa
:103ce000878669000c003b00030478008704780095
:103cf00008f0a10009f0a100840f5000858f580042
:103d0000860f5900890f5c00030033000cf0a200fd
:103d100001003a000cf0a100eefd07006400e10094
:103d20005f003200780147006408e1006100320062
:103d30006c014700748557003200be001201be00be
:103d40003a04be001a05be001e039000be0a900091
:103d50008503530006003d000004fd008104fd00c2
:103d60000205fd008305fd008703ea0005037800d6
:103d70000df8a3000400320060041400e0841c006d
:103d800060051d00e0851d006022b8007d03200055
:103d90000d38e1008006eb000b0039004433dd00f4
:103da000f300b2008301730039003700848272008f
:103db0000d027800e10664008b85d1000a85d300ee
:103dc0008984d3000884d3008703e900f7ff3b0010
:103dd00008004000898048000a0149008b814900a1
:103de00004003b0060001000e08018006001190032
:103df000e08119000358a300090032008d8272008f
:103e000084827200610260008301d1000281d300cc
:103e10008180d3000080d3000603e8001b00370038
:103e20000348a30017003a000600e0001700340022
:103e30000603e9000d00a30000004800818048004f
:103e400002014900838149000348a3000f003a00a2
:103e50000600e000090034000603e900000040000d
:103e600081804800020149008381490001003a0035
:103e70000003eb000348a300f5ff32006022b80006
:103e800002003700848272006182660065fd0700cf
:103e900003f0a1000cf0a70003f0a000a1fd370083
:103ea000640147006408e10002003a000df8a30035
:103eb00099fd3a003200be001201be0099fd3700a4
:103ec000889fbe008a9fbe008c9fbe000404be0077
:103ed0000605be00809fbe00829fbe002f00070027
:103ee000040678000800be000a01be002b0007008f
:103ef000840678004f03be004f02be008d4f76004f
:103f00007fb0970013003300f0ff2f008b8f6b0002
:103f100006003b000d0666000c00a7000a003700f3
:103f200007f0a600100020000a003700880f52009a
:103f3000898f5a008a0f5b008b8f5b00030039006a
:103f40001000200001003e000000200007f0a70044
:103f50000000ea004f06be004f05be004f04be0041
:103f600000000600e48240001078a3000700320041
:103f7000640240001178a3003400be001401be00aa
:103f8000040032000330a700000006003500be0028
:103f90001501be000330a0000000060005ff270049
:103fa00005826100070032000428e10001003200b0
:103fb000240005000600070001003a004400050047
:103fc0000408050002000700f9ff3a00140005008c
:103fd0006f826100810270008502710085027200ab
:103fe00000000600800078005002be005003be00b2
:103ff0004439de00f700b200f37f200003016100c6
:10400000090032000218e10016003a008501720032
:1040100083017300838173000008200015003a00bb
:1040200040002000130037008501720083017300f7
:104030008381730005003a0004a8be0006a8be00f4
:10404000100020000b0037000201e90004024200ca
:1040500085824a0006034b0087834b000748a30074
:10406000f9ff32000740a00004a8be0006a8be0069
:1040700020002000800098009200980000000600b8
:10408000881f7800030478000300e00007003d006b
:1040900060001000e080180060011900e081190044
:1040a00002003b0001f02d00030037000400070070
:1040b00008f0a70003f0a0004f04780000000600fd
:1040c000889fbe00008270000402710004827100ab
:1040d0002400320036432000c50020008383cf0037
:1040e0000a0039000541b1008283cf000700390082
:1040f0000541b1008183cf00040039000541b100c2
:104100008083cf00010039000541b10085c3530011
:104110006022b800120032000a003b008482720064
:10412000610260008301d1000281d3008180d3004d
:104130000080d3000603e8008743e800f7ff3a0059
:10414000070037000000400081804800020149005c
:10415000838149000603e9008743e900f9ff3a003b
:0c416000b0fc07004f04be000000060089
:020000040000fa
:10416c004c6900007a61000072640000207000004d
:10417c00656f0000706c0000650000005465000065
:10418c0073740000000000002600000024000000f2
:10419c004d000000420000004100000025780000a6
:0841ac00002500006400000082
:020000040000fa
:1041b4000400fa0020479800abd0bf000080fb0049
:1041c400e30f50003a003200e30f500007003c00b8
:1041d400e10f50001b003200e10f500024003c00ae
:1041e4000000e00008003200b7003700e50f50007f
:1041f4009c003200e50f50004a003500e70f5000e4
:10420400a3003200b0003700ae40900060c2b3009b
:1042140080cf500009003a000270ef000370ef00f5
:10422400ea70ef00ec70ef00eb70ef00b270ef009b
:1042340010c0b300abf0b700a9003700ab70ef00bb
:10424400a7003700ae409000a0c3b30080cf500059
:1042540003003a0020c0b300abf0b700a000370061
:104264002e41900021002100824878009c003700f4
:10427400ae409000a0c3b30080cf500003003a00ca
:1042840030c0b300abf0b70095003700ae409000eb
:1042940000cdb30000c0400003f0b700ae40900072
:1042a40000cdb30000c04000ecf0b7008c00370034
:1042b400ae409000a0c3b30080cf500009003a0084
:1042c40040c0b300abf0b700b7d0bf008080fb00a4
:1042d400400b2100008040008040eb000148780042
:1042e4007f003700b7d0bf000081fb00ae409000d4
:1042f400400b21000000410001487800b7d0bf0006
:104304000040e800b7f0b700710b2100914078003d
:1043140020c3b30080cf50006e003600b770ef00aa
:104324006f003700ae409000a0c3b30080cf5000b0
:104334003c003a00ead0bf008080fb00800b2100e3
:10434400008040008040eb0001487800ebd0bf00c3
:104354008080fb00700320008088b9008000780012
:104364004000210000804000410b2100360009007c
:10437400315878007003b1000040eb00004f780022
:104384000040eb00004f7800060037009e80fb00e1
:10439400400b2100008040008040eb000148780081
:1043a4001e4fe800b7d0bf009e4f5000f7ff3e00fd
:1043b4000040eb00004f7800060037009e80fb00b1
:1043c400800b2100008040008040eb000148780011
:1043d4001e4fe800ead0bf009e4f5000f7ff3e009a
:1043e400b770ef00ea70ef00ecd0bf000040e900c6
:1043f400ecf0b700ebd0bf000040e800ebf0b700f2
:10440400ecd0bf000004e00003003a0050c0b30049
:10441400abf0b7003200370030c0b300abf0b700e8
:104424002f003700ead0bf000081fb00ae409000af
:10443400800b21000000410001487800ead0bf0051
:104444000040e800eaf0b700a10e21009140780096
:1044540020c3b30080cf500020003600ea70ef0084
:104464001f003700ae409000a0c3b30080cf5000bf
:1044740003003a0070c0b300abf0b7001800370077
:10448400ae409000920a21000149780014003700e0
:10449400ae40900040c2b30080cf500006003a0006
:1044a400a9d0bf0010000700ab70ef0010c0b3002c
:1044b400b2f0b7000a003700ae409000a20a210013
:1044c4000149780006003700ab70ef0000000000df
:1044d4000300370000000000010037000000000066
:1044e4000080fa00000006000200fa00004f780085
:1044f40070878000801f7800d5f007008f87e9005f
:10450400b0878000801f7800d1f007008f87e90012
:104514001e80fb00801f7800400d2a00801f780059
:10452400cbf00700e487570080878000801f780065
:10453400c7f007008f87e9000080fa00000006003a
:104544000600fa00004f78001107980042479800cf
:104554009e0090000000eb00e400070011c0b300cf
:104564000000eb00f50007001e4178001100210057
:1045740082487800b270ef000080fa000000060064
:104584000400fa00000f780011079800708780007b
:10459400801f7800aef007008f87e900a003200099
:1045a4009bf0070001d0bf000080fb00801f780053
:1045b400700d2a00801f7800a5f00700e4875700db
:1045c400a003200092f0070010002000801f780054
:1045d400700d2a00801f78009df00700e4875700c3
:1045e400a00320008af007009e1f780098f00700bf
:1045f4008f87e900a003200085f007009e0090004b
:10460400811f780092f007008f87e900a003200043
:104614007ff0070020002000801f7800700d2a0022
:10462400801f78008af00700e4875700a003200069
:1046340077f0070030002000801f7800700d2a00fa
:10464400801f780082f00700e4875700808780008d
:10465400801f78007ef007008f87e9000080fa0051
:10466400000006000400fa00000f7800110798000b
:1046740070878000801f780075f007008f87e9003d
:1046840090878000801f780071f007008f87e90011
:1046940001d0bf000080fb00801f7800700d2a004d
:1046a400801f78006af00700e4875700a003200009
:1046b40057f007009e1f780065f007008f87e90018
:1046c400a003200052f007009e009000811f780094
:1046d400700d2a00801f78005df00700e487570002
:1046e40080878000801f780059f007008f87e900d9
:1046f4000080fa00000006003800fa0041002100a2
:104704001a000900311f7800315f78007e03b10080
:10471400210021009140780081417800c20a2100e3
:10472400034978007e858800e4004700818588007d
:1047340062858000738580000288be0083858000c6
:10474400230098000080fa00000006003a00fa00f6
:10475400017f98008e7890000181fb007103200096
:104764008191b900820078000181e80021002100d4
:104774008100410036000900315f78007e03b100fa
:104784007103b1002100210091407800814178003b
:10479400c20a2100034978007e858800e4004700ae
:1047a4008185880062858000738580000288be0050
:1047b40083858000230098000080fa000000060032
:1047c4000000fa0003d0bf000080fa0000000600d9
:1047d4000200fa00000f780021e2a90021a2a9003a
:1047e4002182a90001118000f0cf2f000080600019
:1047f4000011880020e2a90020c2a90020a2a9007b
:104804002082a9002062a9000111800090ff2f00de
:1048140000806000001188002002a90023a2a900e2
:1048240023e2a90023c2a9002342a9001111800098
:10483400f0f32f00008060001011880022a2a9006c
:104844001e0078008000eb000001be0000d82100ab
:10485400c1422000cfef07004c09dd004400de0018
:1048640000007100c488de00000078004011880058
:104874002422ef002622ef0011c0b3000000eb0059
:104884002e0007000080fa00000006000200fa0073
:10489400000f78000080fa00000006000200fa0011
:1048a400000f78001e0078000000e0000d003a00c0
:1048b40010aea80010cea9002136800000f82f0009
:1048c40080806000500220000100700020368800c3
:1048d4002134800000fc2f00008060000000a00054
:1048e400203488000080fa00000006000400fa006a
:1048f400000f7800110798001e0078000000e00007
:1049040003003a001e009000b1ff070005003700c5
:104914001e007800e10f500005003a001e009000d0
:10492400daff07001e007800dcff070001003700f3
:10493400000000000080fa00000006000400fa00f5
:10494400000f7800214798001e0078000000e00066
:1049540009003a002e4090000004e00003003200f9
:1049640021e2a8002342a8000b00370021e2a9009d
:104974002342a900080037002e4090000004e00004
:104984000300320031e2a8003342a80002003700dd
:1049940031e2a9003342a9000080fa0000000600b9
:1049a4000200fa00004f78001e80fb0020118800ee
:1049b4000000000011118000001020000080600041
:1049c4000000e000fbff32000080fa000000060057
:1049d4000200fa0010118000640060000000e00092
:1049e4000400320030118000004f78000040eb00da
:1049f4001100370010118000620060000000e00028
:104a04000b0032008040eb000000eb00cbff0700fe
:104a1400c02b2000010020004a01070011c0b30090
:104a24000000eb00c5ff07000040eb000200370068
:104a340030118000004078000080fa000000060079
:104a44000200fa00004f78001e407800d4ff0700ef
:084a54000080fa0000000600da
:020000040000fa
:104a5c0000100000ee00000080000000ee100000ce
:104a6c000a00000082000000caa0cc00a0cea0006a
:104a7c00d0a0d200a0000000f810000088000000b8
:104a8c008200000001000000001e11001f111e001a
:104a9c00111e11001e111e00110e1100000000004d
:104aac0000000000000000000000000000000000fa
:104abc000000000000000000000208000101460098
:104acc0011471100461146001146110046113600df
:104adc0011000000000000000000000000000000b9
:104aec0000000000000000000000000000000200b8
:104afc00080202006e116f00116e11006e116e0033
:104b0c00116e11005e11000000000000000000009a
:104b1c000000000000000000000000000000000089
:104b2c0000000000f81020001148110000000000e7
:104b3c000000000000000000000000001c1200003b
:104b4c001a00000082000000686a6c00747a4c0045
:104b5c00000001000002000004000800001000002a
:104b6c00000020002b2d23003000000080110000dd
:104b7c007a000000820000006e616e00004e410061
:104b8c004e0069006e660000494e46000030310050
:104b9c0032333400353637003839610062636400d3
:104bac00656600003031320033343500363738005a
:104bbc00394142004344450046000000000000001b
:104bcc0000002400400000000000000000594000dc
:104bdc000000000000008800c3400000000000003e
:104bec0084d7970041008000e0377900c34143002f
:104bfc00176e0500b5b5b8009346f500f93fe9000e
:104c0c00034f38004d321d0030f9480077825a00ae
:104c1c003cbf73007fdd4f0015750000fa110000da
:104c2c0022000000820000003031320033343500a5
:104c3c0036373800394142004344450046003000c5
:104c4c003132330034353600373839006162630055
:104c5c0064656600000000003a12000002000000cb
:104c6c00800000003c1200000200000082000000e6
:104c7c000400000036120000040000008000000058
:104c8c003e12000002000000820000003000000014
:104c9c004012000002000000820000000100000031
:104cac004212000002000000800000000000000022
:020000040000fa
:104cbc000000fa00c028ef00c428ef00c628ef005f
:104ccc00c1e8a9000080fa00000006000200fa000a
:104cdc00004f78001e4078000004e000070032000e
:104cec0011028000f0f12f0000806000100288009b
:104cfc004460a900c3e8a800050037001102800039
:104d0c00000e20000100700010028800c3e8a9000a
:104d1c000080fa00000006000200fa00004f780044
:104d2c001e4078000004e000090032000168a90070
:104d3c0021428000f0ff28008080600000002500e8
:104d4c0001007000204288002168a8000100370093
:104d5c002168a9000080fa00000006000200fa0099
:104d6c00004f78001e4078000004e000080032007c
:104d7c000288a9005142800080ff2f000080600053
:104d8c006000b300504288002288a8000100370060
:104d9c002288a9000080fa0000000600809fbe0057
:104dac000000fa00014080000080200000806000bc
:104dbc000000e000010032000168a9000080fa0048
:104dcc004f00be00004006000000fa0040a7a900fa
:104ddc00113a8000f08f2f00008060000080a0004e
:104dec00103a880042e7a90042c7a9004207a80070
:104dfc0000000000113a8000000027008080600055
:104e0c0000002100808f5000faff3a004fe7a80005
:104e1c004f87a900713a8000f00f2f0000806000ce
:104e2c00703a88000080fa00000006000000fa00ca
:104e3c0045e7a9004587a90045a7a90045c7a900d2
:104e4c004567a9004507a9004527a9004547a900c2
:104e5c0044c7a90044e7a9004407a9004427a900b6
:104e6c004447a9004467a9004487a900313a80004f
:104e7c0000e02f0080806000a00420000100700082
:104e8c00303a88000080fa00000006000000fa00aa
:104e9c00002eef000e2eef00022eef00102eef0072
:104eac001e2eef00122eef000080fa00000006000c
:104ebc000000fa000040eb0084ff0700dbff070056
:104ecc00c1ff0700f1ff070079ff070010c0b30016
:104edc007eff070012c0b30001102e0010c0b300fb
:104eec0095fd07000080fa00000006000000fa00a3
:104efc00efff0700907080000080ea004f00de009a
:104f0c00004078000080fb004f00dd0092708000b4
:104f1c00f1ff270081006100010070009070880093
:104f2c00610b2a00400c2a0093fd070000d82100d9
:0c4f3c00c142200001000700eeff37001a
:020000040000fa
:104f4800f03fb1000180b10006003500ee03090012
:104f580000000000403fb1000180b100fbff3d00b0
:104f68001000b000203fb0000200350000800900aa
:084f780000000000000006002b
:020000040000fa
:04afe000cfff00009f
:020000040000fa
:04afe400ffff00006b
:020000040000fa
:04afe8007fff0000e7
:020000040000fa
:04afec007bff0000e7
:020000040000fa
:04aff000f9ff000065
:020000040000fa
:04aff400ffff00005b
:00000001FF
