:020000040000fa
:080000000002040000000000f2
:020000040000fa
:04000800e20300000f
:020000040000fa
:04000c00e20300000b
:020000040000fa
:04001000e203000007
:020000040000fa
:04001400e203000003
:020000040000fa
:04001800e2030000ff
:020000040000fa
:04001c00e2030000fb
:020000040000fa
:04002000e2030000f7
:020000040000fa
:04002400e2030000f3
:020000040000fa
:04002800e2030000ef
:020000040000fa
:04002c00e2030000eb
:020000040000fa
:04003000e2030000e7
:020000040000fa
:04003400e2030000e3
:020000040000fa
:04003800e2030000df
:020000040000fa
:04003c00e2030000db
:020000040000fa
:04004000e2030000d7
:020000040000fa
:040044007c03000039
:020000040000fa
:04004800e2030000cf
:020000040000fa
:04004c00e2030000cb
:020000040000fa
:0400500006030000a3
:020000040000fa
:040054002203000083
:020000040000fa
:04005800e2030000bf
:020000040000fa
:04005c00e2030000bb
:020000040000fa
:04006000e2030000b7
:020000040000fa
:04006400e2030000b3
:020000040000fa
:04006800e2030000af
:020000040000fa
:04006c00e2030000ab
:020000040000fa
:04007000e2030000a7
:020000040000fa
:04007400e2030000a3
:020000040000fa
:04007800e20300009f
:020000040000fa
:04007c00e20300009b
:020000040000fa
:04008000e203000097
:020000040000fa
:04008400e203000093
:020000040000fa
:04008800e20300008f
:020000040000fa
:04008c00e20300008b
:020000040000fa
:04009000e203000087
:020000040000fa
:04009400ba030000ab
:020000040000fa
:04009800e20300007f
:020000040000fa
:04009c00e20300007b
:020000040000fa
:0400a000e203000077
:020000040000fa
:0400a400e203000073
:020000040000fa
:0400a800e20300006f
:020000040000fa
:0400ac00e20300006b
:020000040000fa
:0400b000e203000067
:020000040000fa
:0400b400e203000063
:020000040000fa
:0400b800e20300005f
:020000040000fa
:0400bc00e20300005b
:020000040000fa
:0400c000e203000057
:020000040000fa
:0400c400e203000053
:020000040000fa
:0400c800e20300004f
:020000040000fa
:0400cc00e20300004b
:020000040000fa
:0400d000e203000047
:020000040000fa
:0400d400e203000043
:020000040000fa
:0400d800e20300003f
:020000040000fa
:0400dc00e20300003b
:020000040000fa
:0400e000e203000037
:020000040000fa
:0400e400e203000033
:020000040000fa
:0400e800e20300002f
:020000040000fa
:0400ec00e20300002b
:020000040000fa
:0400f000e203000027
:020000040000fa
:0400f400e203000023
:020000040000fa
:0400f800e20300001f
:020000040000fa
:0400fc00e20300001b
:020000040000fa
:04010000e203000016
:020000040000fa
:04010400e203000012
:020000040000fa
:04010800e20300000e
:020000040000fa
:04010c00e20300000a
:020000040000fa
:04011000e203000006
:020000040000fa
:04011400e203000002
:020000040000fa
:04011800e2030000fe
:020000040000fa
:04011c00e2030000fa
:020000040000fa
:04012000e2030000f6
:020000040000fa
:04012400e2030000f2
:020000040000fa
:04012800e2030000ee
:020000040000fa
:04012c00e2030000ea
:020000040000fa
:04013000e2030000e6
:020000040000fa
:04013400e2030000e2
:020000040000fa
:04013800e2030000de
:020000040000fa
:04013c00e2030000da
:020000040000fa
:04014000e2030000d6
:020000040000fa
:04014400e2030000d2
:020000040000fa
:04014800e2030000ce
:020000040000fa
:04014c00e2030000ca
:020000040000fa
:04015000e2030000c6
:020000040000fa
:04015400e2030000c2
:020000040000fa
:04015800e2030000be
:020000040000fa
:04015c00e2030000ba
:020000040000fa
:04016000e2030000b6
:020000040000fa
:04016400e2030000b2
:020000040000fa
:04016800e2030000ae
:020000040000fa
:04016c00e2030000aa
:020000040000fa
:04017000e2030000a6
:020000040000fa
:04017400e2030000a2
:020000040000fa
:04017800e20300009e
:020000040000fa
:04017c00e20300009a
:020000040000fa
:04018000e203000096
:020000040000fa
:04018400e203000092
:020000040000fa
:04018800e20300008e
:020000040000fa
:04018c00e20300008a
:020000040000fa
:04019000e203000086
:020000040000fa
:04019400e203000082
:020000040000fa
:04019800e20300007e
:020000040000fa
:04019c00e20300007a
:020000040000fa
:0401a000e203000076
:020000040000fa
:0401a400e203000072
:020000040000fa
:0401a800e20300006e
:020000040000fa
:0401ac00e20300006a
:020000040000fa
:0401b000e203000066
:020000040000fa
:0401b400e203000062
:020000040000fa
:0401b800e20300005e
:020000040000fa
:0401bc00e20300005a
:020000040000fa
:0401c000e203000056
:020000040000fa
:0401c400e203000052
:020000040000fa
:0401c800e20300004e
:020000040000fa
:0401cc00e20300004a
:020000040000fa
:0401d000e203000046
:020000040000fa
:0401d400e203000042
:020000040000fa
:0401d800e20300003e
:020000040000fa
:0401dc00e20300003a
:020000040000fa
:0401e000e203000036
:020000040000fa
:0401e400e203000032
:020000040000fa
:0401e800e20300002e
:020000040000fa
:0401ec00e20300002a
:020000040000fa
:0401f000e203000026
:020000040000fa
:0401f400e203000022
:020000040000fa
:0401f800e20300001e
:020000040000fa
:0401fc00e20300001a
:020000040000fa
:04020000e203000015
:020000040000fa
:04020400e203000011
:020000040000fa
:04020800e20300000d
:020000040000fa
:04020c00e203000009
:020000040000fa
:04021000e203000005
:020000040000fa
:04021400e203000001
:020000040000fa
:04021800e2030000fd
:020000040000fa
:04021c00e2030000f9
:020000040000fa
:04022000e2030000f5
:020000040000fa
:04022400e2030000f1
:020000040000fa
:04022800e2030000ed
:020000040000fa
:04022c00e2030000e9
:020000040000fa
:04023000e2030000e5
:020000040000fa
:04023400e2030000e1
:020000040000fa
:04023800e2030000dd
:020000040000fa
:04023c00e2030000d9
:020000040000fa
:04024000e2030000d5
:020000040000fa
:04024400e2030000d1
:020000040000fa
:04024800e2030000cd
:020000040000fa
:04024c00e2030000c9
:020000040000fa
:04025000e2030000c5
:020000040000fa
:04025400e2030000c1
:020000040000fa
:04025800e2030000bd
:020000040000fa
:04025c00e2030000b9
:020000040000fa
:04026000e2030000b5
:020000040000fa
:04026400e2030000b1
:020000040000fa
:04026800e2030000ad
:020000040000fa
:04026c00e2030000a9
:020000040000fa
:04027000e2030000a5
:020000040000fa
:04027400e2030000a1
:020000040000fa
:04027800e20300009d
:020000040000fa
:04027c00e203000099
:020000040000fa
:04028000e203000095
:020000040000fa
:100400008f2321000eff21000e0188000000000054
:10041000000020000000e000020032000001200087
:1004200020028800140007005d0107000000e000c2
:1004300003003a00c03b2300010020000200370007
:100440000000200001002000810f70000100320038
:100450000f000700000020000000e0000200320052
:100460000000020000000000f4350200000000005f
:100470000040da000000fe00800320000000e000e1
:1004800002003200002020009001880000000600d9
:10049000a1028800800478000000eb001f003700f4
:1004a000e284440054a0b4009905ba00e2844400f8
:1004b00054a0b4009906ba00e284440054a0b400e9
:1004c0000006eb00476fde00fd07b200ae018800ba
:1004d000636ce10003003a000ad801000000eb0061
:1004e0000e003700606ce10008003a00004deb00a0
:1004f0000a05e800020039003420ec000af0a000f0
:100500008b05e900f9ff3e00040037006168e10057
:10051000010032000086eb000b00070019c7ba008b
:100520000e04e0001905ba0003003a000a00e000da
:10053000dbff3a0000000600fe07b200ae028800b2
:100540008a047800f5ff37000cd0a300e20f4d00bd
:100550001c00390089027800354dba000a05e80010
:10056000020039003420ec000af0a0008b05e900fd
:100570000f003200254dba000a05e80002003900dc
:100580003420ec000af0a0008b05e90008003200de
:100590000c00e0000600320015cdba000a05e800a4
:1005a000020039003420ec000af0a0008b05e900bd
:1005b0008984e80054a0b4000b00e000e2ff3a0098
:1005c000000006009902ba00055d78008b05e9007d
:1005d000f7ff3200c82ade00055d78008b05e900d0
:1005e000f3ff32000c00e000f1ff320019ddba0029
:1005f000eeff3700000000000000000000000000d7
:10060000000000000000000000000000809fbe000d
:100610000000fa00014080000040200000806000df
:100620000000e00004003200134ea80040128000d9
:10063000308788000148a9000080fa004f00be0002
:10064000004006003600f800809fbe00829fbe007a
:10065000849fbe00869fbe000000fa00014080001b
:1006600000802000008060000000e0001b003200dd
:1006700010118000640060000000e00005003200fe
:10068000301180000040780055f0b70013cea8006c
:100690001200370010118000620060000000e000ce
:1006a0000b0032008040eb000000eb00c814070094
:1006b000800b200001002000551a070011c0b30074
:1006c0000000eb00c214070013cea800030037009f
:1006d000e4140700361507000168a9000080fa003d
:1006e0004f03be004f02be004f01be004f00be00d0
:1006f0003600f900004006003600f800809fbe007a
:10070000829fbe00849fbe00869fbe000000fa004c
:100710000140800000082000008060000000e00030
:100720000d003200907080000080ea004f00de0073
:10073000004078000080fb004f00dd0092708000d8
:10074000f1ff2700810061000100700090708800b7
:100750000819070000e8a9000080fa004f03be0056
:100760004f02be004f01be004f00be003600f90030
:10077000004006003600f800809fbe00829fbe0049
:10078000849fbe00869fbe000000fa0011408000da
:1007900000802000008060000000e00002003200c5
:1007a0000e1907000368a9000080fa004f03be007d
:1007b0004f02be004f01be004f00be003600f900e0
:1007c000004006000040da000000fe000a00fa00c7
:1007d00011002000b1bf9f00c0bf9f006a8057007a
:1007e000fa0c07004fb897000080fa0000000600de
:1007f0000a00fa00e20f500034003e00a091800091
:10080000e10f500003003200e20f500011003a00e7
:100810000c003700032220000300e00001003a0032
:100820000040da002002e200020035002822ef003a
:1008300021e2a8002342ab000d003a002342a800a9
:100840000b003700032320000300e00001003a0002
:100850000040da003002e200020035003822ef00ea
:1008600031e2a8003342ab0001003a003342a80055
:10087000820178000b0037003102fb00e10f5000cd
:1008800004003a002322ab00feff3a002411880046
:10089000030037003322ab00feff3a00a4118800aa
:1008a0008301e9000300e000f3ff3a00e10f50008c
:1008b00003003a002302ab00feff32000b003700ba
:1008c0003302ab00feff3200080037003300200087
:1008d000b3bf9f00c0bf9f00d1bf9f00e2bf9f007a
:1008e0006a805700bb0c07006fb9970002007800c0
:1008f0000080fa00000006000a00fa005100200003
:10090000b1bf9f00c0bf9f006a805700b30c0700b3
:100910005fb897000080fa0000000600889fbe00c4
:1009200080047800b09180000000e00004003a00ec
:100930000e0007000084eb000000e0000800350016
:10094000b89180000900e000050032000900440071
:10095000060007000000e00001003d000084eb00fd
:10096000080078004f04be000000060080007800f8
:100970000100e00003003a0000002000b091880070
:10098000000005000080eb0002002000828f500074
:1009900002003e00b19188000000eb00000006005c
:1009a0000000050003f0a200889fbe008a9fbe00e1
:1009b0008c1f78002a010700310133006450e100e8
:1009c0004f0032006420e1005200320003826c00cc
:1009d00007003b000905d0000306d000820f540039
:1009e0000c065d0002003900020032008901780027
:1009f000030678008582550004003d000003fd00d9
:100a00008103fd008502ea008b854200840f72009d
:100a100002003b0060001000e08018006011b80088
:100a20000005eb007a28e1000a0039000600780092
:100a3000c75ddd00f707b200878075002d00370025
:100a4000828171000a017800610560008180d10017
:100a50000080d3008502e900f9ff3b000604400056
:100a60008784480002003b0060041400e0841c00fe
:100a70000988a300070032008a8171008281710019
:100a8000610164008904d1000884d3008b05e8006b
:100a9000170037000978a30013003a000b00e000ac
:100aa000130034008b05e9000804440089844c00dd
:100ab0000a4474000978a3000d003a000b00e0001e
:100ac000070034008b05e9000804440089844c00c9
:100ad00001003a000b0020000978a300f7ff320064
:100ae0000001eb0002003700828171000a017800ea
:100af000a00007000cf0a70001f0a000e9003700fb
:100b00006420e10002003a00838f6c00e9003300aa
:100b10000801be000200be00e2003700889fbe0050
:100b20008a9fbe008c1f7800cd000700d4003300e0
:100b300003866c006450e1002e0032006420e10066
:100b4000330032006150e1002f0032006120e100eb
:100b50003100320085855500eb07b0000900200008
:100b600008042000050037000804440089844c0074
:100b70000a0031000603430087834b000001530045
:100b800081815b00f8ff33000203be000800a00073
:100b90000804440089844c00f6ff3900c639dd00a2
:100ba0008301730001003200130020008904d1008a
:100bb0000884d3000998a300050032000800a700ac
:100bc0000300a0008904d1000884d3008b05e8004d
:100bd0008904d1000884d3000001eb000281d20017
:100be0006400070001f0a1000cf0a70001f0a000d4
:100bf000ac0037006420e100ae0032000801be0006
:100c00000200be00f7ff37006120e100a9003200ba
:100c10006000b800f3ff37000000200001f8270053
:100c2000f0ff3700839f68000100e00002003d00f4
:100c300060001000e08018000300e00002003d00aa
:100c400060011100e0811900d10007004f00e000b1
:100c500002003b0060001000e08018000000060069
:100c600014002000da003700f4ff2f00d80037000e
:100c70000001be00650007000470a70003f0a1009a
:100c80006509b100160032000d0035006828e1004a
:100c900006003500f0ff2f00f1ff27000300e00001
:100ca00013003b0001002800000005000000400088
:100cb000818048008502e900fcff3a000800370007
:100cc000f88f420002003c008000eb0000000500ad
:100cd0008100d1000080d3008502e800fcff3a00cb
:100ce0000300e00002003b0060001000e0801800fc
:100cf000000006000001be00440007000470a700c9
:100d000003f0a10003f8a30013003a006509b10045
:100d100010003200090035006928e10002003500aa
:100d2000010028000000050000004000818048000c
:100d30008502e900fcff3a0000000600f88f42003f
:100d4000050035008100d1000080d3008502e80055
:100d5000fcff3a00000006008000eb0000000500e8
:100d60004f89de0082017800b40037006011b800be
:100d7000c200370081002000618055000b003d005b
:100d80000b00200061fe2f000100e1001d00340077
:100d900082817100610164008904d1000884d3005c
:100da0000000e800faff3a007100200061006400d2
:100db000030070000200600009003200610444007a
:100dc000e0844c000988a500050032008b05e8008e
:100dd0006808e10002003a008904d1000884d300c9
:100de000f20f20000258e10005003d00c75ddd0064
:100df000f907b2008980750008007800000006003d
:100e00000bf827008b00780000000500c70ade0001
:100e1000f107b200f50fb20008003200e1cf420046
:100e2000020032000170a00024000500810f700054
:100e3000010032000408050044000500810f700025
:100e400002003a00140005008502e900000040009d
:100e500081c04800fcff3b000170a0002400050099
:100e60000004be00e9ff07000003be000405be0049
:100e70000200be00e5ff0700844f75000000060079
:100e80000200be006450e100050036006420e1006d
:100e9000020036000968a30001003a000800be0005
:100ea0000160a0004f0678004f05be004f04be0051
:100eb00000000600f0ff2f00f1ff2700f9ff3700c8
:100ec000889fbe008a9fbe008c1f7800e4ff070049
:100ed000ebff330003866c006450e1002400320015
:100ee0006420e100270032006150e100220032005e
:100ef0006120e100210032008b854200eb07b10048
:100f00000134b800003ab8000804420089844a005d
:100f1000013ab8000030b8008880400009014a005a
:100f200004003300000040008180480002014900b5
:100f30008b05e900c909dd00830170000100320062
:100f400013002000c814de004814dd004709de004d
:100f50001200b200c808de000884700085ff070098
:100f600001f0a1000cf0a70001f0a000cdff3700b8
:100f70006120e100cfff32000801be000200be0088
:100f8000f7ff37006150e100fcff3a00c9ff37006e
:100f90006022b800060220000000d0008180d2004c
:100fa0000482d2008582d2000000a000020252001a
:100fb00083825a00030031000202420083824a0009
:100fc0000000a1000603e900f3ff3a00000006005c
:100fd000889fbe008a9fbe00841f7800a0ff070084
:100fe0004f00780011003300f0ff2f00838f6c005a
:100ff00006003b00040565000a00a7000800370052
:1010000009f0a6001000200008003700820f5400ed
:10101000838f5c00030039001000200001003e00b7
:101020000000200009f0a7000000ea004f05be0004
:101030004f04be000000e00000000600881f78009a
:10104000030478000300e00007003d00600010008a
:10105000e080180060011900e081190002003b00e7
:1010600001f02d00030037000400070008f0a7007e
:1010700001f0a0004f04780000000600889fbe0029
:101080008a9fbe0000827000040271000482710019
:10109000260032000004be000200be006011b8004d
:1010a0006b092000950220000182cf000a00390060
:1010b0000541b1000082cf00070039000541b100b1
:1010c0000982cf00040039000541b1000882cf0039
:1010d000010039000541b100054252001200320002
:1010e0000a003b0082817100610164008100d1002f
:1010f0000080d3008984d3000884d3008b05e800e6
:101100000442e800f7ff3a000700370008044400f3
:1011100089844c0000004800818048008b05e9006c
:101120000442e900f9ff3a0012ff07004f05be0034
:101130004f04be0000000600020037000204e00079
:101140000b00320081017800000278003041780005
:10115000b14f5100f9ff3200100020001442780016
:10116000934f5200030031000080eb0000000600a6
:101170000000eb000000060080007800010178000c
:101180003104e000fdff3a000000510000000600bd
:10119000889fbe0000047800010078008204780077
:1011a000880178000901780011002000530207002f
:1011b000890f5000010032000004eb0008007800a5
:1011c0004f04be00000006000000fa00e88157004e
:1011d0004fb9970041112100808c200002000700c8
:1011e0000080fa00000006006200fa00889fbe003e
:1011f0008a1f7800000578008104780002047800d6
:101200008300780080f92f000f00400039020700aa
:101210009a979f00a9979f000000eb00b09f9f0046
:101220001885fb008a04fb000a05ea004f55de0022
:1012300050022000808f54000d003200e10f550055
:101240000b003a000a017800880078002f90970080
:101250009f91970003000100a0979f000000e0000d
:101260008e0032003f9897000000e800b09f9f007a
:101270000a04440050022000808f54000400320011
:101280000900e000e6ff3a003f989700840037002d
:101290000000eb00909f9f00809f9f00f0979f00b1
:1012a000e0979f00d0979f00c0979f0007003700ee
:1012b0004122210001005000000040008121210056
:1012c000808040005f98970011007000d09f9f00c1
:1012d0008804780009047800384578008a00fb000b
:1012e00040222100f60107000000e000f0ff3a0074
:1012f000a1c2b300814f55000e003a00cf8897007d
:101300000180e900c08f9f0010007800c09f9f00ff
:101310000000e00005003d000000ea00c09f9f00c3
:101320005f9897000020a000d09f9f000904e8006c
:101330000f003700c09f9f000000eb000500370042
:10134000f2ff2700820f500002003200ea00b900cd
:10135000008040000904780088047800b900fb0090
:101360000103b100e98f5000f5ff3600c09f9f00d8
:10137000e0c2b300984f1000020032000080eb0082
:1013800019003700a0c2b300d84f100007003a0080
:10139000cf8897000180e900c08f9f00100078007f
:1013a000a09f9f000804e800100037000000eb0039
:1013b000a09f9f008800780005003700f3ff2700fa
:1013c000830f500002003200ea00b9000000410023
:1013d00001047800880078003101fb000203b100ad
:1013e000e90f5100f5ff3600a09f9f009844780058
:1013f0008900fb0000212100b10107000000e0008e
:10140000020032000804e800010037008044eb00cd
:10141000c97f9f0080c6b30080cf540004003a000b
:1014200098cf14000a003a006640500006003700ca
:10143000c0c6b30080cf540005003a0098cf140016
:1014400003003a0065404000c07f9f000804e800a8
:10145000e3fb2f008f8141001841780081f92f00b4
:101460008f804000a0f92f000f00400010000700ff
:101470000000e00009003a00e1fb2f008f804000ef
:10148000a0f92f000f004000b00507000000e000a9
:10149000020035000804e80061ff37000080eb001f
:1014a0004f0578004f04be000080fa0000000600df
:1014b000889fbe008a1f780000047800824478006c
:1014c0000305780070c6b30080cf540021003c00b3
:1014d00000c0e90080cf5400e6003d00724050009b
:1014e00080cf5400530132000d003c006c4050008e
:1014f00080cf540066013c0000c0e90080cf54005a
:10150000dc003d0050c2b30080cf54005d013200ca
:101510007c40400080cf54005d013a00d500370088
:1015200010c6b30080cf5400d200320004003c004b
:101530006940500080cf540055013a0073003700d5
:1015400030c6b30080cf5400180032000040e800dd
:101550000900370000c7b30080cf540027013200d4
:1015600008003c0000c0e90080cf5400f0003200c9
:1015700066003c006540500080cf540044013a00b2
:101580001000370050c7b30080cf54005f00320016
:101590006340400080cf54005c0032006540500042
:1015a00080cf54003a013a00220137001181e9004e
:1015b000820878007800900000054500124d780000
:1015c0003901370028609000c2c6b300824f500036
:1015d00008003a001101780064005100800878008a
:1015e00090009000100078004f89de0082017800a2
:1015f0001600370012c7b300824f500003003a00b4
:10160000110278006800520005003700a2c6b3003e
:10161000824f500008003a00910278006880520022
:10162000800878009000900020019000b0019000a8
:1016300010007800050037001180e900800878006c
:1016400010007800cf80de006109b900009cbe0068
:101650000294be002862900085c6b300854f5200f8
:101660000d00320025c6b300854f520004003a0039
:101670000000fb00cf80de006109b90008003700e0
:1016800045c7b300854f520003003200e6c2420056
:10169000854f520004003a00cf80de006109b90096
:1016a000009cbe000294be001802780098029000d0
:1016b00028039000b803900078009000e00f5200db
:1016c000e08f5a00e00f5b00e08f5b0003003d00fd
:1016d00080004500d2c2b3000a0037008810900095
:1016e0000118a3000300320080004500b2c2b3001d
:1016f000040037000108a3005900320080004500b3
:1017000002c2b3008248780053003700286090007e
:10171000c2c6b300824f500009003a00110378009e
:101720006400530080087800100278009002900056
:101730006033b8000400be000601be00160037008a
:1017400012c7b300824f500003003a0091027800a4
:101750006880520005003700a2c6b300824f5000d7
:1017600008003a00110378006800530080087800f0
:101770009000900020019000b001900010007800cf
:10178000050037001180e90080087800100078001b
:101790008000eb006011b800009cbe000294be0007
:1017a0002862900085c6b300854f52000d003200bc
:1017b00025c6b300854f520004003a000080fb00ac
:1017c0008000eb006011b8000800370045c7b30087
:1017d000854f520003003200e6c24200854f52009e
:1017e00004003a008000eb006011b800009cbe00cd
:1017f0000294be00081090000038a30018003200c8
:10180000180078009800900028019000b80190001e
:10181000e00f5000e08f5800e00f5900e08f5900b2
:101820000f00320080c7b30080cf540003003200a5
:1018300080c5b30080cf540009003a0078009000c2
:101840008000450002c3b300824878000000e80031
:1018500080004500894878000000e8007004980086
:1018600078009000000545006a04980089407800df
:101870006d00370028619000c0c4b300804f510054
:1018800008003a00910378006880530080087800cf
:101890009000900020019000b001900010007800ae
:1018a00006003700110178006400510080087800bc
:1018b000900090001000780073090700009cbe00a3
:1018c0000294be00b8009000780090000100e00093
:1018d00003003d0080004500d2c2b3000a0037007b
:1018e000881090000118a30003003200800045001a
:1018f000b2c2b300040037000108a30005003200a3
:101900008000450002c2b300824878000000e80071
:101910007004980078009000000545006a04980063
:101920008940780008007800200107006000370037
:1019300028619000c3c6b3001180e900834f5100b5
:10194000220032000a003c00e4c15100834f5100e4
:101950002500320083c1e800834f5100130032009c
:10196000e8c15100834f51001e003a000a003700c1
:1019700043c7b300834f51001b003200e6c1410052
:10198000834f510018003200e9c15100834f5100cc
:1019900014003a0005003700800878001000780035
:1019a000485c9000084878004100370080087800c3
:1019b00010007800680a9000cfa2de00612bb90009
:1019c0000498be000690be003900370080087800f9
:1019d0001000780068099000cf91de000288be00f8
:1019e000330037001180e90080087800100078008b
:1019f000680c9000080878002d0037001180e9007d
:101a00008008780010007800cf80de006109b900fe
:101a1000009cbe000294be007800900000054500c6
:101a20006a04980081c7b300080078000a03070021
:101a30001f0037001180e900800878001005780049
:101a40006a049800d80c90000900e00004003d00f2
:101a50000a007800c8fd07008004780007003700fe
:101a6000090178008000eb000a0078007700070089
:101a70000000e000010032008a045000190c9800b8
:101a80000b00370078009000000545000500370086
:101a900078009000000545000904e00001003a00cc
:101aa00059c2b300094d78000000e80070049800a6
:101ab0000000eb004f0578004f04be000000060058
:101ac0008001eb00030037008301e8000404e0001c
:101ad000050032000301400012427800814f52009d
:101ae000f9ff3a00010037000001eb000200780026
:101af000000006000108780000000600889fbe0074
:101b00008a9fbe008c9fbe008e1f78000006780062
:101b10000104780002007800830478008881b9000d
:101b2000020778000e00e000420032000800e000ea
:101b3000410032008e057800c900900069009000d5
:101b4000808f500004003900090078005000070021
:101b50000000e0002900350000402000190060006e
:101b60000a0032000b017800a10020000c00780070
:101b700036000700800678000d00e0000600320005
:101b8000610516000a854600040037000b05780041
:101b90008006eb00010037000b057800490090003b
:101ba000e9009000808050008a8f500002003100d0
:101bb000010578008006eb000a0178008c007800af
:101bc0002c0007008a855500490090000a0040005b
:101bd000c00498000d00e000040032000900780005
:101be000fa0407000000e00004003a000b00e000e7
:101bf000020032000a064600cfff370000802000b6
:101c0000190060000200320009007800ef040700ac
:101c100000c020001900600002003200490090005e
:101c2000e00498008b055700110009008885d80052
:101c3000010037000000eb004f0778004f06be00a0
:101c40004f05be004f04be00000006000300370031
:101c5000b0cf1000050032000201e90080017800d9
:101c60000200e000faff3a000000050003007800df
:101c7000000006008001780002003700b1597800aa
:101c80000201e9000200e000fcff3a00000006004b
:101c9000889fbe008a1f780000047800c80090006a
:101ca000680190000000eb00828f50003c0039007a
:101cb000180078002200290002016000e20f5100a4
:101cc00007003200012024000000e00001003d0078
:101cd00001202000008c70000080eb0030003700f5
:101ce0000200260002006000820f500009003a0046
:101cf00038009000808f50000600390008007800fe
:101d0000b2040700800078000080eb000100e000d2
:101d100023003a001805780000c02000000065008c
:101d200018003a00a804900060022000080040005b
:101d3000808f540013003a00002020002c0607007a
:101d4000200498000000e00005003a0029049800f3
:101d5000490498008904e800390498000800370015
:101d60000a60a0000a0c78004004980001202000be
:101d70008080400031049800400c9800500c98007e
:101d800030040700280090005004980038009000ac
:101d90006004980000002600180c70000000eb00a2
:101da0004f0578004f04be0000000600cf04b000cd
:101db000889fbe008a9fbe008c9fbe008e1f780049
:101dc00000067800814678001c0078009c00900096
:101dd0002c019000bc019000d0979f00e1979f00dc
:101de000f2979f00839f9f0010c6b30080cf5600dc
:101df0001200320010c4b30080cf56000f00320032
:101e00005c0890000000e00002003d00600020003f
:101e1000090037000000e00008003a0070c6b30077
:101e200080cf56000300320070c4b30080cf56004c
:101e300002003a0010002000500e98008c0078003c
:101e400080fa2f000f004000d9010700e20f500078
:101e50000f003a0030002000100e980040172100bb
:101e600011c6b30081cf560019003200e4c0400013
:101e700081cf560016003200801721008140e80013
:101e800081cf560012003a004017210010003700a1
:101e90000000e0001400340030002000100e980014
:101ea000c017210011c6b30081cf560008003200d0
:101eb000e4c0400081cf5600050032000018210028
:101ec0008140e80081cf560001003a00c017210090
:101ed000ec009000b0487800b068780010407800be
:101ee00090409800ac01370011c6b30081cf560076
:101ef0000300320011c4b30081cf56000e003a0037
:101f0000ec00900002c3b30082587800610698008c
:101f100082c5b30013c6b30083cf560001003a0058
:101f200082c7b3008258780061069800fc009000d8
:101f30008180e800710698000000e00005003a008a
:101f4000c0979f008001eb0022fb2f000f01410092
:101f50008d01370010c6b30080cf56000600320056
:101f600010c4b30080cf56009c003a0051192100e4
:101f7000d1b79f000200370042182100d2b79f005e
:101f80005c0890001b0220000000e000010035000a
:101f90008005e8000b05e8006022b8006033b80057
:101fa0005f909700ef9097007f9197008f9997002f
:101fb0000c070700000278001c0078009c009000cd
:101fc0002c019000bc0190000400e00001003d00e5
:101fd00003f0a200d0979f00e1979f00f2979f0027
:101fe000839f9f00cf919700e4815100c3979f008a
:101ff0000040eb00a0779f003efb2f000f0747003b
:1020000031003700c201200003002000a0fa2f0099
:102010000f004000960407005f909700ef90970034
:102020007f9197008f99970090b79f00a1b79f006d
:10203000b2b79f00c3b79f00b20707000004be00fd
:10204000670555004240a9000c003400d90707007d
:102050000002be000203be001fb09700afb09700a1
:102060003fb19700cfb197004b080700d0979f0072
:10207000e1979f00f2979f00839f9f0067074700ab
:1020800070002000050037006f676400cc48dd0059
:102090004444de0008847000c4ccde00e00f54002d
:1020a000e08f5c00050034000000e900e10f400013
:1020b000f5ff3a00010037000067eb000000e9007f
:1020c000fdff3b00670747000a00e00009003400fd
:1020d0006022b8006033b8005f909700ef909700df
:1020e0007f9197008f999700c30607000000e000da
:1020f000c4ff3c0032fb2f000f01410002075700d4
:102100008e0178008b0f5700010034008b0178009e
:102110000300e0002b0035000040eb008e8f5100e3
:102120000a003d0082fa2f000f0141000300410028
:10213000b0489000f0c0b300e7cf500003003c006f
:102140000040eb0001003700810178008300e900c6
:1021500034fb2f000f0242000101420012427800be
:10216000804f5200f8ff3200ef4f500001003a005c
:102170000449e8000100e00007003d008301e80099
:10218000cf929700e4824200c5979f0022fb2f0068
:102190000f0141000200370032fb2f000f01410008
:1021a0008300410003007800040037004102fb0077
:1021b000dfb2970004824200944878000000e900f2
:1021c000faff3b005c0890000000e000ee003d00dc
:1021d0000300e900500e9800eb0037005f94970071
:1021e000ef9497007f9597008f9d97006022b8002d
:1021f0006033b8000800be000a01be00790607007f
:102200000000e00005003d000bf0a200d8979f0001
:10221000e9979f00fa979f008b9f9f0070592700b6
:10222000cf9097000088b900026a280013002000b0
:102230007cfa070064045000c8979f0017003b0019
:1022400063041400c0ff2f00000464000800ea00cb
:10225000c0979f005f909700ef9097007f91970045
:102260008f9997006a1a2100090037000808a30017
:10227000050032001a0278009a0290002a039000aa
:10228000ba0390004e0707000884d1006805450096
:102290000800e000f5ff3c001c0037000800e000eb
:1022a0001e003200c0ff2f0000046400c8979f008a
:1022b0006a1a21006000b8000200200003ff23001a
:1022c000090037000808a300050032001a02780050
:1022d0009a0290002a039000ba0390003807070082
:1022e0000884d100680545000800e000f5ff3c00c7
:1022f0000002be000203be005f909700ef909700bf
:102300007f9197008f99970040060700d0979f0014
:10231000e1979f00f2979f00839f9f005c0f9000c2
:1023200060c6b30080cf5600040032006000200079
:1023300061c4b30081cf560002003a00cf909700ed
:102340006a8040000e074000f30f57000100340080
:102350003e01200000c3b300a0779f003bfb2f008d
:102360008f854500350037005fb09700efb09700cc
:102370007fb197008fb99700e20607000004be0006
:10238000680757004240a900100034000907070001
:102390000002be000203be005fb09700efb09700de
:1023a0007fb197008fb997007b0707006022b800c4
:1023b00046782d007719240001070700d0979f0069
:1023c000e1979f00f2979f00839f9f00e88545005b
:1023d0008a0020000801be000c003700a400200085
:1023e00005002000a0fd2f000f0040003203070071
:1023f0005fa89700efa897007fa997008fb197007b
:1024000004c3b300846541000001be00e00f510029
:10241000e08f5900060034000a05e900e10f45008d
:10242000eeff3a000200370000c3b3008065780079
:102430000a05e900fcff3b00e88545000e00e000ce
:102440000d0034005f909700ef9097007f91970008
:102450008f999700d0b79f00e1b79f00f2b79f0018
:1024600083bf9f006022b8006033b800e205070018
:102470000000e000bcff3c0031fb2f008f804000db
:10248000818555004f91970067004100c0979f00dc
:10249000020037008b05e9000000e9000101780027
:1024a0008200780003c3b300b1cf1100f9ff3200fe
:1024b000c0979f00dc09900061c6b30081cf560031
:1024c0000300320061c4b30081cf560002003a001d
:1024d0000000e800090037001000200051c6b300da
:1024e00081cf5600050032000d40780050c4b20084
:1024f0000080fb000000e9004f00de008301400087
:102500008b8f5100010034008b0178000300e00044
:102510001d00350000c3b3008b8f510006003d0045
:10252000030241006940400041c3b30094cf100052
:1025300001003c00694050008300e9008100410037
:1025400001003700840178000302e90001037800ec
:10255000a142780080cf5200faff320091c3b3004d
:10256000814f500001003a00054be8000400e000f4
:1025700005003d000201e9008301e8004f92970049
:102580000402e800c4979f004f9297008d407800a6
:102590000c007800400407004f0778004f06be008b
:1025a0004f05be004f04be00cf04b100000006007e
:1025b000889fbe0000047800e68440001900d00027
:1025c0004500de00f27f2000820f500010003a002c
:1025d000000ceb00990478006f816400200020005b
:1025e0001b003a00210190000200e00018003a00b0
:1025f000110190000200e00015003a0010002000d8
:102600001100e0001200320020002000100037000e
:102610000000e00004003a0001007800c802070052
:102620000000e00008003c00f200280019016100f1
:1026300001fe2300810c710021c02f00010c40001d
:102640000080eb0002003700000ceb000000eb0004
:102650004f04be0000000600fc874700889fbe00b4
:102660008a9fbe008c9fbe008e1f780000067800f7
:1026700080c5b30080cf50000a0032007740400090
:1026800080cf50000a0032006940400080cf5000e7
:102690000b003200f01f210080bf9f00ae00200021
:1026a0000a003700e21e210082bf9f0006003700ab
:1026b000f31f210083bf9f008e002000030037001e
:1026c000f41f210084bf9f000e0120001c0278002f
:1026d0009c0290002c039000bc0390000605be00f5
:1026e0000404be0040c6b30080cf50000300320097
:1026f0006540400080cf50000b003a00e00f5200d0
:10270000e08f5a00e00f5b00e08f5b0006003d00a9
:102710006000b8006011b8000404500085845800bf
:102720000605590087855900e80f5700040032005c
:1027300040002000f00f57003c003a000100370035
:1027400030002000e00f5400e08f5c00e00f5d00df
:10275000e08f5d0004003a00dc0890008d0120004d
:102760000100e000070032008e00e9008880600070
:102770008fba97008180420091407800f1ef9f006e
:102780007d012000800078008100e9000500330011
:102790008b05d1000a85d3008984d3000884d30037
:1027a000f9ff3700089ebe000a96be0013003700ee
:1027b0008d06e9008e00e900848060000fb9970063
:1027c000810041001141780083fd2f008d8141007f
:1027d00082f77900800178008301e9000500330069
:1027e0008783d1000683d3008582d3000482d3007f
:1027f000f9ff3700049ebe000696be001c0278005a
:102800009c0290002c039000bc039000e00f52004b
:10281000e08f5a00e00f5b00e08f5b009300340014
:102820000d00e000e2ff3c00900037002c609000bb
:1028300081c6b300814f50000b00320006003c00ff
:102840000004e00008003200e6c05000814f500054
:1028500052003a0004003700c1c6b300814f500057
:102860004e003a00230037000800e00004003a0060
:102870005c0890008d0120000000e000070032009d
:10288000110009000e84d8000fba97000100420021
:1028900010407800f0ef9f007d012000110009003a
:1028a0000e84d8000b003700110009000e04d80078
:1028b0008d06e9008e81b900020454008fb897009c
:1028c000088440009841780082fd2f000d014100ee
:1028d00083777900000478000800e00002003200ed
:1028e0000d00e000f0ff3c00cfc4de00614db900f8
:1028f00027003700e00f5400e08f5c0004003a002e
:102900005c0890008d0120000000e000080032000b
:102910006171b9000800be00210607000fba9700d8
:102920008000420091407800f1ef9f007d0120007f
:102930006171b9000800be0095f907000c0037006e
:102940006171b9000800be00b6f807008d06e90005
:1029500080f1b900020454008fba97000884420045
:102960009841780082fd2f000d01410083777900a6
:102970000004be00e00f5000e08f5800020032005b
:102980000d00e000eeff3c004fcdde008a05780030
:10299000089ebe000a96be0034003700e00f5400c7
:1029a000e08f5c00e00f5d00e08f5d0004003a0006
:1029b0005c0890008d0120000000e0000a00320059
:1029c0006172b900612bb9000800be000a01be00a7
:1029d0009e0607000fba97008000420091407800e1
:1029e000f1ef9f007d0120006172b900612bb900f9
:1029f0000800be000a01be008d0607000e00370069
:102a00006172b900612bb9000800be000a01be0066
:102a1000920607008d06e90080f2b9000404540014
:102a20008fba9700088442009842780084fd2f00f6
:102a30000d02420085777a00009ebe000296be001d
:102a40001c0478009c0490002c059000bc059000ac
:102a5000e00f5400e08f5c00e00f5d00e08f5d0050
:102a6000020034000d00e000e5ff3c00e80f5700d5
:102a700010003a000c1090000038a3000d00320046
:102a8000f78f560006003e0080fd2f000d0040002d
:102a9000ef40780000c3b30080cf50000500320043
:102aa00002c3b30071fd2f008d8040008d06e90048
:102ab00082f7780078811600120e98006c00900062
:102ac00083fd2f008f8141008d80410069fc07004c
:102ad0001c089000dc089000810f500006003d00ab
:102ae00000805000000e98000c1090000040a100e3
:102af000001698000f0037000100e0000d003d00b7
:102b00008c109000f4806000f08f500009003a00b3
:102b10007c099000fc009000810051000c0990009d
:102b200082805000008050004240a9000100340023
:102b3000000e98004f0778004f06be004f05be00fc
:102b40004f04be00cf01b100000006000400fa00ef
:102b5000889fbe008a9fbe008c1f7800000478000a
:102b600001067800f80d90007800900080855500ef
:102b70000808900080855500180890008085550051
:102b80002808900080855500380890008085550001
:102b900048089000808555000002220090bf9f00e9
:102ba00000032300a0bf9f00081090000028a3008e
:102bb00015003a000b00e000130034000b0578000c
:102bc0008a047800e20f5500010036002900200039
:102bd000c801900009017800ee805700580090006d
:102be00003000100500498000000e0008c00320057
:102bf0006808900009004000600c98000905550025
:102c00004240a900eeff3c00780190000200e00085
:102c10000c003400c80190008c007800580090002f
:102c200003000100500498008080eb000000e000e9
:102c30007c003200e808900078009000008040009e
:102c4000600c9800880c90000900e000110034002e
:102c500009057800e28f5400010036002a002000a8
:102c6000c80190000a017800ec80570058009000dd
:102c700003000100500498000000e00068003200ea
:102c8000680890000a004000600c98008a84540094
:102c9000edff3700180990000200e0000c0034003e
:102ca000c8019000e8009000580090000300010067
:102cb000500498008080eb000000e00059003200d2
:102cc000e80890001808900000804000600c980010
:102cd000a80c90000900e0001100340009057800fc
:102ce000e28f5400010036002a002000c801900045
:102cf0000a017800ec8057005800900003000100a2
:102d0000500498000000e000450032006808900080
:102d10000a004000600c98008a845400edff3700e0
:102d2000380990000200e0000e003400e800900036
:102d30001808900080804000c80190005800900062
:102d400003000100500498008080eb000000e000c8
:102d500034003200e80890003808900000804000fd
:102d6000600c9800c80c90000900e00011003400cd
:102d700009057800e28f5400010036002a00200087
:102d8000c80190000a017800ec80570058009000bc
:102d900003000100500498000000e0002000320011
:102da000680890000a004000600c98008a84540073
:102db000edff3700081090008000eb000028a30012
:102dc000180032000b00e000160034008b0478007d
:102dd00009057800e28f5400010036002a00200027
:102de000c80190000a017800ee805700580090005a
:102df00003000100500498000000e00008003200c9
:102e0000680890000a004000600c98008a84540012
:102e10004240a900eeff3c008000eb0001003700bb
:102e20008080eb00010078004f0678004f05be005f
:102e30004f04be000080fa0000000600407c210024
:102e4000b2003700881f7800e82221001804e00053
:102e500003003a00f9ff070020c0b300004c7800df
:102e60004f04780000000600889fbe000004780030
:102e70000800780055000700800478000004200056
:102e80001800600002003200280090007301070063
:102e90000000eb0020049800384090000004e0009f
:102ea000050035000000fb0048f607000000e000c8
:102eb000010032008084eb00181090000000e00058
:102ec000080032008cf607000000e000010032002c
:102ed0008084eb0018109000600107000000eb00f8
:102ee000101498000008200018006000150032003f
:102ef0000001eb006000b8000202d0004316210080
:102f000003024200940f140005003a000000400044
:102f100081804800008041000008eb000600370077
:102f200061004000e08048000201e800e80f500026
:102f3000e08f5800f0ff3a000800780047010700d2
:102f40000e003700000c780000c0eb003044980001
:102f5000600220000800400020049800400498000f
:102f600050049800400c980060049800500c9800a1
:102f70007004980076004400000c98000900780066
:102f80004f04be0000000600881f78000004eb001c
:102f90006140b800e2ff2f00f3ff2f008304070019
:102fa0002217210080004100110078000000e0009d
:102fb00001003200acff07000804e800e80f5400ed
:102fc000f3ff3a004f04780000000600889fbe001f
:102fd000000478000800e0000f003a008004eb00d5
:102fe0008800d000401621000080400010007800ca
:102ff0000000e00004003200f4ff07000000e000e1
:1030000001003d008084eb000804e800e80f540054
:10301000f3ff3a002500370000002200180060008e
:103020008004eb0021003200a80490000f0037005c
:1030300009015100384090000000fb008900780031
:10304000ebf507000000e00007003c0028009000be
:103050004004980060049800500c98001890a0005c
:103060008084eb0011003700808444004801900008
:10307000828f5400eeff3900280090004004980031
:103080009800780002c020000281600001003a0030
:103090003800900001e8a3000200320060049800ac
:1030a00001003700500c98008004eb000900780004
:1030b0004f04be0000000600881f78008a9fbe00f3
:1030c0008c9fbe00000478000205be000406be000e
:1030d0000401be000a00be00d2f60700008cbe004c
:1030e0000c01be00310407000005550081855d001c
:1030f0002a0498003b049800080078004f06be00a0
:103100004f05be004f0478000000060001002000bb
:103110000100e00009003200010080000100e00031
:10312000060032008100e900010088008100d00023
:1031300002008000828040008008780000000600c5
:10314000e6004000110178000500280085026100ba
:103150006f01610082087800020032001200200036
:1031600011003700a0019000120020000300e000d1
:103170000d003a00900190000300e0000a003a00c0
:103180001000e00008003a003600370064034000f9
:103190009608780080017800530b78009009780039
:1031a0000408780070015100110278000400e0006a
:1031b000f6ff320013003700640240001403780069
:1031c0004f33de0083814100830873008001780063
:1031d000d3037800cf3bde001403780006034300de
:1031e000068a73001302780004024200100378007c
:1031f0004f33de0086097200900178000388410099
:103200000201e90091017800ef8f5100eaff3600da
:103210001000370080017800530378004f33dd0041
:103220001002d10004087300640240009403780087
:10323000cf3bdd001303d1008689730011037800b2
:103240004f33dd009401d100030a73009108d100cf
:103250000201e80091017800ff8f5100edff3e0070
:10326000ef8861009188720002007800000006007b
:103270000400fa00889fbe0000047800e6044400c1
:10328000190078008000d000c508de00f47f20001f
:10329000848f50000e003a00ef00600020002000f4
:1032a0006b003a00a80090000100e00068003a00be
:1032b000980090000100e00065003a001000200036
:1032c0001800e0006200320020002000600037009b
:1032d0000100e0000a003a0008007800c2bf9f0029
:1032e000d3bf9f0096ff0700800078000000eb002e
:1032f0004fb99700dfb997000100e00054003c008f
:103300004f88de000281400083014800e07f2000fa
:10331000800f5100e08f59000d0034001900e000cb
:1033200004003d006000b8000200200003ff2f00f1
:10333000030037006000b8000200200003ff2700f0
:10334000009cbe000294be00100020004000370028
:10335000e00f5100e08f5900050034004411dd00fa
:10336000f000280019006000800c71003700370061
:103370001900780004002800040260006f0060005b
:103380000040a000800c7800d0fc2f00f1ff2f003f
:10339000800f5100818f590006003d00840c780099
:1033a0000000eb002004980010049800000ceb00d3
:1033b000270037006f014100060037000800780041
:1033c000500c7800e4004400110878009908780057
:1033d000800ceb00700051007001410001fe2f00d5
:1033e00082804000ef8f4000f4ff35000000ea00cb
:1033f000150032008800780070011000d1027800ba
:10340000822add00980178008019de00038c7200aa
:103410006404440098027800822add00910178005b
:103420008019de0083887200990078000209dd00af
:10343000980078008008de00010c71009900780087
:103440000008de00800c7800990c72000080eb0010
:103450004f04be000080fa00000006000000e000fb
:103460002f003200c0017800e38f51002c0036009d
:103470000308a3002a003a00619180000100e000e7
:1034800002003200810f500004003100110098004a
:1034900060918800160037008200780011019000ca
:1034a0000200e00002003200800f5100faff3900f4
:1034b0001102780084824000850f50001800390006
:1034c000808f520003003a00830842000100780018
:1034d000070037000200e0000300320083014000d3
:1034e000830f51000e0039001200980090009800e0
:1034f000900090000100e00009003200100140003f
:10350000828f500006003a00a22221000009eb0041
:1035100010017800110841009100900011009800fe
:1035200000000600889fbe000004780051918000d2
:103530000100e00002003200010078000d003700b9
:1035400061918000c022210004003700910f5400d7
:10355000250036000180e800910090000100e000a5
:10356000faff3a0010003700920f54001e00360098
:103570000280e800100178000200e000faff3a0043
:103580001101780061918000c02221000400370001
:10359000910f5400140036000180e8009100900063
:1035a000828f5000faff3a0089918000888f540082
:1035b0000100310088047800090078006e010700de
:1035c0000000e00004003a00888f5400050032003b
:1035d0008904d100f5ff3700091878009fff070024
:1035e000d2ff37000000eb004f04be0000000600d1
:1035f000881f7800630440000800a1008000eb00f1
:10360000800f540021003600e30f540001003e00fb
:103610004800200008007800c2ff07008000eb008f
:103620000000e0001900320090007800910178005d
:1036300064815100880f5100030031001101900096
:10364000020878000700370008814000020878006f
:1036500091019000130198001001780011091400e5
:1036600088087800100178000000eb000200e000fc
:1036700004003200920190000300e00001003200db
:103680000280e800509188008180e8000100780005
:103690004f04780000000600f0874700889fbe00b6
:1036a0008a9fbe008c9fbe008e1f780000047800a9
:1036b000814478000205be00040678000b00e0009b
:1036c00002003c001b0020002a23210060c6b3003a
:1036d00080cf54000e00320060c4b30080cf54008d
:1036e0000b00320070c6b30080cf540003003200dc
:1036f00070c4b30080cf54009d003a00e40f460030
:103700008300350058089000800f560080003d006f
:103710000c06e80060c6b30080cf540010003200f1
:1037200060c4b30080cf54000d0032000810900038
:103730000038a30004003a0058089000808f55001c
:1037400001003d005b0c9800580890000c005000f0
:10375000500c980002003b000000eb00500c980059
:1037600098089000680090000c00e00028003c00e1
:103770000100400002c3b300024878008100e80065
:10378000110c9800580890000000e00003003c0075
:10379000081090000038a300060032006800900076
:1037a00001004000e2c2b300024878008100e80056
:1037b000110c9800580890008c00ea00810f50000e
:1037c00001003d000006ea008c00ea00210c980090
:1037d000000646005c0c98008b0f56000100340078
:1037e0000b0678003c0c9800e80090001808900048
:1037f000008040000c0178008a0078001df9070065
:10380000580890000c0650004c0c9800c20037007d
:103810008c8f550019003d00010040000b0178001d
:103820008a00780013f9070018089000008045000e
:10383000100c98008b0556002b0c9800d8089000af
:103840000100e00003003c00881090000138a30054
:1038500007003200e800900000804000e1c2b300a1
:1038600001487800380890000000e800300c98000b
:1038700058089000400c9800a70037000100400055
:103880000c0178008a007800faf807001808900008
:1038900000004600100c98008c855500d808900058
:1038a0000100e00003003c00881090000138a300f4
:1038b00006003200e800900080804000e2c2b300c1
:1038c000824878000000e800100c9800580890002a
:1038d000808f55000100340080057800e8009000da
:1038e00018089000008040008c0045000b01780013
:1038f000e0f80700180890000b004000100c98003a
:10390000580890008b0550002b0c9800820037005f
:1039100070c6b30080cf54000300320070c4b300ff
:1039200080cf540012003a0058089000808f550054
:1039300004003d00081090000038a30001003a0088
:103940005b0c9800580890000000e900500c9800ab
:1039500002003b000000eb00500c980070c6b30062
:1039600080cf540009003a0059c6b3000c0037005c
:1039700010c6b30080cf54000600320010c4b3005c
:1039800080cf540006003a000400370059c4b30049
:103990000300370009c7b3000100370009c5b300b1
:1039a00018089000e8009000808040009a48780055
:1039b0000000e800100c9800d80890000100e0001a
:1039c00003003c00881090000138a300060032007c
:1039d000e800900080804000e2c2b3008248780096
:1039e0000000e800100c9800580890000000e0006b
:1039f000100034008b05e900808f55000100340071
:103a000080057800e80090001808900000804000d1
:103a10008a00e8000b01780096f80700180890006b
:103a20000b004000100c9800580890008b055000c7
:103a30002b0c9800e80090001808900000804000cf
:103a4000095878000005e8000c00e000040035008b
:103a5000b1c2b300014878008a067800040037003c
:103a6000d1c2b300014878008a0678000c06ea004b
:103a7000fd8557000007eb0009003700a200200079
:103a80008c00780072805700450007007fb09700d7
:103a90008fb89700816d7800000678000e07e80067
:103aa0000c00e000f5ff3c00e10f570013003c0064
:103ab00050c6b30080cf54000300320050c4b3009e
:103ac00080cf540003003a008a06780000c3b30098
:103ad000805e78000e00e00008003a0000c3b300ea
:103ae000805e7800050037000e07e900fc80570073
:103af0000e80400001c3b30090de40000e00e000e5
:103b0000f9ff3c00e8009000180890000080400099
:103b1000808656003d0c98000810900074006000ec
:103b2000f00f50000e003a009808900078009000c6
:103b300000804000a808900001004000b8089000f4
:103b400001004000c808900001004000f808900003
:103b5000810f500002003d0000805000000c9800d2
:103b60004f0778004f06be004f05be004f04be0051
:103b70000f01b10000000600800078000000eb009b
:103b80000100e000050034000100780063f3070045
:103b9000e10f400001003a000000eb0000000600c9
:103ba0008002780001037800110009000203d800a8
:103bb00080017800830a78008299b900820053005e
:103bc00091029800050078000000060000c0da00ad
:103bd0000000060000c0da000000060000c0da00a5
:103be000000006008f1fd100f90207008f87e9004f
:103bf0000000e00000000600809feb00f4020700d8
:103c00008f87e9000000e000000006002800fa00ad
:103c1000889fbe008a9fbe008c9fbe0003866b00fb
:103c2000800007006400e100440032006408e10005
:103c30004a0032006100e100460032006108e10004
:103c400049003200ec0647006000b8003d02be00ab
:103c50003d03be00f48657006011b8003d04be006d
:103c60003d05be007d0320000b0037000000a000d2
:103c70008d06e900130032000402420085824a00ea
:103c800006034b0087834b00000040008180480002
:103c900002014900838149000802520089825a00ca
:103ca0000a035b008b835b00f0ff3b0008024200cd
:103cb00089824a000a034b008b834b008d06e90082
:103cc000edff3a008482720086827200f707b2002c
:103cd0008782720001003200150020001e0490004f
:103ce0003e0b900006035400e63fb0000368a300bb
:103cf000070032000000a7000500a0008301d100ea
:103d00000281d3008180d3000080d3000603e80045
:103d10008301d1000281d3008180d3000080d300d1
:103d20000002eb000482d2001200070003f0a100a1
:103d30000cf0a70003f0a0004e003700640247001b
:103d40006408e100480032003400be003401be00c7
:103d5000f6ff37006108e100430032006011b8004f
:103d60006000b800f1ff370003ff270002002000c9
:103d7000fbff370018002000570020000804530004
:103d80000d003d000600200097fc2f000740e100d9
:103d90001e00340084827200610260008301d10041
:103da0000281d3008180d3000080d3000804e800a2
:103db000f8ff3a0047002000610460000504740029
:103dc000040464000d00320061004000e0804800ff
:103dd00060014900e081490003b8a50007003200f6
:103de0000603e8006538e10004003a008301d100d1
:103df0000281d3008180d3000080d300f87f2000af
:103e00000830e10003003500080378006000b800c6
:103e10006011b8004433dd00f300b2008301730089
:103e200000000600680447000294be000094be0033
:103e3000fc0447008694be008494be00090078000c
:103e4000ad02070008007800ab0207009900780077
:103e5000814f70000b003b000800be008502070088
:103e60004f00b10003003700f3ff2700f2ff2f00df
:103e70006110b9004f06be004f05be004f04be00e2
:103e80000080fa000000060081037800dff30700dd
:103e90000001be006000b8000478a30013003a00df
:103ea0006220e10015003e000d0039008301d100c1
:103eb0000281d3008180d3008301d1000281d3002d
:103ec0008180d3008301d1000281d3008180d3009f
:103ed0000538b000c42add00f300b200838172000f
:103ee00007f0a70003f0a00000000600f3ff270082
:103ef000f2ff2f006110b900fbff370003ff27001e
:103f0000f7ff37001400fa00889fbe008a9fbe00aa
:103f10008c9fbe000004be000205be006800470082
:103f20000a90be000890be00730207000070a70050
:103f30000bf0a100304320009e02900080825200ce
:103f4000b0fe2f000028e10011003d00b0fc2f0062
:103f50000028e100150034001e0990008e08900032
:103f60007e0090000501b0000201d1008180d300e5
:103f70000080d3008502e800fbff3a000b00e00060
:103f8000bcff3b0060001000e0801800b9ff370064
:103f9000f0ff2f00f1ff27000b00e000b5ff3b0012
:103fa0000100280000002000b2ff37006000b800c8
:103fb000b0ff37004f89de008201780075023700bc
:103fc0002800fa00889fbe008a9fbe008c9fbe001a
:103fd00003866b0093ff07000028a30064003a00eb
:103fe0000128a30068003a000008a30062003a001c
:103ff0000108a30066003a001e009000be08900071
:1040000081064000ed3fb100f4805700ee019000c2
:10401000111ab8008e099000311bb8009e0990005b
:10402000311cb800511db800f48557004600070048
:10403000fe0190003a0007008b85e8003e00070073
:104040008e09900040000700ee0190003400070048
:104050008b85e800380007008e09900040000700bb
:104060009e0990001b18b800890440000a8548008a
:10407000fe019000340007008b85e800380007003f
:10408000ee019000300007008e0990001b18b80068
:10409000890440000a8548000a98a30008003a00f5
:1040a0000402420085824a0006034b0087834b00ce
:1040b00008044c0089844c000a054d008d06e90077
:1040c00084827200850273004c3add008502720022
:1040d0000100320015002000443ade001400b20056
:1040e0004538de00cb45dd000b007000c540de002a
:1040f000cb4ddd008b8070004549de00cb55dd00e7
:104100000b017100c551de000d03780019ff070097
:1041100003f0a1000cf0a70003f0a00055ff37004a
:104120001b18b8008502400006834800e0834b005e
:1041300060044c00070037001b18b800060340005d
:1041400087834800faff37001b18b8008703400038
:1041500008844800e0844c0060054d000000060023
:104160001b18b8000804400089844800faff370093
:104170000108a3003cff3a005800be000000000008
:104180005801be00e2ff37000008a30036ff3a00e6
:1041900009047800f8ff370007f0a2000e0137008d
:1041a0007bf307000400be0000000600020ab9000d
:1041b000001bb9000200b8008100420081004300ea
:1041c00000000600889fbe008a9fbe0030044200a7
:1041d000b0844a0030054b0090854b006000b10070
:1041e0000898be000a90be000440e10005c8e10046
:1041f00006d0e10007d8e10002003100680040006d
:104200001008e8004f05be004f04be000000060085
:10421000889fbe008a9fbe00100478009004900022
:1042200020059000b00590000418540005985c002b
:1042300006185d0007985d00110020000440e100b1
:1042400005c8e10006d0e10007d8e100010039000f
:104250008000eb00108810004f05be004f04be0028
:10426000000006001200fa00889fbe008a9fbe0070
:104270008c9fbe00e0b79f00f1b79f0082bf9f00f8
:1042800093bf9f000605be000404be000000eb00c3
:10429000d0b79f00c0b79f00b0b79f00a0b79f00e6
:1042a00090b79f000006eb005fb19700cfb097007a
:1042b000820141003fb097000200e00004003d0091
:1042c000370007007e805700beff0700030037005d
:1042d000330007007e805700cdff0700dfb6970050
:1042e0000d00e0000c0035006fb29700ffb29700a0
:1042f0000fbb97009fbb970010002000010020001b
:104300006011b80000027200818272000203730023
:10431000838373001b0007000c06e80001042000e3
:10432000810f5600e0ff3a000d00e00004003d0060
:104330000802be000a03be007e805700a1ff0700ee
:104340005fa897000000e00005003a001fb2970048
:10435000afb297003fb39700cfb3970009000700b3
:104360006fb09700ffb097000fb997009fb9970003
:104370004f06be004f05be004f04be000080fa008d
:10438000000006000100070000000600a4b79f001f
:10439000b5b79f00c6b79f00d7b79f0000000600c3
:1043a0004f09de0082817100b3b79f004f01de002c
:1043b0008180400082807000a1b79f008fb097007d
:1043c0004f09de00000040000200700090b79f001f
:1043d0007fa897004f01de0081804000828070003e
:1043e00081b79f000d0007004f3ade00000040003b
:1043f00004007000f0af9f000800070004024200b4
:1044000085824a0006034b0087834b00dfff0700cd
:104410000802be000a03be00000006002fb297008b
:10442000bfb297004fb39700dfb3970000000600bc
:10443000881f780018002000881f780089ff070077
:104440008f87e9004f04780000000600801feb0012
:1044500084ff07008f87e90000000600889fbe00e8
:104460008a9fbe00e00f5000e08f5800e00f590017
:10447000e08f59000c003d006044b8006055b80062
:104480000000540081805c0002015d0083815d00ba
:10449000180020001500070008003d001800070064
:1044a0000004eb00050037000004eb000f000700dc
:1044b00002003d001200070018002000dcff07008a
:1044c0000800e000060032006022b8006033b80047
:1044d0000000520081805a0002015b0083815b0072
:1044e0004f05be004f04be0000000600e00f520062
:1044f000e08f5a00e00f5b00e08f5b0000000600d9
:104500006044b8006055b8000402540085825c0025
:1045100006035d0087835d0000000600889fbe00e3
:104520008a9fbe008c1f7800e00f5000e08f58007b
:10453000e00f5900e08f59000d003d006044b800c5
:104540006055b8000000540081805c0002015d00ed
:1045500083815d001c0020000820e10009a8e10023
:104560000ab0e1000bb8e1000d003d000800370083
:104570000006eb00e00f5200e08f5a00e00f5b00f6
:10458000e08f5b0006003d006044b8006055b80055
:104590000402540085825c0006035d0087835d0091
:1045a000aaff07000c00e000060032006022b800fd
:1045b0006033b8000000520081805a0002015b00a5
:1045c00083815b004f0678004f05be004f04be009c
:1045d00000000600000000002800fa00889fbe00ce
:1045e0008a9fbe008c9fbe00070678008786690000
:1045f0000c003b00030478008704780008f0a10059
:1046000009f0a100840f5000858f5800860f5900d3
:10461000890f5c00030033000cf0a20001003a0097
:104620000cf0a100fffd07006400e1005f00320014
:10463000780147006408e100610032006c01470026
:10464000748557003200be001201be003a04be005d
:104650001a05be001e039000be0a90008503530099
:1046600006003d000004fd008104fd000205fd0080
:104670008305fd008703ea00050378000df8a30019
:104680000400320060041400e0841c0060051d007a
:10469000e0851d006022b8007d0320000d38e10098
:1046a0008006eb000b0039004433dd00f300b2005c
:1046b0008301730039003700848272000d02780094
:1046c000e10664008b85d1000a85d3008984d3007c
:1046d0000884d3008703e900f7ff3b00080040008f
:1046e000898048000a0149008b81490004003b0091
:1046f00060001000e080180060011900e0811900de
:104700000358a300090032008d8272008482720077
:10471000610260008301d1000281d3008180d30057
:104720000080d3000603e8001b0037000348a30005
:1047300017003a000600e000170034000603e90005
:104740000d00a300000048008180480002014900dc
:10475000838149000348a3000f003a000600e000ef
:10476000090034000603e900000040008180480091
:10477000020149008381490001003a000003eb0077
:104780000348a300f5ff32006022b80002003700a2
:10479000848272006182660076fd070003f0a1004a
:1047a0000cf0a70003f0a000b2fd37006401470041
:1047b0006408e10002003a000df8a300aafd3a00e7
:1047c00032007800b20078001201be00a9fd370067
:1047d000889fbe008a9fbe008c9fbe000404be005e
:1047e0000605be00809fbe00829fbe00300007000d
:1047f000040678000800be000a01be002c00070075
:10480000840678004f03be004f02be008d4f760035
:104810007fb0970013003300f0ff2f008b8f6b00e9
:1048200006003b000d0666000c00a7000a003700da
:1048300007f0a600100020000a003700880f520081
:10484000898f5a008a0f5b008b8f5b000300390051
:104850001000200001003e000000200007f0a7002b
:104860000000ea004f06be004f05be004f04be0028
:1048700000000600e48240001078a3000700320028
:10488000640240001178a3003400be001401be0091
:10489000050032000330a700000006003500780054
:1048a000350078001501be000330a00000000600ae
:1048b00005ff270005826100070032000428e1009f
:1048c00001003200240005000600070001003a0044
:1048d000440005000408050002000700f9ff3a0043
:1048e000140005006f826100810270008502710072
:1048f00085027200000006005002be00e400500075
:104900005003be004439de00f700b200f37f200000
:1049100003016100090032000218e10016003a00ac
:1049200085017200830173008381730000082000f9
:1049300015003a0040002000130037008501720086
:10494000830173008381730005003a0004a8be0050
:1049500006a8be00100020000b0037000201e9008d
:104960000402420085824a0006034b0087834b0005
:104970000748a300f9ff32000740a00004a8be00ca
:1049800006a8be0020002000800098009200980039
:1049900000000600881f7800030478000300e00090
:1049a00007003d0060001000e08018006001190061
:1049b000e081190002003b0001f02d0003003700e8
:1049c0000400070008f0a70003f0a0004f047800df
:1049d00000000600889fbe00008270000402710083
:1049e000048271002400320036432000c5002000fc
:1049f0008383cf000a0039000541b1008283cf00d4
:104a0000070039000541b1008183cf00040039005f
:104a10000541b1008083cf00010039000541b1009c
:104a200085c353006022b800120032000a003b0028
:104a300084827200610260008301d1000281d30090
:104a40008180d3000080d3000603e8008743e8009c
:104a5000f7ff3a000700370000004000818048005f
:104a600002014900838149000603e9008743e90008
:104a7000f9ff3a00bffc07004f04be00000006002b
:020000040000fa
:104a8000560000006d56000000490000006d000057
:104a90004100000054000000b0430000000000008e
:104aa000564100005200000001000000020000001a
:104ab000040000005620000000410000200000001b
:104ac0002020000020200000200000000919000024
:104ad000090900001d0100001d0900004d00000033
:104ae0004200000025640000000000002c000000cf
:020000040000fa
:104af0000e00fa00881f7800600798000040eb0065
:104b0000004f7800acd0bf000004a2000004e00019
:104b10000400320010c0b300acf0b70010c0b30006
:104b2000004f78006e0090002048900051c0b30004
:104b30005d0507006e0090002000900099040700ba
:104b40006e0090002048900061c0b3005605070039
:104b5000a0c3b3008a0407006e00900040009000dc
:104b6000cf80de007ef00700100798002107980034
:104b70000000eb003007980018c0b30002002000ce
:104b8000a34724001e009000ae00900034f0070000
:104b90000000e000010035000044eb000804e000e4
:104ba000110032006e009000204090000080fb0059
:104bb0000000e00003003200e10f50000500320069
:104bc000470037006e00900021542a003100980001
:104bd000430037006e00900071542a0031009800a5
:104be000000000003e0037006e0090002040900062
:104bf0000080fb000000e00003003200e10f5000e5
:104c00001c003200360037006e009000a1552a00cb
:104c10003100980002002000a34724001e009000ed
:104c2000ae009000bdef0700100798002107980024
:104c300018c0b30002002000632c24001e00900066
:104c4000ae00900008f007000000e00001003c000a
:104c50000044eb000804e000030032000000eb0019
:104c6000300798001e003700200020003007980011
:104c70001b0037006e009000d1552a0031009800cb
:104c800002002000a34724001e009000ae00900008
:104c9000a2ef0700100798002107980018c0b30082
:104ca00002002000632c24001e009000ae00900043
:104cb000edef07000000e00001003c000044eb00c5
:104cc0000804e000030032000000eb003007980009
:104cd000030037002000200030079800000000008b
:104ce0001e009000ae009000e1ef07000000780089
:104cf0008c000700400798000000eb005007980068
:104d00003e0090000000e00005003200be00900070
:104d10004e009000008040000000e800400798002e
:104d20006e009000304890008080fb004e009000a4
:104d3000008050000000e800500798006e009000ce
:104d40002048900071c0b300d704070000562a0025
:104d5000140407005e009000804078006e00900010
:104d600020489000d00407003e0190001e009000f3
:104d7000ae009000580407006e009000204890009c
:104d8000c1c0b300c80407006e009000300090005e
:104d9000040407001e4078000004e0000100320017
:104da000ac70ef004f0478000080fa0000000600ad
:104db0000400fa00100798000040eb00004f780054
:104dc000acd0bf000004a2000004e00004003200e8
:104dd00010c0b300acf0b70010c0b300004f7800b3
:104de000d1c0b30010c0b300af0407001e00900094
:104df00010009000eb0307001e00900040009000a0
:104e0000b04090001e0090004000900020409000b4
:104e1000a50407001e009000400090001040900084
:104e2000d70307001e0090002000900030ff07000d
:104e30001e009000300090002dff07001e00900023
:104e400020009000b04890001e00900020009000cc
:104e500020489000940407001e4078000004e00001
:104e600001003200ac70ef000080fa000000060084
:104e70000400fa00100798000040eb00004f780093
:104e8000acd0bf000004a2000004e0000400320027
:104e900010c0b300acf0b70010c0b300004f7800f2
:104ea0008040eb000040eb007f0407001e009000f4
:104eb00010009000bb0307001e009000200090002f
:104ec000b04090001e009000200090002040900014
:104ed000750407001e009000200090001040900014
:104ee000a703070031c0b3000040eb006e040700c9
:104ef000c0c7b300a203070031c0b30010c0b300a5
:104f000069040700c0c7b3009d0307001e40780076
:104f10000004e00001003200ac70ef000080fa00f5
:104f2000000006000400fa0010079800100020009e
:104f3000000f78001e0090000000e0000d003d0012
:104f40001e0090000000ea00100798001e0fe80005
:104f5000080037001e0fe8001e0190007066260052
:104f60000090b900c288de004f90de000080500043
:104f7000100798001e009000e90f5000f5ff3c005c
:104f80001e0078000080fa00000006000000fa0011
:104f90007203070061562a0010c0b300cd04070059
:104fa000ac70ef00a6d0bf000080fb008000400086
:104fb000e00a210000804000610a21000108780019
:104fc00092d0bf000080fb0080004000000b210059
:104fd0000080400021092100010878009cd0bf001a
:104fe0000080fb0080004000000b2100008040009a
:104ff000c10921000108780062d0bf000080fb00d9
:10500000410b2100000040000080400021062100eb
:10501000010878006ed0bf000080fb00410b21002a
:105020000000400000804000e106210001087800f7
:1050300086d0bf000080fb00410b21000000400033
:105040000080400061082100010878007ad0bf008c
:105050000080fb00410b2100000040000080400068
:10506000a10721000108780056d0bf000080fb0096
:1050700080004000c00b210000804000610521003d
:10508000010878005ad0bf000080fb00800040007b
:10509000c00b210000804000a1052100010878001c
:1050a0005ed0bf000080fb0080004000c00b2100ec
:1050b00000804000e10521000108780000c0eb00fd
:1050c000c2f0b70000c0eb00c3f0b70000c0eb00b7
:1050d000c4f0b700a6d0bf000080fb00100007009e
:1050e00092d0bf000080fb001e00070062d0bf000e
:1050f0000080fb000041eb008000780010002000e1
:10510000290007008040eb000040eb00e6030700a9
:1051100010c0b3001a0307000080fa000000060068
:105120000200fa00000f7800a02a85009e00780097
:10513000808f5000090031001e0078000040780088
:10514000c2f0b7001e00780080004000e00a210095
:10515000008040001000780045ff07000080fa0042
:10516000000006000200fa00000f7800b02a850057
:105170009e007800808f5000090031001e007800ea
:1051800000407800c3f0b7001e00780080004000a7
:10519000000b2100008040001000780004ff070091
:1051a0000080fa00000006001600fa00000f9800c8
:1051b000110f980042579800c2d0bf000000fb00ba
:1051c00080004000e00a21000080400010007800cc
:1051d000301f780020177800a00090002107980069
:1051e000c3d0bf000000fb0080004000000b210086
:1051f0000080400010007800e6004700b0187800fa
:10520000a0107800e480400064004000b0187800ee
:10521000a0107800e480400064004000900878000e
:105220008180e8000080e8000e0890000000e000a7
:1052300003003200e10f50001b003200370037003e
:105240007e009000104078008080fb001e089000d7
:10525000808f5000060032002e0090001040780031
:105260008080fb001e089000808f500028003a00cc
:105270001e08900080004000c00b2100008040000c
:1052800010007800b04090001e089000000140001f
:10529000c00b210000004100100078002040900069
:1052a000810307001d0037005e0090001040780069
:1052b0008080fb001e089000808f500006003200a6
:1052c0006e009000104078008080fb001e08900067
:1052d000808f500010003a00410b21001e08900002
:1052e000000040000080400010007800b0489000ae
:1052f000420b21001e089000000040000000410009
:105300001000780020489000670307000300370072
:105310000000000001003700000000000080fa00db
:10532000000006000e00fa00500798006107980080
:10533000c02a8500de009000808f500057003100a9
:10534000410b21005e009000000040000080400002
:1053500010007800204090000080fb00e10f50001a
:105360000c003200e20f5000120032000000e0009a
:1053700018003a00410b21005e0090000000400040
:105380000080400010007800ee009000410098007e
:1053900011003700410b21005e009000000040002a
:1053a0000080400010007800ee009000410098005e
:1053b00009003700410b21005e0090000000400012
:1053c0000080400010007800ee009000410098003e
:1053d0000100370000000000c3d0bf000000fb0048
:1053e00080004000000b2100008040001000780089
:1053f0008e007800b0187800a0107800e48040009b
:1054000064004000b0187800a0107800e4804000ec
:1054100064004000900878008180e8000080e80087
:105420002e009000104078008080fb005e0090000d
:10543000808f5000060032003e009000104078003f
:105440008080fb005e009000808f500013003a00c7
:10545000410b21005e0090000000400000804000f1
:1054600010007800a2fd0700410b21005e009000b3
:10547000000040000080400010007800b04890001c
:10548000420b21005e00900000004000000041003f
:105490001000780020489000030307000080fa0005
:1054a000000006000400fa00889fbe00000f78008c
:1054b0002147980021e2a90021a2a9002182a90088
:1054c00001118000f0cf2f000080600000118800e3
:1054d00020e2a90020c2a90020a2a9002082a900e0
:1054e0002062a9000111800090ff2f000080600061
:1054f000001188002002a90023a2a90023e2a9002c
:1055000023c2a9002342a90011118000f0f32f004b
:10551000008060001011880022a2a9001e007800ff
:105520008000eb000001be00804a220091112000a3
:10553000bced07004c09dd004404de0008047100e6
:10554000c48cde00080078000000e90040118800eb
:1055500003003700301180000040780055f0b7009c
:1055600010118000610060000000e000f9ff3a00c7
:105570002422ef002e4090000004e00008003200da
:105580000168a90021428000f0ff280080806000af
:105590000000230001007000204288002168a8005c
:1055a00011c0b3000000eb00090107004f04be006a
:1055b0000080fa00000006000200fa00000f7800e8
:1055c0000080fa00000006000200fa00000f7800d8
:1055d0001e0078000000e0000d003a0010cea80088
:1055e00010aea9002136800000f82f0080806000f6
:1055f0006002200001007000203688001134800015
:10560000f00f2c00008060000080a00010348800a3
:105610000080fa00000006000200fa00881f7800ef
:10562000004f780033d0bf000080fb00e30f500034
:1056300039003200e30f500007003c00e10f50003a
:105640001c003200e10f500025003c000000e0008b
:1056500008003200b2003700e50f5000970032001a
:10566000e50f500049003500e70f50009e00320062
:10567000ab00370040c2b3009e40780080cf50009e
:105680000a003a000270ef000370ef005270ef0062
:105690004770ef005470ef005370ef004270ef005e
