:020000040000fa
:080000000002040000000000f2
:020000040000fa
:04000800ae03000043
:020000040000fa
:04000c00ae0300003f
:020000040000fa
:04001000ae0300003b
:020000040000fa
:04001400ae03000037
:020000040000fa
:04001800ae03000033
:020000040000fa
:04001c00ae0300002f
:020000040000fa
:04002000ae0300002b
:020000040000fa
:04002400ae03000027
:020000040000fa
:04002800ae03000023
:020000040000fa
:04002c00ae0300001f
:020000040000fa
:04003000ae0300001b
:020000040000fa
:04003400ae03000017
:020000040000fa
:04003800ae03000013
:020000040000fa
:04003c00ae0300000f
:020000040000fa
:04004000ae0300000b
:020000040000fa
:040044005e03000057
:020000040000fa
:04004800ae03000003
:020000040000fa
:04004c00ae030000ff
:020000040000fa
:04005000ae030000fb
:020000040000fa
:04005400ae030000f7
:020000040000fa
:04005800ae030000f3
:020000040000fa
:04005c00ae030000ef
:020000040000fa
:04006000ae030000eb
:020000040000fa
:04006400ae030000e7
:020000040000fa
:040068002c03000065
:020000040000fa
:04006c001403000079
:020000040000fa
:04007000ae030000db
:020000040000fa
:04007400ae030000d7
:020000040000fa
:04007800ae030000d3
:020000040000fa
:04007c00ae030000cf
:020000040000fa
:04008000ae030000cb
:020000040000fa
:04008400ae030000c7
:020000040000fa
:04008800ae030000c3
:020000040000fa
:04008c00ae030000bf
:020000040000fa
:04009000ae030000bb
:020000040000fa
:0400940086030000df
:020000040000fa
:04009800ae030000b3
:020000040000fa
:04009c00ae030000af
:020000040000fa
:0400a000ae030000ab
:020000040000fa
:0400a400ae030000a7
:020000040000fa
:0400a800ae030000a3
:020000040000fa
:0400ac00fa02000054
:020000040000fa
:0400b000ae0300009b
:020000040000fa
:0400b400ae03000097
:020000040000fa
:0400b800ae03000093
:020000040000fa
:0400bc00ae0300008f
:020000040000fa
:0400c000ae0300008b
:020000040000fa
:0400c400ae03000087
:020000040000fa
:0400c800ae03000083
:020000040000fa
:0400cc00ae0300007f
:020000040000fa
:0400d000ae0300007b
:020000040000fa
:0400d400ae03000077
:020000040000fa
:0400d800ae03000073
:020000040000fa
:0400dc00ae0300006f
:020000040000fa
:0400e000ae0300006b
:020000040000fa
:0400e400ae03000067
:020000040000fa
:0400e800ae03000063
:020000040000fa
:0400ec00ae0300005f
:020000040000fa
:0400f000ae0300005b
:020000040000fa
:0400f400ae03000057
:020000040000fa
:0400f800ae03000053
:020000040000fa
:0400fc00ae0300004f
:020000040000fa
:04010000ae0300004a
:020000040000fa
:04010400ae03000046
:020000040000fa
:04010800ae03000042
:020000040000fa
:04010c00ae0300003e
:020000040000fa
:04011000ae0300003a
:020000040000fa
:04011400ae03000036
:020000040000fa
:04011800ae03000032
:020000040000fa
:04011c00ae0300002e
:020000040000fa
:04012000ae0300002a
:020000040000fa
:04012400ae03000026
:020000040000fa
:04012800ae03000022
:020000040000fa
:04012c00ae0300001e
:020000040000fa
:04013000ae0300001a
:020000040000fa
:04013400ae03000016
:020000040000fa
:04013800ae03000012
:020000040000fa
:04013c00ae0300000e
:020000040000fa
:04014000ae0300000a
:020000040000fa
:04014400ae03000006
:020000040000fa
:04014800ae03000002
:020000040000fa
:04014c00ae030000fe
:020000040000fa
:04015000ae030000fa
:020000040000fa
:04015400ae030000f6
:020000040000fa
:04015800ae030000f2
:020000040000fa
:04015c00ae030000ee
:020000040000fa
:04016000ae030000ea
:020000040000fa
:04016400ae030000e6
:020000040000fa
:04016800ae030000e2
:020000040000fa
:04016c00ae030000de
:020000040000fa
:04017000ae030000da
:020000040000fa
:04017400ae030000d6
:020000040000fa
:04017800ae030000d2
:020000040000fa
:04017c00ae030000ce
:020000040000fa
:04018000ae030000ca
:020000040000fa
:04018400ae030000c6
:020000040000fa
:04018800ae030000c2
:020000040000fa
:04018c00ae030000be
:020000040000fa
:04019000ae030000ba
:020000040000fa
:04019400ae030000b6
:020000040000fa
:04019800ae030000b2
:020000040000fa
:04019c00ae030000ae
:020000040000fa
:0401a000ae030000aa
:020000040000fa
:0401a400ae030000a6
:020000040000fa
:0401a800ae030000a2
:020000040000fa
:0401ac00ae0300009e
:020000040000fa
:0401b000ae0300009a
:020000040000fa
:0401b400ae03000096
:020000040000fa
:0401b800ae03000092
:020000040000fa
:0401bc00ae0300008e
:020000040000fa
:0401c000ae0300008a
:020000040000fa
:0401c400ae03000086
:020000040000fa
:0401c800ae03000082
:020000040000fa
:0401cc00ae0300007e
:020000040000fa
:0401d000ae0300007a
:020000040000fa
:0401d400ae03000076
:020000040000fa
:0401d800ae03000072
:020000040000fa
:0401dc00ae0300006e
:020000040000fa
:0401e000ae0300006a
:020000040000fa
:0401e400ae03000066
:020000040000fa
:0401e800ae03000062
:020000040000fa
:0401ec00ae0300005e
:020000040000fa
:0401f000ae0300005a
:020000040000fa
:0401f400ae03000056
:020000040000fa
:0401f800ae03000052
:020000040000fa
:0401fc00ae0300004e
:020000040000fa
:04020000ae03000049
:020000040000fa
:04020400ae03000045
:020000040000fa
:04020800ae03000041
:020000040000fa
:04020c00ae0300003d
:020000040000fa
:04021000ae03000039
:020000040000fa
:04021400ae03000035
:020000040000fa
:04021800ae03000031
:020000040000fa
:04021c00ae0300002d
:020000040000fa
:04022000ae03000029
:020000040000fa
:04022400ae03000025
:020000040000fa
:04022800ae03000021
:020000040000fa
:04022c00ae0300001d
:020000040000fa
:04023000ae03000019
:020000040000fa
:04023400ae03000015
:020000040000fa
:04023800ae03000011
:020000040000fa
:04023c00ae0300000d
:020000040000fa
:04024000ae03000009
:020000040000fa
:04024400ae03000005
:020000040000fa
:04024800ae03000001
:020000040000fa
:04024c00ae030000fd
:020000040000fa
:04025000ae030000f9
:020000040000fa
:04025400ae030000f5
:020000040000fa
:04025800ae030000f1
:020000040000fa
:04025c00ae030000ed
:020000040000fa
:04026000ae030000e9
:020000040000fa
:04026400ae030000e5
:020000040000fa
:04026800ae030000e1
:020000040000fa
:04026c00ae030000dd
:020000040000fa
:04027000ae030000d9
:020000040000fa
:04027400ae030000d5
:020000040000fa
:04027800ae030000d1
:020000040000fa
:04027c00ae030000cd
:020000040000fa
:04028000ae030000c9
:020000040000fa
:100400004f0921000eff21000e01880000000000ae
:10041000000020000000e000020032000001200087
:100420002002880014000700ce0007000000e00052
:1004300003003a00a09f21000100200002003700c5
:100440000000200001002000810f70000100320038
:100450000f000700000020000000e0000200320052
:100460000000020000000000c815020000000000ab
:100470000040da000000fe00400220000000e00022
:1004800002003200002020009001880000000600d9
:10049000a1028800800478000000eb001f003700f4
:1004a000e284440054a0b4009905ba00e2844400f8
:1004b00054a0b4009906ba00e284440054a0b400e9
:1004c0000006eb00476fde00fd07b200ae018800ba
:1004d000636ce10003003a000ad801000000eb0061
:1004e0000e003700606ce10008003a00004deb00a0
:1004f0000a05e800020039003420ec000af0a000f0
:100500008b05e900f9ff3e00040037006168e10057
:10051000010032000086eb000b00070019c7ba008b
:100520000e04e0001905ba0003003a000a00e000da
:10053000dbff3a0000000600fe07b200ae028800b2
:100540008a047800f5ff37000cd0a300e20f4d00bd
:100550001c00390089027800354dba000a05e80010
:10056000020039003420ec000af0a0008b05e900fd
:100570000f003200254dba000a05e80002003900dc
:100580003420ec000af0a0008b05e90008003200de
:100590000c00e0000600320015cdba000a05e800a4
:1005a000020039003420ec000af0a0008b05e900bd
:1005b0008984e80054a0b4000b00e000e2ff3a0098
:1005c000000006009902ba00055d78008b05e9007d
:1005d000f7ff3200c82ade00055d78008b05e900d0
:1005e000f3ff32000c00e000f1ff320019ddba0029
:1005f000eeff3700801f78000000fa0020408000e6
:10060000620060000000e0000400320013aea800a9
:1006100040138000708488000428a9000080fa003c
:100620004f00780000400600801f78000000fa00ac
:1006300010408000620060000000e0000300320013
:1006400010c0b30053f0b7000228a9000080fa00e0
:100650004f007800004006003600f800809fbe0082
:10066000829fbe00849fbe00869fbe000000fa00ed
:1006700010408000610060000000e00008003200cf
:1006800010c0b30052f0b7000208a900d80107005b
:1006900060828000e60f500001003a00d40107009c
:1006a0000080fa004f03be004f02be004f01be00a3
:1006b0004f00be003600f900004006003600f8008a
:1006c000809fbe00829fbe00849fbe00869fbe00aa
:1006d0000000fa0001408000000820000080600057
:1006e0000000e000020032008f08070000e8a900c7
:1006f0000080fa004f03be004f02be004f01be0053
:100700004f00be003600f900004006003600f80039
:10071000809fbe00829fbe00849fbe00869fbe0059
:100720000000fa001140800000802000008060007e
:100730000000e00002003200ad0807000368a900d5
:100740000080fa004f03be004f02be004f01be0002
:100750004f00be003600f900004006000040da00fd
:100760000000fe000000050003f0a200889fbe000c
:100770008a9fbe008c1f7800d4000700db00330086
:100780006450e1004f0032006420e100520032006a
:1007900003826c0007003b000905d0000306d0006f
:1007a000820f54000c065d00020039000200320086
:1007b00089017800030678008582550004003d0019
:1007c0000003fd008103fd008502ea008b854200e5
:1007d000840f720002003b0060001000e0801800ef
:1007e0006011b8000005eb007a28e1000a0039002a
:1007f00006007800c75ddd00f707b200878075004e
:100800002d003700828171000a01780061056000c7
:100810008180d1000080d3008502e900f9ff3b0010
:10082000060440008784480002003b006004140076
:10083000e0841c000988a300070032008a8171004f
:1008400082817100610164008904d1000884d300b1
:100850008b05e800170037000978a30013003a0061
:100860000b00e000130034008b05e900080444008d
:1008700089844c000a4474000978a3000d003a00f2
:100880000b00e000070034008b05e9000804440079
:1008900089844c0001003a000b0020000978a30075
:1008a000f7ff32000001eb00020037008281710087
:1008b0000a0178004a0007000cf0a70001f0a00030
:1008c000930037006420e10002003a00838f6c003f
:1008d000930033000801be000200be008c00370008
:1008e00014002000c50037000001be0062000700b0
:1008f0000470a70003f0a1006509b10016003200e2
:100900000d0035006828e10006003500f0ff2f00db
:10091000f1ff27000300e00013003b000100280066
:100920000000050000004000818048008502e900c9
:10093000fcff3a0008003700f88f420002003c003c
:100940008000eb00000005008100d1000080d30092
:100950008502e800fcff3a000300e00002003b00d3
:1009600060001000e0801800000006000001be00da
:10097000410007000470a70003f0a10003f8a300e2
:1009800013003a006509b10010003200090035007b
:100990006928e10002003500010028000000050080
:1009a00000004000818048008502e900fcff3a0019
:1009b00000000600f88f4200050035008100d100dc
:1009c0000080d3008502e800fcff3a00000006002a
:1009d0008000eb00000005006011b800a2003700a5
:1009e00081002000618055000b003d000b002000bd
:1009f00061fe2f000100e1001d00340082817100c2
:100a0000610164008904d1000884d3000000e8007b
:100a1000faff3a00710020006100640003007000da
:100a2000020060000900320061044400e0844c00d0
:100a30000988a500050032008b05e8006808e10080
:100a400002003a008904d1000884d300f20f20008c
:100a50000258e10005003d00c75ddd00f907b20066
:100a60008980750008007800000006000bf8270058
:100a70008b00780000000500c70ade00f107b20015
:100a8000f50fb20008003200e1cf42000200320050
:100a90000170a00024000500810f700001003200e9
:100aa0000408050044000500810f700002003a00b0
:100ab000140005008502e9000000400081c04800e4
:100ac000fcff3b000170a000240005000004be00f4
:100ad000e9ff07000003be000405be000200be00df
:100ae000e5ff0700844f7500000006000200be000d
:100af0006450e100050036006420e1000200360089
:100b00000968a30001003a000800be000160a000cf
:100b10004f0678004f05be004f04be0000000600df
:100b2000f0ff2f00f1ff2700f9ff3700889fbe007c
:100b30008a9fbe008c1f7800e4ff0700ebff3300a4
:100b400003866c006450e100240032006420e10060
:100b5000270032006150e100220032006120e100f4
:100b6000210032008b854200eb07b1000134b80050
:100b7000003ab8000804420089844a00013ab800eb
:100b80000030b8008880400009014a0004003300aa
:100b90000000400081804800020149008b05e90007
:100ba000c909dd008301700001003200130020003c
:100bb000c814de004814dd004709de001200b20050
:100bc000c808de000884700085ff070001f0a1005e
:100bd0000cf0a70001f0a000cdff37006120e1007c
:100be000cfff32000801be000200be00f7ff370051
:100bf0006150e100fcff3a00c9ff3700889fbe004a
:100c00008a9fbe00841f7800b0ff07004f00780065
:100c100011003300f0ff2f00838f6c0006003b00b3
:100c2000040565000a00a7000800370009f0a600c7
:100c30001000200008003700820f5400838f5c00f2
:100c4000030039001000200001003e0000002000d9
:100c500009f0a7000000ea004f05be004f04be00e7
:100c60000000e00000000600889fbe008a9fbe00d2
:100c700000827000040271000482710026003200bc
:100c80000004be000200be006011b8006b09200025
:100c9000950220000182cf000a0039000541b10011
:100ca0000082cf00070039000541b1000982cf0062
:100cb000040039000541b1000882cf00010039006d
:100cc0000541b10005425200120032000a003b000b
:100cd00082817100610164008100d1000080d30035
:100ce0008984d3000884d3008b05e8000442e8001f
:100cf000f7ff3a00070037000804440089844c00dd
:100d000000004800818048008b05e9000442e900aa
:100d1000f9ff3a0032ff07004f05be004f04be0046
:100d200000000600020037000204e0000b00320061
:100d3000810178000002780030417800b14f510005
:100d4000f9ff32001000200014427800934f520047
:100d5000030031000080eb00000006000000eb0003
:100d60000000060080007800010178003104e000f6
:0c0d7000fdff3a000000510000000600ea
:020000040000fa
:100d7c00563a0000202000002020000020560000e1
:100d8c00207c0000202000002020000020560000c5
:100d9c00004900003a200000202000002020000024
:100dac00412000007c2000002020000020200000ba
:080dbc00410000002c000000c2
:020000040000fa
:100dc4000200fa00000f7800401080001e0060004e
:100dd40000f0a7000000ea000000ea004f00de0077
:100de400004078000080fa00000006000000fa00cd
:100df40060828000e40f500054003200e40f500081
:100e040005003e000000e0000a003200e30f50003d
:100e14002f003200d9003700e60f5000b80032002e
:100e2400e60f50007c003900ed0f5000a1003200a5
:100e3400d20037005070ef0010c0b30058f0b70074
:100e440080002000deff07000004e0000b003200f9
:100e540000022000daff07000004a2000004e00002
:100e640006003200001080000040780056f0b70001
:100e7400300020006082880004003700a0cfb30057
:100e840058f0b70060002000608288000040200015
:100e9400cbff07000004e00004003200d0cfb30011
:100ea40058f0b70060002000608288000004200031
:100eb400c3ff07000004e000a7003200e0cfb30046
:100ec40058f0b7006000200060828800ab00370053
:100ed40000022000baff07000004e0000600320010
:100ee400001080000040780057f0b7004000200058
:100ef400608288000400370090cfb30058f0b70038
:100f0400600020006082880000402000acff0700e1
:100f14000004e00004003200d0cfb30058f0b70062
:100f2400600020006082880000042000a4ff070005
:100f34000004e0008a003200e0cfb30058f0b700ac
:100f440060002000608288008c00370000022000ce
:100f54009bff07000004a2000004e000140032001c
:100f6400001080000040780056f0b7000183800034
:100f7400600521000100010059d0bf000080fb0082
:100f84001010880000000000100020008cff0700f3
:100f94000004a2000004e000fbff3a000782a8005e
:100fa4005570ef0020c0b30058f0b70007003700b9
:100fb400001080000040780059f0b70010c0b30062
:100fc40055f0b70030c0b30058f0b700500020000f
:100fd400608288000040200079ff07000004e000e0
:100fe40004003200d0cfb30058f0b70060002000f6
:100ff400608288000004200071ff07000004e00004
:1010040059003200e0cfb30058f0b7006000200070
:10101400608288005900370055d0bf000004a20048
:101024000004e0000d0032005ad0bf000080fb0035
:1010340010108800000000001000200060ff07006e
:101044000004a2000004e000fbff3a000782a800ad
:10105400d000200060828800050037000010800066
:10106400004078005af0b7006000200060828800d9
:101074000040200052ff07000004e000040032009a
:10108400d0cfb30058f0b700600020006082880021
:10109400000420004aff07000004e000340032008e
:1010a400e0cfb30058f0b7006000200060828800f1
:1010b4003200370060002000608288000040200079
:1010c4003fff07000004e00004003200d0cfb3006b
:1010d40058f0b700600020006082880000042000ff
:1010e40037ff07000004e00023003200e0cfb30024
:1010f40058f0b70060002000608288001f003700ad
:101104004c30ef0010c0b30050f0b70020002000b6
:101114002bff07000004e00004003a000004200054
:1011240027ff07000004e0000400320000108000e4
:101134000040780059f0b70008c2a900138380006a
:10114400b0828000c1828000d2828000030001004e
:10115400000000000900370000000000070037000d
:101164000000000005003700000000000300370005
:101174000000000001003700000000000080fa00b9
:10118400000006000000fa000040eb0034000700f5
:101194004e30ef0010c0b30051f0b70010c0b300e0
:1011a40054f0b700170ea900172ea900110ea900bc
:1011b400112ea9000622ef000822ef00400b2000a8
:1011c400201088000228a900414280000007200066
:1011d40001007000404288002228a8000080fa0024
:1011e400000006000600fa00000f780011079800be
:1011f400220798000040eb0019000700170ea90011
:10120400172ea900110ea800112ea8000622ef0027
:101214000822ef000c22ef009e0078005110880095
:101224004c30ef0010c0b30050f0b70010c0b30052
:1012340054f0b7009e00900001838800ae00900037
:10124400118388000208a900404280007000b300a6
:10125400404288002208a8000080fa00000006002e
:101264000200fa00004f78001e4078000004e000fd
:101274000200320007e2a8000100370007e2a900db
:101284000080fa00000006000000fa000622ef00c9
:101294000822ef004e30ef0010c0b30051f0b70049
:1012a40010c0b30054f0b7004c30ef0010c0b300ce
:1012b40050f0b70010c0b30054f0b7005c30ef003a
:1012c4005e30ef002228a9000228a9002228a800e5
:1012d4002208a9000208a9002208a80010c0b3002f
:1012e400dfff07000080fa00000006000200fa0099
:1012f400000f780051d0bf000004a2000004e000f9
:10130400040032001e00780081cfb3002140980011
:10131400e90037005170ef001e00780011c0b300df
:1013240021409800e0003700708280008000eb00cc
:10133400d200200003002000820f5000838f580049
:10134400ca003e00000601000d00370026003700e9
:10135400290037005f0037007d0037009b0037000d
:10136400ba003700c1003700c0003700bf003700a3
:10137400400037005e0037007c0037009a003700d9
:1013840054d0bf000004e000040032005470ef00a9
:101394001000200070828800c30037008000200005
:1013a40087fe07000004a2000004e00007003200ea
:1013b4000001200082fe07000004e0000300320068
:1013c4001000200070828800b70037001e007800eb
:1013d40080c0eb002140980010c0b30051f0b7006a
:1013e4004e30ef00b00037000602a80020002000b5
:1013f40070828800ac00370053d0bf000004e000c6
:101404009e0032005370ef00800020006cfe070045
:101414000004e000100032000001200068fe070014
:101424000004a2000004e0000b0032001e0078005b
:10143400104078000080fb0000004000800078002d
:10144400f00f20000080600010108800a000200031
:1014540070828800940037000642a80060002000d3
:10146400708288001e00780080c0eb002140980044
:101474008d00370053d0bf000004e000810032002b
:101484005370ef00000028004dfe07000004a20086
:101494000004e000080032000008200048fe0700b5
:1014a4000004a2000004e000030032003000200029
:1014b400708288007c0037000642a800600020008b
:1014c400708288001e007800c1cfb30021409800cc
:1014d400750037001e007800104090000080fb006b
:1014e40010108800b0002000708288006e00370061
:1014f40053d0bf000004e000640032005370ef00da
:10150400000028002efe07000004a2000004e000f2
:10151400080032000008200029fe07000004a20091
:101524000004e000030032004000200070828800c4
:101534005d0037000642a800600020007082880029
:101544001e007800b1cfb300214098005600370048
:101554001e007800304090000080fb0010108800ce
:10156400c0002000708288004f00370053d0bf00b5
:101574000004e000470032005370ef000000280030
:101584000ffe07000004a2000004e000080032007f
:10159400000820000afe07000004a2000004e00086
:1015a4000300320050002000708288003e003700a3
:1015b4000642a80060002000708288001e007800a7
:1015c400b1cfb30021409800370037001e007800e7
:1015d400404090000080fb0010108800d0002000e4
:1015e400708288003000370053d0bf000004e00050
:1015f4002a0032005370ef0000002800f0fd0700bd
:101604000004a2000004e0000900320000082000e9
:10161400ebfd07000004a2000004e0000400320017
:101624000642a80060002000708288001e00370077
:101634000642a80060002000708288001e00780026
:10164400b1cfb300214098001700370053d0bf003a
:101654000004e000130032005370ef004e30ef003e
:1016640010c0b30051f0b7000f0037004e30ef0048
:1016740010c0b30051f0b7000b00370000000000a9
:1016840009003700000000000700370000000000d8
:1016940005003700000000000300370000000000d0
:1016a400010037000000000051d0bf000004a20078
:1016b4000004e0001cff3a000080fa00000006006d
:1016c4000200fa00000f780051d0bf000004a2000d
:1016d4000004e000040032001e00780081cfb30053
:1016e40021409800f90037005170ef001e00780087
:1016f40011c0b30021409800f000370070828000d0
:101704008000eb00e200200003002000820f500064
:10171400838f5800d2003e00000601000e003700ff
:10172400270037002a003700600037009a0037008e
:10173400ae003700c20037008f0037007a00370050
:10174400c7003700410037005f0037009f003700b3
:10175400b30037007800370054d0bf000004e00025
:10176400040032005470ef001000200070828800e2
:10177400d20037008000200091fd07000004a20081
:101784000004e00007003200000120008cfd070087
:101794000004e00003003200100020007082880082
:1017a400c60037001e00780080c0eb00214098007e
:1017b40010c0b30051f0b7004e30ef00bf00370047
:1017c4000602a8002000200070828800bb003700b9
:1017d40053d0bf000004e000a50032005370ef00b6
:1017e4008000200076fd07000004e00010003200b5
:1017f4000001200072fd07000004a2000004e000c4
:101804000b0032001e007800104078000080fb00be
:101814000000400080007800f00f2000008060008d
:1018240010108800a000200070828800a3003700f8
:101834000642a80060002000708288001e00780024
:10184400c1cfb300214098009c00370053d0bf00a3
:101854000004e000880032005370ef00000028000c
:1018640057fd07000004a2000004e0000800320055
:101874000008200052fd07000004a2000004e0005c
:101884000300320030002000708288008b00370093
:101894000642a80060002000708288001e007800c4
:1018a400b1cfb30021409800840037001e007800b7
:1018b400104090000080fb0010108800b000200051
:1018c400708288007d00370053d0bf000004e00020
:1018d4006b0032005370ef000000280038fd070051
:1018e4000004a2000004e000080032000008200008
:1018f40033fd07000004a2000004e00003003200ee
:1019040080002000708288006c0037000642a80026
:1019140060002000708288001e007800b1cfb30000
:1019240021409800650037000622a800e00020004e
:10193400708288006100370053d0bf000004e000cb
:10194400510032005370ef001e0078001040780000
:101954000080fb000000400080007800f00f2000b1
:10196400008060000000e800101088007000200073
:10197400708288005100370053d0bf000004e0009b
:10198400430032005370ef000662a80040002000bc
:10199400708288004900370053d0bf000004e00083
:1019a4003d0032005370ef0000108000804078004a
:1019b4001e0078003140980006a2a9000682a80003
:1019c400c0002000708288003c00370053d0bf0064
:1019d4000004e000320032005370ef000662a800f9
:1019e40050002000708288003400370053d0bf00bc
:1019f4000004e0002c0032005370ef00001080005f
:101a0400804078001e0078004140980006a2a8009b
:101a14000682a800d00020007082880027003700ca
:101a240053d0bf000004e000210032005370ef00e7
:101a34000642a80060002000708288001f00370062
:101a440053d0bf000004e0001b0032005370ef00cd
:101a54004e30ef0010c0b30051f0b700170037004c
:101a64004e30ef0010c0b30051f0b7001300370040
:101a74000000000011003700000000000f003700d4
:101a8400000000000d003700000000000b003700cc
:101a940000000000090037000000000007003700c4
:101aa40000000000050037000000000003003700bc
:101ab40000000000010037000000000051d0bf000a
:101ac4000004a2000004e0000cff3a000080fa00c9
:101ad400000006000000fa00fc05070010c0b30077
:101ae4002706070010c0b300c70007004001070025
:101af4000080fa00000006000200fa00004f78009f
:101b04001e4078002d06070080b52100010020004a
:101b14005e0607000080fa00000006000200fa00da
:101b2400000f78001e007800004078000043b000e9
:101b34002206070080b5210001002000530607009b
:101b44000080fa00000006000400fa001007980064
:101b54000000eb00000f7800050037001e00900025
:101b64001e00400010407800e3ff07001e0fe8004d
:101b74001e0090007afc07009e0f5000f7ff3e0005
:101b84000080fa00000006001600fa00200f9800fa
:101b9400e4004700070009008018eb002e089000bd
:101ba4000000e00005003d00d0c2b300d2ff0700f2
:101bb4002e0890000000ea00200f98002e089000e4
:101bc4000000e000290034000000eb00000f780062
:101bd40012003700ae089000a00020000001780039
:101be400110009008200d8008000fd0080407800c8
:101bf4001e01780064004100017778002e099000ee
:101c0400706626000090b900c288de004f90de00a6
:101c140000805000200f98001e0fe8002e0890004e
:101c24000000e000ebff3a000000eb001007980012
:101c34001e00e90010079800080037001e009000fd
:101c4400640040006e4078000043b000aaff070023
:101c54001e0090000000e900100798001e0090008c
:101c64000000e000f5ff3d000200370000c3b300b0
:101c7400a1ff07000080fa00000006000a00fa0035
:101c8400881f7800200798003107980042079800c1
:101c94002e009000be00900012fb070000007800a8
:101ca400b9ff07004e0090000000e0003900320048
:101cb400006e2800a4ff070018c0b3006011b8002c
:101cc4002e009000be00900004fb07000000e0001e
:101cd400010035000044eb000804e0000500320078
:101ce4002e009000be00900001f0a2002007980092
:101cf400310798002e009000be0090001afb0700e8
:101d0400000078008000eb0032fb07000001be00f9
:101d14002e009000be00900092fa0700008fbe00d3
:101d24001900370002002000031224001e0078006e
:101d34009e0090007cfb0700008fbe001e00780010
:101d44009e00900008fb0700000078008eff07004b
:101d54001e0078009e00900003fb0700000078003e
:101d64008000eb001bfb07000001be001e00780092
:101d74009e0090007bfa0700008fbe004e0090008a
:101d84000000e900400798004e0090000000e000c9
:101d9400e4ff3a004f0478000080fa0000000600d7
:101da4000200fa00004f7800e0cfb300830507007b
:101db40020c6b300810507001e4078007f05070098
:101dc4000045230031002000b00507000080fa0020
:101dd400000006000200fa00004f7800e0cfb300d4
:101de4007605070010c6b300740507001e4078008e
:101df400720507000045230031002000a3050700f9
:101e04000080fa00000006000200fa00004f78008b
:101e1400e0cfb300690507001e4078000004e0002d
:101e24000300320010c4b300640507000200370049
:101e340020c4b3006105070080b521000100200023
:101e4400920507000080fa00000006000400fa0072
:101e540020479800314798002e409000e14f5000f1
:101e64000200360010c0b300204798003e409000a6
:101e7400ef4f500002003600f0c0b3003047980026
:101e8400be409000014f78002e409000e14f50007a
:101e940002003a0001c4b3001ecf4000e0cfb300fb
:101ea4004605070050c4b300440507001e407800ef
:101eb4004205070080b521000100200073050700da
:101ec4000080fa00000006000000fa00e0cfb30032
:101ed4003a05070060c4b3003805070080a2290052
:101ee40011002000690507000080fa0000000600c8
:101ef4000200fa00004f7800e0cfb3002f0507007e
:101f04001e4078000004e0000300320070c4b300f7
:101f14002a0507000200370080c4b3002705070024
:101f240080a2290011002000580507000080fa0053
:101f3400000006000000fa00e0cfb3001f05070010
:101f440090c4b3001d05070080b5210001002000e6
:101f54004e0507000080fa00000006000000fa00a9
:101f6400e0cfb30015050700a0c4b30013050700b4
:101f740080b5210001002000440507000080fa001c
:101f8400000006000200fa00004f7800e0cfb30022
:101f94000a0507001e4078000004e0000300320038
:101fa400b0c4b3000505070002003700c0c4b30085
:101fb4000205070080b52100010020003305070059
:101fc4000080fa00000006000000fa00e0cfb30031
:101fd400fa040700e0c4b300f804070080b5210048
:101fe40001002000290507000080fa000000060017
:101ff4000000fa00e0cfb300f004070010c5b300fe
:10200400ee04070080a22900110020001f0507002c
:102014000080fa00000006000200fa00004f780079
:10202400e0cfb300e504070020c5b300e3040700d4
:102034001e407800e1040700808b28000100200086
:10204400120507000080fa00000006000200fa00f2
:10205400004f7800e0cfb300d804070030c5b300c8
:10206400d604070080b52100010020000705070001
:102074000080fa00000006000600fa0020479800dd
:1020840021079800e0cfb300cc04070040c5b3009b
:10209400ca0407002e409000c80407000040eb006b
:1020a400004f7800060037001e80fb00ae00900051
:1020b4000080400010407800c00407001e4fe80074
:1020c4001e407800e74f5000f7ff3600006b2300f6
:1020d40001002000ed0407000080fa000000060063
:1020e4000000fa00e0cfb300b404070050c5b30009
:1020f400b204070080b5210001002000e3040700ba
:102104000080fa00000006000000fa00e0cfb300ef
:10211400aa04070060c5b300a804070080b5210025
:1021240001002000d90407000080fa000000060026
:102134000000fa00e0cfb300a004070000c7b3001a
:102144009e040700005c240041002000cf04070027
:102154000080fa00000006000000fa00e0cfb3009f
:102164009604070010c7b3009404070000e62a0091
:10217400a1002000c50407000080fa00000006004a
:102184000000fa00e0cfb3008c04070020c7b300be
:102194008a040700005c240041002000bb040700ff
:1021a4000080fa00000006000000fa008040eb0006
:1021b4000040eb0025ff07007ea8970062fe0700a1
:1021c4008040eb0010c0b30020ff07000eb0970062
:1021d4005dfe07001eb09700aeb097003eb19700b9
:1021e4002f0007004eb09700deb097006eb1970045
:1021f4002b0007007eb097008eb897001eb9970099
:10220400270007002eb89700beb897004eb9970074
:10221400230007000080fa00000006000800fa000e
:1022240020079800310798002e009000301f780096
:10223400201778001e009000804078001e0078006f
:102244000040780001ff07003e009000e10f5000bd
:1022540007003200e20f50000a0032000040eb0099
:1022640023ff07000040eb0046ff07000a00370089
:1022740010c0b3001eff07000040eb0041ff070041
:102284000500370010c0b30019ff070010c0b300e9
:102294003cff0700000000000080fa000000060078
:1022a4001400fa0070079800010f9800120f9800ac
:1022b4009e089000010f78008e0890001107980086
:1022c400fe009000d0cc2c000008b8004308de00cb
:1022d400200798002e019000d0cc2c000010b800ec
:1022e4004308de00ea00b9000000510030079800fe
:1022f400ae009000d0cc2c000008b8004308de00eb
:10230400200798002e019000d0cc2c000010b800bb
:102314004308de00ea00b9000000510040079800bd
:10232400ae009000d0cc2c000008b8004308de00ba
:10233400200798002e019000d0cc2c000010b8008b
:102344004308de00ea00b90000005100500798007d
:10235400ae009000d0cc2c000008b8004308de008a
:10236400200798002e019000d0cc2c000010b8005b
:102374004308de00ea00b90000005100600798003d
:102384006e0090000000e000080032001e0078009b
:10239400804078001e00900000407800abfe0700eb
:1023a4006e009000ddfd0700070037001e00780076
:1023b400804078001e00900000407800a3fe0700d3
:1023c40000c2b300ccfd07001e0fe8001e00780019
:1023d400804078001e009000004078009bfe0700bb
:1023e4005e009000cdfd07001e0fe8001e0078007f
:1023f400804078001e0090000040780093fe0700a3
:10240400c0c2b300bcfd07001e0fe8001e00780028
:10241400804078001e009000004078008bfe07008a
:102424004e009000bdfd07001e0fe8001e0078005e
:10243400804078001e0090000040780083fe070072
:102444003e009000b5fd07000080fa000000060081
:102454000000fa009ffd0700e06b28005080880010
:10246400f06c2800608088005281800063818000c5
:1024740072808800838088002e10f8001210f90002
:102484008281800093818000a2808800b3808800cc
:102494003410f8001810f900b2818000c381800064
:1024a400d2808800e38088003a10f8001e10f900fa
:1024b400e2818000f381800002818800138188001a
:1024c4004010f8002410f900fc8747007c80570076
:1024d400a30021000d00090033187800c001b100e9
:1024e40031ff0700fc87570020042100208088006a
:1024f4000000210030808800a00221004080880074
:1025040000002100308288002004210040828800dd
:1025140000032100508288002830ef0000002100d1
:102524003081880030818000418180003bff0700ba
:102534000080fa00000006000400fa00100798006a
:102544001e0090000000e000320032004081800054
:102554000000e0002f00320040818000e10f5000b5
:102564000b003a001e0090000000e000040034005c
:1025740030818000300090003081880022003700d4
:102584003081800020009000308188001e003700d8
:102594003081800040009000000f78001e00900001
:1025a4000000e0000c0034001e0078009000780069
:1025b40040062000808f50000d0036001e00780079
:1025c40010007800c1f92f00808040001e007800c0
:1025d40001087800060037001e007800100078001b
:1025e40041062000808040001e0078000108780029
:1025f4003081800040019000120078009200900029
:102604002201900026ff0700308180004181800074
:1026140002ff07000080fa00000006000000fa0034
:1026240040818000e10f500003003200e20f5000af
:10263400070032000c003700200020004081880091
:102644003081800041818000f4fe070006003700dd
:10265400100020004081880030818000418180008a
:10266400eefe0700000000000080fa0000000600f3
:102674000200fa00004f7800408180000000e90069
:10268400e10f5000090036001e4078000004e0000d
:102694000f0032001000200040818800308180004b
:1026a40041818000ddfe07000c0037001e407800e9
:1026b4000004a2000004e000070032002830ef000c
:1026c4003081800041818000d4fe07000300370080
:1026d4000000000001003700000000000080fa0044
:1026e400000006000200fa00000f7800518180000b
:1026f4001e007800010878000080fa00000006003f
:102704000200fa00000f7800818180001e0078002a
:10271400010878000080fa00000006000600fa00b4
:102724002007980030818000301f7800201778003f
:10273400ae009000b1818800b0818000c18180002a
:10274400d2818000d6fe07001e00900080407800f1
:102754001e00780000407800bcfd07000080fa00ed
:10276400000006000600fa0020079800308180006f
:10277400301f780020177800ae009000e1818800b7
:10278400e0818000f181800002828000c4fe0700a5
:102794001e009000804078001e0078000040780001
:1027a400aafd07000080fa00000006000000fa00fd
:1027b4000040eb00b2020700860207006c0207002b
:1027c4009f020700a702070010c0b300ac02070075
:1027d4000080fa00000006000600fa00000f7800ee
:1027e40011079800220798002e4090000000fb007b
:1027f40068004000e70f50000200360010c0b3002c
:102804000200370013eea8000040eb000080fa003d
:10281400000006000400fa00004f78001107980039
:1028240002072100f10621001e009000410207006a
:102834001e417800d106210082487800c00621009c
:10284400aafa07006083800071838000828380007d
:10285400e1ff07000080fa00000006000200fa0011
:10286400004f780011e1a9001021a9001061a9000e
:1028740081088000000320000100700080088800a7
:102884000621ef00600420006008880011428000e7
:10289400f0ff28000080600000c0a0001042880003
:1028a40000e8a90020e8a8001e4078000004e00029
:1028b4000100320011e1a8000080fa0000000600c7
:1028c4000200fa00004f78001fe1a9001e21a900b0
:1028d4001e61a900f10880000003200001007000bf
:1028e400f00888001421ef00c02b2000d0088800d5
:1028f40061428000f0ff28000080600000d0a0004a
:10290400604288000368a9002368a8001e4078007c
:102914000004e000010032001fe1a8000080fa007a
:10292400000006000200fa00cc0007005401070072
:10293400000f78008901070040838800908480009c
:102944009e007800808f50000a0032009e007800bc
:1029540091848800308380001e004000308388000a
:102964001e0078000000e0000200320010c0b30036
:102974006af0b700408380000000e00019003200d4
:1029840040838000e30f500011003200e30f500039
:1029940011003600e50f500005003200e50f50002d
:1029a4000f003900e60f5000050032000d0037001b
:1029b40010c0b3006af0b70018ff07000900370021
:1029c40010c0b3006af0b700000000000500370033
:1029d4000000000003003700000000000100370081
:1029e400000000000080fa00000006000400fa0065
:1029f4006ad0bf000004e0002f00320010c0b30012
:102a04001bff07000e003700308380000000e00049
:102a1400060034000080eb00c7fe0700308380000e
:102a24000000e90030838800050037001000200012
:102a3400c1fe0700308380000000e8003083880076
:102a4400308380000000e000efff3a000e007800c1
:102a540024ff07000e80e80029ff07009e0078008d
:102a640090838000808f5000060032001e007800a2
:102a740090838800908380008000780080c0b30039
:102a840064ff07009e009000a0838000808f5000a8
:102a9400060032001e009000a0838800a0838000fe
:102aa4008000780090c0b3005aff07006430ef0044
:102ab4006a70ef000700370021838000703e200019
:102ac400808f500003003e00208380000000e80057
:102ad4002083880020c0b3006df0b700c006210039
:102ae400f7fa070001072100914078006fd0bf007a
:102af4000e01780081010700b0838000c400de006d
:102b04001e0078004400de00808f50000400320074
:102b14001e007800b0838800b0838000fffe0700a9
:102b240010c0b3006df0b700c0062100e4fa07003e
:102b340001072100914078006fd0bf000e81e800aa
:102b44006e010700c0838000c400de001e009000f8
:102b54004400de00808f5000040032001e0090000c
:102b6400c0838800c0838000fefe070021838000ac
:102b7400703e2000808f5000020036000040eb00c1
:102b8400bbfe07000080fa00000006000000fa0007
:102b940006ff070000172100110020003b02070078
:102ba4002bfe07001a00070076f907000017210022
:102bb400110020003502070010c0b30027ff0700f2
:102bc40010c0b3003eff070010c0b300a4f9070013
:102bd4007230ef007430ef0050c5b3006cf0b700f2
:102be40000172100110020002802070090838000b4
:102bf4008000780080c0b30006ff0700a083800037
:102c04008000780090c0b30002ff0700ffff370088
:102c14000000fa00100ea800102ea800000ea80054
:102c240090708000610060000000e000020032004b
:102c340030002000f0838800907080006200600003
:102c44000000e00003003200f08380000000a200d6
:102c5400f08388000080fa00000006000400fa00f7
:102c64000040eb00004f78005084800061848000b5
:102c740061004000e080480050848800618488003e
:102c8400008480000080e9000084880000848000c3
:102c94000000e00001003d008030ef000040eb0048
:102ca4001047980090708000610060000000e00010
:102cb4000200320030c0b3001047980090708000ca
:102cc400620060000000e000030032001e4090003b
:102cd4000004a20010479800f08380008040780030
:102ce4001e40900000c05000204798002e409000e5
:102cf4000000fb0061006000004078000004e00078
:102d04000c0032001e4090000000fb00f08388009d
:102d14002e4090000000fb00620060008000e9008b
:102d2400e083800000804000e083880010c0b3008e
:102d3400004f78001e4078000004e00007003200d5
:102d44000184800070be2000808f500003003e008c
:102d54000084800079004000008488005284800050
:102d6400638480003084800041848000000151002d
:102d7400818159009000200001002000800f510043
:102d8400818f59003c0036005084800061848000ab
:102d940030848800418488001070800061006000e5
:102da4000000e00009003a00108480000000e80000
:102db400108488001184800080072000808f5000d8
:102dc4000200360030002000d0838800107080009c
:102dd400610060000000e0001900320010848000ef
:102de4000000e00015003200d0838000e30f5000a3
:102df40004003a0040002000d08388008470ef0073
:102e04000e00370084d0bf00e14f500009003600a7
:102e14004108210091407800b0c3b30080cf500036
:102e240006003e0060002000d08388008470ef001c
:102e340002003700c0c3b30084f0b7008230ef0053
:102e440084d0bf000004e0000b00320084d0bf0037
:102e54000040e90084f0b70084d0bf000040e900de
:102e640084f0b70084d0bf000004e00002003a0000
:102e740050002000d08388000080fa000000060083
:102e84000600fa00e1838000010f780090d0bf00b3
:102e9400e24f500004003a009e0078006180600018
:102ea400e08388000800370090d0bf00e44f500052
:102eb40004003a009e00780063806000e08388008c
:102ec400010037007c30ef0090d0bf00e44f500089
:102ed40003003a001e0078004280de00000f7800f4
:102ee40090d0bf00e24f500003003a001e0078006b
:102ef4000080d100000f78000000eb00100798005c
:102f0400008480004800de00200798001e0078003e
:102f14000000e00006003d002e0090000080ea0062
:102f24009e009000008040001007980008003700c1
:102f34001e0078000000e000050034002e00900020
:102f44000000e8009e0090000080400010079800f8
:102f54001e0090000080fa00000006000200fa0043
:102f6400d1838000010f7800d0838000e30f5000ec
:102f7400010032007a30ef001e0078000080fa0071
:102f8400000006000400fa00000f78001107980002
:102f94009e0090001e00780061f7070000f0a70073
:102fa4000000ea000000e9004f00de000040780065
:102fb4000080fa00000006000800fa0030079800bc
:102fc4000000eb00000f78000000eb0020079800e1
:102fd4000000eb0010079800130037003e0090003b
:102fe400104078000000fb000003b10020079800a7
:102ff4001e0090000000e000030032001e00780074
:10300400ea00b900000f78002e0090001e0f400067
:103014001e0090000000e800100798003e00900099
:103024000000e800300798003e009000104078004f
:103034000004e000e9ff3a001e0078000080fa0076
:10304400000006000c00fa00881f78004007980072
:10305400510798004e009000301f78002017780028
:103064000000eb00200798001000200030079800b3
:103074001a0037003e0090004200dd00ce009000b0
:1030840000804000900090001000780018c0b30049
:103094001e0178009e01900010f607000000e00079
:1030a400010035000044eb000804e0000800320091
:1030b4003e0090004200dd00ce0090000080400001
:1030c400301f780020177800be0090002107980078
:1030d4003e0090000000e80030079800be00900019
:1030e4005e009000808f5000e2ff39002e009000b7
:1030f4004f0478000080fa00000006000400fa0083
:10310400004f780011479800120798001e80fb00ba
:10311400c800dd001e4090000080fb0000804000dd
:10312400800078001e009000010878000080fa00fa
:10313400000006000600fa00000f7800110798004e
:10314400220798001e0078004800de0080407800c6
:103154001e009000014878001e007800804078002e
:103164002e009000014878000080fa00000006005c
:103174000000fa0040a7a900113a8000f08f2f0048
:10318400008060000080a000103a880042e7a90097
:1031940042c7a9004207a80000000000113a8000bd
:1031a400000027008080600000002100808f500014
:1031b400faff3a004fe7a8004f87a900713a800050
:1031c400f00f2f0000806000703a88000080fa0041
:1031d400000006000000fa0045e7a900213a80003b
:1031e400f0ff280000806000203a8800213a800027
:1031f400f08f2f0000806000203a8800213a800080
:10320400f0f32f00008060000060a000203a8800e6
:10321400213a800000fe2f0000806000203a8800e0
:10322400313a800000e02f008080600060022000be
:1032340001007000303a88000080fa0000000600a7
:103244000000fa00002eef000e2eef00022eef0019
:10325400102eef001e2eef00122eef000080fa0059
:10326400000006000000fa00c028ef00c428ef00a8
:10327400c628ef00c1e8a9000080fa00000006009b
:103284000200fa00004f78001e4078000004e000bd
:103294000700320011028000f0f12f00008060006e
:1032a400100288004460a900c3e8a80005003700a4
:1032b40011028000000e200001007000100288003e
:1032c400c3e8a9000080fa00000006000000fa002c
:1032d4000040eb002a0007006382a9006362a90092
:1032e4006342a9006322a9006302a90062c2a80084
:1032f40062e2a90062a2a8001113800030fe2f0030
:10330400008060001013880011138000c0ff2f009c
:10331400008060001013880065e2a9006402a9001f
:103324004134800000fc2f00008060009000b30056
:103334004034880041348000f00f2c00008060008d
:1033440000b0a000403488006136800000f82f00ef
:1033540080806000c0022000010070006036880098
:103364000428a900814280000007200001007000a9
:10337400804288002428a8000080fa00000006008b
:103384000200fa00004f78001e4078000004e000bc
:103394000700320011aea900118ea800116ea90019
:1033a400114ea90013aea80061e2a8000100370085
:1033b40061e2a9000080fa00000006000200fa00a1
:1033c400004f78000000000091708000000022008f
:1033d400008060000000e000fbff320013aea90093
:1033e4001e80fb00401388000080fa0000000600e5
:020000040000fa
:1033f4008e10000002000000800000007a1000001f
:103404001400000080000000901000000200000082
:1034140082000000040000004c10000018000000ae
:10342400800000006410000016000000800000000e
:10343400921000000200000082000000ffff000064
:103444002a1000002200000082000000000000009a
:1034540000020000e8030100000200000000000078
:10346400000a000000000100000a00000100000042
:103474000000000000000000000000000010000038
:0c3484002a000000800000000000000092
:020000040000fa
:10349000f03fb1000180b10006003500ee030900e5
:1034a00000000000403fb1000180b100fbff3d0083
:1034b0001000b000203fb00002003500008009007d
:0834c0000000000000000600fe
:020000040000fa
:04afe000cfff00009f
:020000040000fa
:04afe400efff00007b
:020000040000fa
:04afe8007fff0000e7
:020000040000fa
:04afec007fff0000e3
:020000040000fa
:04aff000f9ff000065
:020000040000fa
:04aff400ffff00005b
:00000001FF
