:020000040000fa
:080000000002040000000000f2
:020000040000fa
:0400080012040000de
:020000040000fa
:04000c0012040000da
:020000040000fa
:0400100012040000d6
:020000040000fa
:0400140012040000d2
:020000040000fa
:0400180012040000ce
:020000040000fa
:04001c0012040000ca
:020000040000fa
:0400200012040000c6
:020000040000fa
:0400240012040000c2
:020000040000fa
:0400280012040000be
:020000040000fa
:04002c0012040000ba
:020000040000fa
:0400300012040000b6
:020000040000fa
:0400340012040000b2
:020000040000fa
:0400380012040000ae
:020000040000fa
:04003c0012040000aa
:020000040000fa
:0400400012040000a6
:020000040000fa
:04004400c2030000f3
:020000040000fa
:04004800120400009e
:020000040000fa
:04004c00120400009a
:020000040000fa
:040050001204000096
:020000040000fa
:040054006e03000037
:020000040000fa
:04005800120400008e
:020000040000fa
:04005c00120400008a
:020000040000fa
:040060001204000086
:020000040000fa
:040064001204000082
:020000040000fa
:040068003c03000055
:020000040000fa
:04006c002403000069
:020000040000fa
:040070001204000076
:020000040000fa
:040074001204000072
:020000040000fa
:04007800120400006e
:020000040000fa
:04007c00120400006a
:020000040000fa
:040080001204000066
:020000040000fa
:040084001204000062
:020000040000fa
:04008800120400005e
:020000040000fa
:04008c00120400005a
:020000040000fa
:040090001204000056
:020000040000fa
:04009400ea0300007b
:020000040000fa
:04009800120400004e
:020000040000fa
:04009c00120400004a
:020000040000fa
:0400a0001204000046
:020000040000fa
:0400a4001204000042
:020000040000fa
:0400a800120400003e
:020000040000fa
:0400ac000a03000043
:020000040000fa
:0400b0001204000036
:020000040000fa
:0400b4001204000032
:020000040000fa
:0400b800120400002e
:020000040000fa
:0400bc00120400002a
:020000040000fa
:0400c0001204000026
:020000040000fa
:0400c4001204000022
:020000040000fa
:0400c800120400001e
:020000040000fa
:0400cc00120400001a
:020000040000fa
:0400d0001204000016
:020000040000fa
:0400d4001204000012
:020000040000fa
:0400d800120400000e
:020000040000fa
:0400dc00120400000a
:020000040000fa
:0400e0001204000006
:020000040000fa
:0400e4001204000002
:020000040000fa
:0400e80012040000fe
:020000040000fa
:0400ec0012040000fa
:020000040000fa
:0400f00012040000f6
:020000040000fa
:0400f40012040000f2
:020000040000fa
:0400f80012040000ee
:020000040000fa
:0400fc0012040000ea
:020000040000fa
:0401000012040000e5
:020000040000fa
:0401040012040000e1
:020000040000fa
:0401080012040000dd
:020000040000fa
:04010c0012040000d9
:020000040000fa
:0401100012040000d5
:020000040000fa
:0401140012040000d1
:020000040000fa
:0401180012040000cd
:020000040000fa
:04011c0012040000c9
:020000040000fa
:0401200012040000c5
:020000040000fa
:0401240012040000c1
:020000040000fa
:0401280012040000bd
:020000040000fa
:04012c0012040000b9
:020000040000fa
:0401300012040000b5
:020000040000fa
:0401340012040000b1
:020000040000fa
:0401380012040000ad
:020000040000fa
:04013c0012040000a9
:020000040000fa
:0401400012040000a5
:020000040000fa
:0401440012040000a1
:020000040000fa
:04014800120400009d
:020000040000fa
:04014c001204000099
:020000040000fa
:040150001204000095
:020000040000fa
:040154001204000091
:020000040000fa
:04015800120400008d
:020000040000fa
:04015c001204000089
:020000040000fa
:040160001204000085
:020000040000fa
:040164001204000081
:020000040000fa
:04016800120400007d
:020000040000fa
:04016c001204000079
:020000040000fa
:040170001204000075
:020000040000fa
:040174001204000071
:020000040000fa
:04017800120400006d
:020000040000fa
:04017c001204000069
:020000040000fa
:040180001204000065
:020000040000fa
:040184001204000061
:020000040000fa
:04018800120400005d
:020000040000fa
:04018c001204000059
:020000040000fa
:040190001204000055
:020000040000fa
:040194001204000051
:020000040000fa
:04019800120400004d
:020000040000fa
:04019c001204000049
:020000040000fa
:0401a0001204000045
:020000040000fa
:0401a4001204000041
:020000040000fa
:0401a800120400003d
:020000040000fa
:0401ac001204000039
:020000040000fa
:0401b0001204000035
:020000040000fa
:0401b4001204000031
:020000040000fa
:0401b800120400002d
:020000040000fa
:0401bc001204000029
:020000040000fa
:0401c0001204000025
:020000040000fa
:0401c4001204000021
:020000040000fa
:0401c800120400001d
:020000040000fa
:0401cc001204000019
:020000040000fa
:0401d0001204000015
:020000040000fa
:0401d4001204000011
:020000040000fa
:0401d800120400000d
:020000040000fa
:0401dc001204000009
:020000040000fa
:0401e0001204000005
:020000040000fa
:0401e4001204000001
:020000040000fa
:0401e80012040000fd
:020000040000fa
:0401ec0012040000f9
:020000040000fa
:0401f00012040000f5
:020000040000fa
:0401f40012040000f1
:020000040000fa
:0401f80012040000ed
:020000040000fa
:0401fc0012040000e9
:020000040000fa
:0402000012040000e4
:020000040000fa
:0402040012040000e0
:020000040000fa
:0402080012040000dc
:020000040000fa
:04020c0012040000d8
:020000040000fa
:0402100012040000d4
:020000040000fa
:0402140012040000d0
:020000040000fa
:0402180012040000cc
:020000040000fa
:04021c0012040000c8
:020000040000fa
:0402200012040000c4
:020000040000fa
:0402240012040000c0
:020000040000fa
:0402280012040000bc
:020000040000fa
:04022c0012040000b8
:020000040000fa
:0402300012040000b4
:020000040000fa
:0402340012040000b0
:020000040000fa
:0402380012040000ac
:020000040000fa
:04023c0012040000a8
:020000040000fa
:0402400012040000a4
:020000040000fa
:0402440012040000a0
:020000040000fa
:04024800120400009c
:020000040000fa
:04024c001204000098
:020000040000fa
:040250001204000094
:020000040000fa
:040254001204000090
:020000040000fa
:04025800120400008c
:020000040000fa
:04025c001204000088
:020000040000fa
:040260001204000084
:020000040000fa
:040264001204000080
:020000040000fa
:04026800120400007c
:020000040000fa
:04026c001204000078
:020000040000fa
:040270001204000074
:020000040000fa
:040274001204000070
:020000040000fa
:04027800120400006c
:020000040000fa
:04027c001204000068
:020000040000fa
:040280001204000064
:020000040000fa
:100400004f6521000eff21000e0188000000000052
:10041000000020000000e000020032000001200087
:100420002002880014000700750107000000e000aa
:1004300003003a0020c5220001002000020037001e
:100440000000200001002000810f70000100320038
:100450000f000700000020000000e0000200320052
:1004600000000200000000003c1d0200000000002f
:100470000040da000000fe00c00220000000e000a2
:1004800002003200002020009001880000000600d9
:10049000a1028800800478000000eb001f003700f4
:1004a000e284440054a0b4009905ba00e2844400f8
:1004b00054a0b4009906ba00e284440054a0b400e9
:1004c0000006eb00476fde00fd07b200ae018800ba
:1004d000636ce10003003a000ad801000000eb0061
:1004e0000e003700606ce10008003a00004deb00a0
:1004f0000a05e800020039003420ec000af0a000f0
:100500008b05e900f9ff3e00040037006168e10057
:10051000010032000086eb000b00070019c7ba008b
:100520000e04e0001905ba0003003a000a00e000da
:10053000dbff3a0000000600fe07b200ae028800b2
:100540008a047800f5ff37000cd0a300e20f4d00bd
:100550001c00390089027800354dba000a05e80010
:10056000020039003420ec000af0a0008b05e900fd
:100570000f003200254dba000a05e80002003900dc
:100580003420ec000af0a0008b05e90008003200de
:100590000c00e0000600320015cdba000a05e800a4
:1005a000020039003420ec000af0a0008b05e900bd
:1005b0008984e80054a0b4000b00e000e2ff3a0098
:1005c000000006009902ba00055d78008b05e9007d
:1005d000f7ff3200c82ade00055d78008b05e900d0
:1005e000f3ff32000c00e000f1ff320019ddba0029
:1005f000eeff3700000000000000000000000000d7
:1006000000000000000000000000000000000000ea
:1006100000000000801f78000000fa0020408000e9
:10062000620060000000e0000400320013aea80089
:100630004013800000ac88000428a9000080fa0064
:100640004f00780000400600801f78000000fa008c
:1006500010408000620060000000e00003003200f3
:1006600010c0b30057f5b7000228a9000080fa00b7
:100670004f007800004006003600f800809fbe0062
:10068000829fbe00849fbe00869fbe000000fa00cd
:1006900010408000610060000000e00008003200af
:1006a00010c0b30056f5b7000208a9008f09070073
:1006b00080aa8000e60f500001003a008b09070075
:1006c0000080fa004f03be004f02be004f01be0083
:1006d0004f00be003600f900004006003600f8006a
:1006e000809fbe00829fbe00849fbe00869fbe008a
:1006f0000200fa00014080000080200000806000bd
:100700000000e0001800320030118000004f780037
:100710000168a90010118000640060000000e00082
:10072000020032009e74ef000f00370010118000ad
:10073000620060000000e000090032000040eb00b1
:1007400022130700800b200001002000f81507008d
:1007500010c0b3001d1307009e74ef0002003700a5
:100760001e407800da1207000080fa004f03be0036
:100770004f02be004f01be004f00be003600f90020
:10078000004006003600f800809fbe00829fbe0039
:10079000849fbe00869fbe000000fa0001408000da
:1007a00000082000008060000000e000020032002d
:1007b000780d070000e8a9000080fa004f03be0092
:1007c0004f02be004f01be004f00be003600f900d0
:1007d000004006003600f800809fbe00829fbe00e9
:1007e000849fbe00869fbe000000fa00114080007a
:1007f00000802000008060000000e0000200320065
:10080000af0d07000368a9000080fa004f03be0087
:100810004f02be004f01be004f00be003600f9007f
:10082000004006000040da000000fe000a00fa0066
:1008300011002000b1bf9f00c0bf9f006a80570019
:10084000f60707004fb897000080fa000000060086
:100850000a00fa00e20f500034003e0080b280002f
:10086000e10f500003003200e20f500011003a0087
:100870000c003700032220000300e00001003a00d2
:100880000040da002002e200020035002822ef00da
:1008900021e2a8002342ab000d003a002342a80049
:1008a0000b003700032320000300e00001003a00a2
:1008b0000040da003002e200020035003822ef008a
:1008c00031e2a8003342ab0001003a003342a800f5
:1008d000820178000b0037003102fb00e10f50006d
:1008e00004003a002322ab00feff3a0024118800e6
:1008f000030037003322ab00feff3a00a41188004a
:100900008301e9000300e000f3ff3a00e10f50002b
:1009100003003a002302ab00feff32000b00370059
:100920003302ab00feff3200080037003300200026
:10093000b3bf9f00c0bf9f00d1bf9f00e2bf9f0019
:100940006a805700b70707006fb997000200780068
:100950000080fa00000006000a00fa0051002000a2
:10096000b1bf9f00c0bf9f006a805700af0707005c
:100970005fb897000080fa0000000600889fbe0064
:100980008004780090b280000000e00004003a008b
:100990000e0007000084eb000000e00008003500b6
:1009a00098b280000900e000050032000900440010
:1009b000060007000000e00001003d000084eb009d
:1009c000080078004f04be00000006008000780098
:1009d0000100e00003003a000000200090b288000f
:1009e000000005000080eb0002002000828f500014
:1009f00002003e0091b288000000eb0000000600fb
:100a00000000050003f0a200889fbe008a9fbe0080
:100a10008c1f7800e3000700ea0033006450e10017
:100a20004f0032006420e1005200320003826c006b
:100a300007003b000905d0000306d000820f5400d8
:100a40000c065d00020039000200320089017800c6
:100a5000030678008582550004003d000003fd0078
:100a60008103fd008502ea008b854200840f72003d
:100a700002003b0060001000e08018006011b80028
:100a80000005eb007a28e1000a0039000600780032
:100a9000c75ddd00f707b200878075002d003700c5
:100aa000828171000a017800610560008180d100b7
:100ab0000080d3008502e900f9ff3b0006044000f6
:100ac0008784480002003b0060041400e0841c009e
:100ad0000988a300070032008a81710082817100b9
:100ae000610164008904d1000884d3008b05e8000b
:100af000170037000978a30013003a000b00e0004c
:100b0000130034008b05e9000804440089844c007c
:100b10000a4474000978a3000d003a000b00e000bd
:100b2000070034008b05e9000804440089844c0068
:100b300001003a000b0020000978a300f7ff320003
:100b40000001eb0002003700828171000a01780089
:100b5000590007000cf0a70001f0a000a200370028
:100b60006420e10002003a00838f6c00a200330091
:100b70000801be000200be009b003700839f680092
:100b80000100e00002003d0060001000e08018005d
:100b90000300e00002003d0060011100e081190047
:100ba000cc0007004f00e00002003b006000100096
:100bb000e08018000000060014002000d500370077
:100bc0000001be00620007000470a70003f0a1004e
:100bd0006509b100160032000d0035006828e100fb
:100be00006003500f0ff2f00f1ff27000300e000b2
:100bf00013003b0001002800000005000000400039
:100c0000818048008502e900fcff3a0008003700b7
:100c1000f88f420002003c008000eb00000005005d
:100c20008100d1000080d3008502e800fcff3a007b
:100c30000300e00002003b0060001000e0801800ac
:100c4000000006000001be00410007000470a7007c
:100c500003f0a10003f8a30013003a006509b100f6
:100c600010003200090035006928e100020035005b
:100c700001002800000005000000400081804800bd
:100c80008502e900fcff3a0000000600f88f4200f0
:100c9000050035008100d1000080d3008502e80006
:100ca000fcff3a00000006008000eb000000050099
:100cb0006011b800b200370081002000618055004b
:100cc0000b003d000b00200061fe2f000100e10041
:100cd0001d00340082817100610164008904d1002b
:100ce0000884d3000000e800faff3a0071002000f9
:100cf000610064000300700002006000090032001f
:100d000061044400e0844c000988a500050032001d
:100d10008b05e8006808e10002003a008904d10070
:100d20000884d300f20f20000258e10005003d00c6
:100d3000c75ddd00f907b200898075000800780002
:100d4000000006000bf827008b007800000005006b
:100d5000c70ade00f107b200f50fb200080032004a
:100d6000e1cf4200020032000170a0002400050023
:100d7000810f7000010032000408050044000500e6
:100d8000810f700002003a00140005008502e9009e
:100d90000000400081c04800fcff3b000170a00043
:100da000240005000004be00e9ff07000003be00a8
:100db0000405be000200be00e5ff0700844f750079
:100dc000000006000200be006450e100050036008d
:100dd0006420e100020036000968a30001003a0027
:100de0000800be000160a0004f0678004f05be005d
:100df0004f04be0000000600f0ff2f00f1ff2700a7
:100e0000f9ff3700889fbe008a9fbe008c1f7800c4
:100e1000e4ff0700ebff330003866c006450e10041
:100e2000240032006420e100270032006150e1001c
:100e3000220032006120e100210032008b85420057
:100e4000eb07b1000134b800003ab80008044200d2
:100e500089844a00013ab8000030b8008880400018
:100e600009014a000400330000004000818048006e
:100e7000020149008b05e900c909dd00830170000a
:100e80000100320013002000c814de004814dd0009
:100e90004709de001200b200c808de0008847000b6
:100ea00085ff070001f0a1000cf0a70001f0a000f1
:100eb000cdff37006120e100cfff32000801be0006
:100ec0000200be00f7ff37006150e100fcff3a006e
:100ed000c9ff37006022b800060220000000d000e1
:100ee0008180d2000482d2008582d2000000a0005e
:100ef0000202520083825a000300310002024200c3
:100f000083824a000000a1000603e900f3ff3a00d3
:100f100000000600889fbe008a9fbe00841f7800e4
:100f2000a0ff07004f00780011003300f0ff2f00f2
:100f3000838f6c0006003b00040565000a00a700d3
:100f40000800370009f0a600100020000800370054
:100f5000820f5400838f5c000300390010002000d2
:100f600001003e000000200009f0a7000000ea0098
:100f70004f05be004f04be000000e0000000060068
:100f8000889fbe008a9fbe0000827000040271002c
:100f900004827100260032000004be000200be0080
:100fa0006011b8006b092000950220000182cf007b
:100fb0000a0039000541b1000082cf000700390066
:100fc0000541b1000982cf00040039000541b1009c
:100fd0000882cf00010039000541b10005425200ee
:100fe000120032000a003b0082817100610164003e
:100ff0008100d1000080d3008984d3000884d3000d
:101000008b05e8000442e800f7ff3a0007003700cc
:101010000804440089844c00000048008180480096
:101020008b05e9000442e900f9ff3a0022ff0700be
:101030004f05be004f04be0000000600020037004e
:101040000204e0000b003200810178000002780009
:1010500030417800b14f5100f9ff320010002000fc
:1010600014427800934f5200030031000080eb00df
:10107000000006000000eb00000006008000780081
:10108000010178003104e000fdff3a00000051004a
:1010900000000600889fbe00000478000100780070
:1010a000820478008801780009017800110020008e
:1010b000e2010700890f5000010032000004eb003c
:1010c000080078004f04be00000006000000fa008f
:1010d000e88157004fb99700c15a2100a084200031
:1010e000020007000080fa00000006006200fa001b
:1010f000889fbe008a1f7800000578008104780070
:10110000020478008300780080f92f000f0040006f
:101110007b0407009a979f00a9979f000000eb00af
:10112000b09f9f001885fb008a04fb000a05ea00b7
:101130004f55de0050022000808f54000d00320019
:10114000e10f55000b003a000a0178008800780092
:101150002f9097009f91970003000100a0979f0098
:101160000000e0008e0032003f9897000000e80089
:10117000b09f9f000a04440050022000808f54005a
:10118000040032000900e000e6ff3a003f989700b3
:10119000840037000000eb00909f9f00809f9f001d
:1011a000f0979f00e0979f00d0979f00c0979f0007
:1011b00007003700216421000100500000004000ba
:1011c00061632100808040005f98970011007000eb
:1011d000d09f9f0088047800090478003845780083
:1011e0008a00fb0020642100f90107000000e000f4
:1011f000f0ff3a00a1c2b300814f55000e003a0043
:10120000cf8897000180e900c08f9f001000780010
:10121000c09f9f000000e00005003d000000ea00c4
:10122000c09f9f005f9897000020a000d09f9f0064
:101230000904e8000f003700c09f9f000000eb008a
:1012400005003700f2ff2700820f50000200320035
:10125000ea00b900008040000904780088047800a2
:10126000b900fb000103b100e98f5000f5ff360023
:10127000c09f9f00e0c2b300984f100002003200f0
:101280000080eb0019003700a0c2b300d84f100057
:1012900007003a00cf8897000180e900c08f9f00c7
:1012a00010007800a09f9f000804e800100037009d
:1012b0000000eb00a09f9f00880078000500370029
:1012c000f3ff2700830f500002003200ea00b9004c
:1012d0000000410001047800880078003101fb0023
:1012e0000203b100e90f5100f5ff3600a09f9f00f7
:1012f000984478008900fb00e0622100b4010700f7
:101300000000e000020032000804e800010037009d
:101310008044eb00c97f9f0080c6b30080cf54009b
:1013200004003a0098cf14000a003a0066405000ca
:1013300006003700c0c6b30080cf540005003a0055
:1013400098cf140003003a0065404000c07f9f0022
:101350000804e8001801fb00e3fb2f008f81410027
:1013600081f92f008f804000a0f92f000f0040006e
:10137000100007000000e00009003a00e1fb2f0028
:101380008f804000a0f92f000f00400020030700cd
:101390000000e000020035000804e80061ff3700ab
:1013a0000080eb004f0578004f04be000080fa007b
:1013b00000000600889fbe008a9fbe00e4c6b300fe
:1013c000844f5100ce00320010003c006b425200ae
:1013d000844f51001800320005003c0054c2b30095
:1013e000844f51000601320084c5b3000f0037005e
:1013f00044c6b300844f51001500320065424200dc
:10140000844f510001013a001100370004c7b300b6
:10141000844f5100ed0032005f003500654242000c
:10142000844f51005c00320063424200844f5100ff
:10143000f6003a00580037001181e9008208780070
:10144000f00090008181410092497800f50037005a
:1014500020629000c5c6b300854f520008003a00d4
:10146000910278006482520084087800940290000f
:10147000140278004fabde008603780016003700b8
:1014800015c7b300854f520003003a0011047800dd
:101490006802540005003700a5c6b300854f52000e
:1014a00008003a00910478006882540084087800ab
:1014b0009402900024039000b4039000140278007a
:1014c000050037001182e9008408780014027800d2
:1014d000cfa2de00612bb9000498be000690be00ca
:1014e000a060900088c6b30088cf50000d00320085
:1014f00028c6b30088cf500004003a000402fb0065
:10150000cfa2de00612bb9000800370048c7b30046
:1015100088cf5000030032006644440088cf50005a
:1015200004003a00cfa2de00612bb9000498be008f
:101530000690be00100278009002900020039000f8
:10154000b0039000f0009000e00f5200e08f5a00ce
:10155000e00f5b00e08f5b0003003d000182410073
:10156000d5c2b3000a003700001290000418a3008f
:101570000300320001824100b5c2b300040037000d
:101580000408a300590032000182410005c2b300e3
:10159000054a78005300370020629000c5c6b300aa
:1015a000854f520009003a00110578006402550089
:1015b0008408780014047800940490006055b80002
:1015c0000802be000a03be001600370015c7b300ac
:1015d000854f520003003a0091047800688254005d
:1015e00005003700a5c6b300854f520008003a0039
:1015f0001105780068025500840878009402900074
:1016000024039000b4039000140278000500370012
:101610001182e90084087800140278008002eb004f
:101620006033b8000498be000690be00a060900031
:1016300088c6b30088cf50000d00320028c6b30022
:1016400088cf500004003a000482fb008002eb00c7
:101650006033b8000800370048c7b30088cf500097
:10166000030032006644440088cf500004003a0072
:101670008002eb006033b8000498be000690be0004
:10168000801090000138a30018003200100278008a
:101690009002900020039000b0039000e00f5200f1
:1016a000e08f5a00e00f5b00e08f5b000f0032001c
:1016b00081c7b300814f51000300320081c5b300e0
:1016c000814f510009003a00f00090000182410072
:1016d00005c3b300054a78008100e800018241009b
:1016e000024a78008100e80071009800f000900044
:1016f0008181410063009800824078003e003700fd
:10170000a0619000c4c6b3001181e90084cf5100ec
:10171000220032000a003c006442520084cf510093
:101720002500320004c2e80084cf510013003200cb
:101730006842520084cf51001e003a000a00370070
:1017400044c7b30084cf51001b0032006642420000
:1017500084cf5100180032006942520084cf5100fa
:1017600014003a00050037008208780092007800e3
:1017700040589000804878002c003700820878009c
:1017800092007800600a9000cfa2de00612bb900c1
:101790008498be008690be0024003700820878003e
:1017a0009200780060099000cf91de008288be0030
:1017b0001e0037001181e90082087800920078004d
:1017c0006008900080087800180037001181e90057
:1017d0008208780012027800cfa2de00612bb900e7
:1017e0000498be000690be00f00090008181410088
:1017f0006300980081c7b300c80007000b003700e2
:10180000f00090008181410005003700f000900059
:10181000818141000204e00001003a0052c2b3009d
:10182000824978008100e800710098000000eb0018
:101830004f05be004f04be0000000600889fbe009a
:101840008a9fbe008c9fbe008e1f78000006780025
:101850000104780002007800830478008881b900d0
:10186000020778000e00e000420032000800e000ad
:10187000410032008e057800c90090006900900098
:10188000808f500004003900090078005c000700d8
:101890000000e00029003500004020001900600031
:1018a0000a0032000b017800a10020000c00780033
:1018b00036000700800678000d00e00006003200c8
:1018c000610516000a854600040037000b05780004
:1018d0008006eb00010037000b05780049009000fe
:1018e000e9009000808050008a8f50000200310093
:1018f000010578008006eb000a0178008c00780072
:101900002c0007008a855500490090000a0040001d
:10191000c00498000d00e0000400320009007800c7
:10192000dd0207000000e00004003a000b00e000c8
:10193000020032000a064600cfff37000080200078
:10194000190060000200320009007800d20207008e
:1019500000c0200019006000020032004900900021
:10196000e00498008b055700110009008885d80015
:10197000010037000000eb004f0778004f06be0063
:101980004f05be004f04be000000060003003700f4
:10199000b0cf1000050032000201e900800178009c
:1019a0000200e000faff3a000000050003007800a2
:1019b000000006008001780002003700b15978006d
:1019c0000201e9000200e000fcff3a00000006000e
:1019d000020037000304e000060032000001780036
:1019e00002007800b041780081cf5100f9ff3a0041
:1019f000010037000001eb00020078000000060043
:101a0000889fbe008a1f780000047800c8009000fc
:101a1000680190000000eb00828f50003c0039000c
:101a2000180078002200290002016000e20f510036
:101a300007003200012024000000e00001003d000a
:101a400001202000008c70000080eb003000370087
:101a50000200260002006000820f500009003a00d8
:101a600038009000808f5000060039000800780090
:101a700089020700800078000080eb000100e00090
:101a800023003a001805780000c02000000065001f
:101a900018003a00a80490006002200008004000ee
:101aa000808f540013003a00002020002703070015
:101ab000200498000000e00005003a002904980086
:101ac000490498008904e8003904980008003700a8
:101ad0000a60a0000a0c7800400498000120200051
:101ae0008080400031049800400c9800500c980011
:101af000070207002800900050049800380090006a
:101b00006004980000002600180c70000000eb0034
:101b10004f0578004f04be0000000600fc87470018
:101b2000889fbe008a9fbe008c9fbe008e1f7800db
:101b30000006780080c5b30080cf50000a00320054
:101b40007740400080cf50000a00320069404000da
:101b500080cf50000b003200d061210080bf9f0079
:101b6000ae0020000a003700c260210082bf9f0043
:101b700006003700d361210083bf9f008e00200044
:101b800003003700d461210084bf9f000e012000b4
:101b90001c0278009c0290002c039000bc03900073
:101ba0000605be000404be0040c6b30080cf50004e
:101bb000030032006540400080cf50000b003a0027
:101bc000e00f5200e08f5a00e00f5b00e08f5b00f7
:101bd00006003d006000b8006011b8000404500029
:101be000858458000605590087855900e80f57007d
:101bf0000400320040002000f00f57003c003a0083
:101c00000100370030002000e00f5400e08f5c003e
:101c1000e00f5d00e08f5d0004003a00dc089000fa
:101c20008d0120000100e000070032008e00e90075
:101c3000888060008fba97008180420091407800d0
:101c4000f1ef9f007d012000800078008100e90015
:101c5000050033008b05d1000a85d3008984d300a9
:101c60000884d300f9ff3700089ebe000a96be0024
:101c7000130037008d06e9008e00e90084806000c3
:101c80000fb99700810041001141780083fd2f00ba
:101c90008d81410082f77900800178008301e9009d
:101ca000050033008783d1000683d3008582d300eb
:101cb0000482d300f9ff3700049ebe000696be00e2
:101cc0001c0278009c0290002c039000bc03900042
:101cd000e00f5200e08f5a00e00f5b00e08f5b00e6
:101ce000930034000d00e000e2ff3c00900037005c
:101cf0002c60900081c6b300814f50000b00320071
:101d000006003c000004e00008003200e6c050007d
:101d1000814f500052003a0004003700c1c6b300a2
:101d2000814f50004e003a00230037000800e000c9
:101d300004003a005c0890008d0120000000e000e3
:101d400007003200110009000e84d8000fba970076
:101d50000100420010407800f0ef9f007d0120005c
:101d6000110009000e84d8000b0037001100090093
:101d70000e04d8008d06e9008e81b90002045400db
:101d80008fb89700088440009841780082fd2f00aa
:101d90000d01410083777900000478000800e0001d
:101da000020032000d00e000f0ff3c00cfc4de0076
:101db000614db90027003700e00f5400e08f5c0050
:101dc00004003a005c0890008d0120000000e00053
:101dd000080032006171b9000800be0095020700da
:101de0000fba97008000420091407800f1ef9f0009
:101df0007d0120006171b9000800be0035fc0700bc
:101e00000c0037006171b9000800be005bfb0700e1
:101e10008d06e90080f1b900020454008fba9700e2
:101e2000088442009841780082fd2f000d01410096
:101e3000837779000004be00e00f5000e08f580067
:101e4000020032000d00e000eeff3c004fcdde004e
:101e50008a057800089ebe000a96be00340037004e
:101e6000e00f5400e08f5c00e00f5d00e08f5d004c
:101e700004003a005c0890008d0120000000e000a2
:101e80000a0032006172b900612bb9000800be007f
:101e90000a01be00120307000fba9700800042003b
:101ea00091407800f1ef9f007d0120006172b90040
:101eb000612bb9000800be000a01be000103070043
:101ec0000e0037006172b900612bb9000800be0036
:101ed0000a01be00060307008d06e90080f2b90082
:101ee000040454008fba9700088442009842780096
:101ef00084fd2f000d02420085777a00009ebe000f
:101f00000296be001c0478009c0490002c059000f2
:101f1000bc059000e00f5400e08f5c00e00f5d0016
:101f2000e08f5d00020034000d00e000e5ff3c00a2
:101f3000e80f570010003a000c1090000038a30082
:101f40000d003200f78f560006003e0080fd2f0086
:101f50000d004000ef40780000c3b30080cf500078
:101f60000500320002c3b30071fd2f008d804000d8
:101f70008d06e90082f7780078811600120e98002d
:101f80006c00900083fd2f008f8141008d80410007
:101f900088fe07001c089000dc089000810f5000ac
:101fa00006003d0000805000000e98000c109000cc
:101fb0000040a100001698000f0037000100e0006b
:101fc0000d003d008c109000f4806000f08f5000f8
:101fd00009003a007c099000fc009000810051004b
:101fe0000c09900082805000008050004240a900ff
:101ff00001003400000e98004f0778004f06be0025
:102000004f05be004f04be00cf01b1000000060026
:102010000400fa00889fbe008a9fbe008c1f7800d3
:102020000004780001067800f80d90007800900018
:10203000808555000808900080855500180890009c
:10204000808555002808900080855500380890004c
:1020500080855500480890008085550000022200c8
:1020600090bf9f0000032300a0bf9f0008109000b6
:102070000028a30015003a000b00e0001300340014
:102080000b0578008a047800e20f55000100360045
:1020900029002000c801900009017800ee80570057
:1020a0005800900003000100500498000000e00078
:1020b0008c0032006808900009004000600c980015
:1020c000090555004240a900eeff3c007801900050
:1020d0000200e0000c003400c80190008c00780081
:1020e0005800900003000100500498008080eb002d
:1020f0000000e0007c003200e808900078009000ca
:1021000000804000600c9800880c90000900e000fe
:102110001100340009057800e28f540001003600f8
:102120002a002000c80190000a017800ec805700c6
:102130005800900003000100500498000000e000e7
:1021400068003200680890000a004000600c9800a7
:102150008a845400edff3700180990000200e00067
:102160000c003400c8019000e80090005800900076
:1021700003000100500498008080eb000000e000a4
:1021800059003200e80890001808900000804000d4
:10219000600c9800a80c90000900e00011003400c9
:1021a00009057800e28f5400010036002a00200063
:1021b000c80190000a017800ec8057005800900098
:1021c00003000100500498000000e00045003200c8
:1021d000680890000a004000600c98008a8454004f
:1021e000edff3700380990000200e0000e003400d7
:1021f000e80090001808900080804000c80190001e
:102200005800900003000100500498008080eb000b
:102210000000e00034003200e80890003808900028
:1022200000804000600c9800c80c90000900e0009d
:102230001100340009057800e28f540001003600d7
:102240002a002000c80190000a017800ec805700a5
:102250005800900003000100500498000000e000c6
:1022600020003200680890000a004000600c9800ce
:102270008a845400edff3700081090008000eb00c6
:102280000028a300180032000b00e0001600340004
:102290008b04780009057800e28f540001003600b5
:1022a0002a002000c80190000a017800ee80570043
:1022b0005800900003000100500498000000e00066
:1022c00008003200680890000a004000600c980086
:1022d0008a8454004240a900eeff3c008000eb00dd
:1022e000010037008080eb00010078004f06780085
:1022f0004f05be004f04be000080fa00000006003b
:102300000108780000000600a02221009d0037008f
:10231000881f7800c86421001804e00003003a0018
:10232000f9ff070020c0b300004c78004f0478008c
:1023300000000600889fbe000004780008007800b6
:102340005500070080047800000420001800600099
:102350000200320028009000970007000000eb0008
:1023600020049800384090000004e000050035008b
:102370000000fb002df907000000e0000100320022
:102380008084eb00181090000000e000080032008c
:1023900071f907000000e000010032008084eb00ca
:1023a00018109000840007000000eb001014980043
:1023b0000008200018006000150032000001eb004a
:1023c0006000b8000202d000c35f21000302420097
:1023d000940f140005003a0000004000818048007e
:1023e000008041000008eb0006003700610040005b
:1023f000e08048000201e800e80f5000e08f58003c
:10240000f0ff3a00080078006b0007000e0037006c
:10241000000c780000c0eb003044980060022000ff
:1024200008004000200498004004980050049800e0
:10243000400c980060049800500c980070049800bc
:1024400076004400000c9800090078004f04be009c
:1024500000000600881f78000004eb006140b8000f
:10246000e2ff2f00f3ff2f00f5000700a26021001c
:1024700080004100110078000000e00001003200ff
:10248000acff07000804e800e80f5400f3ff3a002f
:102490004f04780000000600889fbe00000478000a
:1024a0000800e0000f003a008004eb008800d00034
:1024b000c05f210000804000100078000000e000b4
:1024c00004003200f4ff07000000e00001003d00be
:1024d0008084eb000804e800e80f5400f3ff3a00a2
:1024e0002500370000002200180060008004eb0087
:1024f00021003200a80490000f00370009015100ac
:10250000384090000000fb0089007800d0f80700f8
:102510000000e00007003c00280090004004980004
:1025200060049800500c98001890a0008084eb0084
:10253000110037008084440048019000828f5400cd
:10254000eeff3900280090004004980098007800c1
:1025500002c020000281600001003a0038009000b3
:1025600001e8a30002003200600498000100370077
:10257000500c98008004eb00090078004f04be0066
:1025800000000600010020000100e0000900320008
:10259000010080000100e000060032008100e90037
:1025a000010088008100d00002008000828040008d
:1025b00080087800000006000000e0002f003200d4
:1025c000c0017800e38f51002c0036000308a300ff
:1025d0002a003a0051b280000100e00002003200ff
:1025e000810f5000040031001100980050b28800a3
:1025f0001600370082007800110190000200e00010
:1026000002003200800f5100faff390011027800f9
:1026100084824000850f500018003900808f5200de
:1026200003003a00830842000100780007003700e9
:102630000200e0000300320083014000830f5100dc
:102640000e00390012009800900098009000900051
:102650000100e0000900320010014000828f5000ac
:1026600006003a00826421000009eb0010017800a6
:102670001108410091009000110098000000060030
:10268000889fbe000004780041b280000100e00095
:1026900002003200010078000d00370051b28000c6
:1026a000a064210004003700910f5400250036007b
:1026b0000180e800910090000100e000faff3a007c
:1026c00010003700920f54001e0036000280e80010
:1026d000100178000200e000faff3a0011017800d2
:1026e00051b28000a064210004003700910f540013
:1026f000140036000180e80091009000828f5000a5
:10270000faff3a0079b28000888f5400010031004e
:102710008804780009007800360007000000e00017
:1027200004003a00888f5400050032008904d1006b
:10273000f5ff3700091878009fff0700d2ff370028
:102740000000eb004f04be0000000600881f780068
:10275000630440000800a1008000eb00800f5400db
:1027600021003600e30f540001003e004800200025
:1027700008007800c2ff07008000eb000000e000c6
:1027800019003200900078009101780064815100b6
:10279000880f5100030031001101900002087800f9
:1027a000070037000881400002087800910190007e
:1027b00013019800100178001109140088087800ae
:1027c000100178000000eb000200e000040032007d
:1027d000920190000300e000010032000280e80056
:1027e00040b288008180e800010078004f04780042
:1027f00000000600800078000000eb000100e0000f
:1028000005003400010078005cf80700e10f40008b
:1028100001003a000000eb000000060000c0da00f2
:102820000000060000c0da000000060000c0da0068
:1028300000000600a7f907000400be000000060023
:10284000020ab900001bb9000200b8008100420072
:102850008100430000000600889fbe008a9fbe00e2
:1028600030044200b0844a0030054b0090854b0094
:102870006000b1000898be000a90be000440e1006c
:1028800005c8e10006d0e10007d8e10002003100f0
:10289000680040001008e8004f05be004f04be006d
:1028a00000000600889fbe008a9fbe0010047800ca
:1028b0009004900020059000b0059000041854008a
:1028c00005985c0006185d0007985d001100200067
:1028d0000440e10005c8e10006d0e10007d8e100ae
:1028e000010039008000eb00108810004f05be0089
:1028f0004f04be00000006001200fa00889fbe00d0
:102900008a9fbe008c9fbe00e0b79f00f1b79f007a
:1029100082bf9f0093bf9f000605be000404be0057
:102920000000eb00d0b79f00c0b79f00b0b79f007a
:10293000a0b79f0090b79f000006eb005fb1970023
:10294000cfb09700820141003fb097000200e00045
:1029500004003d00370007007e805700beff0700df
:1029600003003700330007007e805700cdff0700cb
:10297000dfb697000d00e0000c0035006fb2970045
:10298000ffb297000fbb97009fbb9700100020007d
:10299000010020006011b800000272008182720004
:1029a00002037300838373001b0007000c06e8001a
:1029b00001042000810f5600e0ff3a000d00e00006
:1029c00004003d000802be000a03be007e805700de
:1029d000a1ff07005fa897000000e00005003a0093
:1029e0001fb29700afb297003fb39700cfb39700e5
:1029f000090007006fb09700ffb097000fb997006c
:102a00009fb997004f06be004f05be004f04be00a1
:102a10000080fa0000000600010007000000060028
:102a2000a4b79f00b5b79f00c6b79f00d7b79f0058
:102a3000000006004f09de0082817100b3b79f00dd
:102a40004f01de008180400082807000a1b79f00ae
:102a50008fb097004f09de000000400002007000b8
:102a600090b79f007fa897004f01de008180400053
:102a70008280700081b79f000d0007004f3ade0092
:102a80000000400004007000f0af9f000800070045
:102a90000402420085824a0006034b0087834b00f4
:102aa000dfff07000802be000a03be0000000600a8
:102ab0002fb29700bfb297004fb39700dfb39700d4
:102ac00000000600881f780018002000881f78008a
:102ad00089ff07008f87e9004f0478000000060097
:102ae000801feb0084ff07008f87e90000000600cd
:102af000889fbe008a9fbe00e00f5000e08f580004
:102b0000e00f5900e08f59000c003d006044b80010
:102b10006055b8000000540081805c0002015d0037
:102b200083815d00180020001500070008003d00ab
:102b3000180007000004eb00050037000004eb005c
:102b40000f00070002003d001200070018002000df
:102b5000dcff07000800e000060032006022b80039
:102b60006033b8000000520081805a0002015b000f
:102b700083815b004f05be004f04be0000000600cd
:102b8000e00f5200e08f5a00e00f5b00e08f5b0027
:102b9000000006006044b8006055b800040254000c
:102ba00085825c0006035d0087835d0000000600ef
:102bb000889fbe008a9fbe008c1f7800e00f5000e7
:102bc000e08f5800e00f5900e08f59000d003d00e4
:102bd0006044b8006055b8000000540081805c007b
:102be00002015d0083815d001c0020000820e100df
:102bf00009a8e1000ab0e1000bb8e1000d003d00ba
:102c0000080037000006eb00e00f5200e08f5a008a
:102c1000e00f5b00e08f5b0006003d006044b80001
:102c20006055b8000402540085825c0006035d0014
:102c300087835d00aaff07000c00e0000600320059
:102c40006022b8006033b8000000520081805a0052
:102c500002015b0083815b004f0678004f05be00d8
:082c60004f04be000000060055
:020000040000fa
:102c6800563a0000202000002020000020560000d6
:102c7800207c0000202000002020000020560000ba
:102c8800004900003a200000202000002020000019
:102c9800412000007c2000002020000020200000af
:102ca80041000000256400000000000053530000ac
:082cb800000000002c000000e8
:020000040000fa
:102cc0000200fa00000f7800401080001e00600033
:102cd00000f0a7000000ea000000ea004f00de005c
:102ce000004078000080fa00000006000000fa00b2
:102cf00080aa8000e40f500054003200e40f50001e
:102d000005003e000000e0000a003200e30f500022
:102d10002f003200d9003700e60f5000b800320013
:102d2000e60f50007c003900ed0f5000a10032008a
:102d3000d20037005475ef0010c0b3005cf5b70047
:102d400080002000deff07000004e0000b003200de
:102d500000022000daff07000004a2000004e000e7
:102d60000600320000108000004078005af5b700dd
:102d70003000200080aa880004003700a0cfb300f4
:102d80005cf5b7006000200080aa880000402000a9
:102d9000cbff07000004e00004003200d0cfb300f6
:102da0005cf5b7006000200080aa880000042000c5
:102db000c3ff07000004e000a7003200e0cfb3002b
:102dc0005cf5b7006000200080aa8800ab003700e7
:102dd00000022000baff07000004e00006003200f5
:102de00000108000004078005bf5b7004000200034
:102df00080aa88000400370090cfb3005cf5b700cc
:102e00006000200080aa880000402000acff07007e
:102e10000004e00004003200d0cfb3005cf5b7003e
:102e20006000200080aa880000042000a4ff0700a2
:102e30000004e0008a003200e0cfb3005cf5b70088
:102e40006000200080aa88008c003700000220006b
:102e50009bff07000004a2000004e0001400320001
:102e600000108000004078005af5b70021ab8000c8
:102e7000a0552100010001005dd5bf000080fb00ce
:102e80001010880000000000100020008cff0700d8
:102e90000004a2000004e000fbff3a000782a80043
:102ea0005975ef0020c0b3005cf5b700070037008c
:102eb00000108000004078005df5b70010c0b3003e
:102ec00059f5b70030c0b3005cf5b70050002000e2
:102ed00080aa88000040200079ff07000004e0007d
:102ee00004003200d0cfb3005cf5b70060002000d2
:102ef00080aa88000004200071ff07000004e000a1
:102f000059003200e0cfb3005cf5b700600020004c
:102f100080aa88005900370059d5bf000004a200dc
:102f20000004e0000d0032005ed5bf000080fb0011
:102f300010108800000000001000200060ff070053
:102f40000004a2000004e000fbff3a000782a80092
:102f5000d000200080aa8800050037000010800003
:102f6000004078005ef5b7006000200080aa88006d
:102f70000040200052ff07000004e000040032007f
:102f8000d0cfb3005cf5b7006000200080aa8800b5
:102f9000000420004aff07000004e0003400320073
:102fa000e0cfb3005cf5b7006000200080aa880085
:102fb000320037006000200080aa88000040200016
:102fc0003fff07000004e00004003200d0cfb30050
:102fd0005cf5b7006000200080aa88000004200093
:102fe00037ff07000004e00023003200e0cfb30009
:102ff0005cf5b7006000200080aa88001f00370041
:103000005035ef0010c0b30054f5b7002000200089
:103010002bff07000004e00004003a000004200039
:1030200027ff07000004e0000400320000108000c9
:10303000004078005df5b70008c2a90033ab8000fe
:10304000d0aa8000e1aa8000f2aa8000030001005b
:1030500000000000090037000000000007003700f2
:1030600000000000050037000000000003003700ea
:103070000000000001003700000000000080fa009e
:10308000000006000000fa000040eb0034000700da
:103090005235ef0010c0b30055f5b70010c0b300b3
:1030a00058f5b700170ea900172ea900110ea90098
:1030b000112ea9000622ef000822ef00400b20008d
:1030c000201088000228a90041428000000720004b
:1030d00001007000404288002228a8000080fa0009
:1030e000000006000600fa00000f780011079800a3
:1030f000220798000040eb0019000700170ea900f6
:10310000172ea900110ea800112ea8000622ef000c
:103110000822ef000c22ef009e007800511088007a
:103120005035ef0010c0b30054f5b70010c0b30025
:1031300058f5b7009e00900021ab8800ae009000cb
:1031400031ab88000208a900404280007000b30043
:10315000404288002208a8000080fa000000060013
:103160000200fa00004f78001e4078000004e000e2
:103170000200320007e2a8000100370007e2a900c0
:103180000080fa00000006000000fa000622ef00ae
:103190000822ef005235ef0010c0b30055f5b7001c
:1031a00010c0b30058f5b7005035ef0010c0b300a1
:1031b00054f5b70010c0b30058f5b7006035ef0004
:1031c0006235ef002228a9000228a9002228a800c1
:1031d0002208a9000208a9002208a80010c0b30014
:1031e000dfff07000080fa00000006000200fa007e
:1031f000000f780055d5bf000004a2000004e000d5
:10320000040032001e00780081cfb30021409800f6
:10321000e90037005575ef001e00780011c0b300bb
:1032200021409800e000370090aa80008000eb0069
:10323000d200200003002000820f5000838f58002e
:10324000ca003e00000601000d00370026003700ce
:10325000290037005f0037007d0037009b003700f2
:10326000ba003700c1003700c0003700bf00370088
:10327000400037005e0037007c0037009a003700be
:1032800058d5bf000004e000040032005875ef007c
:103290001000200090aa8800c300370080002000a2
:1032a00087fe07000004a2000004e00007003200cf
:1032b0000001200082fe07000004e000030032004d
:1032c0001000200090aa8800b70037001e00780088
:1032d00080c0eb002140980010c0b30055f5b70046
:1032e0005235ef00b00037000602a8002000200091
:1032f00090aa8800ac00370057d5bf000004e0005a
:103300009e0032005775ef00800020006cfe070021
:103310000004e000100032000001200068fe0700f9
:103320000004a2000004e0000b0032001e00780040
:10333000104078000080fb00000040008000780012
:10334000f00f20000080600010108800a000200016
:1033500090aa8800940037000642a8006000200070
:1033600090aa88001e00780080c0eb0021409800e1
:103370008d00370057d5bf000004e0008100320007
:103380005775ef00000028004dfe07000004a20062
:103390000004e000080032000008200048fe07009a
:1033a0000004a2000004e00003003200300020000e
:1033b00090aa88007c0037000642a8006000200028
:1033c00090aa88001e007800c1cfb3002140980069
:1033d000750037001e007800104090000080fb0050
:1033e00010108800b000200090aa88006e003700fe
:1033f00057d5bf000004e000640032005775ef00ad
:10340000000028002efe07000004a2000004e000d7
:10341000080032000008200029fe07000004a20076
:103420000004e000030032004000200090aa880061
:103430005d0037000642a8006000200090aa8800c6
:103440001e007800b1cfb30021409800560037002d
:103450001e007800304090000080fb0010108800b3
:10346000c000200090aa88004f00370057d5bf0049
:103470000004e000470032005775ef00000028000c
:103480000ffe07000004a2000004e0000800320064
:10349000000820000afe07000004a2000004e0006b
:1034a000030032005000200090aa88003e00370040
:1034b0000642a8006000200090aa88001e00780044
:1034c000b1cfb30021409800370037001e007800cc
:1034d000404090000080fb0010108800d0002000c9
:1034e00090aa88003000370057d5bf000004e000e4
:1034f0002a0032005775ef0000002800f0fd070099
:103500000004a2000004e0000900320000082000ce
:10351000ebfd07000004a2000004e00004003200fc
:103520000642a8006000200090aa88001e00370014
:103530000642a8006000200090aa88001e007800c3
:10354000b1cfb300214098001700370057d5bf0016
:103550000004e000130032005775ef005235ef0011
:1035600010c0b30055f5b7000f0037005235ef001b
:1035700010c0b30055f5b7000b0037000000000085
:1035800009003700000000000700370000000000bd
:1035900005003700000000000300370000000000b5
:1035a000010037000000000055d5bf000004a20054
:1035b0000004e0001cff3a000080fa000000060052
:1035c0000200fa00000f780055d5bf000004a200e9
:1035d0000004e000040032001e00780081cfb30038
:1035e00021409800f90037005575ef001e00780063
:1035f00011c0b30021409800f000370090aa80006d
:103600008000eb00e200200003002000820f500049
:10361000838f5800d2003e00000601000e003700e4
:10362000270037002a003700600037009a00370073
:10363000ae003700c20037008f0037007a00370035
:10364000c7003700410037005f0037009f00370098
:10365000b30037007800370058d5bf000004e00001
:10366000040032005875ef001000200090aa880076
:10367000d20037008000200091fd07000004a20066
:103680000004e00007003200000120008cfd07006c
:103690000004e000030032001000200090aa88001f
:1036a000c60037001e00780080c0eb002140980063
:1036b00010c0b30055f5b7005235ef00bf0037001a
:1036c0000602a8002000200090aa8800bb00370056
:1036d00057d5bf000004e000a50032005775ef0089
:1036e0008000200076fd07000004e000100032009a
:1036f0000001200072fd07000004a2000004e000a9
:103700000b0032001e007800104078000080fb00a3
:103710000000400080007800f00f20000080600072
:1037200010108800a000200090aa8800a300370095
:103730000642a8006000200090aa88001e007800c1
:10374000c1cfb300214098009c00370057d5bf007f
:103750000004e000880032005775ef0000002800e8
:1037600057fd07000004a2000004e000080032003a
:103770000008200052fd07000004a2000004e00041
:10378000030032003000200090aa88008b00370030
:103790000642a8006000200090aa88001e00780061
:1037a000b1cfb30021409800840037001e0078009c
:1037b000104090000080fb0010108800b000200036
:1037c00090aa88007d00370057d5bf000004e000b4
:1037d0006b0032005775ef000000280038fd07002d
:1037e0000004a2000004e0000800320000082000ed
:1037f00033fd07000004a2000004e00003003200d3
:103800008000200090aa88006c0037000642a800c3
:103810006000200090aa88001e007800b1cfb3009d
:1038200021409800650037000622a800e000200033
:1038300090aa88006100370057d5bf000004e0005f
:10384000510032005775ef001e00780010407800dc
:103850000080fb000000400080007800f00f200096
:10386000008060000000e800101088007000200058
:1038700090aa88005100370057d5bf000004e0002f
:10388000430032005775ef000662a8004000200098
:1038900090aa88004900370057d5bf000004e00017
:1038a0003d0032005775ef00001080008040780026
:1038b0001e0078003140980006a2a9000682a800e8
:1038c000c000200090aa88003c00370057d5bf00f8
:1038d0000004e000320032005775ef000662a800d5
:1038e0005000200090aa88003400370057d5bf0050
:1038f0000004e0002c0032005775ef00001080003b
:10390000804078001e0078004140980006a2a80080
:103910000682a800d000200090aa88002700370067
:1039200057d5bf000004e000210032005775ef00ba
:103930000642a8006000200090aa88001f003700ff
:1039400057d5bf000004e0001b0032005775ef00a0
:103950005235ef0010c0b30055f5b700170037001f
:103960005235ef0010c0b30055f5b7001300370013
:103970000000000011003700000000000f003700b9
:10398000000000000d003700000000000b003700b1
:1039900000000000090037000000000007003700a9
:1039a00000000000050037000000000003003700a1
:1039b00000000000010037000000000055d5bf00e6
:1039c0000004a2000004e0000cff3a000080fa00ae
:1039d000000006000000fa000040eb00f8080700b5
:1039e000cc080700b2080700e5080700ed0807004b
:1039f00010c0b300f20807000080fa0000000600c3
:103a00000000fa00af06b00060f92f000f00400080
:103a100001f92f00810047003300090031187800b8
:103a2000315878009006b10085010700af06b1005b
:103a30000004e0000d00320013eea900af06b00054
:103a400060f92f000f00400001f92f0081004700ae
:103a50003300090031187800315878009006b10021
:103a60009e010700af06b1000100370013eea80069
:103a70000080fa00000006006c00fa00d5ff070085
:103a800001d0210000102e0047060700480407005f
:103a9000a70607007bfd070040d42100c1012000dc
:103aa0002309070010c0b3004806070010c0b30088
:103ab0009f00070010c0b300e800070010c0b3006b
:103ac000a7fd07002834ef002a34ef0050c5b300eb
:103ad00008f0b70040d42100c101200014090700fc
:103ae00040a180008000780080c0b3007e00070005
:103af00050a180008000780090c0b3007a000700d9
:103b0000804a22009111200009090700a1652900bf
:103b100010c0b3005106070001003700000000008c
:103b20000e007800840107000004e000fbff320073
:103b300091708000000024000080600000f0a70069
:103b40000000ea000000e9004f00de0000407800bd
:103b50000080fb00610060004e00dd00927080007c
:103b6000f1ff2b008100610001007000907088005f
:103b70004e4090000080fb00f20f50002900320000
:103b8000f20f500007003c00f00f50000f00320011
:103b9000f00f500018003c00e20f50000a00320005
:103ba000dfff370001072000810f500022003200a4
:103bb00011072000810f50001c003200f30f50004d
:103bc00019003200d6ff37001e0037006e4090000b
:103bd000804078005e409000a20620000e01410067
:103be000160807005e309000170007005e30900056
:103bf000a2040700130037006e4090008040780058
:103c00005e409000a20620000e0141000b08070054
:103c10005e309000160007005e309000a904070097
:103c20000800370007003700060037005e409000ac
:103c3000ba020700030037005e409000cf02070081
:103c400000000000b6ff37000200fa00000f780005
:103c50009e00780041a1880040a18000800078008b
:103c600080c0b300200007000080fa0000000600ba
:103c70000200fa00000f78009e00780051a1880031
:103c800050a180008000780090c0b30016000700ab
:103c90000080fa00000006000600fa00000f78001d
:103ca00011079800220798002e4090000000fb00aa
:103cb000e80f400004003500e70f40000700340023
:103cc000e10f40000200340010c0b30004003700d0
:103cd0002dfd07000040eb00010037000040eb0025
:103ce0000080fa00000006000400fa00004f78008f
:103cf00011079800c2002100b10021001e009000b1
:103d0000dc0707001e4178009100210082487800fe
:103d10008000210035fd0700408080005180800038
:103d200062808000dcff07000080fa0000000600cf
:103d30000200fa00004f780011e1a9001021a9004b
:103d40001061a900810880000003200001007000bc
:103d5000800888000621ef006004200060088800c9
:103d600011428000f0ff28000080600000c0a00029
:103d70001042880000e8a90020e8a8001e40780052
:103d80000004e0000100320011e1a8000080fa0008
:103d9000000006000200fa00f80507008006070090
:103da000000f7800b506070020808800e0ab800097
:103db0009e007800808f50000a0032009e0078003c
:103dc000e1ab8800108080001e0040001080880059
:103dd0001e0078000000e0000200320010c0b300b6
:103de00006f0b700208080000000e00019003200db
:103df00020808000e30f500011003200e30f5000dc
:103e000011003600e50f500005003200e50f5000ac
:103e10000f003900e60f5000050032000d0037009a
:103e200010c0b30006f0b700d40307000900370044
:103e300010c0b30006f0b700000000000500370016
:103e40000000000003003700000000000100370000
:103e5000000000000080fa00000006000200fa00e6
:103e6000004f78001fe1a9001e21a9001e61a900d2
:103e7000f10880000003200001007000f0088800b5
:103e80001421ef00c02b2000d00888006142800080
:103e9000f0ff28000080600000d0a0006042880091
:103ea0000368a9002368a8001e4078000004e00011
:103eb000010032001fe1a8000080fa0000000600a7
:103ec0000400fa0006d0bf000004e0002700320022
:103ed00010c0b300be0307000e0037001080800042
:103ee0000000e000060034000080eb006a030700d9
:103ef000108080000000e900108088000500370075
:103f00001000200064030700108080000000e8001b
:103f100010808800108080000000e000efff3a0071
:103f20000e007800c70307000e80e800cc030700ee
:103f30009e00780040a18000808f50000200320077
:103f40001e00780040ff07009e00900050a18000f6
:103f5000808f5000020032001e00900044ff0700d6
:103f60000030ef000670ef0007003700018080008e
:103f7000703e2000808f500003003e0000808000d3
:103f80000000e8000080880020c0b30009f0b700fe
:103f9000800021008afd0700c100210091407800c7
:103fa0000bd0bf000e0178002407070060a180003d
:103fb000c400de001e0078004400de00808f500048
:103fc000040032001e00780060a1880060a180001b
:103fd000ce03070010c0b30009f0b7008000210035
:103fe00077fd0700c1002100914078000bd0bf0091
:103ff0000e81e8001107070070a18000c400de00f8
:104000001e0090004400de00808f5000040032004b
:104010001e00900070a1880070a18000cd030700f1
:1040200001808000703e2000808f5000020036002a
:104030000040eb00660307000080fa000000060065
:104040000000fa003e5097000080fb00e80f50008f
:1040500019003200e80f500007003c00e20f50004a
:1040600011003200e40f500011003200e10f500047
:104070000b0032000800370001022000810f5000c1
:104080001100320001042000810f500010003200a6
:10409000f00f50000a00320010c0b3000d003700ce
:1040a0000040eb000b0037000040eb000900370038
:1040b0000040eb00070037000040eb000500370030
:1040c0000040eb00030037000040eb000100370028
:1040d0000040eb000080fa00000006000000fa003b
:1040e000f0ab8000e90f5000020034000040eb000c
:1040f0000f003700f0ab80000000e800f0ab880054
:10410000f1ab8000900620008088b9008000780024
:10411000d00021000080400001f92f0081004700fd
:1041200068000900315878009006b10010c0b30053
:104130000080fa00000006000400fa001007980052
:10414000f0ab80000000e00002003d000040eb000a
:104150001f0037001e009000d100210068000900f8
:10416000315878009006b10010002000000f780050
:10417000100037009e00e900900620008088b900fa
:1041800080007800d0002100008040001e017800ef
:10419000910620008191b900d100210081004100e9
:1041a00068000900315878009006b1009106b1000e
:1041b0001e0fe800f0ab80009e0f5000edff3100b5
:1041c000f0ab80000000e900f0ab880010c0b30045
:1041d0000080fa00000006000000fa000b0707004c
:1041e00010c0b3003607070010c0b300c7000700b7
:1041f000400107000080fa00000006000200fa00fb
:10420000004f78001e4078003c0707002073200014
:1042100001002000460707000080fa0000000600a9
:104220000200fa00000f78001e00780000407800bd
:104230000043b00031070700207320000100200078
:104240003b0707000080fa00000006000400fa00a7
:10425000100798000000eb00000f78000500370001
:104260001e0090001e00400010407800e3ff070091
:104270001e0fe8001e00900080f307009e0f500004
:10428000f7ff3e000080fa00000006001600fa006a
:10429000200f9800e4004700070009008018eb0099
:1042a0002e0890000000e00005003d00d0c2b300e1
:1042b000d2ff07002e0890000000ea00200f9800af
:1042c0002e0890000000e000290034000000eb0000
:1042d000000f780012003700ae089000a000200008
:1042e00000017800110009008200d8008000fd0064
:1042f000804078001e01780064004100017778005a
:104300002e099000706626000090b900c288de0079
:104310004f90de0000805000200f98001e0fe80034
:104320002e0890000000e000ebff3a000000eb00d8
:10433000100798001e00e9001007980008003700d9
:104340001e009000640040006e4078000043b00002
:10435000aaff07001e0090000000e9001007980067
:104360001e0090000000e000f5ff3d000200370055
:1043700000c3b300a1ff07000080fa0000000600a0
:104380000a00fa00881f780020079800310798007b
:10439000420798002e009000be00900008f207002f
:1043a00000007800b9ff07004e0090000000e00018
:1043b00039003200e0652900a4ff070018c0b300ef
:1043c0006011b8002e009000be009000faf10700c6
:1043d0000000e000010035000044eb000804e000ac
:1043e000050032002e009000be00900001f0a200f7
:1043f00020079800310798002e009000be00900022
:1044000010f20700000078008000eb0028f207009f
:104410000001be002e009000be00900079f1070060
:10442000008fbe0019003700020020000312240094
:104430001e0078009e00900072f20700008fbe0000
:104440001e0078009e009000fef10700000078003a
:104450008eff07001e0078009e009000f9f1070013
:10446000000078008000eb0011f207000001be00a0
:104470001e0078009e00900062f10700008fbe00d1
:104480004e0090000000e900400798004e009000a8
:104490000000e000e4ff3a004f0478000080fa00da
:1044a000000006000200fa00004f7800e0cfb300e1
:1044b0009206070020c6b300900607001e40780051
:1044c0008e060700b07e2d00010020009806070030
:1044d0000080fa00000006000200fa00004f780099
:1044e000e0cfb3008506070010c6b30083060700bf
:1044f0001e40780081060700b07e2d0001002000dc
:104500008b0607000080fa00000006000200fa0097
:10451000004f7800e0cfb300780607001e40780017
:104520000004e0000300320010c4b300730607006b
:104530000200370020c4b30070060700207320007b
:10454000010020007a0607000080fa000000060043
:104550000400fa0020479800314798002e40900050
:10456000e14f50000200360010c0b3002047980011
:104570003e409000ef4f500002003600f0c0b30004
:1045800030479800be409000014f78002e409000c8
:10459000e14f500002003a0001c4b3001ecf4000ba
:1045a000e0cfb3005506070050c4b3005306070020
:1045b0001e407800510607002073200001002000f3
:1045c0005b0607000080fa00000006000000fa0009
:1045d000e0cfb3004906070060c4b30047060700f8
:1045e00050bf260001002000510607000080fa009d
:1045f000000006000200fa00004f7800e0cfb30090
:104600003e0607001e4078000004e0000300320070
:1046100070c4b300390607000200370080c4b3003d
:104620003606070050bf26000100200040060700a4
:104630000080fa00000006000000fa00e0cfb3009e
:104640002e06070090c4b3002c060700207320003c
:1046500001002000360607000080fa000000060076
:104660000000fa00e0cfb30024060700a0c4b300a6
:104670002206070020732000010020002c060700fe
:104680000080fa00000006000200fa00004f7800e7
:10469000e0cfb300190607001e4078000004e000d8
:1046a00003003200b0c4b300140607000200370054
:1046b000c0c4b300110607002073200001002000d1
:1046c0001b0607000080fa00000006000000fa0048
:1046d000e0cfb30009060700e0c4b30007060700f7
:1046e0002073200001002000110607000080fa005e
:1046f000000006000000fa00e0cfb300ff0507004d
:1047000010c5b300fd05070050bf260001002000c2
:10471000070607000080fa00000006000200fa0009
:10472000004f780020c3b3009e40780080cf500037
:104730000200360020c3b300004f78001e4078000e
:104740000004e00002003a0010c0b300004f7800ff
:10475000e0cfb300e905070020c5b300e705070077
:104760001e407800e5050700c03f22000100200040
:10477000ef0507000080fa00000006000200fa00c2
:10478000004f78001e407800e84f500002003600cd
:1047900080c0b300004f78001e4078000004e000a5
:1047a00002003a0010c0b300004f7800e0cfb30021
:1047b000d205070030c5b300d00507001e407800c1
:1047c000ce0507002073200001002000d805070057
:1047d0000080fa00000006000600fa00204798005a
:1047e00021079800e0cfb300c405070040c5b3001f
:1047f000c20507002e409000c00507000040eb00f6
:10480000004f7800060037001e80fb00ae009000cd
:104810000080400010407800b80507001e4fe800f7
:104820001e407800e74f5000f7ff360050e62000aa
:1048300001002000be0507000080fa00000006000d
:104840000000fa00e0cfb300ac05070050c5b3008c
:10485000aa0507002073200001002000b40507000e
:104860000080fa00000006000000fa00e0cfb3006c
:10487000a205070060c5b300a00507002073200053
:1048800001002000aa0507000080fa0000000600d1
:104890000000fa00e0cfb3009805070000c7b3009e
:1048a0009605070040fe210011002000a00507002a
:1048b0000080fa00000006000000fa00e0cfb3001c
:1048c0008e05070010c7b3008c050700a0fb2c0065
:1048d00021002000960507000080fa000000060075
:1048e0000000fa00e0cfb3008405070020c7b30042
:1048f0008205070040fe2100110020008c05070002
:104900000080fa00000006000000fa008040eb0082
:104910000040eb000eff07007ea897004bfe07004b
:104920008040eb0010c0b30009ff07000eb09700f5
:1049300046fe07001eb09700aeb097003eb197004c
:104940002f0007004eb09700deb097006eb19700c1
:104950002b0007007eb097008eb897001eb9970015
:10496000270007002eb89700beb897004eb99700f1
:10497000230007000080fa00000006000800fa008b
:1049800020079800310798002e009000301f780013
:10499000201778001e009000804078001e007800ec
:1049a00000407800eafe07003e009000e10f500052
:1049b00007003200e20f50000a0032000040eb0016
:1049c0000cff07000040eb002fff07000a00370034
:1049d00010c0b30007ff07000040eb002aff0700ec
:1049e0000500370010c0b30002ff070010c0b3007d
:1049f00025ff0700000000000080fa00000006000c
:104a00001400fa0070079800010f9800120f980028
:104a10009e089000010f78008e0890001107980002
:104a2000fe009000d0cc2c000008b8004308de0047
:104a3000200798002e019000d0cc2c000010b80068
:104a40004308de00ea00b90000005100300798007a
:104a5000ae009000d0cc2c000008b8004308de0067
:104a6000200798002e019000d0cc2c000010b80038
:104a70004308de00ea00b90000005100400798003a
:104a8000ae009000d0cc2c000008b8004308de0037
:104a9000200798002e019000d0cc2c000010b80008
:104aa0004308de00ea00b9000000510050079800fa
:104ab000ae009000d0cc2c000008b8004308de0007
:104ac000200798002e019000d0cc2c000010b800d8
:104ad0004308de00ea00b9000000510060079800ba
:104ae0006e0090000000e000080032001e00780018
:104af000804078001e0090000040780094fe07007f
:104b00006e009000c6fd0700070037001e00780009
:104b1000804078001e009000004078008cfe070066
:104b200000c2b300b5fd07001e0fe8001e007800ac
:104b3000804078001e0090000040780084fe07004e
:104b40005e009000b6fd07001e0fe8001e00780012
:104b5000804078001e009000004078007cfe070036
:104b6000c0c2b300a5fd07001e0fe8001e007800bc
:104b7000804078001e0090000040780074fe07001e
:104b80004e009000a6fd07001e0fe8001e007800f2
:104b9000804078001e009000004078006cfe070006
:104ba0003e0090009efd07000080fa000000060015
:104bb0000000fa0088fd07004063290070a8880003
:104bc0005064290080a8880072a9800083a9800011
:104bd00092a88800a3a888003215f8001615f900dd
:104be000a2a98000b3a98000c2a88800d3a8880029
:104bf0003815f8001c15f900d2a98000e3a980003f
:104c0000f2a8880003a988003e15f8002215f900d3
:104c100002aa800013aa800022a9880033a9880074
:104c20004415f8002815f900fc8747007c805700e0
:104c3000e35021000d00090033187800c001b100d5
:104c400031ff0700fc8757006054210040a888000e
:104c50004050210050a88800e052210060a8880040
:104c60004050210050aa88006054210060aa8800aa
:104c70004053210070aa88002c35ef0040502100dd
:104c800050a9880050a9800061a980003bff07005f
:104c90000080fa00000006000400fa0010079800e7
:104ca0001e0090000000e0003200320060a9800089
:104cb0000000e0002f00320060a98000e10f5000ea
:104cc0000b003a001e0090000000e00004003400d9
:104cd00050a980003000900050a9880022003700c1
:104ce00050a980002000900050a988001e003700c5
:104cf00050a9800040009000000f78001e00900036
:104d00000000e0000c0034001e00780090007800e5
:104d100040062000808f50000d0036001e007800f5
:104d200010007800c1f92f00808040001e0078003c
:104d300001087800060037001e0078001000780097
:104d400041062000808040001e00780001087800a5
:104d500050a980004001900012007800920090005d
:104d60002201900026ff070050a9800061a9800061
:104d700002ff07000080fa00000006000000fa00b1
:104d800060a98000e10f500003003200e20f5000e4
:104d9000070032000c0037002000200060a98800c6
:104da00050a9800061a98000f4fe070006003700ca
:104db0001000200060a9880050a9800061a980002f
:104dc000eefe0700000000000080fa000000060070
:104dd0000200fa00004f780060a980000000e9009e
:104de000e10f5000090036001e4078000004e0008a
:104df0000f0032001000200060a9880050a9800038
:104e000061a98000ddfe07000c0037001e4078001d
:104e10000004a2000004e000070032002c35ef007f
:104e200050a9800061a98000d4fe0700030037006c
:104e30000000000001003700000000000080fa00c0
:104e4000000006000200fa00000f780071a980003f
:104e50001e007800010878000080fa0000000600bb
:104e60000200fa00000f7800a1a980001e0078005f
:104e7000010878000080fa00000006000600fa0031
:104e80002007980050a98000301f78002017780074
:104e9000ae00900071a9880070a9800081a98000ef
:104ea00092a98000d6fe07001e0090008040780086
:104eb0001e00780000407800a5fd07000080fa0081
:104ec000000006000600fa002007980050a98000a4
:104ed000301f780020177800ae009000a1a988004c
:104ee000a0a98000b1a98000c2a98000c4fe07006b
:104ef0001e009000804078001e007800004078007e
:104f000093fd07000080fa00000006000600fa008a
:104f10002007980050a98000301f780020177800e3
:104f2000ae009000d1a98800d0a98000e1a980003e
:104f3000f2a98000b2fe07001e00900080407800b9
:104f40001e0078000040780081fd07000080fa0014
:104f5000000006000600fa002007980050a9800013
:104f6000301f780020177800ae00900001aa88005a
:104f700000aa800011aa800022aa8000a0fe0700db
:104f80001e009000804078001e00780000407800ed
:104f90006ffd07000080fa00000006000400fa0020
:104fa000889fbe001007980021e2a90021a2a90055
:104fb0002182a90001118000f0cf2f000080600045
:104fc0000011880020e2a90020c2a90020a2a900a7
:104fd0002082a9002062a9000111800090ff2f000b
:104fe00000806000001188002002a90023a2a9000f
:104ff00023e2a90023c2a9002342a90011118000c5
:10500000f0f32f00008060001011880022a2a90098
:105010001e0090008000eb000001be00804a2200cc
:1050200091112000d5ee07004c09dd004404de009c
:1050300008047100c48cde00080078000000e9005c
:10504000401188000300370030118000004f7800c5
:105050001e4fe80010118000610060000000e000b9
:10506000f9ff3a002422ef000168a90021428000e4
:10507000f0ff280080806000000023000100700025
:10508000204288002168a80010cea80010aea90018
:105090002136800000f82f00808060006002200030
:1050a000010070002036880011348000f00f2c00c1
:1050b000008060000080a000103488004f04be0013
:1050c0000080fa00000006000800fa00200798009f
:1050d000614798000040eb00004f78002e009000e0
:1050e0009040780040c2b30080cf500001003200f1
:1050f0001e14a0006e4090000080fb000000e9003c
:10510000ae009000008040009040780060c2b30084
:1051100080cf5000010032001e24a0002e0090001d
:105120000080e80090407800a0c3b30080cf50001a
:10513000010032001e34a0002e00900064004000e8
:1051400090407800a0c3b30080cf5000010032002f
:105150001e34a0006e4090000080fb0063005000f1
:10516000ae0090000080400090407800a0c3b300e3
:1051700080cf5000010032001e34a0001e40780095
:105180000004e0002a003a002e0090006300400076
:1051900090407800214798002e4090000080fb004e
:1051a000e80040006e4090000080fb00808f5000bf
:1051b0001e003a002e0090000000e8001040780029
:1051c00036f4b700ae409000424321000149780018
:1051d0000040eb00104798000f0037001e40900081
:1051e0000081fb001e4090000080fb006500400035
:1051f000ae009000008040001040780080407800b1
:105200006043210000004100114098001e409000c2
:105210000040e800104798009e4090002e4090000b
:1052200080cf5000edff3900010037001e44a00080
:105230001e4078000004e00009003a006e40900033
:105240000080fb000080e900ae009000008040007c
:105250001040780033f4b70033d4bf0010000700cb
:105260009e4078005243210001497800e0a480006c
:10527000af06b00061f92f008f804000224321006b
:1052800033000900b2187800b25878009106b100d6
:1052900000000100af06b1000080fa000000060027
:1052a0000200fa00004f780040c2b300540007002b
:1052b00000c4b300520007001e40780050000700f1
:1052c00060c2b3004e0007000080fa000000060034
:1052d0000200fa00004f7800e14921009140780077
:1052e00040c6b30080cf5000020036009e74ef002d
:1052f0002b00370003d5bf000080fb00e10f5000fa
:105300000d003200e20f50001a00320040c2b3001c
:105310009e40780080cf500020003a0040c2b30089
:105320009ff4b70010c0b3009ef4b70010c0b300e4
:1053300003f5b7001a00370060c2b3009e40780042
:1053400080cf500002003a0020c0b30003f5b70040
:105350009ed4bf008080fb00f04921000080400007
:105360001e4878009ed4bf000040e8009ef4b700bd
:105370000b0037001e4078000004e00004003a00f3
:105380009ed4bf0080407800f04921004eff070006
:105390000375ef000000000001003700000000006e
:1053a0000080fa00000006000400fa00000f7800f8
:1053b000110798009e009000e1a488001e0078006c
:1053c000f6fe07000080fa00000006000200fa0066
:1053d000004f78001e4078000004e0000400320016
:1053e0009e74ef0021e2a8002342a80002003700cb
:1053f00021e2a9002342a9000080fa000000060073
:105400000200fa00004f78001e80fb002011880087
:1054100000000000111180000010200000806000da
:105420000000e000fbff32000080fa0000000600f0
:105430000000fa0030118000004078000080fa007f
:10544000000006000200fa00004f78001e407800bd
:10545000ebff07000080fa00000006000400fa00dd
:10546000004f78001107980040c2b300e4ff070026
:105470001e407800e2ff0700a0c3b300e0ff070072
:1054800060c2b300deff07000080fa0000000600e3
:105490000400fa00004f78001107980040c2b300e2
:1054a000d7ff070030d4bf000043b000d4ff07008f
:1054b000a0c3b300d2ff070010c3b300d0ff0700a2
:1054c000a0c3b300ceff07001e00fb00801f7800c2
:1054d00060652900801f7800fcee0700e487570014
:1054e000a0c3b300c6ff07009e009000811f780094
:1054f00060652900801f7800f4ee0700e4875700fc
:10550000a0c3b300beff070020c3b300bcff070069
:10551000a0c3b300baff070030c3b300b8ff070051
:1055200060c2b300b6ff07000080fa00000006006a
:105530000000fa00100ea800102ea800000ea8000f
:1055400090708000610060000000e0000200320006
:105550003000200060ab8800907080006200600026
:105560000000e0000300320060ab80000000a200f9
:1055700060ab88000080fa00000006000400fa001a
:105580000040eb00004f7800c0ab8000d1ab800042
:1055900061004000e0804800c0ab8800d1ab8800cb
:1055a00070ab80000080e90070ab880070ab8000b9
:1055b0000000e00001003d006e35ef000040eb0010
:1055c0001047980090708000610060000000e000cb
:1055d0000200320030c0b300104798009070800085
:1055e000620060000000e000030032001e409000f6
:1055f0000004a2001047980060ab80008040780053
:105600001e40900000c05000204798002e4090009f
:105610000000fb0061006000004078000004e00032
:105620000c0032001e4090000000fb0060ab8800c0
:105630002e4090000000fb00620060008000e90046
:1056400050ab80000080400050ab880010c0b30019
:10565000004f78001e4078000004e0000700320090
:1056600071ab800070be2000808f500003003e00b0
:1056700070ab80007900400070ab8800c2ab800046
:10568000d3ab8000a0ab8000b1ab80000001510023
:10569000818159009000200001002000800f5100fe
