:020000040000fa
:080000000002040000000000f2
:020000040000fa
:04000800ae03000043
:020000040000fa
:04000c00ae0300003f
:020000040000fa
:04001000ae0300003b
:020000040000fa
:04001400ae03000037
:020000040000fa
:04001800ae03000033
:020000040000fa
:04001c00ae0300002f
:020000040000fa
:04002000ae0300002b
:020000040000fa
:04002400ae03000027
:020000040000fa
:04002800ae03000023
:020000040000fa
:04002c00ae0300001f
:020000040000fa
:04003000ae0300001b
:020000040000fa
:04003400ae03000017
:020000040000fa
:04003800ae03000013
:020000040000fa
:04003c00ae0300000f
:020000040000fa
:04004000ae0300000b
:020000040000fa
:040044005e03000057
:020000040000fa
:04004800ae03000003
:020000040000fa
:04004c00ae030000ff
:020000040000fa
:04005000ae030000fb
:020000040000fa
:04005400ae030000f7
:020000040000fa
:04005800ae030000f3
:020000040000fa
:04005c00ae030000ef
:020000040000fa
:04006000ae030000eb
:020000040000fa
:04006400ae030000e7
:020000040000fa
:040068002c03000065
:020000040000fa
:04006c001403000079
:020000040000fa
:04007000ae030000db
:020000040000fa
:04007400ae030000d7
:020000040000fa
:04007800ae030000d3
:020000040000fa
:04007c00ae030000cf
:020000040000fa
:04008000ae030000cb
:020000040000fa
:04008400ae030000c7
:020000040000fa
:04008800ae030000c3
:020000040000fa
:04008c00ae030000bf
:020000040000fa
:04009000ae030000bb
:020000040000fa
:0400940086030000df
:020000040000fa
:04009800ae030000b3
:020000040000fa
:04009c00ae030000af
:020000040000fa
:0400a000ae030000ab
:020000040000fa
:0400a400ae030000a7
:020000040000fa
:0400a800ae030000a3
:020000040000fa
:0400ac00fa02000054
:020000040000fa
:0400b000ae0300009b
:020000040000fa
:0400b400ae03000097
:020000040000fa
:0400b800ae03000093
:020000040000fa
:0400bc00ae0300008f
:020000040000fa
:0400c000ae0300008b
:020000040000fa
:0400c400ae03000087
:020000040000fa
:0400c800ae03000083
:020000040000fa
:0400cc00ae0300007f
:020000040000fa
:0400d000ae0300007b
:020000040000fa
:0400d400ae03000077
:020000040000fa
:0400d800ae03000073
:020000040000fa
:0400dc00ae0300006f
:020000040000fa
:0400e000ae0300006b
:020000040000fa
:0400e400ae03000067
:020000040000fa
:0400e800ae03000063
:020000040000fa
:0400ec00ae0300005f
:020000040000fa
:0400f000ae0300005b
:020000040000fa
:0400f400ae03000057
:020000040000fa
:0400f800ae03000053
:020000040000fa
:0400fc00ae0300004f
:020000040000fa
:04010000ae0300004a
:020000040000fa
:04010400ae03000046
:020000040000fa
:04010800ae03000042
:020000040000fa
:04010c00ae0300003e
:020000040000fa
:04011000ae0300003a
:020000040000fa
:04011400ae03000036
:020000040000fa
:04011800ae03000032
:020000040000fa
:04011c00ae0300002e
:020000040000fa
:04012000ae0300002a
:020000040000fa
:04012400ae03000026
:020000040000fa
:04012800ae03000022
:020000040000fa
:04012c00ae0300001e
:020000040000fa
:04013000ae0300001a
:020000040000fa
:04013400ae03000016
:020000040000fa
:04013800ae03000012
:020000040000fa
:04013c00ae0300000e
:020000040000fa
:04014000ae0300000a
:020000040000fa
:04014400ae03000006
:020000040000fa
:04014800ae03000002
:020000040000fa
:04014c00ae030000fe
:020000040000fa
:04015000ae030000fa
:020000040000fa
:04015400ae030000f6
:020000040000fa
:04015800ae030000f2
:020000040000fa
:04015c00ae030000ee
:020000040000fa
:04016000ae030000ea
:020000040000fa
:04016400ae030000e6
:020000040000fa
:04016800ae030000e2
:020000040000fa
:04016c00ae030000de
:020000040000fa
:04017000ae030000da
:020000040000fa
:04017400ae030000d6
:020000040000fa
:04017800ae030000d2
:020000040000fa
:04017c00ae030000ce
:020000040000fa
:04018000ae030000ca
:020000040000fa
:04018400ae030000c6
:020000040000fa
:04018800ae030000c2
:020000040000fa
:04018c00ae030000be
:020000040000fa
:04019000ae030000ba
:020000040000fa
:04019400ae030000b6
:020000040000fa
:04019800ae030000b2
:020000040000fa
:04019c00ae030000ae
:020000040000fa
:0401a000ae030000aa
:020000040000fa
:0401a400ae030000a6
:020000040000fa
:0401a800ae030000a2
:020000040000fa
:0401ac00ae0300009e
:020000040000fa
:0401b000ae0300009a
:020000040000fa
:0401b400ae03000096
:020000040000fa
:0401b800ae03000092
:020000040000fa
:0401bc00ae0300008e
:020000040000fa
:0401c000ae0300008a
:020000040000fa
:0401c400ae03000086
:020000040000fa
:0401c800ae03000082
:020000040000fa
:0401cc00ae0300007e
:020000040000fa
:0401d000ae0300007a
:020000040000fa
:0401d400ae03000076
:020000040000fa
:0401d800ae03000072
:020000040000fa
:0401dc00ae0300006e
:020000040000fa
:0401e000ae0300006a
:020000040000fa
:0401e400ae03000066
:020000040000fa
:0401e800ae03000062
:020000040000fa
:0401ec00ae0300005e
:020000040000fa
:0401f000ae0300005a
:020000040000fa
:0401f400ae03000056
:020000040000fa
:0401f800ae03000052
:020000040000fa
:0401fc00ae0300004e
:020000040000fa
:04020000ae03000049
:020000040000fa
:04020400ae03000045
:020000040000fa
:04020800ae03000041
:020000040000fa
:04020c00ae0300003d
:020000040000fa
:04021000ae03000039
:020000040000fa
:04021400ae03000035
:020000040000fa
:04021800ae03000031
:020000040000fa
:04021c00ae0300002d
:020000040000fa
:04022000ae03000029
:020000040000fa
:04022400ae03000025
:020000040000fa
:04022800ae03000021
:020000040000fa
:04022c00ae0300001d
:020000040000fa
:04023000ae03000019
:020000040000fa
:04023400ae03000015
:020000040000fa
:04023800ae03000011
:020000040000fa
:04023c00ae0300000d
:020000040000fa
:04024000ae03000009
:020000040000fa
:04024400ae03000005
:020000040000fa
:04024800ae03000001
:020000040000fa
:04024c00ae030000fd
:020000040000fa
:04025000ae030000f9
:020000040000fa
:04025400ae030000f5
:020000040000fa
:04025800ae030000f1
:020000040000fa
:04025c00ae030000ed
:020000040000fa
:04026000ae030000e9
:020000040000fa
:04026400ae030000e5
:020000040000fa
:04026800ae030000e1
:020000040000fa
:04026c00ae030000dd
:020000040000fa
:04027000ae030000d9
:020000040000fa
:04027400ae030000d5
:020000040000fa
:04027800ae030000d1
:020000040000fa
:04027c00ae030000cd
:020000040000fa
:04028000ae030000c9
:020000040000fa
:10040000af0921000eff21000e018800000000004e
:10041000000020000000e000020032000001200087
:100420002002880014000700ce0007000000e00052
:1004300003003a004088210001002000020037003c
:100440000000200001002000810f70000100320038
:100450000f000700000020000000e0000200320052
:100460000000020000000000721602000000000000
:100470000040da000000fe00400220000000e00022
:1004800002003200002020009001880000000600d9
:10049000a1028800800478000000eb001f003700f4
:1004a000e284440054a0b4009905ba00e2844400f8
:1004b00054a0b4009906ba00e284440054a0b400e9
:1004c0000006eb00476fde00fd07b200ae018800ba
:1004d000636ce10003003a000ad801000000eb0061
:1004e0000e003700606ce10008003a00004deb00a0
:1004f0000a05e800020039003420ec000af0a000f0
:100500008b05e900f9ff3e00040037006168e10057
:10051000010032000086eb000b00070019c7ba008b
:100520000e04e0001905ba0003003a000a00e000da
:10053000dbff3a0000000600fe07b200ae028800b2
:100540008a047800f5ff37000cd0a300e20f4d00bd
:100550001c00390089027800354dba000a05e80010
:10056000020039003420ec000af0a0008b05e900fd
:100570000f003200254dba000a05e80002003900dc
:100580003420ec000af0a0008b05e90008003200de
:100590000c00e0000600320015cdba000a05e800a4
:1005a000020039003420ec000af0a0008b05e900bd
:1005b0008984e80054a0b4000b00e000e2ff3a0098
:1005c000000006009902ba00055d78008b05e9007d
:1005d000f7ff3200c82ade00055d78008b05e900d0
:1005e000f3ff32000c00e000f1ff320019ddba0029
:1005f000eeff3700801f78000000fa0020408000e6
:10060000620060000000e0000400320013aea800a9
:1006100040138000a08488000428a9000080fa000c
:100620004f00780000400600801f78000000fa00ac
:1006300010408000620060000000e0000300320013
:1006400010c0b30087f0b7000228a9000080fa00ac
:100650004f007800004006003600f800809fbe0082
:10066000829fbe00849fbe00869fbe000000fa00ed
:1006700010408000610060000000e00008003200cf
:1006800010c0b30086f0b7000208a9001b020700e3
:1006900000848000e60f500001003a0017020700b6
:1006a0000080fa004f03be004f02be004f01be00a3
:1006b0004f00be003600f900004006003600f8008a
:1006c000809fbe00829fbe00849fbe00869fbe00aa
:1006d0000000fa0001408000000820000080600057
:1006e0000000e000020032003e09070000e8a90017
:1006f0000080fa004f03be004f02be004f01be0053
:100700004f00be003600f900004006003600f80039
:10071000809fbe00829fbe00849fbe00869fbe0059
:100720000000fa001140800000802000008060007e
:100730000000e00002003200510907000368a90030
:100740000080fa004f03be004f02be004f01be0002
:100750004f00be003600f900004006000040da00fd
:100760000000fe000000050003f0a200889fbe000c
:100770008a9fbe008c1f7800d4000700db00330086
:100780006450e1004f0032006420e100520032006a
:1007900003826c0007003b000905d0000306d0006f
:1007a000820f54000c065d00020039000200320086
:1007b00089017800030678008582550004003d0019
:1007c0000003fd008103fd008502ea008b854200e5
:1007d000840f720002003b0060001000e0801800ef
:1007e0006011b8000005eb007a28e1000a0039002a
:1007f00006007800c75ddd00f707b200878075004e
:100800002d003700828171000a01780061056000c7
:100810008180d1000080d3008502e900f9ff3b0010
:10082000060440008784480002003b006004140076
:10083000e0841c000988a300070032008a8171004f
:1008400082817100610164008904d1000884d300b1
:100850008b05e800170037000978a30013003a0061
:100860000b00e000130034008b05e900080444008d
:1008700089844c000a4474000978a3000d003a00f2
:100880000b00e000070034008b05e9000804440079
:1008900089844c0001003a000b0020000978a30075
:1008a000f7ff32000001eb00020037008281710087
:1008b0000a0178004a0007000cf0a70001f0a00030
:1008c000930037006420e10002003a00838f6c003f
:1008d000930033000801be000200be008c00370008
:1008e00014002000c50037000001be0062000700b0
:1008f0000470a70003f0a1006509b10016003200e2
:100900000d0035006828e10006003500f0ff2f00db
:10091000f1ff27000300e00013003b000100280066
:100920000000050000004000818048008502e900c9
:10093000fcff3a0008003700f88f420002003c003c
:100940008000eb00000005008100d1000080d30092
:100950008502e800fcff3a000300e00002003b00d3
:1009600060001000e0801800000006000001be00da
:10097000410007000470a70003f0a10003f8a300e2
:1009800013003a006509b10010003200090035007b
:100990006928e10002003500010028000000050080
:1009a00000004000818048008502e900fcff3a0019
:1009b00000000600f88f4200050035008100d100dc
:1009c0000080d3008502e800fcff3a00000006002a
:1009d0008000eb00000005006011b800a2003700a5
:1009e00081002000618055000b003d000b002000bd
:1009f00061fe2f000100e1001d00340082817100c2
:100a0000610164008904d1000884d3000000e8007b
:100a1000faff3a00710020006100640003007000da
:100a2000020060000900320061044400e0844c00d0
:100a30000988a500050032008b05e8006808e10080
:100a400002003a008904d1000884d300f20f20008c
:100a50000258e10005003d00c75ddd00f907b20066
:100a60008980750008007800000006000bf8270058
:100a70008b00780000000500c70ade00f107b20015
:100a8000f50fb20008003200e1cf42000200320050
:100a90000170a00024000500810f700001003200e9
:100aa0000408050044000500810f700002003a00b0
:100ab000140005008502e9000000400081c04800e4
:100ac000fcff3b000170a000240005000004be00f4
:100ad000e9ff07000003be000405be000200be00df
:100ae000e5ff0700844f7500000006000200be000d
:100af0006450e100050036006420e1000200360089
:100b00000968a30001003a000800be000160a000cf
:100b10004f0678004f05be004f04be0000000600df
:100b2000f0ff2f00f1ff2700f9ff3700889fbe007c
:100b30008a9fbe008c1f7800e4ff0700ebff3300a4
:100b400003866c006450e100240032006420e10060
:100b5000270032006150e100220032006120e100f4
:100b6000210032008b854200eb07b1000134b80050
:100b7000003ab8000804420089844a00013ab800eb
:100b80000030b8008880400009014a0004003300aa
:100b90000000400081804800020149008b05e90007
:100ba000c909dd008301700001003200130020003c
:100bb000c814de004814dd004709de001200b20050
:100bc000c808de000884700085ff070001f0a1005e
:100bd0000cf0a70001f0a000cdff37006120e1007c
:100be000cfff32000801be000200be00f7ff370051
:100bf0006150e100fcff3a00c9ff3700889fbe004a
:100c00008a9fbe00841f7800b0ff07004f00780065
:100c100011003300f0ff2f00838f6c0006003b00b3
:100c2000040565000a00a7000800370009f0a600c7
:100c30001000200008003700820f5400838f5c00f2
:100c4000030039001000200001003e0000002000d9
:100c500009f0a7000000ea004f05be004f04be00e7
:100c60000000e00000000600889fbe008a9fbe00d2
:100c700000827000040271000482710026003200bc
:100c80000004be000200be006011b8006b09200025
:100c9000950220000182cf000a0039000541b10011
:100ca0000082cf00070039000541b1000982cf0062
:100cb000040039000541b1000882cf00010039006d
:100cc0000541b10005425200120032000a003b000b
:100cd00082817100610164008100d1000080d30035
:100ce0008984d3000884d3008b05e8000442e8001f
:100cf000f7ff3a00070037000804440089844c00dd
:100d000000004800818048008b05e9000442e900aa
:100d1000f9ff3a0032ff07004f05be004f04be0046
:100d200000000600020037000204e0000b00320061
:100d3000810178000002780030417800b14f510005
:100d4000f9ff32001000200014427800934f520047
:100d5000030031000080eb00000006000000eb0003
:100d60000000060080007800010178003104e000f6
:0c0d7000fdff3a000000510000000600ea
:020000040000fa
:100d7c00207c0000202000002020000020560000d5
:100d8c002020000020200000202000002056000021
:100d9c00002000007c20000020200000202000000b
:100dac0049200000432000002020000020200000eb
:080dbc00410000002c000000c2
:020000040000fa
:100dc4000200fa00000f7800401080001e0060004e
:100dd40000f0a7000000ea000000ea004f00de0077
:100de400004078000080fa00000006000200fa00cb
:100df400000f78001e007800104090000080fb0077
:100e0400e20f500016003200e20f500003003c00d5
:100e1400e10f50000600320035003700e30f5000a8
:100e24001b003200e40f5000250032003000370070
:100e340060848000100078004800de008040780064
:100e44001e00780031409800608480001000780013
:100e5400804078001e00780041409800240037004c
:100e640060848000100090004800de00804078001c
:100e74001e007800314098006084800010009000cb
:100e8400804078001e007800414098001800370028
:100e940060848000200090004800de0080407800dc
:100ea4001e0078003140980060848000200090008b
:100eb400804078001e007800414098000c00370004
:100ec40060848000300090004800de00804078009c
:100ed4001e0078003140980060848000300090004b
:100ee400804078001e007800414098000000000017
:100ef4000080fa00000006000000fa000084800070
:100f0400e40f50005d003200e40f500005003e0085
:100f14000000e0000a003200e30f50003400320009
:100f2400ec003700e60f5000cd003200e60f500011
:100f34008b003900ed0f5000b4003200e50037009b
:100f44008470ef005084800011c0b30021409800e9
:100f5400800020009aff07000004e0000c0032002b
:100f64000002200096ff07000004a2000004e00035
:100f74000700320050848000011080008140780016
:100f84000148780030002000008488000500370004
:100f940050848000a1cfb30021409800600020005d
:100fa400008488000040200085ff07000004e00062
:100fb4000500320050848000d1cfb3002140980056
:100fc4006000200000848800000420007cff0700eb
:100fd4000004e000b600320050848000e1cfb3008a
:100fe400214098006000200000848800b900370088
:100ff4000002200072ff07000004e0000700320036
:1010040050848000011080008140780011409800d5
:1010140040002000008488000500370050848000d0
:1010240091cfb30021409800600020000084880024
:101034000040200062ff07000004e00005003200c9
:1010440050848000d1cfb30021409800600020007c
:10105400008488000004200059ff07000004e00019
:101064009500320050848000e1cfb3002140980005
:1010740060002000008488009600370000022000f1
:101084004fff07000004a2000004e0001600320035
:10109400508480000110800081407800014878006d
:1010a4005084800051ff070050848000304090003d
:1010b4000080fb00101088000000000010002000d9
:1010c4003fff07000004a2000004e000fbff3a0019
:1010d4000782a8008970ef005084800021c0b3000b
:1010e40021409800090037005084800001108000de
:1010f400814078003140980010c0b30089f0b700f7
:101104005084800031c0b30021409800500020007a
:10111400008488000040200029ff07000004e0004c
:101124000500320050848000d1cfb30021409800e4
:1011340060002000008488000004200020ff0700d5
:101144000004e0005e00320050848000e1cfb30070
:101154002140980060002000008488005d00370072
:1011640089d0bf000004a2000004e0000e00320099
:1011740050848000404090000080fb0010108800e4
:1011840000000000100020000dff07000004a20072
:101194000004e000fbff3a000782a800d000200012
:1011a400008488000600370050848000011080000d
:1011b400814078004140980060002000008488004d
:1011c40000402000fefe07000004e000050032009d
:1011d40050848000d1cfb3002140980060002000eb
:1011e4000084880000042000f5fe07000004e000ed
:1011f4003500320050848000e1cfb30021409800d4
:101204006000200000848800320037006000200065
:101214000084880000402000e9fe07000004e0008c
:101224000500320050848000d1cfb30021409800e3
:10123400600020000084880000042000e0fe070015
:101244000004e0002200320050848000e1cfb300ab
:101254002140980060002000008488001d003700b1
:101264008030ef0010c0b30084f0b70020002000ed
:10127400d3fe07000004e00004003a00000420004c
:10128400cffe07000004e000050032005084800017
:1012940001108000814078003140980008c2a90004
:1012a40010c0b3008ef0b700000000000900370042
:1012b40000000000070037000000000005003700b0
:1012c40000000000030037000000000001003700a8
:1012d400000000000080fa00000006000000fa0090
:1012e4000040eb00350007008230ef0010c0b3006f
:1012f40085f0b70010c0b30088f0b700170ea9003e
:10130400172ea900110ea900112ea9000622ef0024
:101314000822ef00400b2000201088000228a900ba
:101324004142800000072000010070004042880014
:101334002228a8000080fa00000006000600fa0037
:10134400000f780011079800220798000040eb0076
:101354001a000700170ea900172ea900110ea800e5
:10136400112ea8000622ef000822ef000c22ef0045
:101374009e007800511088008030ef008e70ef00de
:1013840010c0b30084f0b70010c0b30088f0b700f9
:101394009e00900051848800ae0090006184880013
:1013a4000208a900404280007000b3004042880057
:1013b4002208a8000080fa00000006000200fa00db
:1013c400004f78001e4078000004e0000200320064
:1013d40007e2a8000100370007e2a9000080fa0034
:1013e400000006000000fa000622ef000822ef00c9
:1013f4008230ef0010c0b30085f0b70010c0b30016
:1014040088f0b7008030ef0010c0b30084f0b7005c
:1014140010c0b30088f0b7008e70ef009030ef007a
:101424009230ef002228a9000228a9002228a8004f
:101434002208a9000208a9002208a80010c0b300cd
:10144400deff07000080fa00000006000200fa0038
:10145400000f780085d0bf000004a2000004e00063
:10146400040032001e00780081cfb30021409800b0
:10147400e90037008570ef001e00780011c0b3004a
:1014840021409800e0003700108480008000eb00c9
:10149400d200200003002000820f5000838f5800e8
:1014a400ca003e00000601000d0037002600370088
:1014b400290037005f0037007d0037009b003700ac
:1014c400ba003700c1003700c0003700bf00370042
:1014d400400037005e0037007c0037009a00370078
:1014e40088d0bf000004e000040032008870ef00e0
:1014f4001000200010848800c30037008000200002
:101504002ffe07000004a2000004e00007003200e0
:10151400000120002afe07000004e000030032005e
:101524001000200010848800b70037001e007800e7
:1015340080c0eb002140980010c0b30085f0b700d4
:101544008230ef00b00037000602a800200020001f
:1015540010848800ac00370087d0bf000004e0008e
:101564009e0032008770ef008000200014fe070008
:101574000004e000100032000001200010fe07000b
:101584000004a2000004e0000b0032001e007800fa
:10159400104078000080fb000000400080007800cc
:1015a400f00f20000080600010108800a0002000d0
:1015b40010848800940037000642a80060002000d0
:1015c400108488001e00780080c0eb002140980041
:1015d4008d00370087d0bf000004e0008100320096
:1015e4008770ef0000002800f5fd07000004a2004a
:1015f4000004e0000800320000082000f0fd0700ad
:101604000004a2000004e0000300320030002000c7
:10161400108488007c0037000642a8006000200087
:10162400108488001e007800c1cfb30021409800c8
:10163400750037001e007800104090000080fb0009
:1016440010108800b0002000108488006e0037005d
:1016540087d0bf000004e000640032008770ef0010
:1016640000002800d6fd07000004a2000004e000ea
:101674000800320000082000d1fd07000004a20089
:101684000004e000030032004000200010848800c1
:101694005d0037000642a800600020001084880026
:1016a4001e007800b1cfb3002140980056003700e7
:1016b4001e007800304090000080fb00101088006d
:1016c400c0002000108488004f00370087d0bf007e
:1016d4000004e000470032008770ef00000028009b
:1016e400b7fd07000004a2000004e0000800320077
:1016f40000082000b2fd07000004a2000004e0007e
:101704000300320050002000108488003e0037009f
:101714000642a80060002000108488001e007800a3
:10172400b1cfb30021409800370037001e00780085
:10173400404090000080fb0010108800d000200082
:10174400108488003000370087d0bf000004e00018
:101754002a0032008770ef000000280098fd07007f
:101764000004a2000004e000090032000008200088
:1017740093fd07000004a2000004e000040032000e
:101784000642a80060002000108488001e00370074
:101794000642a80060002000108488001e00780023
:1017a400b1cfb300214098001700370087d0bf00a5
:1017b4000004e000130032008770ef008230ef0075
:1017c40010c0b30085f0b7000f0037008230ef007f
:1017d40010c0b30085f0b7000b0037000000000014
:1017e4000900370000000000070037000000000077
:1017f400050037000000000003003700000000006f
:10180400010037000000000085d0bf000004a200e2
:101814000004e0001cff3a000080fa00000006000b
:101824000200fa00000f780085d0bf000004a20077
:101834000004e000040032001e00780081cfb300f1
:1018440021409800f90037008570ef001e007800f1
:1018540011c0b30021409800f000370010848000cc
:101864008000eb00e200200003002000820f500003
:10187400838f5800d2003e00000601000e0037009e
:10188400270037002a003700600037009a0037002d
:10189400ae003700c20037008f0037007a003700ef
:1018a400c7003700410037005f0037009f00370052
:1018b400b30037007800370088d0bf000004e00090
:1018c400040032008870ef001000200010848800ab
:1018d400d20037008000200039fd07000004a20078
:1018e4000004e000070032000001200034fd07007e
:1018f4000004e0000300320010002000108488007f
:10190400c60037001e00780080c0eb00214098001c
:1019140010c0b30085f0b7008230ef00bf0037007d
:101924000602a8002000200010848800bb003700b5
:1019340087d0bf000004e000a50032008770ef00ec
:10194400800020001efd07000004e00010003200ab
:10195400000120001afd07000004a2000004e000ba
:101964000b0032001e007800104078000080fb005d
:101974000000400080007800f00f2000008060002c
:1019840010108800a000200010848800a3003700f5
:101994000642a80060002000108488001e00780021
:1019a400c1cfb300214098009c00370087d0bf000e
:1019b4000004e000880032008770ef000000280077
:1019c400fffc07000004a2000004e000080032004d
:1019d40000082000fafc07000004a2000004e00054
:1019e4000300320030002000108488008b00370090
:1019f4000642a80060002000108488001e007800c1
:101a0400b1cfb30021409800840037001e00780055
:101a1400104090000080fb0010108800b0002000ef
:101a2400108488007d00370087d0bf000004e000e8
:101a34006b0032008770ef0000002800e0fc070014
:101a44000004a2000004e0000800320000082000a6
:101a5400dbfc07000004a2000004e00003003200e5
:101a640080002000108488006c0037000642a80023
:101a740060002000108488001e007800b1cfb300fd
:101a840021409800650037000622a800e0002000ed
:101a9400108488006100370087d0bf000004e00094
:101aa400510032008770ef001e007800104078006b
:101ab4000080fb000000400080007800f00f200050
:101ac400008060000000e800101088007000200012
:101ad400108488005100370087d0bf000004e00064
:101ae400430032008770ef000662a8004000200027
:101af400108488004900370087d0bf000004e0004c
:101b04003d0032008770ef000010800080407800b4
:101b14001e0078003140980006a2a9000682a800a1
:101b2400c0002000108488003c00370087d0bf002c
:101b34000004e000320032008770ef000662a80063
:101b440050002000108488003400370087d0bf0084
:101b54000004e0002c0032008770ef0000108000c9
:101b6400804078001e0078004140980006a2a8003a
:101b74000682a800d00020001084880027003700c7
:101b840087d0bf000004e000210032008770ef001e
:101b94000642a80060002000108488001f0037005f
:101ba40087d0bf000004e0001b0032008770ef0004
:101bb4008230ef0010c0b30085f0b7001700370083
:101bc4008230ef0010c0b30085f0b7001300370077
:101bd4000000000011003700000000000f00370073
:101be400000000000d003700000000000b0037006b
:101bf4000000000009003700000000000700370063
:101c0400000000000500370000000000030037005a
:101c140000000000010037000000000085d0bf0074
:101c24000004a2000004e0000cff3a000080fa0067
:101c3400000006000000fa00ac04070010c0b30066
:101c4400d704070010c0b300c70007004001070015
:101c54000080fa00000006000200fa00004f78003d
:101c64001e407800dd0407002073200001002000de
:101c74006b0507000080fa00000006000200fa006d
:101c8400000f78001e007800004078000043b00088
:101c9400d204070020732000010020006005070023
:101ca4000080fa00000006000400fa001007980003
:101cb4000000eb00000f7800050037001e009000c4
:101cc4001e00400010407800e3ff07001e0fe800ec
:101cd4001e00900022fc07009e0f5000f7ff3e00fc
:101ce4000080fa00000006001600fa00200f980099
:101cf400e4004700070009008018eb002e0890005c
:101d04000000e00005003d00d0c2b300d2ff070090
:101d14002e0890000000ea00200f98002e08900082
:101d24000000e000290034000000eb00000f780000
:101d340012003700ae089000a000200000017800d7
:101d4400110009008200d8008000fd008040780066
:101d54001e01780064004100017778002e0990008c
:101d6400706626000090b900c288de004f90de0045
:101d740000805000200f98001e0fe8002e089000ed
:101d84000000e000ebff3a000000eb0010079800b1
:101d94001e00e90010079800080037001e0090009c
:101da400640040006e4078000043b000aaff0700c2
:101db4001e0090000000e900100798001e0090002b
:101dc4000000e000f5ff3d000200370000c3b3004f
:101dd400a1ff07000080fa00000006000a00fa00d4
:101de400881f780020079800310798004207980060
:101df4002e009000be009000bafa070000007800a0
:101e0400b9ff07004e0090000000e00039003200e6
:101e1400006e2800a4ff070018c0b3006011b800ca
:101e24002e009000be009000acfa07000000e00015
:101e3400010035000044eb000804e0000500320016
:101e44002e009000be00900001f0a2002007980030
:101e5400310798002e009000be009000c2fa0700df
:101e6400000078008000eb00dafa07000001be00f1
:101e74002e009000be0090003afa0700008fbe00ca
:101e84001900370002002000031224001e0078000d
:101e94009e00900024fb0700008fbe001e00780007
:101ea4009e009000b0fa0700000078008eff070043
:101eb4001e0078009e009000abfa07000000780036
:101ec4008000eb00c3fa07000001be001e0078008a
:101ed4009e00900023fa0700008fbe004e00900081
:101ee4000000e900400798004e0090000000e00068
:101ef400e4ff3a004f0478000080fa000000060076
:101f04000200fa00004f7800e0cfb300330407006a
:101f140020c6b300310407001e4078002f040700d8
:101f2400b07e2d0001002000bd0407000080fa00ef
:101f3400000006000200fa00004f7800e0cfb30072
:101f44002604070010c6b300240407001e407800ce
:101f540022040700b07e2d0001002000b004070019
:101f64000080fa00000006000200fa00004f78002a
:101f7400e0cfb300190407001e4078000004e0001d
:101f84000300320010c4b300140407000200370039
:101f940020c4b300110407002073200001002000b6
:101fa4009f0407000080fa00000006000400fa0005
:101fb40020479800314798002e409000e14f500090
:101fc4000200360010c0b300204798003e40900045
:101fd400ef4f500002003600f0c0b30030479800c5
:101fe400be409000014f78002e409000e14f500019
:101ff40002003a0001c4b3001ecf4000e0cfb3009a
:10200400f603070050c4b300f40307001e40780031
:10201400f203070020732000010020008004070061
:102024000080fa00000006000000fa00e0cfb300d0
:10203400ea03070060c4b300e803070050bf2600aa
:1020440001002000760407000080fa00000006006a
:102054000200fa00004f7800e0cfb300df0307006e
:102064001e4078000004e0000300320070c4b30096
:10207400da0307000200370080c4b300d703070067
:1020840050bf260001002000650407000080fa000c
:10209400000006000000fa00e0cfb300cf03070001
:1020a40090c4b300cd03070020732000010020007a
:1020b4005b0407000080fa00000006000000fa003c
:1020c400e0cfb300c5030700a0c4b300c3030700f7
:1020d4002073200001002000510407000080fa0052
:1020e400000006000200fa00004f7800e0cfb300c1
:1020f400ba0307001e4078000004e0000300320029
:10210400b0c4b300b503070002003700c0c4b30075
:10211400b2030700207320000100200040040700e0
:102124000080fa00000006000000fa00e0cfb300cf
:10213400aa030700e0c4b300a8030700207320002b
:1021440001002000360407000080fa0000000600a9
:102154000000fa00e0cfb300a003070010c5b300ed
:102164009e03070050bf2600010020002c04070036
:102174000080fa00000006000200fa00004f780018
:10218400e0cfb3009503070020c5b3009303070015
:102194001e40780091030700c03f22000100200088
:1021a4001f0407000080fa00000006000200fa0085
:1021b400004f7800e0cfb3008803070030c5b300b8
:1021c4008603070020732000010020001404070088
:1021d4000080fa00000006000600fa00204798007c
:1021e40021079800e0cfb3007c03070040c5b3008b
:1021f4007a0307002e409000780307000040eb00ac
:10220400004f7800060037001e80fb00ae009000ef
:102214000080400010407800700307001e4fe80063
:102224001e407800e74f5000f7ff360050e62000cc
:1022340001002000fa0307000080fa0000000600f5
:102244000000fa00e0cfb3006403070050c5b300f8
:10225400620307002073200001002000f003070040
:102264000080fa00000006000000fa00e0cfb3008e
:102274005a03070060c5b300580307002073200009
:1022840001002000e60307000080fa0000000600b9
:102294000000fa00e0cfb3005003070000c7b3000a
:1022a4004e03070040fe210011002000dc0307005c
:1022b4000080fa00000006000000fa00e0cfb3003e
:1022c4004603070010c7b30044030700a0fb2c001b
:1022d40021002000d20307000080fa00000006005d
:1022e4000000fa00e0cfb3003c03070020c7b300ae
:1022f4003a03070040fe210011002000c803070034
:102304000080fa00000006000000fa008040eb00a4
:102314000040eb0025ff07007ea8970062fe07003f
:102324008040eb0010c0b30020ff07000eb0970000
:102334005dfe07001eb09700aeb097003eb1970057
:10234400240007004eb09700deb097006eb19700ee
:10235400200007007eb097008eb897001eb9970042
:102364001c0007002eb89700beb897004eb997001e
:10237400180007000080fa00000006000800fa00b8
:1023840020079800310798002e009000301f780035
:10239400201778001e009000804078001e0078000e
:1023a4000040780001ff07003e009000e10f50005c
:1023b400030032000040eb004aff0700030037002f
:1023c40010c0b30047ff0700000000000080fa00bf
:1023d400000006001400fa0070079800010f98002e
:1023e400120f98009e089000010f78008e0890004c
:1023f40011079800fe009000d0cc2c000008b80013
:102404004308de00200798002e019000d0cc2c0059
:102414000010b8004308de00ea00b90000005100d3
:1024240030079800ae009000d0cc2c000008b80013
:102434004308de00200798002e019000d0cc2c0029
:102444000010b8004308de00ea00b90000005100a3
:1024540040079800ae009000d0cc2c000008b800d3
:102464004308de00200798002e019000d0cc2c00f9
:102474000010b8004308de00ea00b9000000510073
:1024840050079800ae009000d0cc2c000008b80093
:102494004308de00200798002e019000d0cc2c00c9
:1024a4000010b8004308de00ea00b9000000510043
:1024b400600798006e0090000000e0000800320001
:1024c4001e007800804078001e00900000407800d4
:1024d400b6fe07006e009000e8fd07000700370015
:1024e4001e007800804078001e00900000407800b4
:1024f400aefe070000c2b300d7fd07001e0fe800c0
:102504001e007800804078001e0090000040780093
:10251400a6fe07005e009000d8fd07001e0fe8002d
:102524001e007800804078001e0090000040780073
:102534009efe0700c0c2b300c7fd07001e0fe800df
:102544001e007800804078001e0090000040780053
:1025540096fe07004e009000c8fd07001e0fe8001d
:102564001e007800804078001e0090000040780033
:102574008efe07003e009000c0fd07000080fa00b8
:10258400000006000000fa00aafd070010c0b30016
:10259400affe0700e06b2800b0818800f06c2800d3
:1025a400c08188000280800013808000d28188006e
:1025b400e38188000410f8003e10f90032808000a6
:1025c4004380800002828800138288000a10f80089
:1025d4004410f90062808000738080003282880099
:1025e400438288001010f8004a10f900928080009d
:1025f400a380800062828800738288001610f8002d
:102604005010f900fc8747007c80570063032100c9
:102614000d00090033187800c001b1003aff07002b
:10262400fc87570020022100e0808800c0022100be
:10263400f08088000000210000818800c002210091
:1026440030818800800121004081880060002100e1
:1026540050818800800121008081880020022100af
:10266400908188005430ef0080012100908288001e
:1026740090828000a182800040ff07000080fa0061
:10268400000006000200fa00000f78001e00780027
:102694000000e00029003200a08280000000e00079
:1026a4000b003a001e0078000000e0000400340033
:1026b4009082800030009000908288001c003700d7
:1026c40090828000200090009082880018003700db
:1026d4001e0078000000e0000800340090828000b2
:1026e4004000900091828000c10090009100780029
:1026f4004106b1000108780007003700908280008d
:102704004000900091828000c10090009100780008
:102714004106b000010878009082800040019000da
:1027240012007800920090002201900029ff070017
:1027340090828000a182800010ff07000080fa00d0
:10274400000006000000fa00a08280000000e00003
:1027540003003a0010002000a08288000100370026
:102764005430ef0090828000a182800003ff0700b4
:102774000080fa00000006000000fa00100ea80015
:10278400102ea800000ea800907080006100600068
:102794000000e00002003200300020008083880046
:1027a40090708000620060000000e00003003200ce
:1027b400808380000000a200808388000080fa00eb
:1027c400000006000400fa000040eb00004f78000f
:1027d400e0838000f183800061004000e0804800d5
:1027e400e0838800f1838800908380000080e90002
:1027f40090838800908380000000e00001003d0089
:102804007230ef000040eb00104798009070800099
:10281400610060000000e0000200320030c0b3003c
:102824001047980090708000620060000000e00093
:10283400030032001e4090000004a20010479800dc
:1028440080838000804078001e40900000c05000cb
:10285400204798002e4090000000fb0061006000bb
:10286400004078000004e0000c0032001e4090009c
:102874000000fb00808388002e4090000000fb00d5
:10288400620060008000e9007083800000804000e6
:102894007083880010c0b300004f78001e40780099
:1028a4000004e000070032009183800070be200025
:1028b400808f500003003e00908380007900400028
:1028c40090838800e2838000f3838000c0838000cb
:1028d400d1838000000151008181590090002000c3
:1028e40001002000800f5100818f59003c00360008
:1028f400e0838000f1838000c0838800d183880056
:1029040010708000610060000000e00009003a00df
:10291400a08380000000e800a0838800a1838000d9
:1029240080072000808f5000020036003000200015
:102934006083880010708000610060000000e00087
:1029440019003200a08380000000e000150032006e
:1029540060838000e30f500004003a004000200030
:10296400608388007670ef000e00370076d0bf00d9
:10297400e14f5000090036006107210091407800c2
:10298400b0c3b30080cf500006003e0060002000ba
:10299400608388007670ef0002003700c0c3b30084
:1029a40076f0b7007430ef0076d0bf000004e0008a
:1029b4000b00320076d0bf000040e90076f0b7008b
:1029c40076d0bf000040e90076f0b70076d0bf00b3
:1029d4000004e00002003a005000200060838800f8
:1029e4000080fa00000006000600fa0071838000ef
:1029f400010f780096d0bf00e24f500004003a0067
:102a04009e007800618060007083880008003700b1
:102a140096d0bf00e44f500004003a009e007800b6
:102a24006380600070838800010037006e30ef001f
:102a340096d0bf00e44f500003003a001e00780017
:102a44004280de00000f780096d0bf00e24f5000b5
:102a540003003a001e0078000080d100000f7800c7
:102a64000000eb0010079800908380004800de000f
:102a7400200798001e0078000000e00006003d00da
:102a84002e0090000080ea009e009000008040002c
:102a940010079800080037001e0078000000e000ce
:102aa400050034002e0090000000e8009e00900015
:102ab40000804000100798001e0090000080fa007b
:102ac400000006000200fa0061838000010f780014
:102ad40060838000e30f5000010032006c30ef008f
:102ae4001e0078000080fa00000006000000fa00d2
:102af4000040eb00b70107005e0107004401070036
:102b040077010700ac01070010c0b300b101070052
:102b14000080fa00000006000200fa00004f78006e
:102b240011e1a9001021a9001061a9008108800009
:102b34000003200001007000800888000621ef00d7
:102b4400600420006008880011428000f0ff280023
:102b54000080600000c0a0001042880000e8a900c6
:102b640020e8a8001e4078000004e00001003200c4
:102b740011e1a8000080fa00000006000200fa003b
:102b8400004f78001fe1a9001e21a9001e61a900c1
:102b9400f10880000003200001007000f0088800a4
:102ba4001421ef00c02b2000d0088800614280006f
:102bb400f0ff28000080600000d0a0006042880080
:102bc4000368a9002368a8001e4078000004e00000
:102bd400010032001fe1a8000080fa000000060096
:102be4000200fa00f7fe07007fff0700000f7800dd
:102bf400b4ff0700c0828800c08480009e00780073
:102c0400808f50000a0032009e007800c184880042
:102c1400b08280001e004000b08288001e00780050
:102c24000000e0000200320010c0b3005af0b70008
:102c3400c08280000000e0000e003200c0828000ec
:102c4400e30f500006003200e30f50000600360088
:102c5400e50f500006003a00bafe070005003700f1
:102c640000000000030037000000000001003700ee
:102c7400000000000080fa00000006000000fa00d6
:102c84005ad0bf000004e000130032000e003700e9
:102c9400b08280000000e000060034000080eb00f9
:102ca40078fe0700b08280000000e900b08288004e
:102cb400050037001000200072fe0700b08280007b
:102cc4000000e800b0828800b08280000000e000cc
:102cd400efff3a005a70ef000080fa00000006008f
:102ce4000000fa0081ff0700907f2400010020000b
:102cf4004b01070023fe07009ffe070077f907003a
:102d0400907f2400010020004501070010c0b3009b
:102d140081ff070010c0b30098ff070010c0b30084
:102d2400a6f9070050c5b3005cf0b70010c0b300ab
:102d34005df0b70010c0b3005ff0b70020c0b3006f
:102d440060f0b7005fd0bf000040e8005ff0b7005c
:102d540060d0bf000040e90060f0b700c00521006a
:102d6400baf9070000952400212320002c01070054
:102d7400f4ff37000400fa00000f780011079800f0
:102d84009e0090001e007800e5f7070000f0a70001
:102d94000000ea000000e9004f00de000040780077
:102da4000080fa00000006000800fa0030079800ce
:102db4000000eb00000f78000000eb0020079800f3
:102dc4000000eb0010079800130037003e0090004d
:102dd400104078000000fb000003b10020079800b9
:102de4001e0090000000e000030032001e00780086
:102df400ea00b900000f78002e0090001e0f40007a
:102e04001e0090000000e800100798003e009000ab
:102e14000000e800300798003e0090001040780061
:102e24000004e000e9ff3a001e0078000080fa0088
:102e3400000006000c00fa00881f78004007980084
:102e4400510798004e009000301f7800201778003a
:102e54000000eb00200798001000200030079800c5
:102e64001a0037003e0090004200dd00ce009000c2
:102e740000804000900090001000780018c0b3005b
:102e84001e0178009e01900094f607000000e00007
:102e9400010035000044eb000804e00008003200a3
:102ea4003e0090004200dd00ce0090000080400013
:102eb400301f780020177800be009000210798008a
:102ec4003e0090000000e80030079800be0090002b
:102ed4005e009000808f5000e2ff39002e009000c9
:102ee4004f0478000080fa00000006000000fa0099
:102ef4000040eb002a0007006382a9006362a90076
:102f04006342a9006322a9006302a90062c2a80067
:102f140062e2a90062a2a8001113800030fe2f0013
:102f2400008060001013880011138000c0ff2f0080
:102f3400008060001013880065e2a9006402a90003
:102f44004134800000fc2f00008060009000b3003a
:102f54004034880041348000f00f2c000080600071
:102f640000b0a000403488006136800000f82f00d3
:102f740080806000c002200001007000603688007c
:102f84000428a9008142800000072000010070008d
:102f9400804288002428a8000080fa00000006006f
:102fa4000200fa00004f78001e4078000004e000a0
:102fb4000700320011aea900118ea800116ea900fd
:102fc400114ea90013aea80061e2a8000100370069
:102fd40061e2a9000080fa00000006000200fa0085
:102fe400004f780000000000917080000000220073
:102ff400008060000000e000fbff320013aea90077
:103004001e80fb00401388000080fa0000000600c8
:103014000000fa0040a7a900113a8000f08f2f00a9
:10302400008060000080a000103a880042e7a900f8
:1030340042c7a9004207a80000000000113a80001e
:10304400000027008080600000002100808f500075
:10305400faff3a004fe7a8004f87a900713a8000b1
:10306400f00f2f0000806000703a88000080fa00a2
:10307400000006000000fa0045e7a900213a80009c
:10308400f0ff280000806000203a8800213a800088
:10309400f08f2f0000806000203a8800213a8000e1
:1030a400f0f32f00008060000060a000203a880048
:1030b400213a800000fe2f0000806000203a880042
:1030c400313a800000e02f00808060006002200020
:1030d40001007000303a88000080fa000000060009
:1030e4000000fa00002eef000e2eef00022eef007b
:1030f400102eef001e2eef00122eef000080fa00bb
:0431040000000600c1
:020000040000fa
:103108009410000002000000800000006c10000015
:10311800140000008000000096100000020000006b
:10312800820000000400000080100000140000006d
:1031380080000000981000000200000082000000db
:10314800ffff00005610000016000000800000007d
:103158000010000036000000820000008813000004
:1031680000020000e8030100000200000000000067
:10317800000a000000000100000a0000000007002b
:10318800000000000000000000010000070000002f
:103198000000000000000100000000000000000026
:1031a8000000000036100000200000008000000031
:0431b8000000000013
:020000040000fa
:1031bc000000fa00c028ef00c428ef00c628ef007a
:1031cc00c1e8a9000080fa00000006000200fa0025
:1031dc00004f78001e4078000004e0000700320029
:1031ec0011028000f0f12f000080600010028800b6
:1031fc004460a900c3e8a800050037001102800054
:10320c00000e20000100700010028800c3e8a90025
:08321c000080fa00000006002a
:020000040000fa
:10322400f03fb1000180b10006003500ee03090053
:1032340000000000403fb1000180b100fbff3d00f1
:103244001000b000203fb0000200350000800900eb
:0832540000000000000006006c
:020000040000fa
:04afe000cfff00009f
:020000040000fa
:04afe400efff00007b
:020000040000fa
:04afe8007fff0000e7
:020000040000fa
:04afec007fff0000e3
:020000040000fa
:04aff000f9ff000065
:020000040000fa
:04aff400ffff00005b
:00000001FF
