:020000040000fa
:080000000002040000000000f2
:020000040000fa
:04000800740400007c
:020000040000fa
:04000c007404000078
:020000040000fa
:040010007404000074
:020000040000fa
:040014007404000070
:020000040000fa
:04001800740400006c
:020000040000fa
:04001c007404000068
:020000040000fa
:040020007404000064
:020000040000fa
:040024007404000060
:020000040000fa
:04002800740400005c
:020000040000fa
:04002c007404000058
:020000040000fa
:040030007404000054
:020000040000fa
:040034007404000050
:020000040000fa
:04003800740400004c
:020000040000fa
:04003c007404000048
:020000040000fa
:040040007404000044
:020000040000fa
:04004400260400008e
:020000040000fa
:04004800740400003c
:020000040000fa
:04004c007404000038
:020000040000fa
:040050007404000034
:020000040000fa
:04005400880300001d
:020000040000fa
:04005800740400002c
:020000040000fa
:04005c00300300006d
:020000040000fa
:040060007404000024
:020000040000fa
:040064007404000020
:020000040000fa
:04006800f40300009d
:020000040000fa
:04006c00dc030000b1
:020000040000fa
:040070007404000014
:020000040000fa
:040074003c04000048
:020000040000fa
:04007800740400000c
:020000040000fa
:04007c007404000008
:020000040000fa
:040080007404000004
:020000040000fa
:040084007404000000
:020000040000fa
:0400880074040000fc
:020000040000fa
:04008c0074040000f8
:020000040000fa
:0400900074040000f4
:020000040000fa
:0400940074040000f0
:020000040000fa
:0400980074040000ec
:020000040000fa
:04009c0074040000e8
:020000040000fa
:0400a00074040000e4
:020000040000fa
:0400a40074040000e0
:020000040000fa
:0400a80074040000dc
:020000040000fa
:0400ac001603000037
:020000040000fa
:0400b00074040000d4
:020000040000fa
:0400b40074040000d0
:020000040000fa
:0400b80074040000cc
:020000040000fa
:0400bc0074040000c8
:020000040000fa
:0400c00074040000c4
:020000040000fa
:0400c40074040000c0
:020000040000fa
:0400c80074040000bc
:020000040000fa
:0400cc0074040000b8
:020000040000fa
:0400d00074040000b4
:020000040000fa
:0400d40074040000b0
:020000040000fa
:0400d80074040000ac
:020000040000fa
:0400dc0074040000a8
:020000040000fa
:0400e00074040000a4
:020000040000fa
:0400e40074040000a0
:020000040000fa
:0400e800740400009c
:020000040000fa
:0400ec007404000098
:020000040000fa
:0400f0007404000094
:020000040000fa
:0400f4007404000090
:020000040000fa
:0400f800740400008c
:020000040000fa
:0400fc007404000088
:020000040000fa
:040100007404000083
:020000040000fa
:04010400740400007f
:020000040000fa
:04010800740400007b
:020000040000fa
:04010c007404000077
:020000040000fa
:040110007404000073
:020000040000fa
:04011400740400006f
:020000040000fa
:04011800740400006b
:020000040000fa
:04011c007404000067
:020000040000fa
:040120007404000063
:020000040000fa
:04012400740400005f
:020000040000fa
:04012800740400005b
:020000040000fa
:04012c007404000057
:020000040000fa
:040130007404000053
:020000040000fa
:04013400740400004f
:020000040000fa
:04013800740400004b
:020000040000fa
:04013c007404000047
:020000040000fa
:040140007404000043
:020000040000fa
:04014400740400003f
:020000040000fa
:04014800740400003b
:020000040000fa
:04014c007404000037
:020000040000fa
:040150007404000033
:020000040000fa
:04015400740400002f
:020000040000fa
:04015800740400002b
:020000040000fa
:04015c007404000027
:020000040000fa
:040160007404000023
:020000040000fa
:04016400740400001f
:020000040000fa
:04016800740400001b
:020000040000fa
:04016c007404000017
:020000040000fa
:040170007404000013
:020000040000fa
:04017400740400000f
:020000040000fa
:04017800740400000b
:020000040000fa
:04017c007404000007
:020000040000fa
:040180007404000003
:020000040000fa
:0401840074040000ff
:020000040000fa
:0401880074040000fb
:020000040000fa
:04018c0074040000f7
:020000040000fa
:0401900074040000f3
:020000040000fa
:0401940074040000ef
:020000040000fa
:0401980074040000eb
:020000040000fa
:04019c0074040000e7
:020000040000fa
:0401a00074040000e3
:020000040000fa
:0401a40074040000df
:020000040000fa
:0401a80074040000db
:020000040000fa
:0401ac0074040000d7
:020000040000fa
:0401b00074040000d3
:020000040000fa
:0401b40074040000cf
:020000040000fa
:0401b80074040000cb
:020000040000fa
:0401bc0074040000c7
:020000040000fa
:0401c00074040000c3
:020000040000fa
:0401c40074040000bf
:020000040000fa
:0401c80074040000bb
:020000040000fa
:0401cc0074040000b7
:020000040000fa
:0401d00074040000b3
:020000040000fa
:0401d40074040000af
:020000040000fa
:0401d80074040000ab
:020000040000fa
:0401dc0074040000a7
:020000040000fa
:0401e00074040000a3
:020000040000fa
:0401e400740400009f
:020000040000fa
:0401e800740400009b
:020000040000fa
:0401ec007404000097
:020000040000fa
:0401f0007404000093
:020000040000fa
:0401f400740400008f
:020000040000fa
:0401f800740400008b
:020000040000fa
:0401fc007404000087
:020000040000fa
:040200007404000082
:020000040000fa
:04020400740400007e
:020000040000fa
:04020800740400007a
:020000040000fa
:04020c007404000076
:020000040000fa
:040210007404000072
:020000040000fa
:04021400740400006e
:020000040000fa
:04021800740400006a
:020000040000fa
:04021c007404000066
:020000040000fa
:040220007404000062
:020000040000fa
:04022400740400005e
:020000040000fa
:04022800740400005a
:020000040000fa
:04022c007404000056
:020000040000fa
:040230007404000052
:020000040000fa
:04023400740400004e
:020000040000fa
:04023800740400004a
:020000040000fa
:04023c007404000046
:020000040000fa
:040240007404000042
:020000040000fa
:04024400740400003e
:020000040000fa
:04024800740400003a
:020000040000fa
:04024c007404000036
:020000040000fa
:040250007404000032
:020000040000fa
:04025400740400002e
:020000040000fa
:04025800740400002a
:020000040000fa
:04025c007404000026
:020000040000fa
:040260007404000022
:020000040000fa
:04026400740400001e
:020000040000fa
:04026800740400001a
:020000040000fa
:04026c007404000016
:020000040000fa
:040270007404000012
:020000040000fa
:04027400740400000e
:020000040000fa
:04027800740400000a
:020000040000fa
:04027c007404000006
:020000040000fa
:040280007404000002
:020000040000fa
:10040000ef3f21000eff27000e01880000000000d2
:10041000000020000000e000020032000001200087
:100420002002880014000700a60107000000e00079
:1004300003003a0060722200010020000200370031
:100440000000200001002000810f70000100320038
:100450000f000700000020000000e0000200320052
:100460000000020000000000381e02000000000032
:100470000040da000000fe00400120000000e00023
:1004800002003200002020009001880000000600d9
:10049000a1028800800478000000eb001f003700f4
:1004a000e284440054a0b4009905ba00e2844400f8
:1004b00054a0b4009906ba00e284440054a0b400e9
:1004c0000006eb00476fde00fd07b200ae018800ba
:1004d000636ce10003003a000ad801000000eb0061
:1004e0000e003700606ce10008003a00004deb00a0
:1004f0000a05e800020039003420ec000af0a000f0
:100500008b05e900f9ff3e00040037006168e10057
:10051000010032000086eb000b00070019c7ba008b
:100520000e04e0001905ba0003003a000a00e000da
:10053000dbff3a0000000600fe07b200ae028800b2
:100540008a047800f5ff37000cd0a300e20f4d00bd
:100550001c00390089027800354dba000a05e80010
:10056000020039003420ec000af0a0008b05e900fd
:100570000f003200254dba000a05e80002003900dc
:100580003420ec000af0a0008b05e90008003200de
:100590000c00e0000600320015cdba000a05e800a4
:1005a000020039003420ec000af0a0008b05e900bd
:1005b0008984e80054a0b4000b00e000e2ff3a0098
:1005c000000006009902ba00055d78008b05e9007d
:1005d000f7ff3200c82ade00055d78008b05e900d0
:1005e000f3ff32000c00e000f1ff320019ddba0029
:1005f000eeff3700321e040000000000a81f0400b8
:10060000000000001c1f040000000000e41f0400a4
:1006100000000000e608040000000000100b0400c9
:10062000000000000000040000000000801f7800af
:100630000000fa0020408000620060000000e0003e
:1006400004003200028ea80040138000108388004e
:100650000428a9000080fa004f007800004006003e
:100660003600f800809fbe00829fbe00849fbe00bf
:10067000869fbe000000fa000140800000002200ba
:10068000008060000000e0001a00320000188000c6
:100690008000780080042100010878001018800094
:1006a000800078008004210011009800201880004c
:1006b000800078008004210021009800301880001c
:1006c00080007800800421003100980001a8a90072
:1006d0000040eb001a130700848280008004210090
:1006e0009000900020019000b00190001000780070
:1006f000040001000080fa004f03be004f02be005c
:100700004f01be004f00be003600f9000040060059
:100710003600f800809fbe00829fbe00849fbe000e
:10072000869fbe000200fa00014080000080200089
:10073000008060000000e0001800320030118000ee
:10074000004f78000168a90010118000640060006b
:100750000000e000020032005c70ef000f00370084
:1007600010118000620060000000e000090032000b
:100770000040eb0078100700c02b20000100200093
:10078000b013070010c0b300731007005c70ef00d7
:10079000020037001e407800311007000080fa0088
:1007a0004f03be004f02be004f01be004f00be000f
:1007b0003600f90000400600801f78000000fa00b3
:1007c00010408000620060000000e0000300320082
:1007d00010c0b3003df0b7000228a9000080fa0065
:1007e0004f007800004006003600f800809fbe00f1
:1007f000829fbe00849fbe00869fbe000000fa005c
:1008000010408000610060000000e000080032003d
:1008100010c0b3003cf0b7000208a900750907003a
:10082000b0818000e60f500001003a007109070016
:100830000080fa004f03be004f02be004f01be0011
:100840004f00be003600f90000400600809fbe0049
:100850000000fa00014080000008200000806000d5
:100860000000e0000100320000e8a9000080fa006a
:100870004f00be0000400600809fbe00821f78002f
:100880000000fa0010408000680060000000e000f6
:100890001100320091708000000220000080600092
:1008a00000f0a7000000ea000000e9004f00de00b1
:1008b000004078000080fb00610060004d00dd001a
:1008c00092708000f1ff2d00810061000100700036
:1008d000907088000268a9000080fa004f0178003b
:1008e0004f00be00004006000040da000000fe009d
:1008f0000a00fa0011002000b1bf9f00c0bf9f0096
:100900006a805700130807004fb897000080fa006c
:10091000000006000a00fa00e20f500034003e001a
:10092000d09f8000e10f500003003200e20f500022
:1009300011003a000c003700032220000300e00001
:1009400001003a000040da002002e2000200350017
:100950002822ef0021e2a8002342ab000d003a005c
:100960002342a8000b003700032320000300e0000f
:1009700001003a000040da003002e20002003500d7
:100980003822ef0031e2a8003342ab0001003a0008
:100990003342a800820178000b0037003102fb00cf
:1009a000e10f500004003a002322ab00feff3a00a2
:1009b00024118800030037003322ab00feff3a0009
:1009c000a41188008301e9000300e000f3ff3a006e
:1009d000e10f500003003a002302ab00feff32009b
:1009e0000b0037003302ab00feff32000800370077
:1009f00033002000b3bf9f00c0bf9f00d1bf9f0046
:100a0000e2bf9f006a805700d40707006fb99700c4
:100a1000020078000080fa00000006000a00fa00d8
:100a200051002000b1bf9f00c0bf9f006a805700e7
:100a3000cc0707005fb897000080fa0000000600ae
:100a4000889fbe0080047800e09f80000000e000e6
:100a500004003a000e0007000084eb000000e000f4
:100a600008003500e89f80000900e0000500320022
:100a700009004400060007000000e00001003d00fe
:100a80000084eb00080078004f04be000000060060
:100a9000800078000100e00003003a000000200020
:100aa000e09f8800000005000080eb0002002000ad
:100ab000828f500002003e00e19f88000000eb00a2
:100ac000000006000000050003f0a200889fbe00a1
:100ad0008a9fbe008c1f7800060107000d013300bd
:100ae0006450e1004f0032006420e1005200320007
:100af00003826c0007003b000905d0000306d0000c
:100b0000820f54000c065d00020039000200320022
:100b100089017800030678008582550004003d00b5
:100b20000003fd008103fd008502ea008b85420081
:100b3000840f720002003b0060001000e08018008b
:100b40006011b8000005eb007a28e1000a003900c6
:100b500006007800c75ddd00f707b20087807500ea
:100b60002d003700828171000a0178006105600064
:100b70008180d1000080d3008502e900f9ff3b00ad
:100b8000060440008784480002003b006004140013
:100b9000e0841c000988a300070032008a817100ec
:100ba00082817100610164008904d1000884d3004e
:100bb0008b05e800170037000978a30013003a00fe
:100bc0000b00e000130034008b05e900080444002a
:100bd00089844c000a4474000978a3000d003a008f
:100be0000b00e000070034008b05e9000804440016
:100bf00089844c0001003a000b0020000978a30012
:100c0000f7ff32000001eb00020037008281710023
:100c10000a0178007c0007000cf0a70001f0a0009a
:100c2000c50037006420e10002003a00838f6c00a9
:100c3000c50033000801be000200be00be00370040
:100c4000889fbe008a9fbe008c1f7800a900070005
:100c5000b000330003866c006450e1002e003200c7
:100c60006420e100330032006150e1002f003200c7
:100c70006120e1003100320085855500eb07b000ae
:100c80000900200008042000050037000804440083
:100c900089844c000a0031000603430087834b001f
:100ca0000001530081815b00f8ff33000203be00a6
:100cb0000800a0000804440089844c00f6ff3900b5
:100cc000c639dd00830173000100320013002000eb
:100cd0008904d1000884d3000998a30005003200dc
:100ce0000800a7000300a0008904d1000884d300f5
:100cf0008b05e8008904d1000884d3000001eb00d3
:100d00000281d2004000070001f0a1000cf0a70012
:100d100001f0a000880037006420e1008a00320062
:100d20000801be000200be00f7ff37006120e100ad
:100d3000850032006000b800f3ff3700000020009b
:100d400001f82700f0ff3700839f68000100e000f2
:100d500002003d0060001000e08018000300e00089
:100d600002003d0060011100e0811900ad000700a4
:100d70004f00e00002003b0060001000e08018001f
:100d80000000060014002000b6003700f4ff2f001a
:100d9000b40037000001be00410007000470a70046
:100da00003f0a10003f8a30013003a006509b100a5
:100db00010003200090035006928e100020035000a
:100dc000010028000000050000004000818048006c
:100dd0008502e900fcff3a0000000600f88f42009f
:100de000050035008100d1000080d3008502e800b5
:100df000fcff3a00000006008000eb000000050048
:100e00006011b800b20037008100200061805500f9
:100e10000b003d000b00200061fe2f000100e100ef
:100e20001d00340082817100610164008904d100d9
:100e30000884d3000000e800faff3a0071002000a7
:100e400061006400030070000200600009003200cd
:100e500061044400e0844c000988a50005003200cc
:100e60008b05e8006808e10002003a008904d1001f
:100e70000884d300f20f20000258e10005003d0075
:100e8000c75ddd00f907b2008980750008007800b1
:100e9000000006000bf827008b007800000005001a
:100ea000c70ade00f107b200f50fb20008003200f9
:100eb000e1cf4200020032000170a00024000500d2
:100ec000810f700001003200040805004400050095
:100ed000810f700002003a00140005008502e9004d
:100ee0000000400081c04800fcff3b000170a000f2
:100ef000240005000004be00e9ff07000003be0057
:100f00000405be000200be00e5ff0700844f750027
:100f1000000006000200be006450e100050036003b
:100f20006420e100020036000968a30001003a00d5
:100f30000800be000160a0004f0678004f05be000b
:100f40004f04be0000000600f0ff2f00f1ff270055
:100f5000f9ff3700889fbe008a9fbe008c1f780073
:100f6000e4ff0700ebff330003866c006450e100f0
:100f7000240032006420e100270032006150e100cb
:100f8000220032006120e100210032008b85420006
:100f9000eb07b1000134b800003ab8000804420081
:100fa00089844a00013ab8000030b80088804000c7
:100fb00009014a000400330000004000818048001d
:100fc000020149008b05e900c909dd0083017000b9
:100fd0000100320013002000c814de004814dd00b8
:100fe0004709de001200b200c808de000884700065
:100ff00085ff070001f0a1000cf0a70001f0a000a0
:10100000cdff37006120e100cfff32000801be00b4
:101010000200be00f7ff37006150e100fcff3a001c
:10102000c9ff37006022b800060220000000d0008f
:101030008180d2000482d2008582d2000000a0000c
:101040000202520083825a00030031000202420071
:1010500083824a000000a1000603e900f3ff3a0082
:1010600000000600889fbe008a9fbe00841f780093
:10107000a0ff07004f00780011003300f0ff2f00a1
:10108000838f6c0006003b00040565000a00a70082
:101090000800370009f0a600100020000800370003
:1010a000820f5400838f5c00030039001000200081
:1010b00001003e000000200009f0a7000000ea0047
:1010c0004f05be004f04be000000e0000000060017
:1010d000889fbe008a9fbe000082700004027100db
:1010e00004827100260032000004be000200be002f
:1010f0006011b8006b092000950220000182cf002a
:101100000a0039000541b1000082cf000700390014
:101110000541b1000982cf00040039000541b1004a
:101120000882cf00010039000541b100054252009c
:10113000120032000a003b008281710061016400ec
:101140008100d1000080d3008984d3000884d300bb
:101150008b05e8000442e800f7ff3a00070037007b
:101160000804440089844c00000048008180480045
:101170008b05e9000442e900f9ff3a0022ff07006d
:101180004f05be004f04be000000060002003700fd
:101190000204e0000b0032008101780000027800b8
:1011a00030417800b14f5100f9ff320010002000ab
:1011b00014427800934f5200030031000080eb008e
:1011c000000006000000eb0000000600889fbe0043
:1011d000000478000100780082047800880178001b
:1011e00009017800110020000e000700890f50004f
:1011f000010032000004eb00080078004f04be003c
:10120000000006000000fa00e88157004fb997007f
:1012100001352100608e20005a0107000080fa008d
:1012200000000600889fbe008a9fbe008c9fbe0003
:101230008e1f780000067800010478000200780014
:10124000830478008881b900020778000e00e0006e
:10125000420032000800e000410032008e057800b4
:10126000c900900069009000808f50000400390090
:1012700009007800500007000000e0002900350058
:1012800000402000190060000a0032000b017800c5
:10129000a10020000c0078003600070080067800ce
:1012a0000d00e00006003200610516000a854600c8
:1012b000040037000b0578008006eb0001003700c2
:1012c0000b05780049009000e900900080805000f4
:1012d0008a8f500002003100010578008006eb0083
:1012e0000a0178008c0078002c0007008a855500e0
:1012f000490090000a004000c00498000d00e00082
:101300000400320009007800d60007000000e00069
:1013100004003a000b00e000020032000a0646001a
:10132000cfff37000080200019006000020032006b
:1013300009007800cb00070000c020001900600001
:101340000200320049009000e00498008b0557002d
:10135000110009008885d800010037000000eb006b
:101360004f0778004f06be004f05be004f04be0079
:101370000000060003003700b0cf10000500320067
:101380000201e900800178000200e000faff3a0063
:1013900000000500030078000000060080017800ce
:1013a00002003700b15978000201e9000200e000b4
:1013b000fcff3a0000000600889fbe008a1f7800ec
:1013c00000047800c8009000680190000000eb0065
:1013d000828f50003c00390018007800220029005c
:1013e00002016000e20f51000700320001202400da
:1013f0000000e00001003d0001202000008c700092
:101400000080eb0030003700020026000200600080
:10141000820f500009003a0038009000808f500081
:1014200006003900080078008e0007008000780070
:101430000080eb000100e00023003a00180578006e
:1014400000c020000000650018003a00a8049000c9
:101450006002200008004000808f540013003a0012
:101460000020200000030700200498000000e00096
:1014700005003a0029049800490498008904e8000e
:1014800039049800080037000a60a0000a0c7800b0
:101490004004980001202000808040003104980022
:1014a000400c9800500c98000c0007002800900099
:1014b0005004980038009000600498000000260056
:1014c000180c70000000eb004f0578004f04be00c0
:1014d0000000060000b120009d003700881f780042
:1014e000683f21001804e00003003a00f9ff0700fc
:1014f00020c0b300004c78004f04780000000600c4
:10150000889fbe000004780008007800550007009e
:1015100080047800000420001800600002003200ff
:10152000280090006b0207000000eb0020049800e8
:10153000384090000004e000050035000000fb008a
:10154000ebfc07000000e000010032008084eb00ab
:10155000181090000000e000080032002ffd070086
:101560000000e000010032008084eb0018109000c1
:10157000580207000000eb0010149800000820003b
:1015800018006000150032000001eb006000b80098
:101590000202d000033a210003024200940f14001b
:1015a00005003a00000040008180480000804100b2
:1015b0000008eb000600370061004000e0804800b2
:1015c0000201e800e80f5000e08f5800f0ff3a00f9
:1015d000080078003f0207000e003700000c78007a
:1015e00000c0eb003044980060022000080040007a
:1015f000200498004004980050049800400c980083
:1016000060049800500c9800700498007600440024
:10161000000c9800090078004f04be00000006008e
:10162000881f78000004eb006140b800e2ff2f0043
:10163000f3ff2f00d0040700e23a210080004100b0
:10164000110078000000e00001003200acff07004c
:101650000804e800e80f5400f3ff3a004f04780054
:1016600000000600889fbe00000478000800e0002b
:101670000f003a008004eb008800d000003a2100ff
:1016800000804000100078000000e00004003200fc
:10169000f4ff07000000e00001003d008084eb0043
:1016a0000804e800e80f5400f3ff3a002500370073
:1016b00000002200180060008004eb0021003200ce
:1016c000a80490000f003700090151003840900035
:1016d0000000fb00890078008efc07000000e0009d
:1016e00007003c0028009000400498006004980027
:1016f000500c98001890a0008084eb001100370077
:101700008084440048019000828f5400eeff39002d
:1017100028009000400498009800780002c0200043
:101720000281600001003a003800900001e8a30047
:10173000020032006004980001003700500c98004d
:101740008004eb00090078004f04be000000060092
:10175000010020000100e0000900320001008000cb
:101760000100e000060032008100e900010088006d
:101770008100d00002008000828040008008780054
:10178000000006006200fa00889fbe008a1f7800f1
:101790000005780081047800020478008300780056
:1017a00080f92f000f004000680407009a979f00ff
:1017b000a9979f000000eb00b09f9f001885fb00d9
:1017c0008a04fb000a05ea004f55de0050022000a3
:1017d000808f54000d003200e10f55000b003a00dd
:1017e0000a017800880078002f9097009f91970059
:1017f00003000100a0979f000000e0008e0032006f
:101800003f9897000000e800b09f9f000a04440042
:1018100050022000808f5400040032000900e000d4
:10182000e6ff3a003f989700840037000000eb0085
:10183000909f9f00809f9f00f0979f00e0979f00e0
:10184000d0979f00c0979f0007003700613e21009e
:101850000100500000004000a13d210080804000b8
:101860005f98970011007000d09f9f008804780057
:1018700009047800384578008a00fb00603e2100aa
:10188000230207000000e000f0ff3a00a1c2b3000d
:10189000814f55000e003a00cf8897000180e90083
:1018a000c08f9f0010007800c09f9f000000e000e4
:1018b00005003d000000ea00c09f9f005f98970070
:1018c0000020a000d09f9f000904e8000f0037000f
:1018d000c09f9f000000eb0005003700f2ff2700cb
:1018e000820f500002003200ea00b9000080400080
:1018f0000904780088047800b900fb000103b100f6
:10190000e98f5000f5ff3600c09f9f00e0c2b30092
:10191000984f1000020032000080eb0019003700e1
:10192000a0c2b300d84f100007003a00cf8897003c
:101930000180e900c08f9f0010007800a09f9f00e9
:101940000804e800100037000000eb00a09f9f0093
:101950008800780005003700f3ff2700830f500050
:1019600002003200ea00b9000000410001047800e2
:10197000880078003101fb000203b100e90f51003b
:10198000f5ff3600a09f9f00984478008900fb0077
:10199000203d2100de0107000000e00002003200cf
:1019a0000804e800010037008044eb00c97f9f0075
:1019b00080c6b30080cf540004003a0098cf1400d2
:1019c0000a003a006640500006003700c0c6b30067
:1019d00080cf540005003a0098cf140003003a006d
:1019e00065404000c07f9f000804e8001801fb002c
:1019f000e3fb2f008f81410081f92f008f80400091
:101a0000a0f92f000f004000100007000000e000c8
:101a100009003a00e1fb2f008f804000a0f92f0061
:101a20000f0040000d0307000000e0000200350039
:101a30000804e80061ff37000080eb004f057800e4
:101a40004f04be000080fa0000000600889fbe0020
:101a50008a9fbe00e4c6b300844f5100ce0032001e
:101a600010003c006b425200844f510018003200bd
:101a700005003c0054c2b300844f510006013200ff
:101a800084c5b3000f00370044c6b300844f510033
:101a90001500320065424200844f510001013a00b6
:101aa0001100370004c7b300844f5100ed0032002d
:101ab0005f00350065424200844f51005c003200f7
:101ac00063424200844f5100f6003a00580037004c
:101ad0001181e90082087800f000900081814100c6
:101ae00092497800f500370020629000c5c6b30027
:101af000854f520008003a0091027800648252003b
:101b00008408780094029000140278004fabde0045
:101b1000860378001600370015c7b300854f5200c2
:101b200003003a00110478006802540005003700f1
:101b3000a5c6b300854f520008003a009104780012
:101b40006882540084087800940290002403900076
:101b5000b403900014027800050037001182e900f8
:101b60008408780014027800cfa2de00612bb9004f
:101b70000498be000690be00a060900088c6b30026
:101b800088cf50000d00320028c6b30088cf500027
:101b900004003a000402fb00cfa2de00612bb90072
:101ba0000800370048c7b30088cf50000300320058
:101bb0006644440088cf500004003a00cfa2de0003
:101bc000612bb9000498be000690be001002780098
:101bd0009002900020039000b0039000f00090006d
:101be000e00f5200e08f5a00e00f5b00e08f5b00d7
:101bf00003003d0001824100d5c2b3000a00370056
:101c0000001290000418a30003003200018241007a
:101c1000b5c2b300040037000408a3005900320025
:101c20000182410005c2b300054a78005300370025
:101c300020629000c5c6b300854f520009003a00eb
:101c400011057800640255008408780014047800b7
:101c5000940490006055b8000802be000a03be005c
:101c60001600370015c7b300854f520003003a0035
:101c7000910478006882540005003700a5c6b300bf
:101c8000854f520008003a0011057800680255009f
:101c9000840878009402900024039000b40390001c
:101ca00014027800050037001182e90084087800ea
:101cb000140278008002eb006033b8000498be0084
:101cc0000690be00a060900088c6b30088cf500088
:101cd0000d00320028c6b30088cf500004003a003f
:101ce0000482fb008002eb006033b800080037007c
:101cf00048c7b30088cf5000030032006644440058
:101d000088cf500004003a008002eb006033b80036
:101d10000498be000690be00801090000138a30019
:101d2000180032001002780090029000200390000a
:101d3000b0039000e00f5200e08f5a00e00f5b000c
:101d4000e08f5b000f00320081c7b300814f51006c
:101d50000300320081c5b300814f510009003a00f1
:101d6000f00090000182410005c3b300054a7800ed
:101d70008100e80001824100024a78008100e80009
:101d800071009800f000900081814100630098008c
:101d9000824078003e003700a0619000c4c6b300c6
:101da0001181e90084cf5100220032000a003c007a
:101db0006442520084cf51002500320004c2e80082
:101dc00084cf5100130032006842520084cf51008a
:101dd0001e003a000a00370044c7b30084cf510008
:101de0001b0032006642420084cf510018003200ce
:101df0006942520084cf510014003a0005003700b8
:101e0000820878009200780040589000804878005e
:101e10002c0037008208780092007800600a900059
:101e2000cfa2de00612bb9008498be008690be0070
:101e30002400370082087800920078006009900042
:101e4000cf91de008288be001e0037001181e900bc
:101e5000820878009200780060089000800878007e
:101e6000180037001181e90082087800120278001a
:101e7000cfa2de00612bb9000498be000690be0020
:101e8000f0009000818141006300980081c7b30099
:101e9000b50007000b003700f00090008181410081
:101ea00005003700f0009000818141000204e0004d
:101eb00001003a0052c2b300824978008100e80074
:101ec000710098000000eb004f05be004f04be00fb
:101ed000000006000000e0002f003200c001780082
:101ee000e38f51002c0036000308a3002a003a00bb
:101ef000a19f80000100e00002003200810f50002d
:101f00000400310011009800a09f880016003700df
:101f100082007800110190000200e000020032000f
:101f2000800f5100faff39001102780084824000ce
:101f3000850f500018003900808f520003003a00ce
:101f40008308420001007800070037000200e0002b
:101f50000300320083014000830f51000e0039005e
:101f60001200980090009800900090000100e0009e
:101f70000900320010014000828f500006003a0034
:101f8000223f21000009eb001001780011084100f8
:101f9000910090001100980000000600889fbe008c
:101fa00000047800919f80000100e00002003200f0
:101fb000010078000d003700a19f8000403f210004
:101fc00004003700910f5400250036000180e8001e
:101fd000910090000100e000faff3a001000370085
:101fe000920f54001e0036000280e80010017800b5
:101ff0000200e000faff3a0011017800a19f800082
:10200000403f210004003700910f540014003600b7
:102010000180e80091009000828f5000faff3a00a2
:10202000c99f8000888f5400010031008804780027
:1020300009007800420007000000e00004003a00b8
:10204000888f5400050032008904d100f5ff370065
:10205000091878009fff0700d2ff37000000eb004f
:102060004f04be0000000600881f78006304400093
:102070000800a1008000eb00800f54002100360012
:10208000e30f540001003e004800200008007800e3
:10209000c2ff07008000eb000000e00019003200e2
:1020a000900078009101780064815100880f510000
:1020b000030031001101900002087800070037008a
:1020c00008814000020878009101900013019800f7
:1020d00010017800110914008808780010017800b8
:1020e0000000eb000200e0000400320092019000ca
:1020f0000300e000010032000280e800909f8800a9
:102100008180e800010078004f047800000006009c
:10211000020037000304e0000600320000017800ee
:1021200002007800b041780081cf5100f9ff3a00f9
:10213000010037000001eb000200780000000600fb
:10214000800078000000eb000100e0000500340092
:10215000010078003afa0700e10f400001003a0060
:102160000000eb0000000600fc874700889fbe00cf
:102170008a9fbe008c9fbe008e1f780000067800ec
:1021800080c5b30080cf50000a0032007740400085
:1021900080cf50000a0032006940400080cf5000dc
:1021a0000b003200103c210080bf9f00ae002000d9
:1021b0000a003700023b210082bf9f000600370063
:1021c000133c210083bf9f008e00200003003700d6
:1021d000143c210084bf9f000e0120001c027800e7
:1021e0009c0290002c039000bc0390000605be00ea
:1021f0000404be0040c6b30080cf5000030032008c
:102200006540400080cf50000b003a00e00f5200c4
:10221000e08f5a00e00f5b00e08f5b0006003d009e
:102220006000b8006011b8000404500085845800b4
:102230000605590087855900e80f57000400320051
:1022400040002000f00f57003c003a00010037002a
:1022500030002000e00f5400e08f5c00e00f5d00d4
:10226000e08f5d0004003a00dc0890008d01200042
:102270000100e000070032008e00e9008880600065
:102280008fba97008180420091407800f1ef9f0063
:102290007d012000800078008100e9000500330006
:1022a0008b05d1000a85d3008984d3000884d3002c
:1022b000f9ff3700089ebe000a96be0013003700e3
:1022c0008d06e9008e00e900848060000fb9970058
:1022d000810041001141780083fd2f008d81410074
:1022e00082f77900800178008301e900050033005e
:1022f0008783d1000683d3008582d3000482d30074
:10230000f9ff3700049ebe000696be001c0278004e
:102310009c0290002c039000bc039000e00f520040
:10232000e08f5a00e00f5b00e08f5b009300340009
:102330000d00e000e2ff3c00900037002c609000b0
:1023400081c6b300814f50000b00320006003c00f4
:102350000004e00008003200e6c05000814f500049
:1023600052003a0004003700c1c6b300814f50004c
:102370004e003a00230037000800e00004003a0055
:102380005c0890008d0120000000e0000700320092
:10239000110009000e84d8000fba97000100420016
:1023a00010407800f0ef9f007d012000110009002f
:1023b0000e84d8000b003700110009000e04d8006d
:1023c0008d06e9008e81b900020454008fb8970091
:1023d000088440009841780082fd2f000d014100e3
:1023e00083777900000478000800e00002003200e2
:1023f0000d00e000f0ff3c00cfc4de00614db900ed
:1024000027003700e00f5400e08f5c0004003a0022
:102410005c0890008d0120000000e0000800320000
:102420006171b9000800be00500107000fba9700a3
:102430008000420091407800f1ef9f007d01200074
:102440006171b9000800be00f6fa07000c00370001
:102450006171b9000800be003bfa07008d06e90073
:1024600080f1b900020454008fba9700088442003a
:102470009841780082fd2f000d014100837779009b
:102480000004be00e00f5000e08f58000200320050
:102490000d00e000eeff3c004fcdde008a05780025
:1024a000089ebe000a96be0034003700e00f5400bc
:1024b000e08f5c00e00f5d00e08f5d0004003a00fb
:1024c0005c0890008d0120000000e0000a0032004e
:1024d0006172b900612bb9000800be000a01be009c
:1024e000cd0107000fba97008000420091407800ac
:1024f000f1ef9f007d0120006172b900612bb900ee
:102500000800be000a01be00bc0107000e00370033
:102510006172b900612bb9000800be000a01be005b
:10252000c10107008d06e90080f2b90004045400df
:102530008fba9700088442009842780084fd2f00eb
:102540000d02420085777a00009ebe000296be0012
:102550001c0478009c0490002c059000bc059000a1
:10256000e00f5400e08f5c00e00f5d00e08f5d0045
:10257000020034000d00e000e5ff3c00e80f5700ca
:1025800010003a000c1090000038a3000d0032003b
:10259000f78f560006003e0080fd2f000d00400022
:1025a000ef40780000c3b30080cf50000500320038
:1025b00002c3b30071fd2f008d8040008d06e9003d
:1025c00082f7780078811600120e98006c00900057
:1025d00083fd2f008f8141008d8041006ffb07003c
:1025e0001c089000dc089000810f500006003d00a0
:1025f00000805000000e98000c1090000040a100d8
:10260000001698000f0037000100e0000d003d00ab
:102610008c109000f4806000f08f500009003a00a8
:102620007c099000fc009000810051000c09900092
:1026300082805000008050004240a9000100340018
:10264000000e98004f0778004f06be004f05be00f1
:102650004f04be00cf01b100000006000400fa00e4
:10266000889fbe008a9fbe008c1f780000047800ff
:1026700001067800f80d90007800900080855500e4
:102680000808900080855500180890008085550046
:1026900028089000808555003808900080855500f6
:1026a00048089000808555000002220090bf9f00de
:1026b00000032300a0bf9f00081090000028a30083
:1026c00015003a000b00e000130034000b05780001
:1026d0008a047800e20f550001003600290020002e
:1026e000c801900009017800ee8057005800900062
:1026f00003000100500498000000e0008c0032004c
:102700006808900009004000600c98000905550019
:102710004240a900eeff3c00780190000200e0007a
:102720000c003400c80190008c0078005800900024
:1027300003000100500498008080eb000000e000de
:102740007c003200e8089000780090000080400093
:10275000600c9800880c90000900e0001100340023
:1027600009057800e28f5400010036002a0020009d
:10277000c80190000a017800ec80570058009000d2
:1027800003000100500498000000e00068003200df
:10279000680890000a004000600c98008a84540089
:1027a000edff3700180990000200e0000c00340033
:1027b000c8019000e800900058009000030001005c
:1027c000500498008080eb000000e00059003200c7
:1027d000e80890001808900000804000600c980005
:1027e000a80c90000900e0001100340009057800f1
:1027f000e28f5400010036002a002000c80190003a
:102800000a017800ec805700580090000300010096
:10281000500498000000e000450032006808900075
:102820000a004000600c98008a845400edff3700d5
:10283000380990000200e0000e003400e80090002b
:102840001808900080804000c80190005800900057
:1028500003000100500498008080eb000000e000bd
:1028600034003200e80890003808900000804000f2
:10287000600c9800c80c90000900e00011003400c2
:1028800009057800e28f5400010036002a0020007c
:10289000c80190000a017800ec80570058009000b1
:1028a00003000100500498000000e0002000320006
:1028b000680890000a004000600c98008a84540068
:1028c000edff3700081090008000eb000028a30007
:1028d000180032000b00e000160034008b04780072
:1028e00009057800e28f5400010036002a0020001c
:1028f000c80190000a017800ee805700580090004f
:1029000003000100500498000000e00008003200bd
:10291000680890000a004000600c98008a84540007
:102920004240a900eeff3c008000eb0001003700b0
:102930008080eb00010078004f0678004f05be0054
:102940004f04be000080fa00000006000108780075
:102950000000060000c0da000000060000c0da0037
:102960000000060000c0da0000000600adf9070014
:102970000400be0000000600020ab900001bb900f6
:102980000200b80081004200810043000000060000
:10299000889fbe008a9fbe0030044200b0844a0077
:1029a00030054b0090854b006000b1000898be00d8
:1029b0000a90be000440e10005c8e10006d0e10035
:1029c00007d8e10002003100680040001008e8006c
:1029d0004f05be004f04be0000000600889fbe00e9
:1029e0008a9fbe001004780090049000200590009b
:1029f000b00590000418540005985c0006185d00ae
:102a000007985d00110020000440e10005c8e100c6
:102a100006d0e10007d8e100010039008000eb009a
:102a2000108810004f05be004f04be0000000600d5
:102a30001200fa00889fbe008a9fbe008c9fbe00d5
:102a4000e0b79f00f1b79f0082bf9f0093bf9f0038
:102a50000605be000404be000000eb00d0b79f00d6
:102a6000c0b79f00b0b79f00a0b79f0090b79f006e
:102a70000006eb005fb19700cfb0970082014100e4
:102a80003fb097000200e00004003d00370007005f
:102a90007e805700beff07000300370033000700a9
:102aa0007e805700cdff0700dfb697000d00e000e5
:102ab0000c0035006fb29700ffb297000fbb970074
:102ac0009fbb970010002000010020006011b8009b
:102ad000000272008182720002037300838373001c
:102ae0001b0007000c06e80001042000810f5600bf
:102af000e0ff3a000d00e00004003d000802be00c7
:102b00000a03be007e805700a1ff07005fa8970060
:102b10000000e00005003a001fb29700afb2970036
:102b20003fb39700cfb39700090007006fb097003d
:102b3000ffb097000fb997009fb997004f06be00ee
:102b40004f05be004f04be000080fa0000000600e2
:102b50000100070000000600a4b79f00b5b79f0062
:102b6000c6b79f00d7b79f00000006004f09de00e0
:102b700082817100b3b79f004f01de008180400069
:102b800082807000a1b79f008fb097004f09de00d0
:102b9000000040000200700090b79f007fa89700df
:102ba0004f01de00818040008280700081b79f006d
:102bb0000d0007004f3ade000000400004007000e6
:102bc000f0af9f00080007000402420085824a001f
:102bd00006034b0087834b00dfff07000802be009f
:102be0000a03be00000006002fb29700bfb2970094
:102bf0004fb39700dfb3970000000600881f7800ee
:102c000018002000881f780089ff07008f87e900df
:102c10004f04780000000600801feb0084ff0700cf
:102c20008f87e90000000600889fbe008a9fbe00d3
:102c3000e00f5000e08f5800e00f5900e08f59007e
:102c40000c003d006044b8006055b800000054001e
:102c500081805c0002015d0083815d00180020001e
:102c60001500070008003d00180007000004eb00f5
:102c7000050037000004eb000f00070002003d00d4
:102c80001200070018002000dcff07000800e00029
:102c9000060032006022b8006033b8000000520025
:102ca00081805a0002015b0083815b004f05be00fa
:102cb0004f04be0000000600e00f5200e08f5a00f3
:102cc000e00f5b00e08f5b00000006006044b8008e
:102cd0006055b8000402540085825c0006035d0064
:102ce00087835d0000000600889fbe008a9fbe00ab
:102cf0008c1f7800e00f5000e08f5800e00f590063
:102d0000e08f59000d003d006044b8006055b800e8
:102d10000000540081805c0002015d0083815d0041
:102d20001c0020000820e10009a8e1000ab0e10031
:102d30000bb8e1000d003d00080037000006eb0075
:102d4000e00f5200e08f5a00e00f5b00e08f5b0065
:102d500006003d006044b8006055b800040254000d
:102d600085825c0006035d0087835d00aaff070083
:102d70000c00e000060032006022b8006033b800aa
:102d80000000520081805a0002015b0083815b00d9
:102d90004f0678004f05be004f04be00000006003d
:020000040000fa
:102da000256400002c250000642c00002564000030
:102db0002c250000642c0000256400000a0000009f
:082dc000256400000000000082
:020000040000fa
:102dc8000200fa00000f7800401080001e0060002a
:102dd80000f0a7000000ea000000ea004f00de0053
:102de800004078000080fa00000006000000fa00a9
:102df800b0818000e40f50005d003200e40f500005
:102e080005003e000000e0000a003200e30f500019
:102e180034003200f4003700e60f5000ce003200d4
:102e2800e60f50008c003900ed0f5000b50032005d
:102e3800ed0037003a70ef00e03e210011c0b3000a
:102e48000148780080002000ddff07000004e00052
:102e58000c00320000022000d9ff07000004a20085
:102e68000004e00007003200001080008040780075
:102e7800c03e21000148780030002000b081880061
:102e880005003700e03e2100a1cfb30001487800db
:102e980060002000b081880000402000c8ff0700c3
:102ea8000004e00005003200e03e2100d1cfb3006d
:102eb8000148780060002000b081880000042000ec
:102ec800bfff07000004e000bc003200e03e210024
:102ed800e1cfb3000148780060002000b08188008d
:102ee800c100370000022000b5ff07000004e00021
:102ef800070032000010800080407800d03e21009a
:102f08000148780040002000b081880005003700a3
:102f1800e03e210091cfb300014878006000200016
:102f2800b081880000402000a5ff07000004e000f1
:102f380005003200e03e2100d1cfb30001487800ff
:102f480060002000b0818800000420009cff07007a
:102f58000004e0009b003200e03e2100e1cfb30016
:102f68000148780060002000b08188009e0037008a
:102f78000002200092ff07000004a2000004e00005
:102f8800170032000010800080407800c03e210009
:102f98000148780021828000c03e21000100010024
:102fa800f03e2100104078000080fb0010108800df
:102fb800000000001000200081ff07000004a200ac
:102fc8000004e000fbff3a000782a8003f70ef0012
:102fd800e03e210021c0b300014878000900370015
:102fe8000010800080407800f03e21000148780001
:102ff80010c0b3003ff0b700e03e210031c0b3007d
:103008000148780050002000b0818800004020006e
:103018006bff07000004e00005003200e03e2100dd
:10302800d1cfb3000148780060002000b08188004b
:103038000004200062ff07000004e0006300320083
:10304800e03e2100e1cfb300014878006000200095
:10305800b0818800640037003fd0bf000004a200a0
:103068000004e0000e003200003f2100104078000c
:103078000080fb00101088000000000010002000f5
:103088004fff07000004a2000004e000fbff3a0025
:103098000782a800d0002000b08188000600370011
:1030a8000010800080407800003f2100014878002f
:1030b80060002000b08188000040200040ff070029
:1030c8000004e00005003200e03e2100d1cfb3004b
:1030d8000148780060002000b081880000042000ca
:1030e80037ff07000004e0003a003200e03e21000c
:1030f800e1cfb3000148780060002000b08188006b
:103108003900370060002000b081880000402000ae
:103118002bff07000004e00005003200e03e21001c
:10312800d1cfb3000148780060002000b08188004a
:103138000004200022ff07000004e00027003200fe
:10314800e03e2100e1cfb300014878006000200094
:10315800b0818800240037003630ef0010c0b3007b
:103168003af0b7002000200015ff07000004e00037
:1031780004003a000004200011ff07000004e000ea
:10318800050032000010800080407800f03e2100e9
:103198000148780008c2a9003fd0bf000004e00041
:1031a8001000320033828000609f8000719f800091
:1031b800829f8000030001000b0037000000000020
:1031c8000900370000000000070037000000000079
:1031d8000500370000000000030037000000000071
:1031e80001003700000000000080fa00000006001f
:1031f8000000fa000040eb00340007003830ef0010
:1032080010c0b3003bf0b70010c0b3003ef0b700e9
:10321800170ea900172ea900110ea900112ea9003a
:103228000622ef000822ef00400b20002010880043
:103238000228a90041428000000720000100700018
:10324800404288002228a8000080fa0000000600fa
:103258000600fa00000f780011079800220798006e
:103268000040eb0019000700170ea900172ea9004f
:10327800110ea800112ea8000622ef000822ef0068
:103288000c22ef009e007800511088003630ef00c5
:1032980010c0b3003af0b70010c0b3003ef0b7005a
:1032a8009e00900021828800ae0090003182880044
:1032b8000208a900404280007000b3004042880024
:1032c8002208a8000080fa00000006000200fa00a8
:1032d800004f78001e4078000004e0000200320031
:1032e80007e2a8000100370007e2a9000080fa0001
:1032f800000006000000fa000622ef000822ef0096
:103308003830ef0010c0b3003bf0b70010c0b30076
:103318003ef0b7003630ef0010c0b3003af0b70007
:1033280010c0b3003ef0b7004030ef004230ef006d
:103338002228a9000228a9002228a8002208a900fa
:103348000208a9002208a80010c0b300dfff070088
:103358000080fa00000006000200fa00000f780062
:103368003bd0bf000004a2000004e00004003200cb
:103378001e00780081cfb30021409800e900370093
:103388003b70ef001e00780011c0b3002140980088
:10339800e0003700c08180008000eb00d2002000f0
:1033a80003002000820f5000838f5800ca003e009f
:1033b800000601000d0037002600370029003700fd
:1033c8005f0037007d0037009b003700ba003700e8
:1033d800c1003700c0003700bf0037004000370089
:1033e8005e0037007c0037009a0037003ed0bf00ef
:1033f8000004e000040032003e70ef0010002000de
:10340800c0818800c3003700800020006cfe0700e0
:103418000004a2000004e0000700320000012000c0
:1034280067fe07000004e0000300320010002000df
:10343800c0818800b70037001e00780080c0eb000c
:103448002140980010c0b3003bf0b7003830ef00bf
:10345800b00037000602a80020002000c0818800c4
:10346800ac0037003dd0bf000004e0009e003200f1
:103478003d70ef008000200051fe07000004e000ce
:1034880010003200000120004dfe07000004a200d9
:103498000004e0000b0032001e00780010407800a5
:1034a8000080fb000000400080007800f00f200042
:1034b8000080600010108800a0002000c0818800f3
:1034c800940037000642a80060002000c0818800f0
:1034d8001e00780080c0eb00214098008d00370066
:1034e8003dd0bf000004e000810032003d70ef00d5
:1034f8000000280032fe07000004a2000004e000db
:1035080008003200000820002dfe07000004a20079
:103518000004e0000300320030002000c081880071
:103528007c0037000642a80060002000c0818800a7
:103538001e007800c1cfb300214098007500370005
:103548001e007800104090000080fb0010108800da
:10355800b0002000c08188006e0037003dd0bf0059
:103568000004e000640032003d70ef000000280015
:1035780013fe07000004a2000004e0000800320067
:10358800000820000efe07000004a2000004e0006e
:103598000300320040002000c08188005d00370031
:1035a8000642a80060002000c08188001e00780044
:1035b800b1cfb30021409800560037001e007800b4
:1035c800304090000080fb0010108800c0002000f0
:1035d800c08188004f0037003dd0bf000004e000e4
:1035e800470032003d70ef0000002800f4fd07009e
:1035f8000004a2000004e0000800320000082000d7
:10360800effd07000004a2000004e0000300320000
:1036180050002000c08188003e0037000642a80004
:1036280060002000c08188001e007800b1cfb30080
:1036380021409800370037001e0078004040900075
:103648000080fb0010108800d0002000c081880096
:10365800300037003dd0bf000004e0002a003200ef
:103668003d70ef0000002800d5fd07000004a2000f
:103678000004e0000900320000082000d0fd070027
:103688000004a2000004e000040032000642a80082
:1036980060002000c08188001e0037000642a80094
:1036a80060002000c08188001e007800b1cfb30000
:1036b80021409800170037003dd0bf000004e0000b
:1036c800130032003d70ef003830ef0010c0b30037
:1036d8003bf0b7000f0037003830ef0010c0b300e0
:1036e8003bf0b7000b00370000000000090037006e
:1036f8000000000007003700000000000500370048
:10370800000000000300370000000000010037003f
:10371800000000003bd0bf000004a2000004e0004d
:103728001cff3a000080fa00000006000200fa00c0
:10373800000f78003bd0bf000004a2000004e000a6
:10374800040032001e00780081cfb30021409800a9
:10375800f90037003b70ef001e00780011c0b3007d
:1037680021409800f0003700c08180008000eb0005
:10377800e200200003002000820f5000838f5800d1
:10378800d2003e00000601000e0037002700370077
:103798002a003700600037009a003700ae00370073
:1037a800c20037008f0037007a003700c7003700a3
:1037b800410037005f0037009f003700b300370033
:1037c800780037003ed0bf000004e000040032005b
:1037d8003e70ef0010002000c0818800d200370042
:1037e8008000200076fd07000004a2000004e0002d
:1037f800070032000001200071fd07000004e0000e
:103808000300320010002000c0818800c600370085
:103818001e00780080c0eb002140980010c0b30063
:103828003bf0b7003830ef00bf0037000602a800b1
:1038380020002000c0818800bb0037003dd0bf00b9
:103848000004e000a50032003d70ef008000200079
:103858005bfd07000004e0001000320000012000ba
:1038680057fd07000004a2000004e0000b0032002e
:103878001e007800104078000080fb000000400027
:1038880080007800f00f2000008060001010880091
:10389800a0002000c0818800a30037000642a800cd
:1038a80060002000c08188001e007800c1cfb300ee
:1038b800214098009c0037003dd0bf000004e00084
:1038c800880032003d70ef00000028003cfd070032
:1038d8000004a2000004e0000800320000082000f4
:1038e80037fd07000004a2000004e00003003200d6
:1038f80030002000c08188008b0037000642a800f5
:1039080060002000c08188001e007800b1cfb3009d
:1039180021409800840037001e0078001040900075
:103928000080fb0010108800b0002000c0818800d3
:103938007d0037003dd0bf000004e0006b0032007e
:103948003d70ef00000028001dfd07000004a200e4
:103958000004e000080032000008200018fd0700fd
:103968000004a2000004e0000300320080002000f0
:10397800c08188006c0037000642a8006000200063
:10398800c08188001e007800b1cfb30021409800a4
:10399800650037000622a800e0002000c0818800ea
:1039a800610037003dd0bf000004e0005100320044
:1039b8003d70ef001e007800104078000080fb008a
:1039c8000000400080007800f00f200000806000b8
:1039d8000000e8001010880070002000c0818800f6
:1039e800510037003dd0bf000004e0004300320022
:1039f8003d70ef000662a80040002000c0818800ea
:103a0800490037003dd0bf000004e0003d0032000f
:103a18003d70ef0000108000804078001e007800a4
:103a28003140980006a2a9000682a800c000200024
:103a3800c08188003c0037003dd0bf000004e00092
:103a4800320032003d70ef000662a80050002000ee
:103a5800c0818800340037003dd0bf000004e0007a
:103a68002c0032003d70ef0000108000804078008c
:103a78001e0078004140980006a2a8000682a8000f
:103a8800d0002000c0818800270037003dd0bf004b
:103a98000004e000210032003d70ef000642a8005b
:103aa80060002000c08188001f0037003dd0bf00a3
:103ab8000004e0001b0032003d70ef003830ef00da
:103ac80010c0b3003bf0b700170037003830ef00e4
:103ad80010c0b3003bf0b70013003700000000002f
:103ae80011003700000000000f0037000000000040
:103af8000d003700000000000b0037000000000038
:103b0800090037000000000007003700000000002f
:103b18000500370000000000030037000000000027
:103b280001003700000000003bd0bf000004a200e5
:103b38000004e0000cff3a000080fa0000000600d4
:103b48000000fa000040eb00620607003906070093
:103b58001f0607004f0607005706070010c0b300ee
:103b68005c0607000080fa00000006000200fa0068
:103b7800004f78001e4078000004e0000a00320080
:103b880010aea80018aea8000268a9004142800043
:103b9800f0ff28000080600000c0a00040428800bc
:103ba8002268a8000300370010aea90018aea900cb
:103bb8002268a9000080fa00000006000200fa004e
:103bc800004f780011e1a9001021a9001061a90097
:103bd8008108800000032000010070008008880030
:103be8000621ef000080eb00600888001142800089
:103bf800f0ff28000080600000c0a000104288008c
:103c080000e8a90020e8a8001e4078000004e000b1
:103c18000100320011e1a8000080fa00000006004f
:103c28000600fa00000f7800110798002207980094
:103c38002e4090000000fb00808188008081800079
:103c48000000e00002003a000040eb0001003700ed
:103c580010c0b3000080fa00000006000000fa005f
:103c68000080fa00000006000000fa00b4ff070018
:103c78009301070021e3210000102e002d03070007
:103c880082fa2100c1f121005005200070fd0700d3
:103c980040fe21006b05070010c0b3009a01070021
:103ca8000040eb002a03070010c0b30087fd07009f
:103cb8002230ef00f0ff2000308188002030ef0034
:103cc800f0ff200020818800108180008000eb0038
:103cd80049f40700cc010700308180008000eb0028
:103ce80045f40700f501070000e62a00a1002000be
:103cf8005206070010c0b3008f05070010c0b300bc
:103d0800aeff070010c0b30098ff070000e62a00c6
:103d1800a10020004906070001003700000000004c
:103d28002fd0bf000004e000310032000181800084
:103d380010818000808f50000900320000818000cf
:103d48008000eb002cf4070002002400c359240073
:103d5800b9f307000602070000818000108188007f
:103d68002181800030818000808f50000f00320058
:103d7800208180008000eb001ff40700d2cc2c00cb
:103d8800c3dc230071f4070002002000031a24009a
:103d98006ef4070002002000a3472400a6f30700e2
:103da8001602070020818000308188002f70ef0004
:103db80091708000000024000080600000f0a700df
:103dc8000000ea000000e9004f00de000040780033
:103dd8000080fb00610060004e00dd0092708000f2
:103de800f1ff2b00810061000100700090708800d5
:103df8002ed0bf000004e000c8ff32002e70ef0094
:103e0800907080000080ea004f00de0000407800db
:103e18000080fb004f00dd0092708000f1ff27005a
:103e2800810061000100700090708800bcff3700bd
:103e38000400fa00100798000000eb00000f78005b
:103e48001e009000104090000080fb00e20f500020
:103e580005003200e30f500029003200e10f500046
:103e68001400320036003700408180004b050700ff
:103e780002002000030a240034f407000200200096
:103e8800a347240031f40700c0f30700000f7800af
:103e98001e009000e40040001e00900063004000f7
:103ea80001017800800078001e007800d604070021
:103eb80023003700508180003805070002002000e9
:103ec800030024005cf3070002002000a34724003d
:103ed8001ef40700adf30700000f78001e009000e5
:103ee800e40040001e0090006300400001017800db
:103ef800800078001e007800c30407001000370017
:103f0800608180002505070042602500e3f2230058
:103f180049f307009df30700000f78001e0090008a
:103f2800e40040001e00900063004000010178009a
:103f3800800078001e007800b3040700000000002d
:103f48000080fa00000006000600fa00000f780062
:103f580011079800220798001e0078009e00900024
:103f68002e0190002eff07000004e000120032002e
:103f78001e409000e84f500006003a00ce409000e6
:103f88003e409000020221009104070010c0b300d7
:103f98002ff0b7001e409000e94f500006003a008d
:103fa800ce4090003e409000420221008804070065
:103fb80010c0b3002ff0b7000080fa000000060020
:103fc8000800fa00009fbe000297be001e0078009d
:103fd800408188001e009000508188002e009000cb
:103fe8006081880010c0b300d304070010c0b3007c
:103ff8002ef0b7000080fa00000006000400fa0066
:104008000000eb00000f78000000eb00100798009c
:10401800380037001e0090008000eb0076f30700a0
:1040280002002400c359240003f3070050010700cd
:1040380000ec2000612120008005070010c0b300bb
:10404800bd040700000000002ed0bf000004a2003d
:104058000004e000fcff3a002e70ef001e0078001c
:10406800ea00b90080007800600621000080400066
:104078009e009000010878001e007800ea00b90050
:1040880080007800a0062100008040008000eb003e
:1040980001087800418180001e007800ea01b9001b
:1040a800800621000000410001087800518180004d
:1040b8001e007800ea01b900c00621000000410096
:1040c800010878001e007800ea00b9008000780036
:1040d800e0062100008040008040eb0001487800a5
:1040e8001e0fe8009e007800800c20008088b90030
:1040f80010079800100320009e007800808f500061
:10410800c4ff36000000eb00000f78002c003700d9
:104118001e007800ea00b900e800400060062100af
:1041280000804000104078000082fb001e007800ec
:10413800ea00b900e6004000600621000080400067
:10414800900178001e007800ea00b9008080e8003d
:104158006006210000804000100178001e007800f1
:10416800ea00b900e4004000600621000080400039
:10417800900078001e007800ea00b90080027800fc
:10418800600621000080420010007800841f78003b
:10419800831f7800821f7800811f7800801f7800b5
:1041a800006d2900801f780014f40700ec87570081
:1041b80080b5210001002000200507001e0fe8003f
:1041c800100320009e007800808f5000d0ff36003a
:1041d8000080fa00000006000800fa00889fbe0070
:1041e800008fbe00220798003307980002002000c5
:1041f800035824001e0078009e00900053f3070027
:104208000004be00f2262100330024002e00900096
:10421800be0090004df307000001be000800be007c
:1042280085f20700d9f20700000078004f04be00ad
:104238000080fa00000006000400fa001007980049
:104248000000eb00000f78001e0090006140600045
:104258000080fb004f00dd001e0f70001e00900064
:104268000000d100614060000080fb004e00dd00ce
:104278001e0f70001e0090004200de0061406000ca
:104288000080fb004d00dd001e0f70001e00900036
:104298004300de00614060000080fb004c00dd0050
:1042a8001e0f70001e0090004400de001e0f7000fc
:1042b8001e007800d50407000080fa000000060000
:1042c8000000fa00960407005e10a9005e30a800fe
:1042d8005e50a8005e70a900f08280006f00600048
:1042e800f08288006010a8006030a8006050a80024
:1042f8006070a900008380006f0060000083880060
:104308000080fa00000006000200fa00004f780062
:104318001e4078009e0407001e4078000004e0005c
:10432800030032005e70a8006070a8000200370029
:104338005e70a9006070a9000080fa000000060005
:104348000400fa00004f7800110798001e80fb0057
:104358006100600000004000f2828000d1ff2f0061
:104368008100610001007000f08288001e0090004a
:10437800e10f500001003a005e50a8001e009000b6
:10438800e20f500001003a005e50a9000080fa00d8
:10439800000006000400fa00004f7800110798009a
:1043a8001e80fb0061006000000040000283800066
:1043b800d1ff2f0081006100010070000083880098
:1043c8001e009000e10f500001003a006050a80064
:1043d8001e009000e20f500001003a006050a90052
:1043e8000080fa00000006000000fa005e70a900d4
:1043f8000080fa00000006000000fa006070a900c2
:104408000080fa00000006000400fa00881f780007
:10441800008fbe0018c0b30002002f00f35724001d
:104428001e0078009e00900056f207000000e00091
:1044380001003c000044eb000804e00003003200e7
:1044480000002f00f1572400008fbe0018c0b300f1
:104458006011b8001e0078009e00900047f2070027
:104468000000e000010035000044eb000804e00013
:10447800020032006000b800008fbe001e00780005
:104488009e00900041f2070080007800f0ff2000b5
:10449800008060004400dd00f1828000ef80600051
:1044a80001007000f0828800f082800062ff07003f
:1044b8004f0478000080fa00000006000400fa00ab
:1044c800881f7800008fbe0018c0b30002002f00bc
:1044d800f35724001e0078009e00900029f2070080
:1044e8000000e00001003c000044eb000804e0008c
:1044f8000300320000002f00f1572400008fbe0097
:1045080018c0b3006011b8001e0078009e0090002b
:104518001af207000000e000010035000044eb003b
:104528000804e000020032006000b800008fbe00fe
:104538001e0078009e00900014f2070080007800aa
:10454800f0ff2000008060004400dd00018380004f
:10455800ef80600001007000008388000083800005
:1045680035ff07004f0478000080fa0000000600bd
:104578000400fa00008fbe00f08280006400600032
:104588000000e0000d003a000200200003002400b3
:104598001e0078009e0090000fff0700f1ff20002a
:1045a800010060004400dd00f1828000ef806000bf
:1045b80001007000f08288000c0037000200200023
:1045c80003f823001e0078009e00900002ff0700f9
:1045d800f1ff2000010060004400dd00f18280004e
:1045e800ef80600001007000f0828800f082800097
:1045f80011ff07000080fa00000006000400fa001e
:10460800008fbe0000838000640060000000e000ae
:104618000d003a0002002000030024001e0078006c
:104628009e009000ecfe0700f1ff200001006000f2
:104638004400dd0001838000ef806000010070000d
:10464800008388000c0037000200200003f82300d4
:104658001e0078009e009000dffe0700f1ff20009a
:10466800010060004400dd0001838000ef806000ed
:10467800010070000083880000838000eefe0700c0
:104688000080fa00000006000400fa00889fbe00bf
:104698001007980021e2a90021a2a9002182a900ff
:1046a80001118000f0cf2f00008060000011880009
:1046b80020e2a90020c2a90020a2a9002082a80007
:1046c8002062a9000111800090ff2f000080600087
:1046d800001188002002a90023a2a90023e2a90052
:1046e80023c2a8002342a90011118000f0f32f0073
:1046f800008060001011880022a2a9001e0090000e
:104708008000eb000001be0000d82100c14220005b
:104718008bf107004c09dd004404de000804710039
:10472800c48cde00080078000000e9004011880011
:104738000300370030118000004f78001e4fe8005a
:1047480010118000610060000000e000f9ff3a00ed
:104758002422ef000168a90021428000f0ff280010
:104768008080600000002500010070002042880061
:104778002168a80010cea80010eea90021368000fc
:1047880000f82f00808060006002200001007000a7
:104798002036880021348000f00f2c000080600053
:1047a8000080a000203488004f04be000080fa007a
:1047b800000006000600fa0010079800414798001c
:1047c8000040eb00004f78000a0037001e81fb0014
:1047d8001e80fb009e009000008040001040780082
:1047e80080407800e0252100000041001140980039
:1047f8001e4fe8004e4090009e40780080cf500049
:10480800f2ff39009e80fb00e02521000080400077
:104818008040eb00114098009e40e800c025210030
:1048280001487800d0828000af06b00061f92f00ff
:104838008f804000a225210033000900b2187800bb
:10484800b25878009106b10000000100af06b1002f
:104858000080fa00000006000200fa00004f78000d
:10486800c10521009140780040c6b30080cf5000b8
:10487800020036005c70ef002c0037005dd0bf00ee
:104888000080fb00e10f50000e003200e20f5000e4
:104898001b00320040c2b3009e40780080cf500019
:1048a80021003a00302c210041c2b30001487800b1
:1048b80010c0b3005cf0b70010c0b3005df0b700e3
:1048c8001a00370060c2b3009e40780080cf5000c5
:1048d80002003a0020c0b3005df0b7005cd0bf0012
:1048e8000080fb00312c2100008040001e48780029
:1048f8005cd0bf000040e8005cf0b7000b00370058
:104908001e4078000004e00004003a005cd0bf00bc
:1049180080407800302c2100a6ff07005d70ef0072
:104928000000000001003700000000000080fa00cd
:10493800000006000400fa00000f78001107980034
:104948001e00780050ff07000080fa0000000600f3
:104958000200fa00004f78001e4078000004e000d2
:10496800040032005c70ef0021e2a8002342a80096
:104978000200370021e2a9002342a9000080fa00c2
:10498800000006000200fa00004f78001e80fb00bd
:104998002011880000000000111180000010200084
:1049a800008060000000e000fbff32000080fa0099
:1049b800000006000000fa00301180000040780076
:1049c8000080fa00000006000200fa00004f78009c
:1049d8001e407800ebff07000080fa000000060088
:1049e8000400fa00004f78001107980040c2b30095
:1049f800e4ff07001e407800e2ff0700a0c3b300f1
:104a0800e0ff070060c2b300deff07000080fa0085
:104a1800000006000400fa00004f78001107980013
:104a280040c2b300d7ff070058d0bf000043b00012
:104a3800d4ff0700a0c3b300d2ff070010c3b30020
:104a4800d0ff0700a0c3b300ceff07001e00fb0085
:104a5800801f7800006e2900801f7800e7f10700aa
:104a6800e4875700a0c3b300c6ff07009e0090006c
:104a7800811f7800006e2900801f7800dff1070091
:104a8800e4875700a0c3b300beff070020c3b300ec
:104a9800bcff0700a0c3b300baff070030c3b300d0
:104aa800b8ff070060c2b300b6ff07000080fa0035
:104ab800000006001200fa00889fbe004007980018
:104ac800510798006207980073079800040f980030
:104ad80056d0bf000004e0007e0032006e01900056
:104ae800fe0190004e009000de009000f4ef0700f9
:104af800008fbe0080808000918080001e017800b9
:104b08009e01900011f107000002be004080800065
:104b1800518080000001be000400be00e9ef0700dc
:104b28004080880051808800448080005580800043
:104b3800e0808000f180800018c0b3000001be0052
:104b48000400be008ff007000000e00001003c00f8
:104b58000044eb000804e00004003200e08080001c
:104b6800f180800040808800518088004480800067
:104b780055808000c0808000d180800018c0b300bc
:104b88000001be000400be007cf007000000e00049
:104b9800010035000044eb000804e0000400320086
:104ba800c0808000d18080004080880051808800cb
:104bb80020808000318080000001be006e009000df
:104bc800fe009000beef070020079800310798000c
:104bd80060808000718080001e0178009e01900036
:104be800daf007000002be0040808000518080009b
:104bf8000001be000400be00b2ef07000004be00c2
:104c0800a0808000b18080002e019000be0190003d
:104c1800cef007000001be000800be00a8ef0700a4
:104c28000080880011808800048080001580800042
:104c3800e0808000f180800018c0b3000001be0051
:104c48000400be004ff007000000e00001003c0037
:104c58000044eb000804e00004003200e08080001b
:104c6800f180800000808800118088000480800026
:104c780015808000c0808000d180800018c0b300fb
:104c88000001be000400be003cf007000000e00088
:104c9800010035000044eb000804e0000400320085
:104ca800c0808000d180800000808800118088004a
:104cb8006e019000fe0190002280880033808800f9
:104cc80000808000118080000e0990000089be00dd
:104cd800080037006e019000fe01900022808800d5
:104ce800338088006e019000fe01900002808800e9
:104cf800138088004f04be000080fa000000060000
:104d08001000fa00881f7800008fbe002207980064
:104d180033079800440798005507980066079800dd
:104d2800770798001e0178009e0190009282880003
:104d3800a38288002e019000be0190006280880046
:104d48007380880090828000a18280004e019000cc
:104d5800de0190007df00700808088009180880047
:104d680090828000a18280000001be006e00900049
:104d7800fe009000b0ef0700a0808800b180880096
:104d880018c0b3001eb99700aeb997003eb8970097
:104d9800ceb89700fbef07000000e00001003c00e0
:104da8000044eb000804e00009003a003eb997000f
:104db800ceb99700c2808800d38088001eb99700ba
:104dc800aeb99700e2808800f380880001003700c0
:104dd800000000004f0478000080fa000000060080
:104de8000400fa00100798001e0090000000a200be
:104df80000f0a7000000ea000000e9004f00de0014
:104e0800004f78001e4078000004e00008003200df
:104e180056d0bf000004a2000004e00004003200e5
:104e280000808000118080004080880051808800c8
:104e38001e41780061052100824878000080fa0050
:044e48000000060060
:020000040000fa
:104e4c005e10000004000000800000000010000054
:104e5c00200000008000000052100000060000003e
:104e6c00820000000000700042010000621000008f
:104e7c000200000080000000481000000a00000042
:104e8c00800000005a120000ce00000080000000dc
:104e9c00581000000600000080000000ec13000019
:104eac000600000080000000361000001200000018
:104ebc008000000066100000f4010000800000007b
:104ecc00201000001600000080000000641000009c
:104edc000200000082000000010000002813000006
:104eec00880000008200000001000000004e13004a
:104efc004f134e00134e13004e134e00133e13006f
:104f0c000000000000000000000000000000000095
:104f1c00000000000000000000000000000208007b
:104f2c0001017600137713007613760013761300c5
:104f3c007613660013000000000000000000000063
:104f4c000000000000000000000000000000000055
:104f5c0000000200080202009e139f00139e130023
:104f6c009e139e00139e13008e1300000000000081
:104f7c000000000000000000000000000000000025
:104f8c0000000000000000002813500013781300ec
:104f9c000000000000000000000000000000000005
:104fac00f61300000200000080000000d213000085
:104fbc001a00000082000000686a6c00747a4c00d1
:104fcc0000000100000200000400080000100000b6
:104fdc00000020002b2d230030000000f8130000ef
:104fec00020000008200000004000000f213000028
:104ffc000400000080000000b0130000220000003c
:10500c00820000003031320033343500363738003e
:10501c0039414200434445004600300031323300f0
:10502c0034353600373839006162630064656600d8
:10503c0000000000fa1300000200000082000000d3
:10504c0001000000fc1300000200000080000000c2
:04505c000000000050
:020000040000fa
:105060000400fa00000f7800110798009e009000dd
:105070001e00780045f0070000f0a7000000ea00dd
:105080000000e9004f00de00004078000080fa00d8
:10509000000006000800fa00300798000000eb004e
:1050a000000f78000000eb00200798000000eb00e4
:1050b00010079800130037003e0090001040780061
:1050c0000000fb000003b100200798001e009000c4
:1050d0000000e000030032001e007800ea00b90082
:1050e000000f78002e0090001e0f40001e00900060
:1050f0000000e800100798003e0090000000e80063
:10510000300798003e009000104078000004e00056
:10511000e9ff3a001e0078000080fa000000060057
:105120000c00fa00881f780040079800510798008b
:105130004e009000301f7800201778000000eb0030
:105140002007980010002000300798001a00370050
:105150003e0090004200dd00ce0090000080400044
:10516000900090001000780018c0b3001e01780075
:105170009e01900003ef07000000e00001003500f1
:105180000044eb000804e000080032003e009000fc
:105190004200dd00ce00900000804000301f78000b
:1051a00020177800be009000210798003e00900074
:1051b0000000e80030079800be0090005e009000fc
:1051c000808f5000e2ff39002e0090004f047800dd
:1051d0000080fa00000006000400fa00004f78008a
:1051e00011479800120798001e80fb00c800dd00e0
:1051f0001e4090000080fb0000804000800078008e
:105200001e009000010878000080fa0000000600ef
:105210000600fa00000f7800110798002207980096
:105220001e0078004800de00804078001e009000dc
:10523000014878001e007800804078002e00900021
:10524000014878000080fa00000006000200fa0021
:10525000000f78009e007800818288000040eb00fb
:105260003700070021e3a9002143a80001198000ad
:10527000f0cf2f0000806000001988002083a90073
:1052800001198000f0f12f00008060000060a00094
:10529000001988002043a80011198000f0ff2100a8
:1052a00000806000101988002343a80011198000b5
:1052b000f0cf2f00008060001019880011198000c5
:1052c00030f82f0000806000c000b3001019880083
:1052d00025e3a8003303a9004119800000fe2f0038
:1052e000008060004019880028e3a9002e23ef0009
:1052f000f000200080198800f0ff2300700888006b
:1053000013e1a90091088000f0fc2f0000806000ec
:105310000050a0009008880001a8a9003142800038
:10532000f0f82f0080806000000320000100700072
:105330003042880021a8a8000080fa000000060082
:105340000200fa00004f78001e4078000004e000e0
:105350000e0032000e0ea8000e2ea8001e0ea80091
:105360001e2ea800000ea800002ea800100ea800f7
:10537000102ea80021e3a800805720000100200083
:10538000b000070013e1a800040037000e2eef0064
:105390001e2eef0013e1a90021e3a9000080fa000e
:1053a000000006000200fa00000f78001e007800de
:1053b0008000eb0092ee0700f2262100330024006b
:1053c000e4ee070002002000035824001cee070052
:1053d0000080fa00000006000000fa0040a7a900c3
:1053e000113a8000f08f2f00008060000080a00044
:1053f000103a880042e7a90042c7a9004207a80066
:1054000000000000113a800000002700808060004a
:1054100000002100808f5000faff3a004fe7a800fb
:105420004f87a900713a8000f00f2f0000806000c4
:10543000703a88000080fa00000006000000fa00c0
:1054400045e7a9004587a90045a7a90045c7a900c8
:105450004567a9004507a9004527a9004547a900b8
:1054600044c7a90044e7a9004407a9004427a900ac
:105470004447a9004467a9004487a900313a800045
:1054800000e02f0080806000a00420000100700078
:10549000303a88000080fa00000006000000fa00a0
:1054a000002eef000e2eef00022eef00102eef0068
:1054b0001e2eef00122eef000080fa000000060002
:1054c0000000fa00c028ef00c428ef00c628ef0053
:1054d000c1e8a9000080fa00000006000200fa00fe
:1054e000004f78001e4078000004e0000700320002
:1054f00011028000f0f12f0000806000100288008f
:105500004460a900c3e8a80005003700110280002c
:10551000000e20000100700010028800c3e8a900fe
:105520000080fa00000006000000fa000040eb00d6
:10553000190007006382a9006362a9006342a80002
:105540006302a80062c2a90062a2a8001113800031
:1055500030fe2f00008060001013880011138000bf
:10556000c0ff2f00008060001013880065e2a900d2
:105570006402a9000428a90081428000f0f82f00ed
:10558000008060000050a000804288002428a8000d
:105590000080fa00000006000200fa00004f7800c8
:1055a0001e4078000004e00017003200114ea900f0
:1055b000116ea900008ea900028ea800413480005f
:1055c000f00f2c008080600000902000010070002f
:1055d000403488004134800000fc2f0000806000cf
:1055e0000030a000403488006136800000f82f00b1
:1055f00080806000c00220000100700060368800da
:1056000061e2a8000100370061e2a9000080fa0011
:10561000000006000200fa00000f78000000000001
:1056200010708000700060000000e000fcff32009d
:10563000028ea9009e007800411388000080fa00c5
:045640000000060060
:020000040000fa
:10564400f03fb1000180b10006003500ee0309000f
:1056540000000000403fb1000180b100fbff3d00ad
:105664001000b000203fb0000200350000800900a7
:08567400000000000000060028
:020000040000fa
