:020000040000fa
:080000000002040000000000f2
:020000040000fa
:04000800620400008e
:020000040000fa
:04000c00620400008a
:020000040000fa
:040010006204000086
:020000040000fa
:040014006204000082
:020000040000fa
:04001800620400007e
:020000040000fa
:04001c00620400007a
:020000040000fa
:040020006204000076
:020000040000fa
:040024006204000072
:020000040000fa
:04002800620400006e
:020000040000fa
:04002c00620400006a
:020000040000fa
:040030006204000066
:020000040000fa
:040034006204000062
:020000040000fa
:04003800620400005e
:020000040000fa
:04003c00620400005a
:020000040000fa
:040040006204000056
:020000040000fa
:040044006204000052
:020000040000fa
:04004800620400004e
:020000040000fa
:04004c00620400004a
:020000040000fa
:04005000c6030000e3
:020000040000fa
:040054007203000033
:020000040000fa
:04005800620400003e
:020000040000fa
:04005c00620400003a
:020000040000fa
:040060006204000036
:020000040000fa
:040064006204000032
:020000040000fa
:040068004003000051
:020000040000fa
:04006c002803000065
:020000040000fa
:040070006204000026
:020000040000fa
:040074006204000022
:020000040000fa
:04007800620400001e
:020000040000fa
:04007c00620400001a
:020000040000fa
:040080006204000016
:020000040000fa
:040084006204000012
:020000040000fa
:04008800620400000e
:020000040000fa
:04008c00620400000a
:020000040000fa
:040090006204000006
:020000040000fa
:04009400e60300007f
:020000040000fa
:0400980062040000fe
:020000040000fa
:04009c0062040000fa
:020000040000fa
:0400a00062040000f6
:020000040000fa
:0400a40062040000f2
:020000040000fa
:0400a80062040000ee
:020000040000fa
:0400ac000e0300003f
:020000040000fa
:0400b00062040000e6
:020000040000fa
:0400b40062040000e2
:020000040000fa
:0400b80062040000de
:020000040000fa
:0400bc0062040000da
:020000040000fa
:0400c00062040000d6
:020000040000fa
:0400c40062040000d2
:020000040000fa
:0400c80062040000ce
:020000040000fa
:0400cc0062040000ca
:020000040000fa
:0400d00062040000c6
:020000040000fa
:0400d40062040000c2
:020000040000fa
:0400d80062040000be
:020000040000fa
:0400dc0062040000ba
:020000040000fa
:0400e00062040000b6
:020000040000fa
:0400e40062040000b2
:020000040000fa
:0400e80062040000ae
:020000040000fa
:0400ec0062040000aa
:020000040000fa
:0400f00062040000a6
:020000040000fa
:0400f40062040000a2
:020000040000fa
:0400f800620400009e
:020000040000fa
:0400fc00620400009a
:020000040000fa
:040100006204000095
:020000040000fa
:040104006204000091
:020000040000fa
:04010800620400008d
:020000040000fa
:04010c006204000089
:020000040000fa
:040110006204000085
:020000040000fa
:040114006204000081
:020000040000fa
:04011800620400007d
:020000040000fa
:04011c006204000079
:020000040000fa
:040120006204000075
:020000040000fa
:040124006204000071
:020000040000fa
:04012800620400006d
:020000040000fa
:04012c006204000069
:020000040000fa
:040130006204000065
:020000040000fa
:040134006204000061
:020000040000fa
:04013800620400005d
:020000040000fa
:04013c006204000059
:020000040000fa
:040140006204000055
:020000040000fa
:040144006204000051
:020000040000fa
:04014800620400004d
:020000040000fa
:04014c006204000049
:020000040000fa
:040150006204000045
:020000040000fa
:040154006204000041
:020000040000fa
:04015800620400003d
:020000040000fa
:04015c006204000039
:020000040000fa
:040160006204000035
:020000040000fa
:040164006204000031
:020000040000fa
:04016800620400002d
:020000040000fa
:04016c006204000029
:020000040000fa
:040170006204000025
:020000040000fa
:040174006204000021
:020000040000fa
:04017800620400001d
:020000040000fa
:04017c006204000019
:020000040000fa
:040180006204000015
:020000040000fa
:040184006204000011
:020000040000fa
:04018800620400000d
:020000040000fa
:04018c006204000009
:020000040000fa
:040190006204000005
:020000040000fa
:040194006204000001
:020000040000fa
:0401980062040000fd
:020000040000fa
:04019c0062040000f9
:020000040000fa
:0401a00062040000f5
:020000040000fa
:0401a40062040000f1
:020000040000fa
:0401a80062040000ed
:020000040000fa
:0401ac0062040000e9
:020000040000fa
:0401b00062040000e5
:020000040000fa
:0401b40062040000e1
:020000040000fa
:0401b80062040000dd
:020000040000fa
:0401bc0062040000d9
:020000040000fa
:0401c00062040000d5
:020000040000fa
:0401c40062040000d1
:020000040000fa
:0401c80062040000cd
:020000040000fa
:0401cc0062040000c9
:020000040000fa
:0401d00062040000c5
:020000040000fa
:0401d40062040000c1
:020000040000fa
:0401d80062040000bd
:020000040000fa
:0401dc0062040000b9
:020000040000fa
:0401e00062040000b5
:020000040000fa
:0401e40062040000b1
:020000040000fa
:0401e80062040000ad
:020000040000fa
:0401ec0062040000a9
:020000040000fa
:0401f00062040000a5
:020000040000fa
:0401f40062040000a1
:020000040000fa
:0401f800620400009d
:020000040000fa
:0401fc006204000099
:020000040000fa
:040200006204000094
:020000040000fa
:040204006204000090
:020000040000fa
:04020800620400008c
:020000040000fa
:04020c006204000088
:020000040000fa
:040210006204000084
:020000040000fa
:040214006204000080
:020000040000fa
:04021800620400007c
:020000040000fa
:04021c006204000078
:020000040000fa
:040220006204000074
:020000040000fa
:040224006204000070
:020000040000fa
:04022800620400006c
:020000040000fa
:04022c006204000068
:020000040000fa
:040230006204000064
:020000040000fa
:040234006204000060
:020000040000fa
:04023800620400005c
:020000040000fa
:04023c006204000058
:020000040000fa
:040240006204000054
:020000040000fa
:040244006204000050
:020000040000fa
:04024800620400004c
:020000040000fa
:04024c006204000048
:020000040000fa
:040250006204000044
:020000040000fa
:040254006204000040
:020000040000fa
:04025800620400003c
:020000040000fa
:04025c006204000038
:020000040000fa
:040260006204000034
:020000040000fa
:040264006204000030
:020000040000fa
:04026800620400002c
:020000040000fa
:04026c006204000028
:020000040000fa
:040270006204000024
:020000040000fa
:040274006204000020
:020000040000fa
:04027800620400001c
:020000040000fa
:04027c006204000018
:020000040000fa
:040280006204000014
:020000040000fa
:100400004f2c21000eff27000e0188000000000085
:10041000000020000000e000020032000001200087
:1004200020028800140007009d0107000000e00082
:1004300003003a00c04623000100200002003700fc
:100440000000200001002000810f70000100320038
:100450000f000700000020000000e0000200320052
:100460000000020000000000e8260200000000007a
:100470000040da000000fe00a01520000000e000af
:1004800002003200002020009001880000000600d9
:10049000a1028800800478000000eb001f003700f4
:1004a000e284440054a0b4009905ba00e2844400f8
:1004b00054a0b4009906ba00e284440054a0b400e9
:1004c0000006eb00476fde00fd07b200ae018800ba
:1004d000636ce10003003a000ad801000000eb0061
:1004e0000e003700606ce10008003a00004deb00a0
:1004f0000a05e800020039003420ec000af0a000f0
:100500008b05e900f9ff3e00040037006168e10057
:10051000010032000086eb000b00070019c7ba008b
:100520000e04e0001905ba0003003a000a00e000da
:10053000dbff3a0000000600fe07b200ae028800b2
:100540008a047800f5ff37000cd0a300e20f4d00bd
:100550001c00390089027800354dba000a05e80010
:10056000020039003420ec000af0a0008b05e900fd
:100570000f003200254dba000a05e80002003900dc
:100580003420ec000af0a0008b05e90008003200de
:100590000c00e0000600320015cdba000a05e800a4
:1005a000020039003420ec000af0a0008b05e900bd
:1005b0008984e80054a0b4000b00e000e2ff3a0098
:1005c000000006009902ba00055d78008b05e9007d
:1005d000f7ff3200c82ade00055d78008b05e900d0
:1005e000f3ff32000c00e000f1ff320019ddba0029
:1005f000eeff3700383604000000000090250400ac
:1006000000000000fc08040000000000f6130400d5
:10061000000000000000040000000000801f7800bf
:100620000000fa0020408000620060000000e0004e
:100630000400320013aea80040138000008588003b
:100640000428a9000080fa004f007800004006004e
:10065000801f78000000fa001040800062006000f7
:100660000000e0000300320010c0b30083f0b700c8
:100670000228a9000080fa004f0078000040060020
:100680003600f800809fbe00829fbe00849fbe009f
:10069000869fbe000000fa001040800061006000ec
:1006a0000000e0000800320010c0b30082f0b70084
:1006b0000208a900cf0a0700e0838000e60f50007f
:1006c00001003a00cb0a07000080fa004f03be0089
:1006d0004f02be004f01be004f00be003600f900c1
:1006e000004006003600f800809fbe00829fbe00da
:1006f000849fbe00869fbe000200fa000140800079
:1007000000802000008060000000e000180032003f
:1007100030118000004f78000168a900101180009e
:10072000640060000000e000020032009a70ef00f8
:100730000f00370010118000620060000000e00030
:10074000090032000040eb002c160700800b20004f
:10075000010020004e1b070010c0b3002716070041
:100760009a70ef00020037001e407800e315070082
:100770000080fa004f03be004f02be004f01be00d2
:100780004f00be003600f90000400600809fbe000a
:100790000000fa000140800000402000008060005e
:1007a0000000e000060032004012800000407800a7
:1007b000a4f0b70010c0b300a5f0b7000148a9002d
:1007c0000080fa004f00be00004006003600f8002e
:1007d000809fbe00829fbe00849fbe00869fbe0099
:1007e0000200fa00114080000080200000806000bc
:1007f0000000e0002c0032001070800061006000fa
:1008000000f0a7000000ea000000e9004f00de0051
:10081000004078000080fb006100600012708000e2
:10082000e1ff2f008100610001007000107088005e
:1008300055170700e7170700d1838000010040002b
:10084000d08388001a180700000f7800c08380004a
:100850009e007800808f5000020036009e007800d5
:10086000b18388009e007800c18388008083800067
:100870000000e8008083880081838000800c2000d5
:10088000808f5000070036007030ef00d08380006a
:10089000a08388007a30ef007830ef0010c0b300fa
:1008a00068f0b7000368a9000080fa004f03be009b
:1008b0004f02be004f01be004f00be003600f900df
:1008c000004006000040da000000fe000a00fa00c6
:1008d00011002000b1bf9f00c0bf9f006a80570079
:1008e000790807004fb897000080fa000000060062
:1008f0000a00fa00e20f500034003e00009680002b
:10090000e10f500003003200e20f500011003a00e6
:100910000c003700032220000300e00001003a0031
:100920000040da002002e200020035002822ef0039
:1009300021e2a8002342ab000d003a002342a800a8
:100940000b003700032320000300e00001003a0001
:100950000040da003002e200020035003822ef00e9
:1009600031e2a8003342ab0001003a003342a80054
:10097000820178000b0037003102fb00e10f5000cc
:1009800004003a002322ab00feff3a002411880045
:10099000030037003322ab00feff3a00a4118800a9
:1009a0008301e9000300e000f3ff3a00e10f50008b
:1009b00003003a002302ab00feff32000b003700b9
:1009c0003302ab00feff3200080037003300200086
:1009d000b3bf9f00c0bf9f00d1bf9f00e2bf9f0079
:1009e0006a8057003a0807006fb997000200780044
:1009f0000080fa00000006000a00fa005100200002
:100a0000b1bf9f00c0bf9f006a8057003208070037
:100a10005fb897000080fa0000000600889fbe00c3
:100a200080047800109680000000e00004003a0086
:100a30000e0007000084eb000000e0000800350015
:100a4000189680000900e00005003200090044000b
:100a5000060007000000e00001003d000084eb00fc
:100a6000080078004f04be000000060080007800f7
:100a70000100e00003003a0000002000109688000a
:100a8000000005000080eb0002002000828f500073
:100a900002003e00119688000000eb0000000600f6
:100aa0000000050003f0a200889fbe008a9fbe00e0
:100ab0008c1f7800e3000700ea0033006450e10077
:100ac0004f0032006420e1005200320003826c00cb
:100ad00007003b000905d0000306d000820f540038
:100ae0000c065d0002003900020032008901780026
:100af000030678008582550004003d000003fd00d8
:100b00008103fd008502ea008b854200840f72009c
:100b100002003b0060001000e08018006011b80087
:100b20000005eb007a28e1000a0039000600780091
:100b3000c75ddd00f707b200878075002d00370024
:100b4000828171000a017800610560008180d10016
:100b50000080d3008502e900f9ff3b000604400055
:100b60008784480002003b0060041400e0841c00fd
:100b70000988a300070032008a8171008281710018
:100b8000610164008904d1000884d3008b05e8006a
:100b9000170037000978a30013003a000b00e000ab
:100ba000130034008b05e9000804440089844c00dc
:100bb0000a4474000978a3000d003a000b00e0001d
:100bc000070034008b05e9000804440089844c00c8
:100bd00001003a000b0020000978a300f7ff320063
:100be0000001eb0002003700828171000a017800e9
:100bf000590007000cf0a70001f0a000a200370088
:100c00006420e10002003a00838f6c00a2003300f0
:100c10000801be000200be009b003700839f6800f1
:100c20000100e00002003d0060001000e0801800bc
:100c30000300e00002003d0060011100e0811900a6
:100c4000cc0007004f00e00002003b0060001000f5
:100c5000e08018000000060014002000d5003700d6
:100c60000001be00620007000470a70003f0a100ad
:100c70006509b100160032000d0035006828e1005a
:100c800006003500f0ff2f00f1ff27000300e00011
:100c900013003b0001002800000005000000400098
:100ca000818048008502e900fcff3a000800370017
:100cb000f88f420002003c008000eb0000000500bd
:100cc0008100d1000080d3008502e800fcff3a00db
:100cd0000300e00002003b0060001000e08018000c
:100ce000000006000001be00410007000470a700dc
:100cf00003f0a10003f8a30013003a006509b10056
:100d000010003200090035006928e10002003500ba
:100d1000010028000000050000004000818048001c
:100d20008502e900fcff3a0000000600f88f42004f
:100d3000050035008100d1000080d3008502e80065
:100d4000fcff3a00000006008000eb0000000500f8
:100d50006011b800b20037008100200061805500aa
:100d60000b003d000b00200061fe2f000100e100a0
:100d70001d00340082817100610164008904d1008a
:100d80000884d3000000e800faff3a007100200058
:100d9000610064000300700002006000090032007e
:100da00061044400e0844c000988a500050032007d
:100db0008b05e8006808e10002003a008904d100d0
:100dc0000884d300f20f20000258e10005003d0026
:100dd000c75ddd00f907b200898075000800780062
:100de000000006000bf827008b00780000000500cb
:100df000c70ade00f107b200f50fb20008003200aa
:100e0000e1cf4200020032000170a0002400050082
:100e1000810f700001003200040805004400050045
:100e2000810f700002003a00140005008502e900fd
:100e30000000400081c04800fcff3b000170a000a2
:100e4000240005000004be00e9ff07000003be0007
:100e50000405be000200be00e5ff0700844f7500d8
:100e6000000006000200be006450e10005003600ec
:100e70006420e100020036000968a30001003a0086
:100e80000800be000160a0004f0678004f05be00bc
:100e90004f04be0000000600f0ff2f00f1ff270006
:100ea000f9ff3700889fbe008a9fbe008c1f780024
:100eb000e4ff0700ebff330003866c006450e100a1
:100ec000240032006420e100270032006150e1007c
:100ed000220032006120e100210032008b854200b7
:100ee000eb07b1000134b800003ab8000804420032
:100ef00089844a00013ab8000030b8008880400078
:100f000009014a00040033000000400081804800cd
:100f1000020149008b05e900c909dd008301700069
:100f20000100320013002000c814de004814dd0068
:100f30004709de001200b200c808de000884700015
:100f400085ff070001f0a1000cf0a70001f0a00050
:100f5000cdff37006120e100cfff32000801be0065
:100f60000200be00f7ff37006150e100fcff3a00cd
:100f7000c9ff37006022b800060220000000d00040
:100f80008180d2000482d2008582d2000000a000bd
:100f90000202520083825a00030031000202420022
:100fa00083824a000000a1000603e900f3ff3a0033
:100fb00000000600889fbe008a9fbe00841f780044
:100fc000a0ff07004f00780011003300f0ff2f0052
:100fd000838f6c0006003b00040565000a00a70033
:100fe0000800370009f0a6001000200008003700b4
:100ff000820f5400838f5c00030039001000200032
:1010000001003e000000200009f0a7000000ea00f7
:101010004f05be004f04be000000e00000000600c7
:10102000889fbe008a9fbe0000827000040271008b
:1010300004827100260032000004be000200be00df
:101040006011b8006b092000950220000182cf00da
:101050000a0039000541b1000082cf0007003900c5
:101060000541b1000982cf00040039000541b100fb
:101070000882cf00010039000541b100054252004d
:10108000120032000a003b0082817100610164009d
:101090008100d1000080d3008984d3000884d3006c
:1010a0008b05e8000442e800f7ff3a00070037002c
:1010b0000804440089844c000000480081804800f6
:1010c0008b05e9000442e900f9ff3a0022ff07001e
:1010d0004f05be004f04be0000000600e1192100cc
:1010e0006a020700800078000080eb000100e00049
:1010f00004003500e1192100a000200018000700bd
:101100004f80de0000000600020037000204e0000d
:101110000b00320081017800000278003041780035
:10112000b14f5100f9ff3200100020001442780046
:10113000934f5200030031000080eb0000000600d6
:101140000000eb000000060080007800010178003c
:101150003104e000fdff3a000000510000000600ed
:10116000889fbe008a1f78000004be00c90090005e
:1011700069009000808f5000050039000900780058
:10118000050307008080eb000000e000160035003a
:10119000084578004900900008587800c00498007d
:1011a0001900780000b8a30004003a0000a8a300ca
:1011b00007003200ea4f540005003a0009007800a9
:1011c000f70107008080eb000000e00006003a0015
:1011d00000c02000190060000200320049009000a9
:1011e000e00498008a80fb00010078004f05780039
:1011f0004f04be0000000600889fbe000004780077
:1012000001007800820478008801780009017800e4
:101210001100200065020700890f50000100320014
:101220000004eb00080078004f04be000000060038
:101230000000fa00e88157004fb99700e11921003a
:10124000c08f2000020007000080fa0000000600a6
:101250006200fa00889fbe008a1f780000057800af
:1012600081047800020478008300780080f92f0060
:101270000f004000080507009a979f00a9979f005c
:101280000000eb00b09f9f001885fb008a04fb0064
:101290000a05ea004f55de0050022000808f5400fe
:1012a0000d003200e10f55000b003a000a017800f2
:1012b000880078002f9097009f919700030001000d
:1012c000a0979f000000e0008e0032003f9897003a
:1012d0000000e800b09f9f000a0444005002200074
:1012e000808f5400040032000900e000e6ff3a005d
:1012f0003f989700840037000000eb00909f9f000c
:10130000809f9f00f0979f00e0979f00d0979f00dd
:10131000c0979f0007003700a1292100010050005d
:1013200000004000e1282100808040005f98970085
:1013300011007000d09f9f00880478000904780095
:10134000384578008a00fb00a02921007c020700b4
:101350000000e000f0ff3a00a1c2b300814f550049
:101360000e003a00cf8897000180e900c08f9f00ef
:1013700010007800c09f9f000000e00005003d00c5
:101380000000ea00c09f9f005f9897000020a00027
:10139000d09f9f000904e8000f003700c09f9f0006
:1013a0000000eb0005003700f2ff2700820f50001d
:1013b00002003200ea00b900008040000904780011
:1013c00088047800b900fb000103b100e98f5000e8
:1013d000f5ff3600c09f9f00e0c2b300984f100099
:1013e000020032000080eb0019003700a0c2b300f9
:1013f000d84f100007003a00cf8897000180e9001d
:10140000c08f9f0010007800a09f9f000804e80094
:10141000100037000000eb00a09f9f0088007800bc
:1014200005003700f3ff2700830f50000200320051
:10143000ea00b9000000410001047800880078004b
:101440003101fb000203b100e90f5100f5ff360046
:10145000a09f9f00984478008900fb00602821002d
:10146000370207000000e000020032000804e80034
:10147000010037008044eb00c97f9f0080c6b300a5
:1014800080cf540004003a0098cf14000a003a00bc
:101490006640500006003700c0c6b30080cf54003d
:1014a00005003a0098cf140003003a006540400060
:1014b000c07f9f000804e8001801fb00e3fb2f0039
:1014c0008f81410081f92f008f804000a0f92f000b
:1014d0000f004000100007000000e00009003a0083
:1014e000e1fb2f008f804000a0f92f000f0040008b
:1014f000ad0307000000e000020035000804e8002a
:1015000061ff37000080eb004f0578004f04be00fc
:101510000080fa0000000600889fbe008a9fbe007f
:10152000e4c6b300844f5100ce00320010003c00ee
:101530006b425200844f51001800320005003c00fd
:1015400054c2b300844f51000601320084c5b30079
:101550000f00370044c6b300844f5100150032001d
:1015600065424200844f510001013a0011003700ea
:1015700004c7b300844f5100ed0032005f00350016
:1015800065424200844f51005c00320063424200d9
:10159000844f5100f6003a00580037001181e900ed
:1015a00082087800f0009000818141009249780023
:1015b000f500370020629000c5c6b300854f520089
:1015c00008003a0091027800648252008408780092
:1015d00094029000140278004fabde00860378007e
:1015e0001600370015c7b300854f520003003a00bc
:1015f000110478006802540005003700a5c6b30046
:10160000854f520008003a00910478006882540027
:10161000840878009402900024039000b4039000a2
:1016200014027800050037001182e9008408780070
:1016300014027800cfa2de00612bb9000498be002e
:101640000690be00a060900088c6b30088cf50000e
:101650000d00320028c6b30088cf500004003a00c5
:101660000402fb00cfa2de00612bb90008003700a6
:1016700048c7b30088cf50000300320066444400de
:1016800088cf500004003a00cfa2de00612bb900e1
:101690000498be000690be001002780090029000f0
:1016a00020039000b0039000f0009000e00f520083
:1016b000e08f5a00e00f5b00e08f5b0003003d000d
:1016c00001824100d5c2b3000a0037000012900029
:1016d0000418a3000300320001824100b5c2b30028
:1016e000040037000408a3005900320001824100c1
:1016f00005c2b300054a780053003700206290000d
:10170000c5c6b300854f520009003a0011057800a4
:101710006402550084087800140478009404900052
:101720006055b8000802be000a03be00160037006c
:1017300015c7b300854f520003003a0091047800aa
:101740006882540005003700a5c6b300854f5200db
:1017500008003a00110578006802550084087800f6
:101760009402900024039000b403900014027800c7
:10177000050037001182e90084087800140278001f
:101780008002eb006033b8000498be000690be00f3
:10179000a060900088c6b30088cf50000d003200d2
:1017a00028c6b30088cf500004003a000482fb0032
:1017b0008002eb006033b8000800370048c7b30070
:1017c00088cf5000030032006644440088cf5000a8
:1017d00004003a008002eb006033b8000498be00b9
:1017e0000690be00801090000138a300180032005f
:1017f000100278009002900020039000b003900047
:10180000e00f5200e08f5a00e00f5b00e08f5b00ba
:101810000f00320081c7b300814f51000300320036
:1018200081c5b300814f510009003a00f0009000db
:101830000182410005c3b300054a78008100e80039
:1018400001824100024a78008100e800710098009e
:10185000f000900081814100630098008240780090
:101860003e003700a0619000c4c6b3001181e900ba
:1018700084cf5100220032000a003c006442520032
:1018800084cf51002500320004c2e80084cf51000b
:10189000130032006842520084cf51001e003a000b
:1018a0000a00370044c7b30084cf51001b00320048
:1018b0006642420084cf5100180032006942520053
:1018c00084cf510014003a000500370082087800e8
:1018d0009200780040589000804878002c00370033
:1018e0008208780092007800600a9000cfa2de00a3
:1018f000612bb9008498be008690be00240037009a
:10190000820878009200780060099000cf91de0094
:101910008288be001e0037001181e900820878002d
:101920009200780060089000800878001800370066
:101930001181e9008208780012027800cfa2de004f
:10194000612bb9000498be000690be00f000900024
:10195000818141006300980081c7b30055010700f1
:101960000b003700f0009000818141000500370036
:10197000f0009000818141000204e00001003a0083
:1019800052c2b300824978008100e80071009800db
:101990000000eb004f05be004f04be000000060033
:1019a000889fbe008a1f7800000478000800e000cd
:1019b0000d003a00c81e2100700544008004eb00b1
:1019c000580078000000e00004003200f4ff070037
:1019d0000000e00001003d008084eb008a0f54000d
:1019e000f7ff3a00250037000000220018006000d1
:1019f0008004eb0021003200a80490000f003700a3
:101a000009015100384090000000fb008900780077
:101a1000b7fb07000000e00007003c002800900032
:101a20004004980060049800500c98001890a000a2
:101a30008084eb001100370080844400480190004e
:101a4000828f5400eeff3900280090004004980077
:101a50009800780002c020000281600001003a0076
:101a60003800900001e8a3000200320060049800f2
:101a700001003700500c98008004eb00090078004a
:101a80004f0578004f04be0000000600889fbe008e
:101a90008a9fbe0080047800010478002c00370083
:101aa000c800900068009000808f5000040039004a
:101ab00008007800b80007000000e000370035009b
:101ac000004020001800600009003200a100200042
:101ad00009007800a6000700800578000b00e000f0
:101ae00003003200618514000a85450004003700b8
:101af0000900780094fd0700000578008005eb00e0
:101b000048009000e8009000808050008a8f5000cc
:101b100002003100010578008005eb000a01780021
:101b2000890078007f000700480090000a0040000c
:101b3000400498000b00e000040032000800780028
:101b400097ff07000000e00014003a008a84440078
:101b50001904e000d2ff3a00008020001800600065
:101b600006003200080078008dff07008000780032
:101b70000080eb000100e00009003a0001c02000f5
:101b8000988060000000eb000500320048009000e3
:101b9000600498000000eb00010037000080eb00bb
:101ba0004f05be004f04be0000000600889fbe0027
:101bb0008a9fbe008c9fbe008e1f780000067800b2
:101bc0000104780002007800830478008881b9005d
:101bd000020778000e00e000420032000800e0003a
:101be000410032008e057800c90090006900900025
:101bf000808f50000400390009007800660007005b
:101c00000000e000290035000040200019006000bd
:101c10000a0032000b017800a10020000c007800bf
:101c200036000700800678000d00e0000600320054
:101c3000610516000a854600040037000b05780090
:101c40008006eb00010037000b057800490090008a
:101c5000e9009000808050008a8f5000020031001f
:101c6000010578008006eb000a0178008c007800fe
:101c70002c0007008a855500490090000a004000aa
:101c8000c00498000d00e000040032000900780054
:101c900043ff07000000e00004003a000b00e000f2
:101ca000020032000a064600cfff37000080200005
:101cb00019006000020032000900780038ff0700b8
:101cc00000c02000190060000200320049009000ae
:101cd000e00498008b055700110009008885d800a2
:101ce000010037000000eb004f0778004f06be00f0
:101cf0004f05be004f04be00000006000300370081
:101d0000b0cf1000050032000201e9008001780028
:101d10000200e000faff3a0000000500030078002e
:101d2000000006008001780002003700b1597800f9
:101d30000201e9000200e000fcff3a00000006009a
:101d4000020037000304e0000600320000017800c2
:101d500002007800b041780081cf5100f9ff3a00cd
:101d6000010037000001eb000200780000000600cf
:101d70000001eb0000027800b041780081cf5100f3
:101d800001003a00040178000304e000f9ff3a0082
:101d90000200780000000600889fbe008a1f7800bd
:101da00000047800c8009000680190000000eb007b
:101db000828f50003c003900180078002200290072
:101dc00002016000e20f51000700320001202400f0
:101dd0000000e00001003d0001202000008c7000a8
:101de0000080eb0030003700020026000200600097
:101df000820f500009003a0038009000808f500098
:101e00000600390008007800e5fe07008000780031
:101e10000080eb000100e00023003a001805780084
:101e200000c020000000650018003a00a8049000df
:101e30006002200008004000808f540013003a0028
:101e400000202000ec020700200498000000e000c1
:101e500005003a0029049800490498008904e80024
:101e600039049800080037000a60a0000a0c7800c6
:101e70004004980001202000808040003104980038
:101e8000400c9800500c98000702070028009000b2
:101e9000500498003800900060049800000026006c
:101ea000180c70000000eb004f0578004f04be00d6
:101eb00000000600fc874700889fbe008a9fbe0086
:101ec0008c9fbe008e1f78000006780080c5b3008e
:101ed00080cf50000a0032007740400080cf500091
:101ee0000a0032006940400080cf50000b003200f1
:101ef0007025210080bf9f00ae0020000a0037003f
:101f00006224210082bf9f00060037007325210054
:101f100083bf9f008e00200003003700742521003e
:101f200084bf9f000e0120001c0278009c029000dc
:101f30002c039000bc0390000605be000404be0004
:101f400040c6b30080cf500003003200654040001f
:101f500080cf50000b003a00e00f5200e08f5a0093
:101f6000e00f5b00e08f5b0006003d006000b80002
:101f70006011b8000404500085845800060559001b
:101f800087855900e80f5700040032004000200008
:101f9000f00f57003c003a000100370030002000ed
:101fa000e00f5400e08f5c00e00f5d00e08f5d000b
:101fb00004003a00dc0890008d0120000100e000e0
:101fc000070032008e00e900888060008fba970019
:101fd0008180420091407800f1ef9f007d01200058
:101fe000800078008100e900050033008b05d100f6
:101ff0000a85d3008984d3000884d300f9ff370011
:10200000089ebe000a96be00130037008d06e90048
:102010008e00e900848060000fb9970081004100c4
:102020001141780083fd2f008d81410082f77900f6
:10203000800178008301e900050033008783d10027
:102040000683d3008582d3000482d300f9ff3700d2
:10205000049ebe000696be001c0278009c02900002
:102060002c039000bc039000e00f5200e08f5a0058
:10207000e00f5b00e08f5b00930034000d00e00098
:10208000e2ff3c00900037002c60900081c6b30056
:10209000814f50000b00320006003c000004e000bd
:1020a00008003200e6c05000814f500052003a0054
:1020b00004003700c1c6b300814f50004e003a0003
:1020c000230037000800e00004003a005c0890009c
:1020d0008d0120000000e00007003200110009001f
:1020e0000e84d8000fba970001004200104078001b
:1020f000f0ef9f007d012000110009000e84d80040
:102100000b003700110009000e04d8008d06e9000d
:102110008e81b900020454008fb8970008844000f3
:102120009841780082fd2f000d01410083777900ee
:10213000000478000800e000020032000d00e0001a
:10214000f0ff3c00cfc4de00614db900270037002e
:10215000e00f5400e08f5c0004003a005c0890003f
:102160008d0120000000e000080032006171b9001c
:102170000800be005a0207000fba97008000420014
:1021800091407800f1ef9f007d0120006171b9005e
:102190000800be0077fb07000c0037006171b90032
:1021a0000800be009dfa07008d06e90080f1b90025
:1021b000020454008fba97000884420098417800c6
:1021c00082fd2f000d014100837779000004be00dd
:1021d000e00f5000e08f5800020032000d00e000d8
:1021e000eeff3c004fcdde008a057800089ebe0061
:1021f0000a96be0034003700e00f5400e08f5c0008
:10220000e00f5d00e08f5d0004003a005c08900084
:102210008d0120000000e0000a0032006172b90068
:10222000612bb9000800be000a01be00d7020700fa
:102230000fba97008000420091407800f1ef9f00b4
:102240007d0120006172b900612bb9000800be0059
:102250000a01be00c60207000e0037006172b90015
:10226000612bb9000800be000a01be00cb020700c6
:102270008d06e90080f2b900040454008fba97007b
:10228000088442009842780084fd2f000d0242002d
:1022900085777a00009ebe000296be001c0478007e
:1022a0009c0490002c059000bc059000e00f5400a9
:1022b000e08f5c00e00f5d00e08f5d000200340005
:1022c0000d00e000e5ff3c00e80f570010003a0069
:1022d0000c1090000038a3000d003200f78f56005c
:1022e00006003e0080fd2f000d004000ef4078000a
:1022f00000c3b30080cf50000500320002c3b3001a
:1023000071fd2f008d8040008d06e90082f7780076
:1023100078811600120e98006c00900083fd2f004b
:102320008f8141008d8041007efe07001c089000d7
:10233000dc089000810f500006003d000080500036
:10234000000e98000c1090000040a10000169800ac
:102350000f0037000100e0000d003d008c109000e0
:10236000f4806000f08f500009003a007c09900072
:10237000fc009000810051000c0990008280500008
:10238000008050004240a90001003400000e980077
:102390004f0778004f06be004f05be004f04be0039
:1023a000cf01b100000006000400fa00889fbe00c3
:1023b0008a9fbe008c1f7800000478000106780018
:1023c000f80d900078009000808555000808900076
:1023d00080855500180890008085550028089000d9
:1023e0008085550038089000808555004808900089
:1023f000808555000002220090bf9f00000323004b
:10240000a0bf9f00081090000028a30015003a000c
:102410000b00e000130034000b0578008a047800fc
:10242000e20f55000100360029002000c80190008d
:1024300009017800ee805700580090000300010069
:10244000500498000000e0008c0032006808900002
:1024500009004000600c9800090555004240a900a1
:10246000eeff3c00780190000200e0000c00340018
:10247000c80190008c007800580090000300010013
:10248000500498008080eb000000e0007c003200e7
:10249000e80890007800900000804000600c9800f0
:1024a000880c90000900e000110034000905780054
:1024b000e28f5400010036002a002000c80190007d
:1024c0000a017800ec8057005800900003000100da
:1024d000500498000000e000680032006808900096
:1024e0000a004000600c98008a845400edff370019
:1024f000180990000200e0000c003400c8019000b0
:10250000e80090005800900003000100500498007b
:102510008080eb000000e00059003200e8089000e5
:102520001808900000804000600c9800a80c9000f3
:102530000900e0001100340009057800e28f540022
:10254000010036002a002000c80190000a0178002e
:10255000ec805700580090000300010050049800e0
:102560000000e00045003200680890000a004000ca
:10257000600c98008a845400edff37003809900001
:102580000200e0000e003400e800900018089000ff
:1025900080804000c80190005800900003000100b6
:1025a000500498008080eb000000e000340032000e
:1025b000e80890003808900000804000600c980007
:1025c000c80c90000900e0001100340009057800f3
:1025d000e28f5400010036002a002000c80190005c
:1025e0000a017800ec8057005800900003000100b9
:1025f000500498000000e0002000320068089000bd
:102600000a004000600c98008a845400edff3700f7
:10261000081090008000eb000028a3001800320092
:102620000b00e000160034008b04780009057800e8
:10263000e28f5400010036002a002000c8019000fb
:102640000a017800ee805700580090000300010056
:10265000500498000000e000080032006808900074
:102660000a004000600c98008a8454004240a9008f
:10267000eeff3c008000eb00010037008080eb00a3
:10268000010078004f0678004f05be004f04be00e1
:102690000080fa0000000600010878000000060033
:1026a000603f210062003700881f7800c82b21009e
:1026b0001804e00003003a00f9ff070020c0b3004f
:1026c000004c78004f04780000000600889fbe0090
:1026d0000004780008007800b1fc0700800478004e
:1026e0000004200018006000020032002800900062
:1026f0005c0007000000eb002004980038409000c8
:102700000004e000050035000000fb006ff8070042
:102710000000e000010032008084eb0018109000ff
:102720000000e00008003200b3f807000000e000fd
:10273000010032008084eb0018109000490007006f
:102740000000eb0010149800000820001800600042
:10275000150032000001eb006000b8000202d0005a
:10276000e31e210003024200940f140005003a000a
:102770000000400081804800008041000008eb001c
:102780000600370061004000e08048000201e800d8
:10279000e80f5000e08f5800f0ff3a000800780082
:1027a000300007000e003700000c780000c0eb007e
:1027b0003044980060022000080040002004980087
:1027c0004004980050049800400c98006004980061
:1027d000500c98007004980076004400000c98009b
:1027e000090078004f04be0000000600881f780032
:1027f0000004eb006140b800e2ff2f00f3ff2f0060
:10280000ba000700c21f21008000410011007800bb
:102810000000e00001003200acff07000804e800ff
:10282000e80f5400f3ff3a004f0478000000060060
:10283000010020000100e0000900320001008000da
:102840000100e000060032008100e900010088007c
:102850008100d00002008000828040008008780063
:10286000000006000000e0002f003200c0017800e8
:10287000e38f51002c0036000308a3002a003a0021
:10288000d19580000100e00002003200810f50006d
:102890000400310011009800d09588001600370020
:1028a00082007800110190000200e0000200320076
:1028b000800f5100faff3900110278008482400035
:1028c000850f500018003900808f520003003a0035
:1028d0008308420001007800070037000200e00092
:1028e0000300320083014000830f51000e003900c5
:1028f0001200980090009800900090000100e00005
:102900000900320010014000828f500006003a009a
:10291000822b21000009eb00100178001108410012
:10292000910090001100980000000600889fbe00f2
:1029300000047800c19580000100e0000200320030
:10294000010078000d003700d1958000a02b2100f8
:1029500004003700910f5400250036000180e80084
:10296000910090000100e000faff3a0010003700eb
:10297000920f54001e0036000280e800100178001b
:102980000200e000faff3a0011017800d1958000c2
:10299000a02b210004003700910f540014003600d2
:1029a0000180e80091009000828f5000faff3a0009
:1029b000f9958000888f5400010031008804780068
:1029c00009007800360007000000e00004003a002b
:1029d000888f5400050032008904d100f5ff3700cc
:1029e000091878009fff0700d2ff37000000eb00b6
:1029f0004f04be0000000600881f780063044000fa
:102a00000800a1008000eb00800f54002100360078
:102a1000e30f540001003e00480020000800780049
:102a2000c2ff07008000eb000000e0001900320048
:102a3000900078009101780064815100880f510066
:102a400003003100110190000208780007003700f0
:102a5000088140000208780091019000130198005d
:102a6000100178001109140088087800100178001e
:102a70000000eb000200e000040032009201900030
:102a80000300e000010032000280e800c0958800e9
:102a90008180e800010078004f0478000000060003
:102aa000800078000000eb000100e0000500340029
:102ab00001007800d9f70700e10f400001003a005b
:102ac0000000eb000000060000c0da000000060075
:102ad00000c0da000000060000c0da0000000600b6
:102ae00024f907000400be0000000600020ab90035
:102af000001bb9000200b8008100420081004300c1
:102b000000000600889fbe008a9fbe00300442007d
:102b1000b0844a0030054b0090854b006000b10046
:102b20000898be000a90be000440e10005c8e1001c
:102b300006d0e10007d8e100020031006800400043
:102b40001008e8004f05be004f04be00000006005c
:102b5000889fbe008a9fbe001004780090049000f9
:102b600020059000b00590000418540005985c0002
:102b700006185d0007985d00110020000440e10088
:102b800005c8e10006d0e10007d8e10001003900e6
:102b90008000eb00108810004f05be004f04be00ff
:102ba000000006001200fa00889fbe008a9fbe0047
:102bb0008c9fbe00e0b79f00f1b79f0082bf9f00cf
:102bc00093bf9f000605be000404be000000eb009a
:102bd000d0b79f00c0b79f00b0b79f00a0b79f00bd
:102be00090b79f000006eb005fb19700cfb0970051
:102bf000820141003fb097000200e00004003d0068
:102c0000370007007e805700beff07000300370033
:102c1000330007007e805700cdff0700dfb6970026
:102c20000d00e0000c0035006fb29700ffb2970076
:102c30000fbb97009fbb97001000200001002000f1
:102c40006011b800000272008182720002037300fa
:102c5000838373001b0007000c06e80001042000ba
:102c6000810f5600e0ff3a000d00e00004003d0037
:102c70000802be000a03be007e805700a1ff0700c5
:102c80005fa897000000e00005003a001fb297001f
:102c9000afb297003fb39700cfb39700090007008a
:102ca0006fb09700ffb097000fb997009fb99700da
:102cb0004f06be004f05be004f04be000080fa0064
:102cc000000006000100070000000600a4b79f00f6
:102cd000b5b79f00c6b79f00d7b79f00000006009a
:102ce0004f09de0082817100b3b79f004f01de0003
:102cf0008180400082807000a1b79f008fb0970054
:102d00004f09de00000040000200700090b79f00f5
:102d10007fa897004f01de00818040008280700014
:102d200081b79f000d0007004f3ade000000400011
:102d300004007000f0af9f0008000700040242008a
:102d400085824a0006034b0087834b00dfff0700a4
:102d50000802be000a03be00000006002fb2970062
:102d6000bfb297004fb39700dfb397000000060093
:102d7000881f780018002000881f780089ff07004e
:102d80008f87e9004f04780000000600801feb00e9
:102d900084ff07008f87e90000000600889fbe00bf
:102da0008a9fbe00e00f5000e08f5800e00f5900ee
:102db000e08f59000c003d006044b8006055b80039
:102dc0000000540081805c0002015d0083815d0091
:102dd000180020001500070008003d00180007003b
:102de0000004eb00050037000004eb000f000700b3
:102df00002003d001200070018002000dcff070061
:102e00000800e000060032006022b8006033b8001d
:102e10000000520081805a0002015b0083815b0048
:102e20004f05be004f04be0000000600e00f520038
:102e3000e08f5a00e00f5b00e08f5b0000000600af
:102e40006044b8006055b8000402540085825c00fc
:102e500006035d0087835d0000000600889fbe00ba
:102e60008a9fbe008c1f7800e00f5000e08f580052
:102e7000e00f5900e08f59000d003d006044b8009c
:102e80006055b8000000540081805c0002015d00c4
:102e900083815d001c0020000820e10009a8e100fa
:102ea0000ab0e1000bb8e1000d003d00080037005a
:102eb0000006eb00e00f5200e08f5a00e00f5b00cd
:102ec000e08f5b0006003d006044b8006055b8002c
:102ed0000402540085825c0006035d0087835d0068
:102ee000aaff07000c00e000060032006022b800d4
:102ef0006033b8000000520081805a0002015b007c
:102f000083815b004f0678004f05be004f04be0072
:042f100000000600b7
:020000040000fa
:102f140045780000656300007574000065200000ba
:102f2400636f00006d6d0000616e0000643a000084
:102f3400204300005f530000455400005f5600002a
:102f44004f4c00005441000047450000004500007c
:102f5400786500006375000074650000206300005c
:102f64006f6d00006d6100006e6400003a20000087
:102f7400435f000053450000545f000043550000c8
:102f840052520000454e00005400000045780000f5
:102f9400656300007574000065200000636f000025
:102fa4006d6d0000616e0000643a00002043000073
:102fb4005f4c0000434400005f4300004f4e00009c
:102fc40054520000415300005400000045780000b2
:102fd400656300007574000065200000636f0000e5
:102fe4006d6d0000616e0000643a00002043000033
:102ff4005f4c0000434400005f420000524900005f
:1030040047480000544e00004553000053000000a0
:1030140073740000617200007400000046530000e5
:103024004d20000053250000643e0000532500009d
:10303400640a000000560000733d0000256400008f
:103044006d5600000a000000497300003d25000091
:10305400646d0000410a00000000000049320000d5
:10306400435f00004f4b0000004900003243000062
:103074005f4e00004f4b0000004900003243000047
:103084005f4f000056450000524600004c4f0000c0
:103094005700000049320000435f0000434f000026
:1030a4004c4c000049530000494f00004e00000002
:1030b40049320000435f00004e4f00005f410000b2
:1030c400445200005f410000434b000000490000ef
:1030d400324300005f4e00004f5f00004441000097
:1030e400544100005f410000434b000000490000d0
:1030f400324300005f5500004e4500005850000068
:103104004543000054450000445f00004441000072
:103114005441000000490000324300005f550000a4
:103124004e4500005850000045430000544500003f
:10313400445f000041440000520000004932000096
:10314400435f000053540000494c00004c5f0000f2
:10315400425500005359000000490000324300006a
:103164005f540000494d0000454f000055540000d5
:1031740000000000563a000020200000202000003b
:1031840020560000207c00002020000020200000a9
:1031940020560000004900003a20000020200000d2
:1031a400202000006d4100007c2000002020000051
:1031b400202000006d0000002564000000000000d5
:0431c4002c000000db
:020000040000fa
:1031c8000200fa00000f7800401080001e00600026
:1031d80000f0a7000000ea000000ea004f00de004f
:1031e800004078000080fa00000006000000fa00a5
:1031f800e0838000e40f50005d003200e40f5000cf
:1032080005003e000000e0000a003200e30f500015
:1032180034003200f0003700e60f5000ce003200d4
:10322800e60f50008c003900ed0f5000b500320059
:10323800e90037008070ef00402b210011c0b30077
:103248000148780080002000ddff07000004e0004e
:103258000c00320000022000d9ff07000004a20081
:103268000004e00007003200001080008040780071
:10327800202b21000148780030002000e0838800de
:1032880005003700402b2100a1cfb300014878008a
:1032980060002000e083880000402000c8ff07008d
:1032a8000004e00005003200402b2100d1cfb3001c
:1032b8000148780060002000e083880000042000b6
:1032c800bfff07000004e000ba003200402b2100d5
:1032d800e1cfb3000148780060002000e083880057
:1032e800bd00370000022000b5ff07000004e00021
:1032f800070032000010800080407800302b210049
:103308000148780040002000e0838800050037006d
:10331800402b210091cfb3000148780060002000c5
:10332800e083880000402000a5ff07000004e000bb
:1033380005003200402b2100d1cfb30001487800ae
:1033480060002000e0838800000420009cff070044
:103358000004e00099003200402b2100e1cfb300c7
:103368000148780060002000e08388009a00370058
:103378000002200092ff07000004a2000004e00001
:10338800170032000010800080407800202b2100b8
:103398000148780041848000202b210001000100b1
:1033a800502b2100104078000080fb00101088008e
:1033b800000000001000200081ff07000004a200a8
:1033c8000004e000fbff3a000782a8008570ef00c8
:1033d800402b210021c0b3000148780009003700c4
:1033e8000010800080407800502b210001487800b0
:1033f80010c0b30085f0b700402b210031c0b300e6
:103408000148780050002000e08388000040200038
:103418006bff07000004e00005003200402b21008c
:10342800d1cfb3000148780060002000e083880015
:103438000004200062ff07000004e0006100320081
:10344800402b2100e1cfb300014878006000200044
:10345800e08388006000370085d0bf000004a20028
:103468000004e0000e003200602b210010407800bc
:103478000080fb00101088000000000010002000f1
:103488004fff07000004a2000004e000fbff3a0021
:103498000782a800d0002000e083880006003700db
:1034a8000010800080407800602b210001487800df
:1034b80060002000e08388000040200040ff0700f3
:1034c8000004e00005003200402b2100d1cfb300fa
:1034d8000148780060002000e08388000004200094
:1034e80037ff07000004e00038003200402b2100bd
:1034f800e1cfb3000148780060002000e083880035
:103508003500370060002000e0838800004020007c
:103518002bff07000004e00005003200402b2100cb
:10352800d1cfb3000148780060002000e083880014
:103538000004200022ff07000004e00025003200fc
:10354800402b2100e1cfb300014878006000200043
:10355800e0838800200037007c30ef0010c0b30003
:1035680080f0b7002000200015ff07000004e000ed
:1035780004003a000004200011ff07000004e000e6
:10358800050032000010800080407800502b210098
:103598000148780008c2a9005384800090958000f3
:1035a800a1958000b2958000030001000000000092
:1035b8000900370000000000070037000000000085
:1035c800050037000000000003003700000000007d
:1035d80001003700000000000080fa00000006002b
:1035e8000000fa000040eb00390007007e30ef00d1
:1035f80010c0b30081f0b70010c0b30084f0b7006a
:103608008630ef0016cea90016aea90010cea9008c
:1036180010aea9000622ef000822ef00400b2000a0
:10362800201088000228a90041428000f0f82f00ed
:103638008080600000052000010070004042880082
:103648002228a8000080fa00000006000600fa0000
:10365800000f780011079800220798000040eb003f
:103668001b00070016cea90016aea90010cea800b0
:1036780010aea8000622ef000822ef000c22ef008f
:103688009e007800511088007c30ef0010c0b30015
:1036980080f0b70010c0b30084f0b7009e0090001f
:1036a80041848800ae009000518488000208a90077
:1036b8004142800080ff2f00008060005000b3006e
:1036c800404288002208a8000080fa000000060096
:1036d8000200fa00004f78001e4078000004e00065
:1036e8000200320007e2a8000100370007e2a90043
:1036f8000080fa00000006000000fa000622ef0031
:103708000822ef007e30ef0010c0b30081f0b70050
:1037180010c0b30084f0b7007c30ef0010c0b300d5
:1037280080f0b70010c0b30084f0b7002228a900c9
:103738000228a9002228a8002208a9000208a90036
:103748002208a80010c0b300e1ff07000080fa00bb
:10375800000006000200fa00000f780081d0bf00c8
:103768000004a2000004e000040032001e007800fb
:1037780081cfb30021409800f00037008170ef003e
:103788008370ef008630ef001e00780011c0b30090
:1037980021409800e5003700f08380008000eb00ae
:1037a800d200200003002000820f5000838f5800b1
:1037b800cf003e00000601000d003700260037004c
:1037c8002900370061003700800037009f0037006c
:1037d800bf003700c6003700c5003700c4003700f7
:1037e80041003700600037007f0037009e00370037
:1037f80084d0bf000004e000040032008470ef00b1
:1038080010002000f0838800c800370080002000e6
:103818006bfe07000004a2000004e000070032006d
:103828000001200066fe07000004e00003003200eb
:1038380010002000f0838800bc0037001e007800cc
:1038480080c0eb002140980010c0b30081f0b700a1
:103858007e30ef00b50037000602a80020002000e7
:10386800f0838800b100370083d0bf000004e00077
:10387800a30032008630ef008370ef008000200044
:103888004ffe07000004e000100032000001200095
:103898004bfe07000004a2000004e0000b00320009
:1038a8001e007800104078000080fb0000004000f7
:1038b80080007800f00f2000008060001010880061
:1038c800a0002000f0838800980037000642a80076
:1038d80060002000f08388001e00780080c0eb00a4
:1038e800214098009100370083d0bf000004e00019
:1038f800850032008630ef008370ef00000028005a
:103908002ffe07000004a2000004e00008003200b7
:10391800000820002afe07000004a2000004e000be
:103928000300320030002000f08388007f00370059
:103938000642a80060002000f08388001e0078007e
:10394800c1cfb30021409800780037001e007800ee
:10395800104090000080fb0010108800b00020008c
:10396800f08388007100370083d0bf000004e000b6
:10397800670032008630ef008370ef0000002800f7
:103988000ffe07000004a2000004e0000800320057
:10399800000820000afe07000004a2000004e0005e
:1039a8000300320040002000f08388005f003700e9
:1039b8000642a80060002000f08388001e007800fe
:1039c800b1cfb30021409800580037001e0078009e
:1039d800304090000080fb0010108800c0002000dc
:1039e800f08388005100370083d0bf000004e00056
:1039f800490032008630ef008370ef000000280095
:103a0800effd07000004a2000004e00008003200f7
:103a180000082000eafd07000004a2000004e000fe
:103a28000300320050002000f08388003f00370078
:103a38000642a80060002000f08388001e0078007d
:103a4800b1cfb30021409800380037001e0078003d
:103a5800404090000080fb0010108800d00020003b
:103a6800f08388003100370083d0bf000004e000f5
:103a78002b0032008630ef008370ef000000280032
:103a8800cffd07000004a2000004e0000900320096
:103a980000082000cafd07000004a2000004e0009e
:103aa800040032000642a80060002000f08388006d
:103ab8001e0037000642a80060002000f08388003e
:103ac8001e007800b1cfb3002140980017003700de
:103ad80083d0bf000004e000130032008370ef00c1
:103ae8007e30ef0010c0b30081f0b7000f00370040
:103af8007e30ef0010c0b30081f0b7000b00370034
:103b0800000000000900370000000000070037002f
:103b18000000000005003700000000000300370027
:103b280000000000010037000000000081d0bf0045
:103b38000004a2000004e00017ff3a000080fa0029
:103b4800000006000200fa00000f780081d0bf00d4
:103b58000004a2000004e000040032001e00780007
:103b680081cfb30021409800040137008170ef0035
:103b78008370ef008630ef001e00780011c0b3009c
:103b880021409800f9003700f08380008000eb00a6
:103b9800e200200003002000820f5000838f5800ad
:103ba800db003e00000601000e003700270037004a
:103bb8002a003700620037009f003700b500370041
:103bc800cb003700930037007d003700d000370066
:103bd8004200370061003700a5003700bb003700fe
:103be8007b00370084d0bf000004e00004003200ee
:103bf8008470ef0010002000f0838800db0037009d
:103c0800800020006efd07000004a2000004e00010
:103c1800070032000001200069fd07000004e000f1
:103c28000300320010002000f0838800cf00370026
:103c38001e00780080c0eb002140980010c0b3003f
:103c480081f0b7007e30ef00c80037000602a800f8
:103c580020002000f0838800c400370083d0bf0014
:103c68000004e000ae0032008630ef008370ef0001
:103c78008000200052fd07000004e0001000320020
:103c8800000120004efd07000004a2000004e0002f
:103c98000b0032001e007800104078000080fb0006
:103ca8000000400080007800f00f200000806000d5
:103cb80010108800a0002000f0838800ab003700b7
:103cc8000642a80060002000f08388001e007800eb
:103cd800c1cfb30021409800a400370083d0bf00b3
:103ce8000004e000900032008630ef008370ef009f
:103cf8000000280032fd07000004a2000004e000d4
:103d080008003200000820002dfd07000004a20072
:103d18000004e0000300320030002000f083880037
:103d2800920037000642a80060002000f083880057
:103d38001e007800c1cfb300214098008b003700e7
:103d48001e007800104090000080fb0010108800d2
:103d5800b0002000f08388008400370083d0bf00c3
:103d68000004e000720032008630ef008370ef003c
:103d78000000280012fd07000004a2000004e00073
:103d880008003200000820000dfd07000004a20012
:103d98000004e0000300320080002000f083880067
:103da800720037000642a80060002000f0838800f7
:103db8001e007800b1cfb300214098006b00370097
:103dc8000622a800e0002000f08388006700370082
:103dd80083d0bf000004e000570032008630ef00b7
:103de8008370ef001e007800104078000080fb0010
:103df8000000400080007800f00f20000080600084
:103e08000000e8001010880070002000f08388008f
:103e18005600370083d0bf000004e000480032009d
:103e28008630ef008370ef000662a8004000200093
:103e3800f08388004d00370083d0bf000004e00005
:103e4800410032008630ef008370ef0000108000e0
:103e5800804078001e0078003140980006a2a90032
:103e68000682a800c0002000f08388003f003700c9
:103e780083d0bf000004e000350032008630ef0038
:103e88008370ef000662a80050002000f0838800cd
:103e98003600370083d0bf000004e0002e00320057
:103ea8008630ef008370ef000010800080407800bb
:103eb8001e0078004140980006a2a8000682a800cb
:103ec800d0002000f08388002800370083d0bf008e
:103ed8000004e000220032008630ef008370ef001b
:103ee8000642a80060002000f08388001f00370009
:103ef80083d0bf000004e0001b0032008370ef0095
:103f08007e30ef0010c0b30081f0b7001700370013
:103f18007e30ef0010c0b30081f0b7001300370007
:103f28000000000011003700000000000f003700fb
:103f3800000000000d003700000000000b003700f3
:103f480000000000090037000000000007003700eb
:103f580000000000050037000000000003003700e3
:103f680000000000010037000000000081d0bf0001
:103f78000004a2000004e00003ff3a000080fa00f9
:103f8800000006000000fa008040eb000040eb0053
:103f98001b0607007ea89700580507008040eb0025
:103fa80010c0b300160607000eb0970053050700af
:103fb8001eb09700aeb097003eb197002f000700e3
:103fc8004eb09700deb097006eb19700a1000700d1
:103fd8007eb097008eb897001eb99700270007009b
:103fe8002eb89700beb897004eb997009900070001
:103ff8000080fa00000006000800fa002007980078
:10400800310798002e009000301f780020177800a4
:104018001e009000804078001e0078000040780064
:10402800f70507003e009000e10f5000070032003e
:10403800e20f50000a0032000040eb0019060700aa
:104048000040eb003c0607000a00370010c0b30030
:10405800140607000040eb0037060700050037008c
:1040680010c0b3000f06070010c0b30032060700e7
:10407800000000000080fa00000006001800fa00a6
:10408800100f9800210f9800320f9800be0890007a
:10409800010f78002e099000120798009e089000e2
:1040a800d0cc2c000008b8004308de002007980098
:1040b8002e019000d0cc2c000010b8004308de0080
:1040c800ea00b9000000510030079800ae009000e7
:1040d800d0cc2c000008b8004308de002007980068
:1040e8002e019000d0cc2c000010b8004308de0050
:1040f800ea00b9000000510040079800ae009000a7
:10410800d0cc2c000008b8004308de002007980037
:104118002e019000d0cc2c000010b8004308de001f
:10412800ea00b9000000510050079800ae00900066
:10413800d0cc2c000008b8004308de002007980007
:104148002e019000d0cc2c000010b8004308de00ef
:10415800ea00b90000005100600798006e00900066
:104168000000e000080032001e007800804078005f
:104178001e00900000407800a10507006e00900026
:10418800d3040700070037001e007800804078003d
:104198001e009000004078009905070000c2b30097
:1041a800c20407001e0fe8001e0078008040780057
:1041b8001e00900000407800910507005e00900006
:1041c800c30407001e0fe8001e0078008040780036
:1041d8001e0090000040780089050700c0c2b300a7
:1041e800b20407001e0fe8001e0078008040780027
:1041f8001e00900000407800810507004e009000e6
:10420800b30407001e0fe8001e0078008040780005
:104218001e00900000407800790507003e009000dd
:10422800ab040700708480001001780090019000b2
:1042380072079800030f98000e08900080407800dd
:104248007e009000004078006d0507000080fa00ad
:10425800000006001a00fa00200f9800310f98009d
:10426800420f9800ce089000010f78003e09900098
:1042780012079800ae099000230798002e019000bd
:10428800d0cc2c000010b8004308de00ea00b900ca
:104298000000510030079800ae009000d0cc2c00f0
:1042a8000008b8004308de00200798002e0190009f
:1042b800d0cc2c000010b8004308de00ea00b9009a
:1042c8000000510040079800ae009000d0cc2c00b0
:1042d8000008b8004308de00200798002e0190006f
:1042e800d0cc2c000010b8004308de00ea00b9006a
:1042f8000000510050079800ae009000d0cc2c0070
:104308000008b8004308de00200798002e0190003e
:10431800d0cc2c000010b8004308de00ea00b90039
:104328000000510060079800ae009000d0cc2c002f
:104338000008b8004308de00200798002e0190000e
:10434800d0cc2c000010b8004308de00ea00b90009
:1043580000005100700798007e0090000000e00007
:10436800080032001e007800804078001e0090008f
:1043780000407800220507007e00900054040700e2
:10438800070037001e007800804078001e0090006b
:10439800004078001a05070000c2b3004304070074
:1043a8001e0fe8007e0090000000e00003003a00c5
:1043b8006e0090000000e000080032001e00780047
:1043c800804078001e009000004078000c0507002f
:1043d8006e0090003e040700070037001e007800ba
:1043e800804078001e009000004078000405070017
:1043f80000c2b3002d0407001e0fe8007e009000e5
:104408000000e00006003a006e0090000000e000a6
:1044180003003a005e0090000000e000080032004f
:104428001e007800804078001e0090000040780050
:10443800f30407005e00900025040700070037001a
:104448001e007800804078001e0090000040780030
:10445800eb04070000c2b300140407001e0fe800b5
:104468007e0090000000e00009003a006e00900015
:104478000000e00006003a005e0090000000e00046
:1044880003003a004e0090000000e00008003200ef
:104498001e007800804078001e00900000407800e0
:1044a800d70407004e0090000904070007003700f2
:1044b8001e007800804078001e00900000407800c0
:1044c800cf04070000c2b300f80307001e0fe8007e
:1044d8001e007800804078001e00900000407800a0
:1044e800c70407003e009000f903070070848000ad
:1044f8001001780090019000020f9800130f9800a7
:104508001e089000804078000e0890000040780057
:10451800bb0407000080fa00000006000400fa004f
:10452800100798001e0090000000e0003e003200d6
:10453800808480000000e0003b003200808480001e
:10454800e10f50000b003a001e0090000000e00050
:10455800040034007084800030009000708488006b
:10456800310037007084800020009000708488003b
:104578002d0037007084800040009000000f780004
:104588001e0090000000e000160034001e007800b5
:104598009000780040062000808f50000700360009
:1045a8001e00780010007800c1f92f0080804000bc
:1045b8001e007800010878001b0037001e007800f4
:1045c80010007800ea0f5000170036001e0078002f
:1045d80010007800ea0050001e00780001087800fa
:1045e800110037001e007800900078004006200077
:1045f800808f5000070036001e00780010007800f9
:1046080041062000808040001e00780001087800e4
:10461800050037001e00780010007800ea0040000e
:104628001e007800010878000080fa0000000600eb
:104638000000fa0080848000e10f5000030032007f
:10464800e20f50000400320006003700200020006e
:1046580080848800030037001000200080848800d0
:10466800000000000080fa00000006000200fa00c6
:10467800004f7800808480000000e900e10f5000be
:10468800090036001e4078000004e0000f003200e8
:10469800100020008084880070848000818480005d
:1046a80055fe07000c0037001e4078000004a200e9
:1046b8000004e000070032009030ef0070848000b2
:1046c800818480004cfe07000300370000000000d2
:1046d80001003700000000000080fa00000006001a
:1046e8000200fa00000f7800670307009e007800b8
:1046f80061848800c08b290040908800d08c2900f4
:104708005090880022918000339180006290880048
:1047180073908800439180008390880052918000b4
:104728006391800092908800a39088007391800024
:10473800b39088008291800093918000c290880095
:10474800d3908800a3918000e3908800b291800004
:10475800c3918000f290880003918800d391800073
:1047680013918800fc8747007c8057008120210036
:104778000d00090031187800c001b10001fe0700e2
:10478800fc875700c023210010908800c023210017
:10479800209088004022210030908800e01f2100ee
:1047a80000928800e01f210010928800a0222100ba
:1047b800209288009030ef00e01f2100708488006c
:1047c80070848000818480000bfe07000080fa005e
:1047d800000006000c00fa00000f7800110798008e
:1047e8002207980033079800440798005507980057
:1047f800be00900000002800008060000000e0007b
:1048080008003200be009000f0ff27000080600022
:10481800809188008091800091918000a291800011
:1048280016fe0700ce0090000000280000806000ff
:104838000000e00008003200ce009000f0ff2700e2
:1048480000806000b0918800b0918000c191800024
:10485800d29180007ffe07009e0090000000280093
:10486800008060000000e000080032009e00900018
:10487800f0ff2700008060002091880020918000d0
:104888003191800042918000fcfd0700ae0090004d
:1048980000002800008060000000e00008003200ee
:1048a800ae009000f0ff2700008060005091880063
:1048b80050918000619180007291800065fe070030
:1048c80094d0bf000004e0000800320010c0b3001c
:1048d80066ff07007084800081848000c6fd0700a1
:1048e8009230ef009470ef00070037009184800049
:1048f800700c2000808f500003003e0090848000e0
:104908000000e8009084880091848000700c2000ea
:10491800808f5000020036000040eb0053ff070074
:104928000080fa00000006000600fa002007980040
:10493800219180002e009000808f50000e003200e0
:1049480070848000301f780020177800ae00900037
:10495800219188002091800031918000429180004f
:10496800c6fd07001e009000804078001e007800f9
:1049780000407800a20307000080fa00000006004b
:104988000600fa0020079800519180002e00900040
:10499800808f50000e00320070848000301f780035
:1049a80020177800ae009000519188005091800047
:1049b8006191800072918000b0fd07001e00900098
:1049c800804078001e007800004078008c030700c3
:1049d8000080fa00000006000600fa002007980090
:1049e800819180002e009000808f50000e003200d0
:1049f80070848000301f780020177800ae00900087
:104a0800819188008091800091918000a29180001e
:104a18009afd07001e009000804078001e00780074
:104a280000407800760307000080fa0000000600c6
:104a38000600fa0020079800b19180002e0090002f
:104a4800808f50000e00320070848000301f780084
:104a580020177800ae009000b1918800b0918000d6
:104a6800c1918000d291800084fd07001e00900053
:104a7800804078001e00780000407800600307003e
:104a88000080fa00000006000000fa000040eb0079
:104a9800e9090700bd090700a3090700d6090700af
:104aa800de09070010c0b300e30907000080fa0020
:104ab800000006000200fa00004f78001fe1a9007c
:104ac8001e21a9001e61a900f10880000003200032
:104ad80001007000f00888001421ef000009200090
:104ae800d008880061428000f0ff28000080600044
:104af80000c0a000604288000368a9002368a800dd
:104b08001e4078000004e000010032001fe1a80008
:104b18000080fa00000006000600fa00100798005e
:104b28002107980030858000e30f50000200340010
:104b38000040eb00230037000000eb00000f780076
:104b4800110037009e0090001e0078004201dd0031
:104b5800202721000000410010007800808f5000bd
:104b680008003a00ae0090001e0078004201dd0007
:104b780040272100000041000108780010c0b30060
:104b8800100037001e0fe800308580009e00780076
:104b9800808f5000ebff3500308580000000e80072
:104ba8003085880030858000c200dd002027210084
:104bb800008040001e019000ae0190000288be00f7
:104bc80010c0b3000080fa00000006000400fa00dc
:104bd80010079800308580000000e00002003d00ca
:104be8000040eb00190037001e00900092938000ef
:104bf800a39380000288be0010002000000f7800f8
:104c08000b0037001e00e900c200dd00202721004c
:104c1800008040009e0078004209dd002127210025
:104c28008100410031187800211078001e0fe8003b
:104c3800308580009e0f5000f2ff310030858000e3
:104c48000000e9003085880010c0b3000080fa0039
:104c5800000006000400fa00008fbe001e00780065
:104c6800f10f50001c003200f10f500003003e000d
:104c7800f00f500008003200330037000107200011
:104c8800810f50002a00320011072000810f5000c8
:104c9800210032002c0037009e009000f0ff270012
:104ca80080806000f0ff2700008060004293800051
:104cb8000100280081006100010070004093880015
:104cc8004093800000f0a00040938800a07829005d
:104cd80000f107001c0037009e009000f0ff27003d
:104ce80080806000f0ff2700008060005293800001
:104cf80001002800810061000100700050938800c5
:104d08005093800000f0a00050938800907a29000a
:104d1800f0f007000c0037001e00900000407800fb
:104d28002a030700807c2900eaf007000600370004
:104d38001e009000004078003c030700807e290098
:104d4800e4f007000000000010c0b3000080fa0083
:104d5800000006000200fa00000f78001e0078002c
:104d680010017800f1ff2700810061000108780038
:104d78001e00780010019000f1ff270081006100fb
:104d8800110098001e00780020019000f1ff270014
:104d980081006100210098001e0078003001900019
:104da800f1ff270081006100310098001e007800a3
:104db80040019000f1ff2700810061004100980048
:104dc8000080fa00000006000000fa002eff07002d
:104dd80040d42100c1012000ab09070047050700a6
:104de80000592200f0070700df05070040d4210022
:104df800c1012000a40907007230a8009183800037
:104e080030f02f0080806000000a20000100700050
:104e1800908388007310a9007330a8007350a8000d
:104e28007370a90041938000000028008080600012
:104e3800803e20000100700040938800409380006d
:104e480000f0a000409388005193800000002800e3
:104e580080806000803e2000010070005093880030
:104e68005093800000f0a0005093880040d42100a7
:104e7800c10120008409070010c0b3000dff07001e
:104e8800a080290093f0070068d0bf000004e0006c
:104e9800080032006870ef00b2838000a1838000b0
:104ea800508380008201780001017800c10621004a
:104eb800120007005183800060838000808f5000bb
:104ec8000a0032006183800050838000811f7800cf
:104ed800801f780000812900801f7800d2f0070029
:104ee800e68757006083800050838800a183800094
:104ef800508380007a000700e3ff37000800fa00bb
:104f0800000f7800110798002207980033079800cf
:104f18001e0090001e0878001e007800e20f500066
:104f28001c003200e20f500005003e000000e000c7
:104f38000a003200e10f50000c0032006600370012
:104f4800e40f500037003200e40f50002e00390003
:104f5800e50f5000500032005f0037001e0090003f
:104f680011002000010878005b0037002e00900037
:104f78000000e00003003a003e0090000000e0005e
:104f88004c0032001e00900021002000010878002b
:104f9800510037002e0090000000e00007003200aa
:104fa8000000eb00200798001e0090004100200040
:104fb800010878006e30ef00470037003e0090008f
:104fc800e50f500005003a001e0090003100200057
:104fd800010878006e30ef003f00370070838000d2
:104fe8000000e8007083880070838000f80f50008c
:104ff800320036006e30ef001e00900011002000d5
:1050080001087800340037003e009000e50f50009a
:105018002c003a001e0090002100200001087800b2
:105028002d0037002e0090000000e000070032003d
:105038000000eb00200798001e00900021002000cf
:10504800010878006e30ef00230037003e00900022
:10505800e50f500005003a001e00900051002000a6
:10506800010878006e30ef001b0037007083800065
:105078000000e8007083880070838000f80f5000fb
:10508800120036006e30ef001e0090001100200064
:1050980001087800100037003e009000e50f50002e
:1050a8000c003a001e009000210020000108780042
:1050b800090037000000000007003700000000006a
:1050c8000500370000000000030037000000000062
:1050d80001003700000000000080fa000000060010
:1050e8000400fa00000f7800110798001e007800ed
:1050f800e20f5000d9003200e20f500005003e00d8
:105108000000e0000a003200e10f50001c003200ed
:10511800db003700e40f5000d2003200e40f5000eb
:1051280061003900e50f5000b7003200d4003700a5
:10513800d5000700908380000000d1006140600026
:105148000080fb0000f0a7000000ea000000ea0071
:105158004f00de000040780098010700908380002f
:105168004800de006f406000300207009083800036
:105178004200de00f043b20014020700c00037000e
:105188006193800000002800008060000000e000bb
:10519800b6003a00ba0037001e0090000000e00098
:1051a8002100340041938000f0ff27000080600058
:1051b8004106200080804000f0702200808f50005f
:1051c8000f003c0041938000f0ff27000080600042
:1051d8004006b00080007800f0ff27008080600063
:1051e800f0ff270000806000429380000100280043
:1051f80081006100010070004093880006003700bc
:105208004193800000002800808060000071220027
:1052180001007000409388001e0090000000e90023
:10522800100798001d00370041938000f0ff270009
:10523800008060004006b100ea0f50000f00340003
:1052480041938000f0ff2700008060004006b10015
:1052580080007800f0ff270080806000f0ff2700c2
:1052680000806000429380000100280081006100f6
:1052780001007000409388000500370041938000ca
:105288000000280000806000a000b3004093880060
:105298001e0090000000e80010079800409380006e
:1052a80000f0a000409388001e0090000000e0007d
:1052b800b9ff3a0041938000000028000080600098
:1052c8000000e0006b00320041938000f0ff2700ef
:1052d80000806000801f7800d0812900801f78003e
:1052e800d1ef0700e487570041938000f0ff2700c3
:1052f8000080600040938800610037001e00900025
:105308000000e0002000340051938000f0ff2700e7
:1053180000806000ea004000f07c2000808f500090
:105328000f003c0051938000f0ff270000806000d0
:105338006a00400080007800f0ff2700808060004d
:10534800f0ff2700008060005293800001002800d1
:10535800810061000100700050938800060037004a
:10536800519380000000280080806000007d2000ac
:1053780001007000509388001e0090000000e900b2
:10538800100798001d00370051938000f0ff270098
:10539800008060006a005000ea0f50000f003400df
:1053a80051938000f0ff2700008060006a005000e1
:1053b80080007800f0ff270080806000f0ff270061
:1053c8000080600052938000010028008100610085
:1053d8000100700050938800050037005193800049
:1053e8000000280000806000a000b30050938800ef
:1053f8001e0090000000e8001007980050938000fd
:1054080000f0a000509388001e0090000000e0000b
:10541800baff3a0051938000000028000080600025
:105428000000e0001500320041938000f0ff2700e3
:1054380000806000801f780060822900801f78004b
:1054480079ef0700e487570051938000f0ff2700a9
:1054580000806000509388000900370000000000b9
:1054680007003700000000000500370000000000ba
:1054780003003700000000000100370000000000b2
:105488000080fa00000006000000fa007d0707000f
:1054980010c0b300a807070010c0b300c70007007a
:1054a800400107000080fa00000006000200fa0030
:1054b800004f78001e407800ae07070020732000d8
:1054c80001002000f00707000080fa000000060035
:1054d8000200fa00000f78001e00780000407800f3
:1054e8000043b000a307070020732000010020003c
:1054f800e50707000080fa00000006000400fa0033
:10550800100798000000eb00000f78000500370036
:105518001e0090001e00400010407800e3ff0700c6
:105528001e0fe8001e00900005ef07009e0f5000b8
:10553800f7ff3e000080fa00000006001600fa009f
:10554800200f9800e4004700070009008018eb00ce
:105558002e0890000000e00005003d00d0c2b30016
:10556800d2ff07002e0890000000ea00200f9800e4
:105578002e0890000000e000290034000000eb0035
:10558800000f780012003700ae089000a00020003d
:1055980000017800110009008200d8008000fd0099
:1055a800804078001e01780064004100017778008f
:1055b8002e099000706626000090b900c288de00af
:1055c8004f90de0000805000200f98001e0fe8006a
:1055d8002e0890000000e000ebff3a000000eb000e
:1055e800100798001e00e90010079800080037000f
:1055f8001e009000640040006e4078000043b00038
:10560800aaff07001e0090000000e900100798009c
:105618001e0090000000e000f5ff3d00020037008a
:1056280000c3b300a1ff07000080fa0000000600d5
:105638000a00fa00881f78002007980031079800b0
:10564800420798002e009000be00900082ed0700ef
:1056580000007800b9ff07004e0090000000e0004d
:1056680039003200208e2900a4ff070018c0b300bb
:105678006011b8002e009000be00900074ed070085
:105688000000e000010035000044eb000804e000e1
