:020000040000fa
:080000000002040000000000f2
:020000040000fa
:0400080008040000e8
:020000040000fa
:04000c0008040000e4
:020000040000fa
:0400100008040000e0
:020000040000fa
:0400140008040000dc
:020000040000fa
:0400180008040000d8
:020000040000fa
:04001c0008040000d4
:020000040000fa
:0400200008040000d0
:020000040000fa
:0400240008040000cc
:020000040000fa
:0400280008040000c8
:020000040000fa
:04002c0008040000c4
:020000040000fa
:0400300008040000c0
:020000040000fa
:0400340008040000bc
:020000040000fa
:0400380008040000b8
:020000040000fa
:04003c0008040000b4
:020000040000fa
:0400400008040000b0
:020000040000fa
:040044000e030000a7
:020000040000fa
:0400480008040000a8
:020000040000fa
:04004c0008040000a4
:020000040000fa
:0400500008040000a0
:020000040000fa
:040054009a0300000b
:020000040000fa
:040058000804000098
:020000040000fa
:04005c000804000094
:020000040000fa
:040060000804000090
:020000040000fa
:04006400080400008c
:020000040000fa
:040068006803000029
:020000040000fa
:04006c00500300003d
:020000040000fa
:040070000804000080
:020000040000fa
:04007400080400007c
:020000040000fa
:040078000804000078
:020000040000fa
:04007c000804000074
:020000040000fa
:040080000804000070
:020000040000fa
:04008400080400006c
:020000040000fa
:040088000804000068
:020000040000fa
:04008c000804000064
:020000040000fa
:040090000804000060
:020000040000fa
:04009400ee03000077
:020000040000fa
:040098000804000058
:020000040000fa
:04009c000804000054
:020000040000fa
:0400a0000804000050
:020000040000fa
:0400a400080400004c
:020000040000fa
:0400a8000804000048
:020000040000fa
:0400ac003603000017
:020000040000fa
:0400b0000804000040
:020000040000fa
:0400b400080400003c
:020000040000fa
:0400b8000804000038
:020000040000fa
:0400bc000804000034
:020000040000fa
:0400c0000804000030
:020000040000fa
:0400c400080400002c
:020000040000fa
:0400c8000804000028
:020000040000fa
:0400cc000804000024
:020000040000fa
:0400d0000804000020
:020000040000fa
:0400d400080400001c
:020000040000fa
:0400d8000804000018
:020000040000fa
:0400dc000804000014
:020000040000fa
:0400e0000804000010
:020000040000fa
:0400e400080400000c
:020000040000fa
:0400e8000804000008
:020000040000fa
:0400ec000804000004
:020000040000fa
:0400f0000804000000
:020000040000fa
:0400f40008040000fc
:020000040000fa
:0400f80008040000f8
:020000040000fa
:0400fc0008040000f4
:020000040000fa
:0401000008040000ef
:020000040000fa
:0401040008040000eb
:020000040000fa
:0401080008040000e7
:020000040000fa
:04010c0008040000e3
:020000040000fa
:0401100008040000df
:020000040000fa
:0401140008040000db
:020000040000fa
:0401180008040000d7
:020000040000fa
:04011c0008040000d3
:020000040000fa
:0401200008040000cf
:020000040000fa
:0401240008040000cb
:020000040000fa
:0401280008040000c7
:020000040000fa
:04012c0008040000c3
:020000040000fa
:0401300008040000bf
:020000040000fa
:0401340008040000bb
:020000040000fa
:0401380008040000b7
:020000040000fa
:04013c0008040000b3
:020000040000fa
:0401400008040000af
:020000040000fa
:0401440008040000ab
:020000040000fa
:0401480008040000a7
:020000040000fa
:04014c0008040000a3
:020000040000fa
:04015000080400009f
:020000040000fa
:04015400080400009b
:020000040000fa
:040158000804000097
:020000040000fa
:04015c000804000093
:020000040000fa
:04016000080400008f
:020000040000fa
:04016400080400008b
:020000040000fa
:040168000804000087
:020000040000fa
:04016c000804000083
:020000040000fa
:04017000080400007f
:020000040000fa
:04017400080400007b
:020000040000fa
:040178000804000077
:020000040000fa
:04017c000804000073
:020000040000fa
:04018000080400006f
:020000040000fa
:04018400080400006b
:020000040000fa
:040188000804000067
:020000040000fa
:04018c000804000063
:020000040000fa
:04019000080400005f
:020000040000fa
:04019400080400005b
:020000040000fa
:040198000804000057
:020000040000fa
:04019c000804000053
:020000040000fa
:0401a000080400004f
:020000040000fa
:0401a400080400004b
:020000040000fa
:0401a8000804000047
:020000040000fa
:0401ac000804000043
:020000040000fa
:0401b000080400003f
:020000040000fa
:0401b400080400003b
:020000040000fa
:0401b8000804000037
:020000040000fa
:0401bc000804000033
:020000040000fa
:0401c000080400002f
:020000040000fa
:0401c400080400002b
:020000040000fa
:0401c8000804000027
:020000040000fa
:0401cc000804000023
:020000040000fa
:0401d000080400001f
:020000040000fa
:0401d400080400001b
:020000040000fa
:0401d8000804000017
:020000040000fa
:0401dc000804000013
:020000040000fa
:0401e000080400000f
:020000040000fa
:0401e400080400000b
:020000040000fa
:0401e8000804000007
:020000040000fa
:0401ec000804000003
:020000040000fa
:0401f00008040000ff
:020000040000fa
:0401f40008040000fb
:020000040000fa
:0401f80008040000f7
:020000040000fa
:0401fc0008040000f3
:020000040000fa
:0402000008040000ee
:020000040000fa
:0402040008040000ea
:020000040000fa
:0402080008040000e6
:020000040000fa
:04020c0008040000e2
:020000040000fa
:0402100008040000de
:020000040000fa
:0402140008040000da
:020000040000fa
:0402180008040000d6
:020000040000fa
:04021c0008040000d2
:020000040000fa
:0402200008040000ce
:020000040000fa
:0402240008040000ca
:020000040000fa
:0402280008040000c6
:020000040000fa
:04022c0008040000c2
:020000040000fa
:0402300008040000be
:020000040000fa
:0402340008040000ba
:020000040000fa
:0402380008040000b6
:020000040000fa
:04023c0008040000b2
:020000040000fa
:0402400008040000ae
:020000040000fa
:0402440008040000aa
:020000040000fa
:0402480008040000a6
:020000040000fa
:04024c0008040000a2
:020000040000fa
:04025000080400009e
:020000040000fa
:04025400080400009a
:020000040000fa
:040258000804000096
:020000040000fa
:04025c000804000092
:020000040000fa
:04026000080400008e
:020000040000fa
:04026400080400008a
:020000040000fa
:040268000804000086
:020000040000fa
:04026c000804000082
:020000040000fa
:04027000080400007e
:020000040000fa
:04027400080400007a
:020000040000fa
:040278000804000076
:020000040000fa
:04027c000804000072
:020000040000fa
:04028000080400006e
:020000040000fa
:10040000cf2721000eff21000e0188000000000010
:10041000000020000000e000020032000001200087
:100420002002880014000700700107000000e000af
:1004300003003a0020db2200010020000200370008
:100440000000200001002000810f70000100320038
:100450000f000700000020000000e0000200320052
:1004600000000200000000003e2902000000000021
:100470000040da000000fe00800220000000e000e2
:1004800002003200002020009001880000000600d9
:10049000a1028800800478000000eb001f003700f4
:1004a000e284440054a0b4009905ba00e2844400f8
:1004b00054a0b4009906ba00e284440054a0b400e9
:1004c0000006eb00476fde00fd07b200ae018800ba
:1004d000636ce10003003a000ad801000000eb0061
:1004e0000e003700606ce10008003a00004deb00a0
:1004f0000a05e800020039003420ec000af0a000f0
:100500008b05e900f9ff3e00040037006168e10057
:10051000010032000086eb000b00070019c7ba008b
:100520000e04e0001905ba0003003a000a00e000da
:10053000dbff3a0000000600fe07b200ae028800b2
:100540008a047800f5ff37000cd0a300e20f4d00bd
:100550001c00390089027800354dba000a05e80010
:10056000020039003420ec000af0a0008b05e900fd
:100570000f003200254dba000a05e80002003900dc
:100580003420ec000af0a0008b05e90008003200de
:100590000c00e0000600320015cdba000a05e800a4
:1005a000020039003420ec000af0a0008b05e900bd
:1005b0008984e80054a0b4000b00e000e2ff3a0098
:1005c000000006009902ba00055d78008b05e9007d
:1005d000f7ff3200c82ade00055d78008b05e900d0
:1005e000f3ff32000c00e000f1ff320019ddba0029
:1005f000eeff3700000000000000000000000000d7
:1006000000000000000000000000000000000000ea
:100610000000000000000000000000003600f800ac
:10062000809fbe00829fbe00849fbe00869fbe004a
:100630000000fa00014080000008200000806000f7
:100640000000e00002003200db0c070000e8a90017
:100650000080fa004f03be004f02be004f01be00f3
:100660004f00be003600f90000400600801f7800f1
:100670000000fa0020408000620060000000e000fe
:100680000400320013aea80040138000308d8800b3
:100690000428a9000080fa004f00780000400600fe
:1006a000801f78000000fa001040800062006000a7
:1006b0000000e0000300320010c0b3006df1b7008d
:1006c0000228a9000080fa004f00780000400600d0
:1006d0003600f800809fbe00829fbe00849fbe004f
:1006e000869fbe000000fa0010408000610060009c
:1006f0000000e0000800320010c0b3006cf1b70049
:100700000208a90072090700308b8000e60f500034
:1007100001003a006e0907000080fa004f03be0096
:100720004f02be004f01be004f00be003600f90070
:10073000004006003600f800809fbe00829fbe0089
:10074000849fbe00869fbe000200fa000140800028
:1007500000802000008060000000e00018003200ef
:1007600030118000004f78000168a900101180004e
:10077000640060000000e000020032006e70ef00d4
:100780000f00370010118000620060000000e000e0
:10079000090032000040eb00c5110700800b20006b
:1007a000010020001917070010c0b300c011070096
:1007b0006e70ef00020037001e4078007d110700c8
:1007c0000080fa004f03be004f02be004f01be0082
:1007d0004f00be003600f90000400600809fbe00ba
:1007e0000000fa00114080000080200000806000be
:1007f0000000e0000300320010c0b300d4f0b700e6
:100800000368a9000080fa004f00be000040060007
:100810000040da000000fe000a00fa00110020008b
:10082000b1bf9f00c0bf9f006a805700f607070056
:100830004fb897000080fa00000006000a00fa0096
:10084000e20f500034003e00c0938000e10f5000e2
:1008500003003200e20f500011003a000c00370094
:10086000032220000300e00001003a000040da000b
:100870002002e200020035002822ef0021e2a80059
:100880002342ab000d003a002342a8000b003700c2
:10089000032320000300e00001003a000040da00da
:1008a0003002e200020035003822ef0031e2a800f9
:1008b0003342ab0001003a003342a80082017800c5
:1008c0000b0037003102fb00e10f500004003a003a
:1008d0002322ab00feff3a002411880003003700fa
:1008e0003322ab00feff3a00a41188008301e90027
:1008f0000300e000f3ff3a00e10f500003003a006c
:100900002302ab00feff32000b0037003302ab00c6
:10091000feff32000800370033002000b3bf9f0005
:10092000c0bf9f00d1bf9f00e2bf9f006a805700f9
:10093000b70707006fb99700020078000080fa003f
:10094000000006000a00fa0051002000b1bf9f001d
:10095000c0bf9f006a805700af0707005fb89700cd
:100960000080fa0000000600889fbe008004780026
:10097000d09380000000e00004003a000e00070061
:100980000084eb000000e00008003500d8938000f0
:100990000900e000050032000900440006000700dd
:1009a0000000e00001003d000084eb00080078003a
:1009b0004f04be0000000600800078000100e00047
:1009c00003003a0000002000d093880000000500da
:1009d0000080eb0002002000828f500002003e00e9
:1009e000d19388000000eb00000006000000050025
:1009f00003f0a200889fbe008a9fbe008c1f780073
:100a0000e3000700ea0033006450e1004f003200c9
:100a10006420e1005200320003826c0007003b00ba
:100a20000905d0000306d000820f54000c065d00bb
:100a300002003900020032008901780003067800c4
:100a40008582550004003d000003fd008103fd0088
:100a50008502ea008b854200840f720002003b0091
:100a600060001000e08018006011b8000005eb0085
:100a70007a28e1000a00390006007800c75ddd0031
:100a8000f707b200878075002d0037008281710062
:100a90000a017800610560008180d1000080d300e8
:100aa0008502e900f9ff3b00060440008784480006
:100ab00002003b0060041400e0841c000988a300cd
:100ac000070032008a817100828171006101640037
:100ad0008904d1000884d3008b05e8001700370093
:100ae0000978a30013003a000b00e0001300340063
:100af0008b05e9000804440089844c000a44740012
:100b00000978a3000d003a000b00e0000700340054
:100b10008b05e9000804440089844c0001003a0078
:100b20000b0020000978a300f7ff32000001eb0062
:100b300002003700828171000a0178005900070025
:100b40000cf0a70001f0a000a20037006420e10033
:100b500002003a00838f6c00a20033000801be003f
:100b60000200be009b003700839f68000100e00088
:100b700002003d0060001000e08018000300e0006b
:100b800002003d0060011100e0811900cc00070067
:100b90004f00e00002003b0060001000e080180001
:100ba0000000060014002000d50037000001be0040
:100bb000620007000470a70003f0a1006509b100fe
:100bc000160032000d0035006828e10006003500ef
:100bd000f0ff2f00f1ff27000300e00013003b00af
:100be000010028000000050000004000818048004e
:100bf0008502e900fcff3a0008003700f88f420048
:100c000002003c008000eb00000005008100d100e4
:100c10000080d3008502e800fcff3a000300e000fa
:100c200002003b0060001000e08018000000060099
:100c30000001be00410007000470a70003f0a100fe
:100c400003f8a30013003a006509b1001000320058
:100c5000090035006928e100020035000100280084
:100c60000000050000004000818048008502e90086
:100c7000fcff3a0000000600f88f42000500350036
:100c80008100d1000080d3008502e800fcff3a001b
:100c9000000006008000eb00000005006011b800b5
:100ca000b200370081002000618055000b003d003c
:100cb0000b00200061fe2f000100e1001d00340048
:100cc00082817100610164008904d1000884d3002d
:100cd0000000e800faff3a007100200061006400a3
:100ce000030070000200600009003200610444004b
:100cf000e0844c000988a500050032008b05e8005f
:100d00006808e10002003a008904d1000884d30099
:100d1000f20f20000258e10005003d00c75ddd0034
:100d2000f907b2008980750008007800000006000d
:100d30000bf827008b00780000000500c70ade00d2
:100d4000f107b200f50fb20008003200e1cf420017
:100d5000020032000170a00024000500810f700025
:100d6000010032000408050044000500810f7000f6
:100d700002003a00140005008502e900000040006e
:100d800081c04800fcff3b000170a000240005006a
:100d90000004be00e9ff07000003be000405be001a
:100da0000200be00e5ff0700844f7500000006004a
:100db0000200be006450e100050036006420e1003e
:100dc000020036000968a30001003a000800be00d6
:100dd0000160a0004f0678004f05be004f04be0022
:100de00000000600f0ff2f00f1ff2700f9ff370099
:100df000889fbe008a9fbe008c1f7800e4ff07001a
:100e0000ebff330003866c006450e10024003200e5
:100e10006420e100270032006150e100220032002e
:100e20006120e100210032008b854200eb07b10018
:100e30000134b800003ab8000804420089844a002e
:100e4000013ab8000030b8008880400009014a002b
:100e50000400330000004000818048000201490086
:100e60008b05e900c909dd00830170000100320033
:100e700013002000c814de004814dd004709de001e
:100e80001200b200c808de000884700085ff070069
:100e900001f0a1000cf0a70001f0a000cdff370089
:100ea0006120e100cfff32000801be000200be0059
:100eb000f7ff37006150e100fcff3a00c9ff37003f
:100ec0006022b800060220000000d0008180d2001d
:100ed0000482d2008582d2000000a00002025200eb
:100ee00083825a00030031000202420083824a00da
:100ef0000000a1000603e900f3ff3a00000006002d
:100f0000889fbe008a9fbe00841f7800a0ff070054
:100f10004f00780011003300f0ff2f00838f6c002a
:100f200006003b00040565000a00a7000800370022
:100f300009f0a6001000200008003700820f5400be
:100f4000838f5c00030039001000200001003e0088
:100f50000000200009f0a7000000ea004f05be00d5
:100f60004f04be000000e00000000600889fbe00a5
:100f70008a9fbe000082700004027100048271002a
:100f8000260032000004be000200be006011b8005e
:100f90006b092000950220000182cf000a00390071
:100fa0000541b1000082cf00070039000541b100c2
:100fb0000982cf00040039000541b1000882cf004a
:100fc000010039000541b100054252001200320013
:100fd0000a003b0082817100610164008100d10040
:100fe0000080d3008984d3000884d3008b05e800f7
:100ff0000442e800f7ff3a00070037000804440005
:1010000089844c0000004800818048008b05e9007d
:101010000442e900f9ff3a0022ff07004f05be0035
:101020004f04be0000000600020037000204e0008a
:101030000b00320081017800000278003041780016
:10104000b14f5100f9ff3200100020001442780027
:10105000934f5200030031000080eb0000000600b7
:101060000000eb000000060080007800010178001d
:101070003104e000fdff3a000000510000000600ce
:10108000889fbe0000047800010078008204780088
:10109000880178000901780011002000e2010700b2
:1010a000890f5000010032000004eb0008007800b6
:1010b0004f04be00000006000000fa00e88157005f
:1010c0004fb99700411d2100008420000200070055
:1010d0000080fa00000006006200fa00889fbe004f
:1010e0008a1f7800000578008104780002047800e7
:1010f0008300780080f92f000f0040007b04070078
:101100009a979f00a9979f000000eb00b09f9f0057
:101110001885fb008a04fb000a05ea004f55de0033
:1011200050022000808f54000d003200e10f550066
:101130000b003a000a017800880078002f90970091
:101140009f91970003000100a0979f000000e0001e
:101150008e0032003f9897000000e800b09f9f008b
:101160000a04440050022000808f54000400320022
:101170000900e000e6ff3a003f989700840037003e
:101180000000eb00909f9f00809f9f00f0979f00c2
:10119000e0979f00d0979f00c0979f0007003700ff
:1011a000a12621000100500000004000e12521009f
:1011b000808040005f98970011007000d09f9f00d2
:1011c0008804780009047800384578008a00fb001c
:1011d000a0262100f90107000000e000f0ff3a001e
:1011e000a1c2b300814f55000e003a00cf8897008e
:1011f0000180e900c08f9f0010007800c09f9f0011
:101200000000e00005003d000000ea00c09f9f00d4
:101210005f9897000020a000d09f9f000904e8007d
:101220000f003700c09f9f000000eb000500370053
:10123000f2ff2700820f500002003200ea00b900de
:10124000008040000904780088047800b900fb00a1
:101250000103b100e98f5000f5ff3600c09f9f00e9
:10126000e0c2b300984f1000020032000080eb0093
:1012700019003700a0c2b300d84f100007003a0091
:10128000cf8897000180e900c08f9f001000780090
:10129000a09f9f000804e800100037000000eb004a
:1012a000a09f9f008800780005003700f3ff27000b
:1012b000830f500002003200ea00b9000000410034
:1012c00001047800880078003101fb000203b100be
:1012d000e90f5100f5ff3600a09f9f009844780069
:1012e0008900fb0060252100b40107000000e00038
:1012f000020032000804e800010037008044eb00df
:10130000c97f9f0080c6b30080cf540004003a001c
:1013100098cf14000a003a006640500006003700db
:10132000c0c6b30080cf540005003a0098cf140027
:1013300003003a0065404000c07f9f000804e800b9
:101340001801fb00e3fb2f008f81410081f92f0082
:101350008f804000a0f92f000f0040001000070010
:101360000000e00009003a00e1fb2f008f80400000
:10137000a0f92f000f004000200307000000e0004c
:10138000020035000804e80061ff37000080eb0030
:101390004f0578004f04be000080fa0000000600f0
:1013a000889fbe008a9fbe00e4c6b300844f5100f0
:1013b000ce00320010003c006b425200844f5100be
:1013c0001800320005003c0054c2b300844f5100a5
:1013d0000601320084c5b3000f00370044c6b300d5
:1013e000844f51001500320065424200844f510085
:1013f00001013a001100370004c7b300844f5100c7
:10140000ed0032005f00350065424200844f51001c
:101410005c00320063424200844f5100f6003a0003
:10142000580037001181e90082087800f000900030
:101430008181410092497800f500370020629000d8
:10144000c5c6b300854f520008003a0091027800eb
:10145000648252008408780094029000140278009c
:101460004fabde00860378001600370015c7b300c7
:10147000854f520003003a001104780068025400be
:1014800005003700a5c6b300854f520008003a009a
:1014900091047800688254008408780094029000d7
:1014a00024039000b4039000140278000500370074
:1014b0001182e9008408780014027800cfa2de00cf
:1014c000612bb9000498be000690be00a060900099
:1014d00088c6b30088cf50000d00320028c6b30084
:1014e00088cf500004003a000402fb00cfa2de00c7
:1014f000612bb9000800370048c7b30088cf5000ff
:10150000030032006644440088cf500004003a00d3
:10151000cfa2de00612bb9000498be000690be0089
:10152000100278009002900020039000b003900019
:10153000f0009000e00f5200e08f5a00e00f5b00d7
:10154000e08f5b0003003d0001824100d5c2b30083
:101550000a003700001290000418a30003003200b4
:1015600001824100b5c2b300040037000408a300a3
:10157000590032000182410005c2b300054a7800db
:101580005300370020629000c5c6b300854f52005b
:1015900009003a00110578006402550084087800bb
:1015a00014047800940490006055b8000802be004e
:1015b0000a03be001600370015c7b300854f52005e
:1015c00003003a0091047800688254000500370057
:1015d000a5c6b300854f520008003a0011057800f7
:1015e000680255008408780094029000240390005b
:1015f000b403900014027800050037001182e9005e
:1016000084087800140278008002eb006033b80090
:101610000498be000690be00a060900088c6b3008b
:1016200088cf50000d00320028c6b30088cf50008c
:1016300004003a000482fb008002eb006033b80033
:101640000800370048c7b30088cf500003003200bd
:101650006644440088cf500004003a008002eb004a
:101660006033b8000498be000690be008010900061
:101670000138a30018003200100278009002900098
:1016800020039000b0039000e00f5200e08f5a005a
:10169000e00f5b00e08f5b000f00320081c7b300fa
:1016a000814f51000300320081c5b300814f5100ca
:1016b00009003a00f00090000182410005c3b30028
:1016c000054a78008100e80001824100024a780062
:1016d0008100e80071009800f000900081814100d5
:1016e00063009800824078003e003700a0619000bf
:1016f000c4c6b3001181e90084cf5100220032003a
:101700000a003c006442520084cf510025003200a0
:1017100004c2e80084cf5100130032006842520036
:1017200084cf51001e003a000a00370044c7b300be
:1017300084cf51001b0032006642420084cf51002a
:10174000180032006942520084cf510014003a0060
:101750000500370082087800920078004058900019
:10176000804878002c0037008208780092007800ca
:10177000600a9000cfa2de00612bb9008498be0001
:101780008690be002400370082087800920078001e
:1017900060099000cf91de008288be001e003700f5
:1017a0001181e900820878009200780060089000ba
:1017b00080087800180037001181e900820878005d
:1017c00012027800cfa2de00612bb9000498be009f
:1017d0000690be00f00090008181410063009800f7
:1017e00081c7b300c80007000b003700f00090006d
:1017f0008181410005003700f000900081814100a7
:101800000204e00001003a0052c2b30082497800ad
:101810008100e800710098000000eb004f05be0059
:101820004f04be0000000600889fbe008a9fbe00d5
:101830008c9fbe008e1f780000067800010478009f
:1018400002007800830478008881b90002077800dc
:101850000e00e000420032000800e00041003200cb
:101860008e057800c900900069009000808f5000bc
:1018700004003900090078005c0007000000e00067
:101880002900350000402000190060000a003200e5
:101890000b017800a10020000c0078003600070042
:1018a000800678000d00e000060032006105160099
:1018b0000a854600040037000b0578008006eb001f
:1018c000010037000b05780049009000e900900006
:1018d000808050008a8f500002003100010578009e
:1018e0008006eb000a0178008c0078002c000700cd
:1018f0008a855500490090000a004000c004980005
:101900000d00e0000400320009007800dd0207004d
:101910000000e00004003a000b00e000020032008a
:101920000a064600cfff3700008020001900600043
:101930000200320009007800d202070000c0200037
:10194000190060000200320049009000e004980095
:101950008b055700110009008885d8000100370069
:101960000000eb004f0778004f06be004f05be0099
:101970004f04be000000060003003700b0cf100087
:10198000050032000201e900800178000200e00059
:10199000faff3a000000050003007800000006008e
:1019a0008001780002003700b15978000201e90097
:1019b0000200e000fcff3a000000060002003700d1
:1019c0000304e00006003200000178000200780005
:1019d000b041780081cf5100f9ff3a000100370093
:1019e0000001eb000200780000000600889fbe00a6
:1019f0008a1f780000047800c800900068019000f9
:101a00000000eb00828f50003c0039001800780085
:101a10002200290002016000e20f5100070032009d
:101a2000012024000000e00001003d000120200012
:101a3000008c70000080eb003000370002002600b0
:101a400002006000820f500009003a003800900048
:101a5000808f5000060039000800780089020700d6
:101a6000800078000080eb000100e00023003a00d5
:101a70001805780000c020000000650018003a003a
:101a8000a80490006002200008004000808f5400ed
:101a900013003a00002020002703070020049800cc
:101aa0000000e00005003a0029049800490498006d
:101ab0008904e80039049800080037000a60a00093
:101ac0000a0c78004004980001202000808040002b
:101ad00031049800400c9800500c98000702070051
:101ae000280090005004980038009000600498008e
:101af00000002600180c70000000eb004f05780075
:101b00004f04be0000000600fc874700889fbe000f
:101b10008a9fbe008c9fbe008e1f78000006780052
:101b200080c5b30080cf50000a00320077404000eb
:101b300080cf50000a0032006940400080cf500042
:101b40000b0032005024210080bf9f00ae00200017
:101b50000a0037004223210082bf9f0006003700a1
:101b60005324210083bf9f008e0020000300370014
:101b70005424210084bf9f000e0120001c02780025
:101b80009c0290002c039000bc0390000605be0050
:101b90000404be0040c6b30080cf500003003200f2
:101ba0006540400080cf50000b003a00e00f52002b
:101bb000e08f5a00e00f5b00e08f5b0006003d0005
:101bc0006000b8006011b80004045000858458001b
:101bd0000605590087855900e80f570004003200b8
:101be00040002000f00f57003c003a000100370091
:101bf00030002000e00f5400e08f5c00e00f5d003b
:101c0000e08f5d0004003a00dc0890008d012000a8
:101c10000100e000070032008e00e90088806000cb
:101c20008fba97008180420091407800f1ef9f00c9
:101c30007d012000800078008100e900050033006c
:101c40008b05d1000a85d3008984d3000884d30092
:101c5000f9ff3700089ebe000a96be001300370049
:101c60008d06e9008e00e900848060000fb99700be
:101c7000810041001141780083fd2f008d814100da
:101c800082f77900800178008301e90005003300c4
:101c90008783d1000683d3008582d3000482d300da
:101ca000f9ff3700049ebe000696be001c027800b5
:101cb0009c0290002c039000bc039000e00f5200a7
:101cc000e08f5a00e00f5b00e08f5b009300340070
:101cd0000d00e000e2ff3c00900037002c60900017
:101ce00081c6b300814f50000b00320006003c005b
:101cf0000004e00008003200e6c05000814f5000b0
:101d000052003a0004003700c1c6b300814f5000b2
:101d10004e003a00230037000800e00004003a00bb
:101d20005c0890008d0120000000e00007003200f8
:101d3000110009000e84d8000fba9700010042007c
:101d400010407800f0ef9f007d0120001100090095
:101d50000e84d8000b003700110009000e04d800d3
:101d60008d06e9008e81b900020454008fb89700f7
:101d7000088440009841780082fd2f000d01410049
:101d800083777900000478000800e0000200320048
:101d90000d00e000f0ff3c00cfc4de00614db90053
:101da00027003700e00f5400e08f5c0004003a0089
:101db0005c0890008d0120000000e0000800320067
:101dc0006171b9000800be00950207000fba9700c4
:101dd0008000420091407800f1ef9f007d012000db
:101de0006171b9000800be0035fc07000c00370027
:101df0006171b9000800be005bfb07008d06e900b9
:101e000080f1b900020454008fba970008844200a0
:101e10009841780082fd2f000d0141008377790001
:101e20000004be00e00f5000e08f580002003200b6
:101e30000d00e000eeff3c004fcdde008a0578008b
:101e4000089ebe000a96be0034003700e00f540022
:101e5000e08f5c00e00f5d00e08f5d0004003a0061
:101e60005c0890008d0120000000e0000a003200b4
:101e70006172b900612bb9000800be000a01be0002
:101e8000120307000fba97008000420091407800cb
:101e9000f1ef9f007d0120006172b900612bb90054
:101ea0000800be000a01be00010307000e00370053
:101eb0006172b900612bb9000800be000a01be00c2
:101ec000060307008d06e90080f2b90004045400ff
:101ed0008fba9700088442009842780084fd2f0052
:101ee0000d02420085777a00009ebe000296be0079
:101ef0001c0478009c0490002c059000bc05900008
:101f0000e00f5400e08f5c00e00f5d00e08f5d00ab
:101f1000020034000d00e000e5ff3c00e80f570030
:101f200010003a000c1090000038a3000d003200a1
:101f3000f78f560006003e0080fd2f000d00400088
:101f4000ef40780000c3b30080cf5000050032009e
:101f500002c3b30071fd2f008d8040008d06e900a3
:101f600082f7780078811600120e98006c009000bd
:101f700083fd2f008f8141008d80410088fe070086
:101f80001c089000dc089000810f500006003d0006
:101f900000805000000e98000c1090000040a1003e
:101fa000001698000f0037000100e0000d003d0012
:101fb0008c109000f4806000f08f500009003a000f
:101fc0007c099000fc009000810051000c099000f9
:101fd00082805000008050004240a900010034007f
:101fe000000e98004f0778004f06be004f05be0058
:101ff0004f04be00cf01b100000006000400fa004b
:10200000889fbe008a9fbe008c1f78000004780065
:1020100001067800f80d900078009000808555004a
:1020200008089000808555001808900080855500ac
:10203000280890008085550038089000808555005c
:1020400048089000808555000002220090bf9f0044
:1020500000032300a0bf9f00081090000028a300e9
:1020600015003a000b00e000130034000b05780067
:102070008a047800e20f5500010036002900200094
:10208000c801900009017800ee80570058009000c8
:1020900003000100500498000000e0008c003200b2
:1020a0006808900009004000600c98000905550080
:1020b0004240a900eeff3c00780190000200e000e1
:1020c0000c003400c80190008c007800580090008b
:1020d00003000100500498008080eb000000e00045
:1020e0007c003200e80890007800900000804000fa
:1020f000600c9800880c90000900e000110034008a
:1021000009057800e28f5400010036002a00200003
:10211000c80190000a017800ec8057005800900038
:1021200003000100500498000000e0006800320045
:10213000680890000a004000600c98008a845400ef
:10214000edff3700180990000200e0000c00340099
:10215000c8019000e80090005800900003000100c2
:10216000500498008080eb000000e000590032002d
:10217000e80890001808900000804000600c98006b
:10218000a80c90000900e000110034000905780057
:10219000e28f5400010036002a002000c8019000a0
:1021a0000a017800ec8057005800900003000100fd
:1021b000500498000000e0004500320068089000dc
:1021c0000a004000600c98008a845400edff37003c
:1021d000380990000200e0000e003400e800900092
:1021e0001808900080804000c801900058009000be
:1021f00003000100500498008080eb000000e00024
:1022000034003200e8089000380890000080400058
:10221000600c9800c80c90000900e0001100340028
:1022200009057800e28f5400010036002a002000e2
:10223000c80190000a017800ec8057005800900017
:1022400003000100500498000000e000200032006c
:10225000680890000a004000600c98008a845400ce
:10226000edff3700081090008000eb000028a3006d
:10227000180032000b00e000160034008b047800d8
:1022800009057800e28f5400010036002a00200082
:10229000c80190000a017800ee80570058009000b5
:1022a00003000100500498000000e0000800320024
:1022b000680890000a004000600c98008a8454006e
:1022c0004240a900eeff3c008000eb000100370017
:1022d0008080eb00010078004f0678004f05be00bb
:1022e0004f04be000080fa000000060001087800dc
:1022f00000000600002221009d003700881f7800a2
:10230000482721001804e00003003a00f9ff070005
:1023100020c0b300004c78004f0478000000060095
:10232000889fbe0000047800080078005500070070
:1023300080047800000420001800600002003200d1
:1023400028009000970007000000eb002004980090
:10235000384090000004e000050035000000fb005c
:102360002df907000000e000010032008084eb003e
:10237000181090000000e0000800320071f907001a
:102380000000e000010032008084eb001810900093
:10239000840007000000eb001014980000082000e3
:1023a00018006000150032000001eb006000b8006a
:1023b0000202d0004322210003024200940f1400c5
:1023c00005003a0000004000818048000080410084
:1023d0000008eb000600370061004000e080480084
:1023e0000201e800e80f5000e08f5800f0ff3a00cb
:1023f000080078006b0007000e003700000c780022
:1024000000c0eb003044980060022000080040004b
:10241000200498004004980050049800400c980054
:1024200060049800500c98007004980076004400f6
:10243000000c9800090078004f04be000000060060
:10244000881f78000004eb006140b800e2ff2f0015
:10245000f3ff2f00f5000700222321008000410038
:10246000110078000000e00001003200acff07001e
:102470000804e800e80f5400f3ff3a004f04780026
:1024800000000600889fbe00000478000800e000fd
:102490000f003a008004eb008800d00040222100a9
:1024a00000804000100078000000e00004003200ce
:1024b000f4ff07000000e00001003d008084eb0015
:1024c0000804e800e80f5400f3ff3a002500370045
:1024d00000002200180060008004eb0021003200a0
:1024e000a80490000f003700090151003840900007
:1024f0000000fb0089007800d0f807000000e00031
:1025000007003c00280090004004980060049800f8
:10251000500c98001890a0008084eb001100370048
:102520008084440048019000828f5400eeff3900ff
:1025300028009000400498009800780002c0200015
:102540000281600001003a003800900001e8a30019
:10255000020032006004980001003700500c98001f
:102560008004eb00090078004f04be000000060064
:10257000010020000100e00009003200010080009d
:102580000100e000060032008100e900010088003f
:102590008100d00002008000828040008008780026
:1025a000000006000000e0002f003200c0017800ab
:1025b000e38f51002c0036000308a3002a003a00e4
:1025c000919380000100e00002003200810f500072
:1025d0000400310011009800909388001600370025
:1025e00082007800110190000200e0000200320039
:1025f000800f5100faff39001102780084824000f8
:10260000850f500018003900808f520003003a00f7
:102610008308420001007800070037000200e00054
:102620000300320083014000830f51000e00390087
:102630001200980090009800900090000100e000c7
:102640000900320010014000828f500006003a005d
:10265000022721000009eb00100178001108410059
:10266000910090001100980000000600889fbe00b5
:1026700000047800819380000100e0000200320035
:10268000010078000d003700919380002027210081
:1026900004003700910f5400250036000180e80047
:1026a000910090000100e000faff3a0010003700ae
:1026b000920f54001e0036000280e80010017800de
:1026c0000200e000faff3a001101780091938000c7
:1026d0002027210004003700910f54001400360019
:1026e0000180e80091009000828f5000faff3a00cc
:1026f000b9938000888f540001003100880478006d
:1027000009007800360007000000e00004003a00ed
:10271000888f5400050032008904d100f5ff37008e
:10272000091878009fff0700d2ff37000000eb0078
:102730004f04be0000000600881f780063044000bc
:102740000800a1008000eb00800f5400210036003b
:10275000e30f540001003e0048002000080078000c
:10276000c2ff07008000eb000000e000190032000b
:10277000900078009101780064815100880f510029
:1027800003003100110190000208780007003700b3
:102790000881400002087800910190001301980020
:1027a00010017800110914008808780010017800e1
:1027b0000000eb000200e0000400320092019000f3
:1027c0000300e000010032000280e80080938800ee
:1027d0008180e800010078004f04780000000600c6
:1027e000800078000000eb000100e00005003400ec
:1027f000010078005cf80700e10f400001003a009a
:102800000000eb000000060000c0da000000060037
:1028100000c0da000000060000c0da000000060078
:10282000a7f907000400be0000000600020ab90074
:10283000001bb9000200b800810042008100430083
:1028400000000600889fbe008a9fbe003004420040
:10285000b0844a0030054b0090854b006000b10009
:102860000898be000a90be000440e10005c8e100df
:1028700006d0e10007d8e100020031006800400006
:102880001008e8004f05be004f04be00000006001f
:10289000889fbe008a9fbe001004780090049000bc
:1028a00020059000b00590000418540005985c00c5
:1028b00006185d0007985d00110020000440e1004b
:1028c00005c8e10006d0e10007d8e10001003900a9
:1028d0008000eb00108810004f05be004f04be00c2
:1028e000000006001200fa00889fbe008a9fbe000a
:1028f0008c9fbe00e0b79f00f1b79f0082bf9f0092
:1029000093bf9f000605be000404be000000eb005c
:10291000d0b79f00c0b79f00b0b79f00a0b79f007f
:1029200090b79f000006eb005fb19700cfb0970013
:10293000820141003fb097000200e00004003d002a
:10294000370007007e805700beff070003003700f6
:10295000330007007e805700cdff0700dfb69700e9
:102960000d00e0000c0035006fb29700ffb2970039
:102970000fbb97009fbb97001000200001002000b4
:102980006011b800000272008182720002037300bd
:10299000838373001b0007000c06e800010420007d
:1029a000810f5600e0ff3a000d00e00004003d00fa
:1029b0000802be000a03be007e805700a1ff070088
:1029c0005fa897000000e00005003a001fb29700e2
:1029d000afb297003fb39700cfb39700090007004d
:1029e0006fb09700ffb097000fb997009fb997009d
:1029f0004f06be004f05be004f04be000080fa0027
:102a0000000006000100070000000600a4b79f00b8
:102a1000b5b79f00c6b79f00d7b79f00000006005c
:102a20004f09de0082817100b3b79f004f01de00c5
:102a30008180400082807000a1b79f008fb0970016
:102a40004f09de00000040000200700090b79f00b8
:102a50007fa897004f01de008180400082807000d7
:102a600081b79f000d0007004f3ade0000004000d4
:102a700004007000f0af9f0008000700040242004d
:102a800085824a0006034b0087834b00dfff070067
:102a90000802be000a03be00000006002fb2970025
:102aa000bfb297004fb39700dfb397000000060056
:102ab000881f780018002000881f780089ff070011
:102ac0008f87e9004f04780000000600801feb00ac
:102ad00084ff07008f87e90000000600889fbe0082
:102ae0008a9fbe00e00f5000e08f5800e00f5900b1
:102af000e08f59000c003d006044b8006055b800fc
:102b00000000540081805c0002015d0083815d0053
:102b1000180020001500070008003d0018000700fd
:102b20000004eb00050037000004eb000f00070075
:102b300002003d001200070018002000dcff070023
:102b40000800e000060032006022b8006033b800e0
:102b50000000520081805a0002015b0083815b000b
:102b60004f05be004f04be0000000600e00f5200fb
:102b7000e08f5a00e00f5b00e08f5b000000060072
:102b80006044b8006055b8000402540085825c00bf
:102b900006035d0087835d0000000600889fbe007d
:102ba0008a9fbe008c1f7800e00f5000e08f580015
:102bb000e00f5900e08f59000d003d006044b8005f
:102bc0006055b8000000540081805c0002015d0087
:102bd00083815d001c0020000820e10009a8e100bd
:102be0000ab0e1000bb8e1000d003d00080037001d
:102bf0000006eb00e00f5200e08f5a00e00f5b0090
:102c0000e08f5b0006003d006044b8006055b800ee
:102c10000402540085825c0006035d0087835d002a
:102c2000aaff07000c00e000060032006022b80096
:102c30006033b8000000520081805a0002015b003e
:102c400083815b004f0678004f05be004f04be0035
:042c5000000006007a
:020000040000fa
:102c5400563a0000202000002020000020560000ea
:102c6400207c0000202000002020000020560000ce
:102c7400004900003a20000020200000202000002d
:102c8400412000007c2000002020000020200000c3
:102c94004100000025640000000000002c0000003a
:020000040000fa
:102ca4000200fa00000f7800401080001e0060004f
:102cb40000f0a7000000ea000000ea004f00de0078
:102cc400004078000080fa00000006000000fa00ce
:102cd400308b8000e40f500054003200e40f5000a9
:102ce40005003e000000e0000a003200e30f50003f
:102cf4002f003200d9003700e60f5000b800320030
:102d0400e60f50007c003900ed0f5000a1003200a6
:102d1400d20037006a71ef0010c0b30072f1b7003f
:102d240080002000deff07000004e0000b003200fa
:102d340000022000daff07000004a2000004e00003
:102d440006003200001080000040780070f1b700e7
:102d540030002000308b880004003700a0cfb3007f
:102d640072f1b70060002000308b88000040200022
:102d7400cbff07000004e00004003200d0cfb30012
:102d840072f1b70060002000308b8800000420003e
:102d9400c3ff07000004e000a7003200e0cfb30047
:102da40072f1b70060002000308b8800ab00370060
:102db40000022000baff07000004e0000600320011
:102dc400001080000040780071f1b700400020003e
:102dd400308b88000400370090cfb30072f1b70045
:102de40060002000308b880000402000acff07000a
:102df4000004e00004003200d0cfb30072f1b70049
:102e040060002000308b880000042000a4ff07002d
:102e14000004e0008a003200e0cfb30072f1b70092
:102e240060002000308b88008c00370000022000f6
:102e34009bff07000004a2000004e000140032001d
:102e4400001080000040780070f1b700d18b800042
:102e5400001721000100010073d1bf000080fb00b6
:102e64001010880000000000100020008cff0700f4
:102e74000004a2000004e000fbff3a000782a8005f
:102e84006f71ef0020c0b30072f1b7000700370084
:102e9400001080000040780073f1b70010c0b30048
:102ea4006ff1b70030c0b30072f1b70050002000da
:102eb400308b88000040200079ff07000004e00008
:102ec40004003200d0cfb30072f1b70060002000dc
:102ed400308b88000004200071ff07000004e0002c
:102ee40059003200e0cfb30072f1b7006000200057
:102ef400308b8800590037006fd1bf000004a20056
:102f04000004e0000d00320074d1bf000080fb001b
:102f140010108800000000001000200060ff07006f
:102f24000004a2000004e000fbff3a000782a800ae
:102f3400d0002000308b880005003700001080008e
:102f44000040780074f1b70060002000308b8800e6
:102f54000040200052ff07000004e000040032009b
:102f6400d0cfb30072f1b70060002000308b88002e
:102f7400000420004aff07000004e000340032008f
:102f8400e0cfb30072f1b70060002000308b8800fe
:102f94003200370060002000308b880000402000a1
:102fa4003fff07000004e00004003200d0cfb3006c
:102fb40072f1b70060002000308b8800000420000c
:102fc40037ff07000004e00023003200e0cfb30025
:102fd40072f1b70060002000308b88001f003700ba
:102fe4006631ef0010c0b3006af1b7002000200082
:102ff4002bff07000004e00004003a000004200056
:1030040027ff07000004e0000400320000108000e5
:103014000040780073f1b70008c2a900e38b800078
:10302400808b8000918b8000a28b800003000100c4
:10303400000000000900370000000000070037000e
:103044000000000005003700000000000300370006
:103054000000000001003700000000000080fa00ba
:10306400000006000000fa000040eb0034000700f6
:103074006831ef0010c0b3006bf1b70010c0b300ab
:103084006ef1b700170ea900172ea900110ea900a2
:10309400112ea9000622ef000822ef00400b2000a9
:1030a400201088000228a900414280000007200067
:1030b40001007000404288002228a8000080fa0025
:1030c400000006000600fa00000f780011079800bf
:1030d400220798000040eb0019000700170ea90012
:1030e400172ea900110ea800112ea8000622ef0029
:1030f4000822ef000c22ef009e0078005110880097
:103104006631ef0010c0b3006af1b70010c0b3001d
:103114006ef1b7009e009000d18b8800ae00900045
:10312400e18b88000208a900404280007000b300cf
:10313400404288002208a8000080fa00000006002f
:103144000200fa00004f78001e4078000004e000fe
:103154000200320007e2a8000100370007e2a900dc
:103164000080fa00000006000000fa000622ef00ca
:103174000822ef006831ef0010c0b3006bf1b70014
:1031840010c0b3006ef1b7006631ef0010c0b30099
:103194006af1b70010c0b3006ef1b7007631ef00ea
:1031a4007831ef002228a9000228a9002228a800cb
:1031b4002208a9000208a9002208a80010c0b30030
:1031c400dfff07000080fa00000006000200fa009a
:1031d400000f78006bd1bf000004a2000004e000df
:1031e400040032001e00780081cfb3002140980013
:1031f400e90037006b71ef001e00780011c0b300c6
:1032040021409800e0003700408b80008000eb00f4
:10321400d200200003002000820f5000838f58004a
:10322400ca003e00000601000d00370026003700ea
:10323400290037005f0037007d0037009b0037000e
:10324400ba003700c1003700c0003700bf003700a4
:10325400400037005e0037007c0037009a003700da
:103264006ed1bf000004e000040032006e71ef0074
:1032740010002000408b8800c3003700800020002d
:1032840087fe07000004a2000004e00007003200eb
:103294000001200082fe07000004e0000300320069
:1032a40010002000408b8800b70037001e00780013
:1032b40080c0eb002140980010c0b3006bf1b70050
:1032c4006831ef00b00037000602a800200020009b
:1032d400408b8800ac0037006dd1bf000004e000d3
:1032e4009e0032006d71ef00800020006cfe07002c
:1032f4000004e000100032000001200068fe070016
:103304000004a2000004e0000b0032001e0078005c
:10331400104078000080fb0000004000800078002e
:10332400f00f20000080600010108800a000200032
:10333400408b8800940037000642a80060002000fb
:10334400408b88001e00780080c0eb00214098006c
:103354008d0037006dd1bf000004e0008100320011
:103364006d71ef00000028004dfe07000004a2006c
:103374000004e000080032000008200048fe0700b6
:103384000004a2000004e00003003200300020002a
:10339400408b88007c0037000642a80060002000b3
:1033a400408b88001e007800c1cfb30021409800f4
:1033b400750037001e007800104090000080fb006c
:1033c40010108800b0002000408b88006e00370089
:1033d4006dd1bf000004e000640032006d71ef00a5
:1033e400000028002efe07000004a2000004e000f4
:1033f400080032000008200029fe07000004a20093
:103404000004e0000300320040002000408b8800ec
:103414005d0037000642a80060002000408b880051
:103424001e007800b1cfb300214098005600370049
:103434001e007800304090000080fb0010108800cf
:10344400c0002000408b88004f0037006dd1bf00c2
:103454000004e000470032006d71ef000000280016
:103464000ffe07000004a2000004e0000800320080
:10347400000820000afe07000004a2000004e00087
:103484000300320050002000408b88003e003700cb
:103494000642a80060002000408b88001e007800cf
:1034a400b1cfb30021409800370037001e007800e8
:1034b400404090000080fb0010108800d0002000e5
:1034c400408b8800300037006dd1bf000004e0005d
:1034d4002a0032006d71ef0000002800f0fd0700a3
:1034e4000004a2000004e0000900320000082000eb
:1034f400ebfd07000004a2000004e0000400320019
:103504000642a80060002000408b88001e0037009f
:103514000642a80060002000408b88001e0078004e
:10352400b1cfb30021409800170037006dd1bf0020
:103534000004e000130032006d71ef006831ef0009
:1035440010c0b3006bf1b7000f0037006831ef0013
:1035540010c0b3006bf1b7000b003700000000008f
:1035640009003700000000000700370000000000d9
:1035740005003700000000000300370000000000d1
:1035840001003700000000006bd1bf000004a2005e
:103594000004e0001cff3a000080fa00000006006e
:1035a4000200fa00000f78006bd1bf000004a200f3
:1035b4000004e000040032001e00780081cfb30054
:1035c40021409800f90037006b71ef001e0078006d
:1035d40011c0b30021409800f0003700408b8000f8
:1035e4008000eb00e200200003002000820f500066
:1035f400838f5800d2003e00000601000e00370001
:10360400270037002a003700600037009a0037008f
:10361400ae003700c20037008f0037007a00370051
:10362400c7003700410037005f0037009f003700b4
:10363400b3003700780037006ed1bf000004e0000b
:10364400040032006e71ef0010002000408b8800ef
:10365400d20037008000200091fd07000004a20082
:103664000004e00007003200000120008cfd070088
:103674000004e0000300320010002000408b8800aa
:10368400c60037001e00780080c0eb00214098007f
:1036940010c0b3006bf1b7006831ef00bf00370012
:1036a4000602a80020002000408b8800bb003700e1
:1036b4006dd1bf000004e000a50032006d71ef0081
:1036c4008000200076fd07000004e00010003200b6
:1036d4000001200072fd07000004a2000004e000c5
:1036e4000b0032001e007800104078000080fb00c0
:1036f4000000400080007800f00f2000008060008f
:1037040010108800a0002000408b8800a300370020
:103714000642a80060002000408b88001e0078004c
:10372400c1cfb300214098009c0037006dd1bf0089
:103734000004e000880032006d71ef0000002800f2
:1037440057fd07000004a2000004e0000800320056
:103754000008200052fd07000004a2000004e0005d
:103764000300320030002000408b88008b003700bb
:103774000642a80060002000408b88001e007800ec
:10378400b1cfb30021409800840037001e007800b8
:10379400104090000080fb0010108800b000200052
:1037a400408b88007d0037006dd1bf000004e0002d
:1037b4006b0032006d71ef000000280038fd070037
:1037c4000004a2000004e000080032000008200009
:1037d40033fd07000004a2000004e00003003200ef
:1037e40080002000408b88006c0037000642a8004f
:1037f40060002000408b88001e007800b1cfb30029
:1038040021409800650037000622a800e00020004f
:10381400408b8800610037006dd1bf000004e000d8
:10382400510032006d71ef001e00780010407800e6
:103834000080fb000000400080007800f00f2000b2
:10384400008060000000e800101088007000200074
:10385400408b8800510037006dd1bf000004e000a8
:10386400430032006d71ef000662a80040002000a2
:10387400408b8800490037006dd1bf000004e00090
:103884003d0032006d71ef00001080008040780030
:103894001e0078003140980006a2a9000682a80004
:1038a400c0002000408b88003c0037006dd1bf0071
:1038b4000004e000320032006d71ef000662a800df
:1038c40050002000408b8800340037006dd1bf00c9
:1038d4000004e0002c0032006d71ef000010800045
:1038e400804078001e0078004140980006a2a8009d
:1038f4000682a800d0002000408b880027003700f3
:103904006dd1bf000004e000210032006d71ef00b2
:103914000642a80060002000408b88001f0037008a
:103924006dd1bf000004e0001b0032006d71ef0098
:103934006831ef0010c0b3006bf1b7001700370017
:103944006831ef0010c0b3006bf1b700130037000b
:103954000000000011003700000000000f003700d5
:10396400000000000d003700000000000b003700cd
:1039740000000000090037000000000007003700c5
:1039840000000000050037000000000003003700bd
:103994000000000001003700000000006bd1bf00f0
:1039a4000004a2000004e0000cff3a000080fa00ca
:1039b400000006000c00fa00c30607004b070700ce
:1039c400000f78008007070010079800218a800004
:1039d40021079800518a8000310798000c003700b5
:1039e4001e0078000000e000040034000080eb00ba
:1039f400e90007001e0fe900030037001000200053
:103a0400e50007001e0fe80010c0b30042f1b70044
:103a14001e0078000000e000f1ff3a001e00900054
:103a2400e30f500010003200e30f50001000360086
:103a3400e50f500005003200e50f50000e0039007c
:103a4400e60f5000050032000c00370002010700a9
:103a540010c0b30042f1b7000800370010c0b30033
:103a640042f1b700050037000000000003003700f2
:103a740000000000010037000000000042d1bf0038
:103a84000004e00018003200218a80002e0090001b
:103a9400808f500008003200000120004007980089
:103aa400208a800050079800a28880004e00900071
:103ab400de00900002000100518a80003e00900068
:103ac400808f500008003200100120004007980049
:103ad400508a800050079800a28880004e00900011
:103ae400de009000020001000080fa0000000600e1
:103af4000000fa008040eb000040eb00f1020700f8
:103b04007ea897002e0207008040eb0010c0b3008f
:103b1400ec0207000eb09700290207001eb09700c0
:103b2400aeb097003eb197002f0007004eb097004b
:103b3400deb097006eb197002b0007007eb09700af
:103b44008eb897001eb99700270007002eb897007b
:103b5400beb897004eb99700230007000080fa0012
:103b6400000006000800fa002007980031079800ba
:103b74002e009000301f7800201778001e0090005f
:103b8400804078001e00780000407800cd020700d5
:103b94003e009000e10f500007003200e20f500099
:103ba4000a0032000040eb00ef0207000040eb0087
:103bb400120307000a00370010c0b300ea0207002e
:103bc4000040eb000d0307000500370010c0b300f0
:103bd400e502070010c0b30008030700000000005e
:103be4000080fa00000006001400fa007007980034
:103bf400010f9800120f98009e089000010f7800a2
:103c04008e08900011079800fe009000d0cc2c0084
:103c14000008b8004308de00200798002e01900039
:103c2400d0cc2c000010b8004308de00ea00b90034
:103c34000000510030079800ae009000d0cc2c005a
:103c44000008b8004308de00200798002e01900009
:103c5400d0cc2c000010b8004308de00ea00b90004
:103c64000000510040079800ae009000d0cc2c001a
:103c74000008b8004308de00200798002e019000d9
:103c8400d0cc2c000010b8004308de00ea00b900d4
:103c94000000510050079800ae009000d0cc2c00da
:103ca4000008b8004308de00200798002e019000a9
:103cb400d0cc2c000010b8004308de00ea00b900a4
:103cc40000005100600798006e0090000000e000c2
:103cd400080032001e007800804078001e0090002a
:103ce40000407800770207006e009000a9010700e9
:103cf400070037001e007800804078001e00900006
:103d0400004078006f02070000c2b300980107006a
:103d14001e0fe8001e007800804078001e0090000e
:103d240000407800670207005e00900099010700d8
:103d34001e0fe8001e007800804078001e009000ee
:103d4400004078005f020700c0c2b300880107008a
:103d54001e0fe8001e007800804078001e009000ce
:103d640000407800570207004e00900089010700c8
:103d74001e0fe8001e007800804078001e009000ae
:103d8400004078004f0207003e00900081010700c8
:103d94000080fa00000006000400fa0010079800f2
:103da4001e0090000000e00029003200f08980002d
:103db4000000e00026003200f0898000e10f50008e
:103dc4000b003a001e0090000000e00004003400e4
:103dd400e089800030009000e08988001c003700f2
:103de400e089800020009000e089880018003700f6
:103df400e089800040009000000f78001e009000d1
:103e04000000e0000c0034001e00780090007800f0
:103e140040062000808f50000d0036001e00780000
:103e240010007800c1f92f00808040001e00780047
:103e340001087800060037001e00780010007800a2
:103e440041062000808040001e00780001087800b0
:103e54000080fa00000006000000fa00f0898000eb
:103e6400e10f500003003200e20f50000400320062
:103e74000600370020002000f08988000300370086
:103e840010002000f0898800000000000080fa0083
:103e9400000006000200fa00004f7800f08980005c
:103ea4000000e900e10f5000090036001e407800d0
:103eb4000004e0000f00320010002000f0898800a8
:103ec400e0898000f189800026ff07000c0037009c
:103ed4001e4078000004a2000004e0000700320045
:103ee4003e31ef00e0898000f18980001dff07006a
:103ef400030037000000000001003700000000004c
:103f04000080fa00000006000200fa00004f78006a
:103f140011e1a9001021a9001061a9008108800005
:103f24000003200001007000800888000621ef00d3
:103f3400600420006008880011428000000027000f
:103f4400010070001042880000e8a90020e8a800e1
:103f54001e4078000004e0000100320011e1a800d6
:103f64000080fa00000006000200fa00000f78004a
:103f7400f60007009e007800a1888800a06229004e
:103f840000898800b063290010898800228a800093
:103f9400338a800022898800338988004811f80018
:103fa4002811f900528a8000638a800052898800af
:103fb400638988004e11f8002e11f900828a80006e
:103fc400938a800082898800938988005411f800bc
:103fd4003411f900b28a8000c38a8000b289880053
:103fe400c38988005a11f8003a11f900fc87470088
:103ff4007c805700031221000d000900331878005b
:10400400c001b100bafe0700fc875700c0152100ab
:10401400d0888800c0152100e08888004014210061
:10402400f088880060112100008b88006011210055
:10403400108b8800a0142100208b88003e31ef00f3
:1040440060112100e0898800e0898000f189800006
:10405400c4fe07000905070010c0b300aaff07004b
:104064000080fa00000006000e00fa00000f78003d
:104074001107980022079800330798004407980016
:1040840055079800660798001e00780061006000dc
:104094000000e0000c0032001e0078004800de0042
:1040a4006f406000120207001e0078004200de002c
:1040b400f043b200f60107009e007800e0ff2f00f5
:1040c40000806000000f78002e4090000004e000a3
:1040d4002c003200818a80004e009000808f5000b6
:1040e400060032004e009000808a8800808a80009a
:1040f400918a8000a28a8000bbfe0700b18a8000fa
:104104005e009000808f5000060032005e00900038
:10411400b08a8800b08a8000c18a8000d28a800078
:10412400b1fe0700218a80002e009000808f50008d
:10413400060032002e009000208a8800208a800029
:10414400318a8000428a8000a7fe0700518a8000dd
:104154003e009000808f5000060032003e00900028
:10416400508a8800508a8000618a8000728a8000a8
:104174009dfe07000040eb002047980010c0b300ec
:1041840042f1b70042d1bf000004e0000800320051
:1041940010c0b3003fff0700e0898000f189800070
:1041a40070fe07004031ef004271ef000700370056
:1041b400018a8000700c2000808f500003003e00b4
:1041c400008a80000000e800008a8800018a8000dc
:1041d400700c2000808f5000020036000040eb007d
:1041e4002cff07000080fa00000006000600fa0019
:1041f40020079800218a80002e009000808f5000b4
:104204000e003200e0898000301f7800201778000b
:10421400ae009000218a8800208a8000318a8000c4
:10422400428a800070fe07001e00900080407800e3
:104234001e00780000407800220107000080fa0088
:10424400000006000600fa0020079800518a80004a
:104254002e009000808f50000e003200e089800014
:10426400301f780020177800ae009000518a880033
:10427400508a8000618a8000728a80005afe07009a
:104284001e009000804078001e00780000407800f6
:104294000c0107000080fa00000006000600fa0086
:1042a40020079800818a80002e009000808f5000a3
:1042b4000e003200e0898000301f7800201778005b
:1042c400ae009000818a8800808a8000918a8000f4
:1042d400a28a800044fe07001e00900080407800ff
:1042e4001e00780000407800f60007000080fa0005
:1042f400000006000600fa0020079800b18a80003a
:104304002e009000808f50000e003200e089800063
:10431400301f780020177800ae009000b18a880022
:10432400b08a8000c18a8000d28a80002efe0700f5
:104334001e009000804078001e0078000040780045
:10434400e00007000080fa00000006000000fa0008
:10435400e407070010c0b3000f08070010c0b30043
:10436400c7000700400107000080fa0000000600b3
:104374000200fa00004f78001e407800150807007c
:1043840020732000010020001f0807000080fa00ad
:10439400000006000200fa00000f78001e007800fa
:1043a400004078000043b0000a0807002073200092
:1043b40001002000140807000080fa000000060035
:1043c4000400fa00100798000000eb00000f7800ca
:1043d400050037001e0090001e00400010407800c9
:1043e400e3ff07001e0fe8001e0090001df3070006
:1043f4009e0f5000f7ff3e000080fa000000060008
:104404001600fa00200f9800e40047000700090096
:104414008018eb002e0890000000e00005003d002d
:10442400d0c2b300d2ff07002e0890000000ea00bb
:10443400200f98002e0890000000e00029003400ae
:104444000000eb00000f780012003700ae08900067
:10445400a000200000017800110009008200d800ab
:104464008000fd00804078001e0178006400410057
:10447400017778002e099000706626000090b9003c
:10448400c288de004f90de0000805000200f9800ac
:104494001e0fe8002e0890000000e000ebff3a0039
:1044a4000000eb00100798001e00e90010079800b8
:1044b400080037001e009000640040006e40780041
:1044c4000043b000aaff07001e0090000000e900ae
:1044d400100798001e0090000000e000f5ff3d006a
:1044e4000200370000c3b300a1ff07000080fa00f8
:1044f400000006000a00fa00881f780020079800d0
:1045040031079800420798002e009000be009000ea
:10451400a5f1070000007800b9ff07004e009000e5
:104524000000e0003900320000652900a4ff070004
:1045340018c0b3006011b8002e009000be009000b7
:1045440097f107000000e000010035000044eb0093
:104554000804e000050032002e009000be00900028
:1045640001f0a20020079800310798002e00900067
:10457400be009000adf10700000078008000eb0061
:10458400c5f107000001be002e009000be0090009f
:1045940016f10700008fbe0019003700020020004a
:1045a400031224001e0078009e0090000ff2070002
:1045b400008fbe001e0078009e0090009bf1070053
:1045c400000078008eff07001e0078009e00900017
:1045d40096f10700000078008000eb00aef10700c0
:1045e4000001be001e0078009e009000fff007004e
:1045f400008fbe004e0090000000e90040079800c4
:104604004e0090000000e000e4ff3a004f04780000
:104614000080fa00000006000200fa00004f780053
:10462400e0cfb3006b07070020c6b300690707009b
:104634001e40780067070700b07e2d0001002000af
:10464400710707000080fa00000006000200fa006b
:10465400004f7800e0cfb3005e07070010c6b30038
:104664005c0707001e4078005a070700b07e2d0043
:1046740001002000640707000080fa000000060023
:104684000200fa00004f7800e0cfb30051070700a2
:104694001e4078000004e0000300320010c4b300a0
:1046a4004c0707000200370020c4b3004907070085
:1046b4002073200001002000530707000080fa0047
:1046c400000006000400fa002047980031479800d3
:1046d4002e409000e14f50000200360010c0b3009d
:1046e400204798003e409000ef4f500002003600f3
:1046f400f0c0b30030479800be409000014f7800ee
:104704002e409000e14f500002003a0001c4b30073
:104714001ecf4000e0cfb3002e07070050c4b30003
:104724002c0707001e4078002a070700207320008a
:1047340001002000340707000080fa000000060092
:104744000000fa00e0cfb3002207070060c4b30002
:104754002007070050bf2600010020002a07070099
:104764000080fa00000006000200fa00004f780002
:10477400e0cfb300170707001e4078000004e000f4
:104784000300320070c4b3001207070002003700b0
:1047940080c4b3000f07070050bf260001002000ab
:1047a400190707000080fa00000006000000fa0064
:1047b400e0cfb3000707070090c4b3000507070064
:1047c40020732000010020000f0707000080fa007a
:1047d400000006000000fa00e0cfb300fd06070069
:1047e400a0c4b300fb0607002073200001002000d2
:1047f400050707000080fa00000006000200fa0026
:10480400004f7800e0cfb300f20607001e407800a6
:104814000004e00003003200b0c4b300ed0607005a
:1048240002003700c0c4b300ea060700207320006a
:1048340001002000f40607000080fa0000000600d2
:104844000000fa00e0cfb300e2060700e0c4b300c2
:10485400e00607002073200001002000ea0607009c
:104864000080fa00000006000000fa00e0cfb30068
:10487400d806070010c5b300d606070050bf2600af
:1048840001002000e00607000080fa000000060096
:104894000200fa00004f780020c3b3009e40780065
:1048a40080cf50000200360020c3b300004f7800d0
:1048b4001e4078000004e00002003a0010c0b3007b
:1048c400004f7800e0cfb300c206070020c5b30054
:1048d400c00607001e407800be060700c03f220045
:1048e40001002000c80607000080fa00000006004e
:1048f4000200fa00004f78001e407800e84f500094
:104904000200360080c0b300004f78001e407800db
:104914000004e00002003a0010c0b300004f780029
:10492400e0cfb300ab06070030c5b300a90607000b
:104934001e407800a7060700207320000100200015
:10494400b10607000080fa00000006000600fa0025
:104954002047980021079800e0cfb3009d06070088
:1049640040c5b3009b0607002e409000990607003f
:104974000040eb00004f7800060037001e80fb006b
:10498400ae009000008040001040780091060700bf
:104994001e4fe8001e407800e74f5000f7ff360036
:1049a40050e6200001002000970607000080fa006e
:1049b400000006000000fa00e0cfb30085060700ff
:1049c40050c5b300830607002073200001002000b7
:1049d4008d0607000080fa00000006000000fa00bf
:1049e400e0cfb3007b06070060c5b300790607007b
:1049f4002073200001002000830607000080fa00d5
:104a0400000006000000fa00e0cfb30071060700c2
:104a140000c7b3006f06070040fe2100110020000c
:104a2400790607000080fa00000006000000fa0082
:104a3400e0cfb3006706070010c7b30065060700a0
:104a4400a0fb2c00210020006f0607000080fa0064
:104a5400000006000000fa00e0cfb3005d06070086
:104a640020c7b3005b06070040fe210011002000b0
:104a7400650607000080fa00000006000400fa0042
:104a8400889fbe001007980021e2a90021a2a90076
:104a94002182a90001118000f0cf2f000080600066
:104aa4000011880020e2a90020c2a90020a2a900c8
:104ab4002082a9002062a9000111800090ff2f002c
:104ac40000806000001188002002a90023a2a90030
:104ad40023e2a90023c2a9002342a90011118000e6
:104ae400f0f32f00008060001011880022a2a900ba
:104af4001e0090008000eb000001be00804a2200ee
:104b04009111200017f007004c09dd004404de0079
:104b140008047100c48cde00080078000000e9007d
:104b2400401188000300370030118000004f7800e6
:104b34001e4fe80010118000610060000000e000da
:104b4400f9ff3a002422ef000168a9002142800005
:104b5400f0ff280080806000000023000100700046
:104b6400204288002168a80010cea80010aea90039
:104b74002136800000f82f00808060006002200051
:104b8400010070002036880011348000f00f2c00e2
:104b9400008060000080a000103488004f04be0034
:104ba4000080fa00000006000800fa0020079800c0
:104bb400614798000040eb00004f78002e00900001
:104bc4009040780040c2b30080cf50000100320012
:104bd4001e14a0006e4090000080fb000000e9005d
:104be400ae009000008040009040780060c2b300a6
:104bf40080cf5000010032001e24a0002e0090003f
:104c04000080e80090407800a0c3b30080cf50003b
:104c1400010032001e34a0002e0090006400400009
:104c240090407800a0c3b30080cf50000100320050
:104c34001e34a0006e4090000080fb006300500012
:104c4400ae0090000080400090407800a0c3b30004
:104c540080cf5000010032001e34a0001e407800b6
:104c64000004e0002a003a002e0090006300400097
:104c740090407800214798002e4090000080fb006f
:104c8400e80040006e4090000080fb00808f5000e0
:104c94001e003a002e0090000000e800104078004a
:104ca40006f0b700ae4090004200210001497800b0
:104cb4000040eb00104798000f0037001e409000a2
:104cc4000081fb001e4090000080fb006500400056
:104cd400ae009000008040001040780080407800d2
:104ce4006000210000004100114098001e40900027
:104cf4000040e800104798009e4090002e4090002d
:104d040080cf5000edff3900010037001e44a000a1
:104d14001e4078000004e00009003a006e40900054
:104d24000080fb000080e900ae009000008040009d
:104d34001040780003f0b70003d0bf001000070054
:104d44009e40780052002100014978006083800071
:104d5400af06b00061f92f008f80400022002100cf
:104d640033000900b2187800b25878009106b100f7
:104d740000000100af06b1000080fa000000060048
:104d84000200fa00004f780040c2b300540007004c
:104d940000c4b300520007001e4078005000070012
:104da40060c2b3004e0007000080fa000000060055
:104db4000200fa00004f7800e106210091407800db
:104dc40040c6b30080cf5000020036006e70ef0082
:104dd4002b003700d3d0bf000080fb00e10f500050
:104de4000d003200e20f50001a00320040c2b3003e
:104df4009e40780080cf500020003a0040c2b300ab
:104e04006ff0b70010c0b3006ef0b70010c0b3006d
:104e1400d3f0b7001a00370060c2b3009e40780098
:104e240080cf500002003a0020c0b300d3f0b70096
:104e34006ed0bf008080fb00f0062100008040009f
:104e44001e4878006ed0bf000040e8006ef0b70046
:104e54000b0037001e4078000004e00004003a0014
:104e64006ed0bf0080407800f00621004eff07009e
:104e7400d370ef00000000000100370000000000c4
:104e84000080fa00000006000400fa00000f780019
:104e9400110798009e009000618388001e0078002e
:104ea400f6fe07000080fa00000006000200fa0087
:104eb400004f78001e4078000004e0000400320037
:104ec4006e70ef0021e2a8002342a8000200370020
:104ed40021e2a9002342a9000080fa000000060094
:104ee4000200fa00004f78001e80fb0020118800a9
:104ef40000000000111180000010200000806000fc
:104f04000000e000fbff32000080fa000000060011
:104f14000000fa0030118000004078000080fa00a0
:104f2400000006000200fa00004f78001e407800de
:104f3400ebff07000080fa00000006000400fa00fe
:104f4400004f78001107980040c2b300e4ff070047
:104f54001e407800e2ff0700a0c3b300e0ff070093
:104f640060c2b300deff07000080fa000000060004
:104f74000400fa00004f78001107980040c2b30003
:104f8400d7ff070000d0bf000043b000d4ff0700e4
:104f9400a0c3b300d2ff070010c3b300d0ff0700c3
:104fa400a0c3b300ceff07001e00fb00801f7800e3
:104fb400c0642900801f78003ef00700e487570092
:104fc400a0c3b300c6ff07009e009000811f7800b5
:104fd400c0642900801f780036f00700e48757007a
:104fe400a0c3b300beff070020c3b300bcff07008b
:104ff400a0c3b300baff070030c3b300b8ff070073
:1050040060c2b300b6ff07000080fa00000006008b
:105014000000fa000040eb009f040700730407003f
:10502400590407008c0407009404070010c0b3005f
:10503400990407000080fa00000006000200fa004c
:10504400004f78001fe1a9001e21a9001e61a900dc
:10505400f10880000003200001007000f0088800bf
:105064001421ef00803e2000d008880061428000b7
:105074000000270001007000604288000368a90056
:105084002368a8001e4078000004e00001003200fc
:105094001fe1a8000080fa00000006000600fa00e4
:1050a4001007980021079800508d8000e30f5000ee
:1050b4000300340013eea8000040eb002400370086
:1050c40013eea9000000eb00000f78001100370078
:1050d4009e0090001e0078004201dd0000102100b7
:1050e4000000410010007800808f500008003a0052
:1050f400ae0090001e0078004201dd002010210067
:10510400000041000108780010c0b300100037000f
:105114001e0fe800508d80009e007800808f5000a4
:10512400ebff3500508d80000000e800508d8800b2
:10513400508d8000c200dd0000102100008040007e
:105144001e019000ae0190000288be0010c0b300a2
:105154000080fa00000006000400fa00100798001e
:10516400508d80000000e00002003d000040eb0094
:10517400190037001e009000028880001388800008
:105184000288be0010002000000f78000b003700da
:105194001e00e900c200dd00001021000080400074
:1051a4009e0078004209dd000110210081004100c9
:1051b40031187800211078001e0fe800508d80000f
:1051c4009e0f5000f2ff3100508d80000000e90076
:1051d400508d880010c0b3000080fa000000060063
:1051e4000400fa00008fbe001e007800f10f50008a
:1051f40011003200f10f500003003e00f00f500088
:10520400080032001900370001072000810f500008
:105214001200320011072000810f50000b003200f1
:105224001200370010c0b300daf0b7001e0090007f
:10523400e08688000d00370010c0b300daf0b70034
:105244001e009000f0868800080037001e009000c1
:10525400004078008efd0700040037001e00900017
:1052640000407800a2fd07000000000010c0b30059
:105274000080fa00000006000400fa0064ff070042
:1052840040d42100c10120005f0407008c01070005
:1052940000852200360307000085220032fb070048
:1052a40040d42100c101200057040700fe30a800ab
:1052b400f187800030f02f0080806000000a200019
:1052c40001007000f0878800ff10a900ff30a800db
:1052d400ff50a800ff70a90010c0b30057ff0700db
:1052e4000100370000000000d4d0bf000004e0003b
:1052f400fcff3200b0868000e20f50000f00320045
:10530400e20f500003003e00e10f5000080032009d
:1053140004003700e30f50000b003200e40f50008c
:105324000c00320010002000c08688000b003700fb
:1053340020002000c08688000800370030002000cc
:10534400c08688000500370040002000c086880021
:1053540002003700d830ef0000000000b086800063
:10536400e20f50003e003200e20f500003003e0006
:10537400e10f50000e00320008003700e30f500028
:1053840039003200e40f50001100320003003700ee
:105394001e0078009e00900091ff07000e00780028
:1053a4006dff07000004e000f9ff3a002f0037000a
:1053b400dad0bf000004e00002003200e086800082
:1053c4000b010700a00d2100490107002700370049
:1053d400200f21001001780090019000829fbe00f0
:1053e400640040001001780090019000829fbe008c
:1053f400640040001001780090019000829fbe007c
:1054040064004000600e21001001780090019000bb
:10541400829fbe006400400010017800900190005b
:10542400829fbe006400400010017800900190004b
:10543400829fbe0064004000d1868000e286800026
:10544400f38680000487800015878000268780000b
:10545400f087800004fb0700f8875700030037003b
:10546400000000000100370000000000c08680003a
:10547400b0868800d470ef009bff37000000fa006c
:10548400100ea800102ea800000ea8009070800036
:10549400610060000000e0000200320030002000e3
:1054a400108c880090708000620060000000e000b2
:1054b40003003200108c80000000a200108c8800d1
:1054c4000080fa00000006000400fa000040eb002f
:1054d400004f7800708c8000818c80006100400057
:1054e400e0804800708c8800818c8800208c8000cb
:1054f4000080e900208c8800208c80000000e000ff
:1055040001003d008431ef000040eb00104798009b
:1055140090708000610060000000e0000200320032
:1055240030c0b300104798009070800062006000a3
:105534000000e000030032001e4090000004a200be
:1055440010479800108c8000804078001e40900026
:1055540000c05000204798002e4090000000fb003f
:1055640061006000004078000004e0000c0032009c
:105574001e4090000000fb00108c88002e4090001c
:105584000000fb00620060008000e900008c8000e5
:1055940000804000008c880010c0b300004f7800e9
:1055a4001e4078000004e00007003200218c8000d7
:1055b40070be2000808f500003003e00208c8000cd
:1055c40079004000208c8800728c8000838c8000dd
:1055d400508c8000618c8000000151008181590051
:1055e4009000200001002000800f5100818f59009d
:1055f4003c003600708c8000818c8000508c8800c8
:10560400618c880010708000610060000000e00080
:1056140009003a00308c80000000e800308c8800db
:10562400318c800080072000808f500002003600fb
:1056340030002000f08b8800107080006100600052
:105644000000e00019003200308c80000000e0000f
:1056540015003200f08b8000e30f500004003a0084
:1056640040002000f08b88008871ef000e003700a6
:1056740088d1bf00e14f5000090036008118210095
:1056840091407800b0c3b30080cf500006003e00c4
