:020000040000fa
:080000000002040000000000f2
:020000040000fa
:040008002a040000c6
:020000040000fa
:04000c002a040000c2
:020000040000fa
:040010002a040000be
:020000040000fa
:040014002a040000ba
:020000040000fa
:040018002a040000b6
:020000040000fa
:04001c002a040000b2
:020000040000fa
:040020002a040000ae
:020000040000fa
:040024002a040000aa
:020000040000fa
:040028002a040000a6
:020000040000fa
:04002c002a040000a2
:020000040000fa
:040030002a0400009e
:020000040000fa
:040034002a0400009a
:020000040000fa
:040038002a04000096
:020000040000fa
:04003c002a04000092
:020000040000fa
:040040002a0400008e
:020000040000fa
:040044002a0400008a
:020000040000fa
:040048002a04000086
:020000040000fa
:04004c002a04000082
:020000040000fa
:04005000c6030000e3
:020000040000fa
:040054007203000033
:020000040000fa
:040058002a04000076
:020000040000fa
:04005c002a04000072
:020000040000fa
:040060002a0400006e
:020000040000fa
:040064002a0400006a
:020000040000fa
:040068004003000051
:020000040000fa
:04006c002803000065
:020000040000fa
:040070002a0400005e
:020000040000fa
:040074002a0400005a
:020000040000fa
:040078002a04000056
:020000040000fa
:04007c002a04000052
:020000040000fa
:040080002a0400004e
:020000040000fa
:040084002a0400004a
:020000040000fa
:040088002a04000046
:020000040000fa
:04008c002a04000042
:020000040000fa
:040090002a0400003e
:020000040000fa
:04009400e60300007f
:020000040000fa
:040098002a04000036
:020000040000fa
:04009c002a04000032
:020000040000fa
:0400a0002a0400002e
:020000040000fa
:0400a4002a0400002a
:020000040000fa
:0400a8002a04000026
:020000040000fa
:0400ac000e0300003f
:020000040000fa
:0400b0002a0400001e
:020000040000fa
:0400b4002a0400001a
:020000040000fa
:0400b8002a04000016
:020000040000fa
:0400bc002a04000012
:020000040000fa
:0400c0002a0400000e
:020000040000fa
:0400c4002a0400000a
:020000040000fa
:0400c8002a04000006
:020000040000fa
:0400cc002a04000002
:020000040000fa
:0400d0002a040000fe
:020000040000fa
:0400d4002a040000fa
:020000040000fa
:0400d8002a040000f6
:020000040000fa
:0400dc002a040000f2
:020000040000fa
:0400e0002a040000ee
:020000040000fa
:0400e4002a040000ea
:020000040000fa
:0400e8002a040000e6
:020000040000fa
:0400ec002a040000e2
:020000040000fa
:0400f0002a040000de
:020000040000fa
:0400f4002a040000da
:020000040000fa
:0400f8002a040000d6
:020000040000fa
:0400fc002a040000d2
:020000040000fa
:040100002a040000cd
:020000040000fa
:040104002a040000c9
:020000040000fa
:040108002a040000c5
:020000040000fa
:04010c002a040000c1
:020000040000fa
:040110002a040000bd
:020000040000fa
:040114002a040000b9
:020000040000fa
:040118002a040000b5
:020000040000fa
:04011c002a040000b1
:020000040000fa
:040120002a040000ad
:020000040000fa
:040124002a040000a9
:020000040000fa
:040128002a040000a5
:020000040000fa
:04012c002a040000a1
:020000040000fa
:040130002a0400009d
:020000040000fa
:040134002a04000099
:020000040000fa
:040138002a04000095
:020000040000fa
:04013c002a04000091
:020000040000fa
:040140002a0400008d
:020000040000fa
:040144002a04000089
:020000040000fa
:040148002a04000085
:020000040000fa
:04014c002a04000081
:020000040000fa
:040150002a0400007d
:020000040000fa
:040154002a04000079
:020000040000fa
:040158002a04000075
:020000040000fa
:04015c002a04000071
:020000040000fa
:040160002a0400006d
:020000040000fa
:040164002a04000069
:020000040000fa
:040168002a04000065
:020000040000fa
:04016c002a04000061
:020000040000fa
:040170002a0400005d
:020000040000fa
:040174002a04000059
:020000040000fa
:040178002a04000055
:020000040000fa
:04017c002a04000051
:020000040000fa
:040180002a0400004d
:020000040000fa
:040184002a04000049
:020000040000fa
:040188002a04000045
:020000040000fa
:04018c002a04000041
:020000040000fa
:040190002a0400003d
:020000040000fa
:040194002a04000039
:020000040000fa
:040198002a04000035
:020000040000fa
:04019c002a04000031
:020000040000fa
:0401a0002a0400002d
:020000040000fa
:0401a4002a04000029
:020000040000fa
:0401a8002a04000025
:020000040000fa
:0401ac002a04000021
:020000040000fa
:0401b0002a0400001d
:020000040000fa
:0401b4002a04000019
:020000040000fa
:0401b8002a04000015
:020000040000fa
:0401bc002a04000011
:020000040000fa
:0401c0002a0400000d
:020000040000fa
:0401c4002a04000009
:020000040000fa
:0401c8002a04000005
:020000040000fa
:0401cc002a04000001
:020000040000fa
:0401d0002a040000fd
:020000040000fa
:0401d4002a040000f9
:020000040000fa
:0401d8002a040000f5
:020000040000fa
:0401dc002a040000f1
:020000040000fa
:0401e0002a040000ed
:020000040000fa
:0401e4002a040000e9
:020000040000fa
:0401e8002a040000e5
:020000040000fa
:0401ec002a040000e1
:020000040000fa
:0401f0002a040000dd
:020000040000fa
:0401f4002a040000d9
:020000040000fa
:0401f8002a040000d5
:020000040000fa
:0401fc002a040000d1
:020000040000fa
:040200002a040000cc
:020000040000fa
:040204002a040000c8
:020000040000fa
:040208002a040000c4
:020000040000fa
:04020c002a040000c0
:020000040000fa
:040210002a040000bc
:020000040000fa
:040214002a040000b8
:020000040000fa
:040218002a040000b4
:020000040000fa
:04021c002a040000b0
:020000040000fa
:040220002a040000ac
:020000040000fa
:040224002a040000a8
:020000040000fa
:040228002a040000a4
:020000040000fa
:04022c002a040000a0
:020000040000fa
:040230002a0400009c
:020000040000fa
:040234002a04000098
:020000040000fa
:040238002a04000094
:020000040000fa
:04023c002a04000090
:020000040000fa
:040240002a0400008c
:020000040000fa
:040244002a04000088
:020000040000fa
:040248002a04000084
:020000040000fa
:04024c002a04000080
:020000040000fa
:040250002a0400007c
:020000040000fa
:040254002a04000078
:020000040000fa
:040258002a04000074
:020000040000fa
:04025c002a04000070
:020000040000fa
:040260002a0400006c
:020000040000fa
:040264002a04000068
:020000040000fa
:040268002a04000064
:020000040000fa
:04026c002a04000060
:020000040000fa
:040270002a0400005c
:020000040000fa
:040274002a04000058
:020000040000fa
:040278002a04000054
:020000040000fa
:04027c002a04000050
:020000040000fa
:040280002a0400004c
:020000040000fa
:100400006f2721000eff27000e018800000000006a
:10041000000020000000e000020032000001200087
:100420002002880014000700810107000000e0009e
:1004300003003a00e0f6220001002000020037002d
:100440000000200001002000810f70000100320038
:100450000f000700000020000000e0000200320052
:100460000000020000000000002302000000000065
:100470000040da000000fe00000a20000000e0005a
:1004800002003200002020009001880000000600d9
:10049000a1028800800478000000eb001f003700f4
:1004a000e284440054a0b4009905ba00e2844400f8
:1004b00054a0b4009906ba00e284440054a0b400e9
:1004c0000006eb00476fde00fd07b200ae018800ba
:1004d000636ce10003003a000ad801000000eb0061
:1004e0000e003700606ce10008003a00004deb00a0
:1004f0000a05e800020039003420ec000af0a000f0
:100500008b05e900f9ff3e00040037006168e10057
:10051000010032000086eb000b00070019c7ba008b
:100520000e04e0001905ba0003003a000a00e000da
:10053000dbff3a0000000600fe07b200ae028800b2
:100540008a047800f5ff37000cd0a300e20f4d00bd
:100550001c00390089027800354dba000a05e80010
:10056000020039003420ec000af0a0008b05e900fd
:100570000f003200254dba000a05e80002003900dc
:100580003420ec000af0a0008b05e90008003200de
:100590000c00e0000600320015cdba000a05e800a4
:1005a000020039003420ec000af0a0008b05e900bd
:1005b0008984e80054a0b4000b00e000e2ff3a0098
:1005c000000006009902ba00055d78008b05e9007d
:1005d000f7ff3200c82ade00055d78008b05e900d0
:1005e000f3ff32000c00e000f1ff320019ddba0029
:1005f000eeff37001631040000000000161e040054
:100600000000000062080400000000004212040024
:10061000000000000000040000000000801f7800bf
:100620000000fa0020408000620060000000e0004e
:100630000400320013aea8004013800080848800bc
:100640000428a9000080fa004f007800004006004e
:10065000801f78000000fa001040800062006000f7
:100660000000e0000300320010c0b3006ff0b700dc
:100670000228a9000080fa004f0078000040060020
:100680003600f800809fbe00829fbe00849fbe009f
:10069000869fbe000000fa001040800061006000ec
:1006a0000000e0000800320010c0b3006ef0b70098
:1006b0000208a900d309070040838000e60f50001c
:1006c00001003a00cf0907000080fa004f03be0086
:1006d0004f02be004f01be004f00be003600f900c1
:1006e000004006003600f800809fbe00829fbe00da
:1006f000849fbe00869fbe000200fa000140800079
:1007000000802000008060000000e000180032003f
:1007100030118000004f78000168a900101180009e
:10072000640060000000e000020032008670ef000c
:100730000f00370010118000620060000000e00030
:10074000090032000040eb00de120700800b2000a1
:1007500001002000bd18070010c0b300d912070027
:100760008670ef00020037001e40780095120700e7
:100770000080fa004f03be004f02be004f01be00d2
:100780004f00be003600f90000400600809fbe000a
:100790000000fa000140800000402000008060005e
:1007a0000000e000060032004012800000407800a7
:1007b00094f0b70010c0b30095f0b7000148a9004d
:1007c0000080fa004f00be00004006003600f8002e
:1007d000809fbe00829fbe00849fbe00869fbe0099
:1007e0000000fa00114080000080200000806000be
:1007f0000000e00010003200107080006100600016
:1008000000f0a7000000ea000000e9004f00de0051
:10081000004078000080fb006100600012708000e2
:10082000e1ff2f008100610001007000107088005e
:10083000a20d07000368a9000080fa004f03be0064
:100840004f02be004f01be004f00be003600f9004f
:10085000004006000040da000000fe000a00fa0036
:1008600011002000b1bf9f00c0bf9f006a805700e9
:10087000f60707004fb897000080fa000000060056
:100880000a00fa00e20f500034003e00909380000e
:10089000e10f500003003200e20f500011003a0057
:1008a0000c003700032220000300e00001003a00a2
:1008b0000040da002002e200020035002822ef00aa
:1008c00021e2a8002342ab000d003a002342a80019
:1008d0000b003700032320000300e00001003a0072
:1008e0000040da003002e200020035003822ef005a
:1008f00031e2a8003342ab0001003a003342a800c5
:10090000820178000b0037003102fb00e10f50003c
:1009100004003a002322ab00feff3a0024118800b5
:10092000030037003322ab00feff3a00a411880019
:100930008301e9000300e000f3ff3a00e10f5000fb
:1009400003003a002302ab00feff32000b00370029
:100950003302ab00feff32000800370033002000f6
:10096000b3bf9f00c0bf9f00d1bf9f00e2bf9f00e9
:100970006a805700b70707006fb997000200780038
:100980000080fa00000006000a00fa005100200072
:10099000b1bf9f00c0bf9f006a805700af0707002c
:1009a0005fb897000080fa0000000600889fbe0034
:1009b00080047800a09380000000e00004003a006a
:1009c0000e0007000084eb000000e0000800350086
:1009d000a89380000900e0000500320009004400ef
:1009e000060007000000e00001003d000084eb006d
:1009f000080078004f04be00000006008000780068
:100a00000100e00003003a0000002000a0938800ed
:100a1000000005000080eb0002002000828f5000e3
:100a200002003e00a19388000000eb0000000600d9
:100a30000000050003f0a200889fbe008a9fbe0050
:100a40008c1f7800e3000700ea0033006450e100e7
:100a50004f0032006420e1005200320003826c003b
:100a600007003b000905d0000306d000820f5400a8
:100a70000c065d0002003900020032008901780096
:100a8000030678008582550004003d000003fd0048
:100a90008103fd008502ea008b854200840f72000d
:100aa00002003b0060001000e08018006011b800f8
:100ab0000005eb007a28e1000a0039000600780002
:100ac000c75ddd00f707b200878075002d00370095
:100ad000828171000a017800610560008180d10087
:100ae0000080d3008502e900f9ff3b0006044000c6
:100af0008784480002003b0060041400e0841c006e
:100b00000988a300070032008a8171008281710088
:100b1000610164008904d1000884d3008b05e800da
:100b2000170037000978a30013003a000b00e0001b
:100b3000130034008b05e9000804440089844c004c
:100b40000a4474000978a3000d003a000b00e0008d
:100b5000070034008b05e9000804440089844c0038
:100b600001003a000b0020000978a300f7ff3200d3
:100b70000001eb0002003700828171000a01780059
:100b8000590007000cf0a70001f0a000a2003700f8
:100b90006420e10002003a00838f6c00a200330061
:100ba0000801be000200be009b003700839f680062
:100bb0000100e00002003d0060001000e08018002d
:100bc0000300e00002003d0060011100e081190017
:100bd000cc0007004f00e00002003b006000100066
:100be000e08018000000060014002000d500370047
:100bf0000001be00620007000470a70003f0a1001e
:100c00006509b100160032000d0035006828e100ca
:100c100006003500f0ff2f00f1ff27000300e00081
:100c200013003b0001002800000005000000400008
:100c3000818048008502e900fcff3a000800370087
:100c4000f88f420002003c008000eb00000005002d
:100c50008100d1000080d3008502e800fcff3a004b
:100c60000300e00002003b0060001000e08018007c
:100c7000000006000001be00410007000470a7004c
:100c800003f0a10003f8a30013003a006509b100c6
:100c900010003200090035006928e100020035002b
:100ca000010028000000050000004000818048008d
:100cb0008502e900fcff3a0000000600f88f4200c0
:100cc000050035008100d1000080d3008502e800d6
:100cd000fcff3a00000006008000eb000000050069
:100ce0006011b800b200370081002000618055001b
:100cf0000b003d000b00200061fe2f000100e10011
:100d00001d00340082817100610164008904d100fa
:100d10000884d3000000e800faff3a0071002000c8
:100d200061006400030070000200600009003200ee
:100d300061044400e0844c000988a50005003200ed
:100d40008b05e8006808e10002003a008904d10040
:100d50000884d300f20f20000258e10005003d0096
:100d6000c75ddd00f907b2008980750008007800d2
:100d7000000006000bf827008b007800000005003b
:100d8000c70ade00f107b200f50fb200080032001a
:100d9000e1cf4200020032000170a00024000500f3
:100da000810f7000010032000408050044000500b6
:100db000810f700002003a00140005008502e9006e
:100dc0000000400081c04800fcff3b000170a00013
:100dd000240005000004be00e9ff07000003be0078
:100de0000405be000200be00e5ff0700844f750049
:100df000000006000200be006450e100050036005d
:100e00006420e100020036000968a30001003a00f6
:100e10000800be000160a0004f0678004f05be002c
:100e20004f04be0000000600f0ff2f00f1ff270076
:100e3000f9ff3700889fbe008a9fbe008c1f780094
:100e4000e4ff0700ebff330003866c006450e10011
:100e5000240032006420e100270032006150e100ec
:100e6000220032006120e100210032008b85420027
:100e7000eb07b1000134b800003ab80008044200a2
:100e800089844a00013ab8000030b80088804000e8
:100e900009014a000400330000004000818048003e
:100ea000020149008b05e900c909dd0083017000da
:100eb0000100320013002000c814de004814dd00d9
:100ec0004709de001200b200c808de000884700086
:100ed00085ff070001f0a1000cf0a70001f0a000c1
:100ee000cdff37006120e100cfff32000801be00d6
:100ef0000200be00f7ff37006150e100fcff3a003e
:100f0000c9ff37006022b800060220000000d000b0
:100f10008180d2000482d2008582d2000000a0002d
:100f20000202520083825a00030031000202420092
:100f300083824a000000a1000603e900f3ff3a00a3
:100f400000000600889fbe008a9fbe00841f7800b4
:100f5000a0ff07004f00780011003300f0ff2f00c2
:100f6000838f6c0006003b00040565000a00a700a3
:100f70000800370009f0a600100020000800370024
:100f8000820f5400838f5c000300390010002000a2
:100f900001003e000000200009f0a7000000ea0068
:100fa0004f05be004f04be000000e0000000060038
:100fb000889fbe008a9fbe000082700004027100fc
:100fc00004827100260032000004be000200be0050
:100fd0006011b8006b092000950220000182cf004b
:100fe0000a0039000541b1000082cf000700390036
:100ff0000541b1000982cf00040039000541b1006c
:101000000882cf00010039000541b10005425200bd
:10101000120032000a003b0082817100610164000d
:101020008100d1000080d3008984d3000884d300dc
:101030008b05e8000442e800f7ff3a00070037009c
:101040000804440089844c00000048008180480066
:101050008b05e9000442e900f9ff3a0022ff07008e
:101060004f05be004f04be0000000600020037001e
:101070000204e0000b0032008101780000027800d9
:1010800030417800b14f5100f9ff320010002000cc
:1010900014427800934f5200030031000080eb00af
:1010a000000006000000eb00000006008000780051
:1010b000010178003104e000fdff3a00000051001a
:1010c00000000600889fbe00000478000100780040
:1010d000820478008801780009017800110020005e
:1010e000e2010700890f5000010032000004eb000c
:1010f000080078004f04be00000006000000fa005f
:10110000e88157004fb99700e118210020862000a0
:10111000020007000080fa00000006006200fa00ea
:10112000889fbe008a1f780000057800810478003f
:10113000020478008300780080f92f000f0040003f
:101140007b0407009a979f00a9979f000000eb007f
:10115000b09f9f001885fb008a04fb000a05ea0087
:101160004f55de0050022000808f54000d003200e9
:10117000e10f55000b003a000a0178008800780062
:101180002f9097009f91970003000100a0979f0068
:101190000000e0008e0032003f9897000000e80059
:1011a000b09f9f000a04440050022000808f54002a
:1011b000040032000900e000e6ff3a003f98970083
:1011c000840037000000eb00909f9f00809f9f00ed
:1011d000f0979f00e0979f00d0979f00c0979f00d7
:1011e00007003700c124210001005000000040002a
:1011f00001242100808040005f989700110070005a
:10120000d09f9f0088047800090478003845780052
:101210008a00fb00c0242100f90107000000e00063
:10122000f0ff3a00a1c2b300814f55000e003a0012
:10123000cf8897000180e900c08f9f0010007800e0
:10124000c09f9f000000e00005003d000000ea0094
:10125000c09f9f005f9897000020a000d09f9f0034
:101260000904e8000f003700c09f9f000000eb005a
:1012700005003700f2ff2700820f50000200320005
:10128000ea00b90000804000090478008804780072
:10129000b900fb000103b100e98f5000f5ff3600f3
:1012a000c09f9f00e0c2b300984f100002003200c0
:1012b0000080eb0019003700a0c2b300d84f100027
:1012c00007003a00cf8897000180e900c08f9f0097
:1012d00010007800a09f9f000804e800100037006d
:1012e0000000eb00a09f9f008800780005003700f9
:1012f000f3ff2700830f500002003200ea00b9001c
:101300000000410001047800880078003101fb00f2
:101310000203b100e90f5100f5ff3600a09f9f00c6
:10132000984478008900fb0080232100b401070065
:101330000000e000020032000804e800010037006d
:101340008044eb00c97f9f0080c6b30080cf54006b
:1013500004003a0098cf14000a003a00664050009a
:1013600006003700c0c6b30080cf540005003a0025
:1013700098cf140003003a0065404000c07f9f00f2
:101380000804e8001801fb00e3fb2f008f814100f7
:1013900081f92f008f804000a0f92f000f0040003e
:1013a000100007000000e00009003a00e1fb2f00f8
:1013b0008f804000a0f92f000f004000200307009d
:1013c0000000e000020035000804e80061ff37007b
:1013d0000080eb004f0578004f04be000080fa004b
:1013e00000000600889fbe008a9fbe00e4c6b300ce
:1013f000844f5100ce00320010003c006b4252007e
:10140000844f51001800320005003c0054c2b30064
:10141000844f51000601320084c5b3000f0037002d
:1014200044c6b300844f51001500320065424200ab
:10143000844f510001013a001100370004c7b30086
:10144000844f5100ed0032005f00350065424200dc
:10145000844f51005c00320063424200844f5100cf
:10146000f6003a00580037001181e9008208780040
:10147000f00090008181410092497800f50037002a
:1014800020629000c5c6b300854f520008003a00a4
:1014900091027800648252008408780094029000df
:1014a000140278004fabde00860378001600370088
:1014b00015c7b300854f520003003a0011047800ad
:1014c0006802540005003700a5c6b300854f5200de
:1014d00008003a009104780068825400840878007b
:1014e0009402900024039000b4039000140278004a
:1014f000050037001182e9008408780014027800a2
:10150000cfa2de00612bb9000498be000690be0099
:10151000a060900088c6b30088cf50000d00320054
:1015200028c6b30088cf500004003a000402fb0034
:10153000cfa2de00612bb9000800370048c7b30016
:1015400088cf5000030032006644440088cf50002a
:1015500004003a00cfa2de00612bb9000498be005f
:101560000690be00100278009002900020039000c8
:10157000b0039000f0009000e00f5200e08f5a009e
:10158000e00f5b00e08f5b0003003d000182410043
:10159000d5c2b3000a003700001290000418a3005f
:1015a0000300320001824100b5c2b30004003700dd
:1015b0000408a300590032000182410005c2b300b3
:1015c000054a78005300370020629000c5c6b3007a
:1015d000854f520009003a00110578006402550059
:1015e0008408780014047800940490006055b800d2
:1015f0000802be000a03be001600370015c7b3007c
:10160000854f520003003a0091047800688254002c
:1016100005003700a5c6b300854f520008003a0008
:101620001105780068025500840878009402900043
:1016300024039000b40390001402780005003700e2
:101640001182e90084087800140278008002eb001f
:101650006033b8000498be000690be00a060900001
:1016600088c6b30088cf50000d00320028c6b300f2
:1016700088cf500004003a000482fb008002eb0097
:101680006033b8000800370048c7b30088cf500067
:10169000030032006644440088cf500004003a0042
:1016a0008002eb006033b8000498be000690be00d4
:1016b000801090000138a30018003200100278005a
:1016c0009002900020039000b0039000e00f5200c1
:1016d000e08f5a00e00f5b00e08f5b000f003200ec
:1016e00081c7b300814f51000300320081c5b300b0
:1016f000814f510009003a00f00090000182410042
:1017000005c3b300054a78008100e800018241006a
:10171000024a78008100e80071009800f000900013
:101720008181410063009800824078003e003700cc
:10173000a0619000c4c6b3001181e90084cf5100bc
:10174000220032000a003c006442520084cf510063
:101750002500320004c2e80084cf5100130032009b
:101760006842520084cf51001e003a000a00370040
:1017700044c7b30084cf51001b00320066424200d0
:1017800084cf5100180032006942520084cf5100ca
:1017900014003a00050037008208780092007800b3
:1017a00040589000804878002c003700820878006c
:1017b00092007800600a9000cfa2de00612bb90091
:1017c0008498be008690be0024003700820878000e
:1017d0009200780060099000cf91de008288be0000
:1017e0001e0037001181e90082087800920078001d
:1017f0006008900080087800180037001181e90027
:101800008208780012027800cfa2de00612bb900b6
:101810000498be000690be00f00090008181410057
:101820006300980081c7b300c80007000b003700b1
:10183000f00090008181410005003700f000900029
:10184000818141000204e00001003a0052c2b3006d
:10185000824978008100e800710098000000eb00e8
:101860004f05be004f04be0000000600889fbe006a
:101870008a9fbe008c9fbe008e1f780000067800f5
:101880000104780002007800830478008881b900a0
:10189000020778000e00e000420032000800e0007d
:1018a000410032008e057800c90090006900900068
:1018b000808f500004003900090078005c000700a8
:1018c0000000e00029003500004020001900600001
:1018d0000a0032000b017800a10020000c00780003
:1018e00036000700800678000d00e0000600320098
:1018f000610516000a854600040037000b057800d4
:101900008006eb00010037000b05780049009000cd
:10191000e9009000808050008a8f50000200310062
:10192000010578008006eb000a0178008c00780041
:101930002c0007008a855500490090000a004000ed
:10194000c00498000d00e000040032000900780097
:10195000dd0207000000e00004003a000b00e00098
:10196000020032000a064600cfff37000080200048
:10197000190060000200320009007800d20207005e
:1019800000c02000190060000200320049009000f1
:10199000e00498008b055700110009008885d800e5
:1019a000010037000000eb004f0778004f06be0033
:1019b0004f05be004f04be000000060003003700c4
:1019c000b0cf1000050032000201e900800178006c
:1019d0000200e000faff3a00000005000300780072
:1019e000000006008001780002003700b15978003d
:1019f0000201e9000200e000fcff3a0000000600de
:101a0000020037000304e000060032000001780005
:101a100002007800b041780081cf5100f9ff3a0010
:101a2000010037000001eb00020078000000060012
:101a3000889fbe008a1f780000047800c8009000cc
:101a4000680190000000eb00828f50003c003900dc
:101a5000180078002200290002016000e20f510006
:101a600007003200012024000000e00001003d00da
:101a700001202000008c70000080eb003000370057
:101a80000200260002006000820f500009003a00a8
:101a900038009000808f5000060039000800780060
:101aa00089020700800078000080eb000100e00060
:101ab00023003a001805780000c0200000006500ef
:101ac00018003a00a80490006002200008004000be
:101ad000808f540013003a000020200027030700e5
:101ae000200498000000e00005003a002904980056
:101af000490498008904e800390498000800370078
:101b00000a60a0000a0c7800400498000120200020
:101b10008080400031049800400c9800500c9800e0
:101b20000702070028009000500498003800900039
:101b30006004980000002600180c70000000eb0004
:101b40004f0578004f04be0000000600fc874700e8
:101b5000889fbe008a9fbe008c9fbe008e1f7800ab
:101b60000006780080c5b30080cf50000a00320024
:101b70007740400080cf50000a00320069404000aa
:101b800080cf50000b0032007022210080bf9f00e8
:101b9000ae0020000a0037006221210082bf9f00b2
:101ba000060037007322210083bf9f008e002000b3
:101bb000030037007422210084bf9f000e01200023
:101bc0001c0278009c0290002c039000bc03900043
:101bd0000605be000404be0040c6b30080cf50001e
:101be000030032006540400080cf50000b003a00f7
:101bf000e00f5200e08f5a00e00f5b00e08f5b00c7
:101c000006003d006000b8006011b80004045000f8
:101c1000858458000605590087855900e80f57004c
:101c20000400320040002000f00f57003c003a0052
:101c30000100370030002000e00f5400e08f5c000e
:101c4000e00f5d00e08f5d0004003a00dc089000ca
:101c50008d0120000100e000070032008e00e90045
:101c6000888060008fba97008180420091407800a0
:101c7000f1ef9f007d012000800078008100e900e5
:101c8000050033008b05d1000a85d3008984d30079
:101c90000884d300f9ff3700089ebe000a96be00f4
:101ca000130037008d06e9008e00e9008480600093
:101cb0000fb99700810041001141780083fd2f008a
:101cc0008d81410082f77900800178008301e9006d
:101cd000050033008783d1000683d3008582d300bb
:101ce0000482d300f9ff3700049ebe000696be00b2
:101cf0001c0278009c0290002c039000bc03900012
:101d0000e00f5200e08f5a00e00f5b00e08f5b00b5
:101d1000930034000d00e000e2ff3c00900037002b
:101d20002c60900081c6b300814f50000b00320040
:101d300006003c000004e00008003200e6c050004d
:101d4000814f500052003a0004003700c1c6b30072
:101d5000814f50004e003a00230037000800e00099
:101d600004003a005c0890008d0120000000e000b3
:101d700007003200110009000e84d8000fba970046
:101d80000100420010407800f0ef9f007d0120002c
:101d9000110009000e84d8000b0037001100090063
:101da0000e04d8008d06e9008e81b90002045400ab
:101db0008fb89700088440009841780082fd2f007a
:101dc0000d01410083777900000478000800e000ed
:101dd000020032000d00e000f0ff3c00cfc4de0046
:101de000614db90027003700e00f5400e08f5c0020
:101df00004003a005c0890008d0120000000e00023
:101e0000080032006171b9000800be0095020700a9
:101e10000fba97008000420091407800f1ef9f00d8
:101e20007d0120006171b9000800be0035fc07008b
:101e30000c0037006171b9000800be005bfb0700b1
:101e40008d06e90080f1b900020454008fba9700b2
:101e5000088442009841780082fd2f000d01410066
:101e6000837779000004be00e00f5000e08f580037
:101e7000020032000d00e000eeff3c004fcdde001e
:101e80008a057800089ebe000a96be00340037001e
:101e9000e00f5400e08f5c00e00f5d00e08f5d001c
:101ea00004003a005c0890008d0120000000e00072
:101eb0000a0032006172b900612bb9000800be004f
:101ec0000a01be00120307000fba9700800042000b
:101ed00091407800f1ef9f007d0120006172b90010
:101ee000612bb9000800be000a01be000103070013
:101ef0000e0037006172b900612bb9000800be0006
:101f00000a01be00060307008d06e90080f2b90051
:101f1000040454008fba9700088442009842780065
:101f200084fd2f000d02420085777a00009ebe00de
:101f30000296be001c0478009c0490002c059000c2
:101f4000bc059000e00f5400e08f5c00e00f5d00e6
:101f5000e08f5d00020034000d00e000e5ff3c0072
:101f6000e80f570010003a000c1090000038a30052
:101f70000d003200f78f560006003e0080fd2f0056
:101f80000d004000ef40780000c3b30080cf500048
:101f90000500320002c3b30071fd2f008d804000a8
:101fa0008d06e90082f7780078811600120e9800fd
:101fb0006c00900083fd2f008f8141008d804100d7
:101fc00088fe07001c089000dc089000810f50007c
:101fd00006003d0000805000000e98000c1090009c
:101fe0000040a100001698000f0037000100e0003b
:101ff0000d003d008c109000f4806000f08f5000c8
:1020000009003a007c099000fc009000810051001a
:102010000c09900082805000008050004240a900ce
:1020200001003400000e98004f0778004f06be00f4
:102030004f05be004f04be00cf01b10000000600f6
:102040000400fa00889fbe008a9fbe008c1f7800a3
:102050000004780001067800f80d900078009000e8
:10206000808555000808900080855500180890006c
:10207000808555002808900080855500380890001c
:102080008085550048089000808555000002220098
:1020900090bf9f0000032300a0bf9f000810900086
:1020a0000028a30015003a000b00e00013003400e4
:1020b0000b0578008a047800e20f55000100360015
:1020c00029002000c801900009017800ee80570027
:1020d0005800900003000100500498000000e00048
:1020e0008c0032006808900009004000600c9800e5
:1020f000090555004240a900eeff3c007801900020
:102100000200e0000c003400c80190008c00780050
:102110005800900003000100500498008080eb00fc
:102120000000e0007c003200e80890007800900099
:1021300000804000600c9800880c90000900e000ce
:102140001100340009057800e28f540001003600c8
:102150002a002000c80190000a017800ec80570096
:102160005800900003000100500498000000e000b7
:1021700068003200680890000a004000600c980077
:102180008a845400edff3700180990000200e00037
:102190000c003400c8019000e80090005800900046
:1021a00003000100500498008080eb000000e00074
:1021b00059003200e80890001808900000804000a4
:1021c000600c9800a80c90000900e0001100340099
:1021d00009057800e28f5400010036002a00200033
:1021e000c80190000a017800ec8057005800900068
:1021f00003000100500498000000e0004500320098
:10220000680890000a004000600c98008a8454001e
:10221000edff3700380990000200e0000e003400a6
:10222000e80090001808900080804000c8019000ed
:102230005800900003000100500498008080eb00db
:102240000000e00034003200e808900038089000f8
:1022500000804000600c9800c80c90000900e0006d
:102260001100340009057800e28f540001003600a7
:102270002a002000c80190000a017800ec80570075
:102280005800900003000100500498000000e00096
:1022900020003200680890000a004000600c98009e
:1022a0008a845400edff3700081090008000eb0096
:1022b0000028a300180032000b00e00016003400d4
:1022c0008b04780009057800e28f54000100360085
:1022d0002a002000c80190000a017800ee80570013
:1022e0005800900003000100500498000000e00036
:1022f00008003200680890000a004000600c980056
:102300008a8454004240a900eeff3c008000eb00ac
:10231000010037008080eb00010078004f06780054
:102320004f05be004f04be000080fa00000006000a
:102330000108780000000600202421009d003700dd
:10234000881f7800e82621001804e00003003a0006
:10235000f9ff070020c0b300004c78004f0478005c
:1023600000000600889fbe00000478000800780086
:102370005500070080047800000420001800600069
:102380000200320028009000970007000000eb00d8
:1023900020049800384090000004e000050035005b
:1023a0000000fb002df907000000e00001003200f2
:1023b0008084eb00181090000000e000080032005c
:1023c00071f907000000e000010032008084eb009a
:1023d00018109000840007000000eb001014980013
:1023e0000008200018006000150032000001eb001a
:1023f0006000b8000202d000e31d21000302420089
:10240000940f140005003a0000004000818048004d
:10241000008041000008eb0006003700610040002a
:10242000e08048000201e800e80f5000e08f58000b
:10243000f0ff3a00080078006b0007000e0037003c
:10244000000c780000c0eb003044980060022000cf
:1024500008004000200498004004980050049800b0
:10246000400c980060049800500c9800700498008c
:1024700076004400000c9800090078004f04be006c
:1024800000000600881f78000004eb006140b800df
:10249000e2ff2f00f3ff2f00f5000700c21e21000e
:1024a00080004100110078000000e00001003200cf
:1024b000acff07000804e800e80f5400f3ff3a00ff
:1024c0004f04780000000600889fbe0000047800da
:1024d0000800e0000f003a008004eb008800d00004
:1024e000e01d210000804000100078000000e000a6
:1024f00004003200f4ff07000000e00001003d008e
:102500008084eb000804e800e80f5400f3ff3a0071
:102510002500370000002200180060008004eb0056
:1025200021003200a80490000f003700090151007b
:10253000384090000000fb0089007800d0f80700c8
:102540000000e00007003c002800900040049800d4
:1025500060049800500c98001890a0008084eb0054
:10256000110037008084440048019000828f54009d
:10257000eeff390028009000400498009800780091
:1025800002c020000281600001003a003800900083
:1025900001e8a30002003200600498000100370047
:1025a000500c98008004eb00090078004f04be0036
:1025b00000000600010020000100e00009003200d8
:1025c000010080000100e000060032008100e90007
:1025d000010088008100d00002008000828040005d
:1025e00080087800000006000000e0002f003200a4
:1025f000c0017800e38f51002c0036000308a300cf
:102600002a003a00619380000100e00002003200dd
:10261000810f500004003100110098006093880081
:102620001600370082007800110190000200e000df
:1026300002003200800f5100faff390011027800c9
:1026400084824000850f500018003900808f5200ae
:1026500003003a00830842000100780007003700b9
:102660000200e0000300320083014000830f5100ac
:102670000e00390012009800900098009000900021
:102680000100e0000900320010014000828f50007c
:1026900006003a00a22621000009eb001001780094
:1026a0001108410091009000110098000000060000
:1026b000889fbe0000047800519380000100e00074
:1026c00002003200010078000d00370061938000a5
:1026d000c026210004003700910f54002500360069
:1026e0000180e800910090000100e000faff3a004c
:1026f00010003700920f54001e0036000280e800e0
:10270000100178000200e000faff3a0011017800a1
:1027100061938000c026210004003700910f54000f
:10272000140036000180e80091009000828f500074
:10273000faff3a0089938000888f5400010031002d
:102740008804780009007800360007000000e000e7
:1027500004003a00888f5400050032008904d1003b
:10276000f5ff3700091878009fff0700d2ff3700f8
:102770000000eb004f04be0000000600881f780038
:10278000630440000800a1008000eb00800f5400ab
:1027900021003600e30f540001003e0048002000f5
:1027a00008007800c2ff07008000eb000000e00096
:1027b0001900320090007800910178006481510086
:1027c000880f5100030031001101900002087800c9
:1027d000070037000881400002087800910190004e
:1027e000130198001001780011091400880878007e
:1027f000100178000000eb000200e000040032004d
:10280000920190000300e000010032000280e80025
:10281000509388008180e800010078004f04780020
:1028200000000600800078000000eb000100e000de
:1028300005003400010078005cf80700e10f40005b
:1028400001003a000000eb000000060000c0da00c2
:102850000000060000c0da000000060000c0da0038
:1028600000000600a7f907000400be0000000600f3
:10287000020ab900001bb9000200b8008100420042
:102880008100430000000600889fbe008a9fbe00b2
:1028900030044200b0844a0030054b0090854b0064
:1028a0006000b1000898be000a90be000440e1003c
:1028b00005c8e10006d0e10007d8e10002003100c0
:1028c000680040001008e8004f05be004f04be003d
:1028d00000000600889fbe008a9fbe00100478009a
:1028e0009004900020059000b0059000041854005a
:1028f00005985c0006185d0007985d001100200037
:102900000440e10005c8e10006d0e10007d8e1007d
:10291000010039008000eb00108810004f05be0058
:102920004f04be00000006001200fa00889fbe009f
:102930008a9fbe008c9fbe00e0b79f00f1b79f004a
:1029400082bf9f0093bf9f000605be000404be0027
:102950000000eb00d0b79f00c0b79f00b0b79f004a
:10296000a0b79f0090b79f000006eb005fb19700f3
:10297000cfb09700820141003fb097000200e00015
:1029800004003d00370007007e805700beff0700af
:1029900003003700330007007e805700cdff07009b
:1029a000dfb697000d00e0000c0035006fb2970015
:1029b000ffb297000fbb97009fbb9700100020004d
:1029c000010020006011b8000002720081827200d4
:1029d00002037300838373001b0007000c06e800ea
:1029e00001042000810f5600e0ff3a000d00e000d6
:1029f00004003d000802be000a03be007e805700ae
:102a0000a1ff07005fa897000000e00005003a0062
:102a10001fb29700afb297003fb39700cfb39700b4
:102a2000090007006fb09700ffb097000fb997003b
:102a30009fb997004f06be004f05be004f04be0071
:102a40000080fa00000006000100070000000600f8
:102a5000a4b79f00b5b79f00c6b79f00d7b79f0028
:102a6000000006004f09de0082817100b3b79f00ad
:102a70004f01de008180400082807000a1b79f007e
:102a80008fb097004f09de00000040000200700088
:102a900090b79f007fa897004f01de008180400023
:102aa0008280700081b79f000d0007004f3ade0062
:102ab0000000400004007000f0af9f000800070015
:102ac0000402420085824a0006034b0087834b00c4
:102ad000dfff07000802be000a03be000000060078
:102ae0002fb29700bfb297004fb39700dfb39700a4
:102af00000000600881f780018002000881f78005a
:102b000089ff07008f87e9004f0478000000060066
:102b1000801feb0084ff07008f87e900000006009c
:102b2000889fbe008a9fbe00e00f5000e08f5800d3
:102b3000e00f5900e08f59000c003d006044b800e0
:102b40006055b8000000540081805c0002015d0007
:102b500083815d00180020001500070008003d007b
:102b6000180007000004eb00050037000004eb002c
:102b70000f00070002003d001200070018002000af
:102b8000dcff07000800e000060032006022b80009
:102b90006033b8000000520081805a0002015b00df
:102ba00083815b004f05be004f04be00000006009d
:102bb000e00f5200e08f5a00e00f5b00e08f5b00f7
:102bc000000006006044b8006055b80004025400dc
:102bd00085825c0006035d0087835d0000000600bf
:102be000889fbe008a9fbe008c1f7800e00f5000b7
:102bf000e08f5800e00f5900e08f59000d003d00b4
:102c00006044b8006055b8000000540081805c004a
:102c100002015d0083815d001c0020000820e100ae
:102c200009a8e1000ab0e1000bb8e1000d003d0089
:102c3000080037000006eb00e00f5200e08f5a005a
:102c4000e00f5b00e08f5b0006003d006044b800d1
:102c50006055b8000402540085825c0006035d00e4
:102c600087835d00aaff07000c00e0000600320029
:102c70006022b8006033b8000000520081805a0022
:102c800002015b0083815b004f0678004f05be00a8
:082c90004f04be000000060025
:020000040000fa
:102c98004d7c0000565b00006d5600005d20000072
:102ca800495b00006d4100005d20000054200000d9
:102cb800002000007c780000782c00007878000064
:102cc80020780000782c0000787800002078000038
:102cd80078000000537c0000536500007420000059
:102ce800766f00006c7400006167000065200000ca
:102cf80020560000002000007c200000202000005a
:102d080020200000202000002020000020200000bb
:102d18002020000020000000537c000053650000c4
:102d2800742000006375000072720000656e000078
:102d38007420000020490000004300007c5300007c
:102d480065740000207600006f6c0000746100005c
:102d5800676500002020000056000000207c00006d
:102d680020780000782c00007878000020200000ef
:102d78002020000020200000205600000043000012
:102d88007c53000065740000206300007572000029
:102d9800726500006e7400002020000049000000e9
:102da800207c000020780000782c00007878000053
:102db80020200000202000002020000020410000ea
:102dc8000000000025640000000000002c00000046
:020000040000fa
:102dd8000200fa00000f7800401080001e0060001a
:102de80000f0a7000000ea000000ea004f00de0043
:102df800004078000080fa00000006000000fa0099
:102e080040838000e40f50005d003200e40f500062
:102e180005003e000000e0000a003200e30f500009
:102e280034003200f0003700e60f5000ce003200c8
:102e3800e60f50008c003900ed0f5000b50032004d
:102e4800e90037006c70ef006026210011c0b30064
:102e58000148780080002000ddff07000004e00042
:102e68000c00320000022000d9ff07000004a20075
:102e78000004e00007003200001080008040780065
:102e88004026210001487800300020004083880057
:102e98000500370060262100a1cfb3000148780063
:102ea800600020004083880000402000c8ff070021
:102eb8000004e0000500320060262100d1cfb300f5
:102ec800014878006000200040838800000420004a
:102ed800bfff07000004e000ba00320060262100ae
:102ee800e1cfb300014878006000200040838800eb
:102ef800bd00370000022000b5ff07000004e00015
:102f08000700320000108000804078005026210021
:102f18000148780040002000408388000500370001
:102f28006026210091cfb30001487800600020009e
:102f38004083880000402000a5ff07000004e0004f
:102f48000500320060262100d1cfb3000148780087
:102f58006000200040838800000420009cff0700d8
:102f68000004e0009900320060262100e1cfb300a0
:102f78000148780060002000408388009a003700ec
:102f88000002200092ff07000004a2000004e000f5
:102f98001700320000108000804078004026210091
:102fa80001487800a183800040262100010001002b
:102fb80070262100104078000080fb001010880067
:102fc800000000001000200081ff07000004a2009c
:102fd8000004e000fbff3a000782a8007170ef00d0
:102fe8006026210021c0b30001487800090037009d
:102ff8000010800080407800702621000148780089
:1030080010c0b30071f0b7006026210031c0b300d2
:1030180001487800500020004083880000402000cc
:103028006bff07000004e000050032006026210065
:10303800d1cfb300014878006000200040838800a9
:103048000004200062ff07000004e0006100320075
:1030580060262100e1cfb30001487800600020001d
:10306800408388006000370071d0bf000004a200d0
:103078000004e0000e003200802621001040780095
:103088000080fb00101088000000000010002000e5
:103098004fff07000004a2000004e000fbff3a0015
:1030a8000782a800d000200040838800060037006f
:1030b80000108000804078008026210001487800b8
:1030c80060002000408388000040200040ff070087
:1030d8000004e0000500320060262100d1cfb300d3
:1030e8000148780060002000408388000004200028
:1030f80037ff07000004e000380032006026210096
:10310800e1cfb300014878006000200040838800c8
:103118003500370060002000408388000040200010
:103128002bff07000004e0000500320060262100a4
:10313800d1cfb300014878006000200040838800a8
:103148000004200022ff07000004e00025003200f0
:1031580060262100e1cfb30001487800600020001c
:1031680040838800200037006830ef0010c0b300ab
:103178006cf0b7002000200015ff07000004e000f5
:1031880004003a000004200011ff07000004e000da
:103198000500320000108000804078007026210071
:1031a8000148780008c2a900b383800020938000fa
:1031b800319380004293800003000100000000006a
:1031c8000900370000000000070037000000000079
:1031d8000500370000000000030037000000000071
:1031e80001003700000000000080fa00000006001f
:1031f8000000fa000040eb00390007006a30ef00d9
:1032080010c0b3006df0b70010c0b30070f0b70085
:103218007230ef0016cea90016aea90010cea90094
:1032280010aea9000622ef000822ef00400b200094
:10323800201088000228a90041428000f0f82f00e1
:103248008080600000052000010070004042880076
:103258002228a8000080fa00000006000600fa00f4
:10326800000f780011079800220798000040eb0033
:103278001b00070016cea90016aea90010cea800a4
:1032880010aea8000622ef000822ef000c22ef0083
:103298009e007800511088006830ef0010c0b3001d
:1032a8006cf0b70010c0b30070f0b7009e0090003b
:1032b800a1838800ae009000b18388000208a900ad
:1032c8004142800080ff2f00008060005000b30062
:1032d800404288002208a8000080fa00000006008a
:1032e8000200fa00004f78001e4078000004e00059
:1032f8000200320007e2a8000100370007e2a90037
:103308000080fa00000006000000fa000622ef0024
:103318000822ef006a30ef0010c0b3006df0b7006c
:1033280010c0b30070f0b7006830ef0010c0b300f1
:103338006cf0b70010c0b30070f0b7002228a900e5
:103348000228a9002228a8002208a9000208a9002a
:103358002208a80010c0b300e1ff07000080fa00af
:10336800000006000200fa00000f78006dd0bf00d0
:103378000004a2000004e000040032001e007800ef
:1033880081cfb30021409800f00037006d70ef0046
:103398006f70ef007230ef001e00780011c0b300ac
:1033a80021409800e5003700508380008000eb0042
:1033b800d200200003002000820f5000838f5800a5
:1033c800cf003e00000601000d0037002600370040
:1033d8002900370061003700800037009f00370060
:1033e800bf003700c6003700c5003700c4003700eb
:1033f80041003700600037007f0037009e0037002b
:1034080070d0bf000004e000040032007070ef00cc
:103418001000200050838800c8003700800020007a
:103428006bfe07000004a2000004e0000700320061
:103438000001200066fe07000004e00003003200df
:103448001000200050838800bc0037001e00780060
:1034580080c0eb002140980010c0b3006df0b700a9
:103468006a30ef00b50037000602a80020002000ef
:1034780050838800b10037006fd0bf000004e0001f
:10348800a30032007230ef006f70ef008000200060
:103498004ffe07000004e000100032000001200089
:1034a8004bfe07000004a2000004e0000b003200fd
:1034b8001e007800104078000080fb0000004000eb
:1034c80080007800f00f2000008060001010880055
:1034d800a000200050838800980037000642a8000a
:1034e80060002000508388001e00780080c0eb0038
:1034f80021409800910037006fd0bf000004e00021
:10350800850032007230ef006f70ef000000280075
:103518002ffe07000004a2000004e00008003200ab
:10352800000820002afe07000004a2000004e000b2
:103538000300320030002000508388007f003700ed
:103548000642a80060002000508388001e00780012
:10355800c1cfb30021409800780037001e007800e2
:10356800104090000080fb0010108800b000200080
:1035780050838800710037006fd0bf000004e0005e
:10358800670032007230ef006f70ef000000280013
:103598000ffe07000004a2000004e000080032004b
:1035a800000820000afe07000004a2000004e00052
:1035b8000300320040002000508388005f0037007d
:1035c8000642a80060002000508388001e00780092
:1035d800b1cfb30021409800580037001e00780092
:1035e800304090000080fb0010108800c0002000d0
:1035f80050838800510037006fd0bf000004e000fe
:10360800490032007230ef006f70ef0000002800b0
:10361800effd07000004a2000004e00008003200eb
:1036280000082000eafd07000004a2000004e000f2
:103638000300320050002000508388003f0037000c
:103648000642a80060002000508388001e00780011
:10365800b1cfb30021409800380037001e00780031
:10366800404090000080fb0010108800d00020002f
:1036780050838800310037006fd0bf000004e0009d
:103688002b0032007230ef006f70ef00000028004e
:10369800cffd07000004a2000004e000090032008a
:1036a80000082000cafd07000004a2000004e00092
:1036b800040032000642a800600020005083880001
:1036c8001e0037000642a8006000200050838800d2
:1036d8001e007800b1cfb3002140980017003700d2
:1036e8006fd0bf000004e000130032006f70ef00dd
:1036f8006a30ef0010c0b3006df0b7000f0037005c
:103708006a30ef0010c0b3006df0b7000b0037004f
:103718000000000009003700000000000700370023
:10372800000000000500370000000000030037001b
:103738000000000001003700000000006dd0bf004d
:103748000004a2000004e00017ff3a000080fa001d
:10375800000006000200fa00000f78006dd0bf00dc
:103768000004a2000004e000040032001e007800fb
:1037780081cfb30021409800040137006d70ef003d
:103788006f70ef007230ef001e00780011c0b300b8
:1037980021409800f9003700508380008000eb003a
:1037a800e200200003002000820f5000838f5800a1
:1037b800db003e00000601000e003700270037003e
:1037c8002a003700620037009f003700b500370035
:1037d800cb003700930037007d003700d00037005a
:1037e8004200370061003700a5003700bb003700f2
:1037f8007b00370070d0bf000004e00004003200f6
:103808007070ef001000200050838800db00370044
:10381800800020006efd07000004a2000004e00004
:10382800070032000001200069fd07000004e000e5
:10383800030032001000200050838800cf003700ba
:103848001e00780080c0eb002140980010c0b30033
:103858006df0b7006a30ef00c80037000602a80014
:103868002000200050838800c40037006fd0bf00bc
:103878000004e000ae0032007230ef006f70ef001d
:103888008000200052fd07000004e0001000320014
:10389800000120004efd07000004a2000004e00023
:1038a8000b0032001e007800104078000080fb00fa
:1038b8000000400080007800f00f200000806000c9
:1038c80010108800a000200050838800ab0037004b
:1038d8000642a80060002000508388001e0078007f
:1038e800c1cfb30021409800a40037006fd0bf00bb
:1038f8000004e000900032007230ef006f70ef00bb
:103908000000280032fd07000004a2000004e000c7
:1039180008003200000820002dfd07000004a20066
:103928000004e000030032003000200050838800cb
:10393800920037000642a8006000200050838800eb
:103948001e007800c1cfb300214098008b003700db
:103958001e007800104090000080fb0010108800c6
:10396800b000200050838800840037006fd0bf006b
:103978000004e000720032007230ef006f70ef0058
:103988000000280012fd07000004a2000004e00067
:1039980008003200000820000dfd07000004a20006
:1039a8000004e000030032008000200050838800fb
:1039b800720037000642a80060002000508388008b
:1039c8001e007800b1cfb300214098006b0037008b
:1039d8000622a800e0002000508388006700370016
:1039e8006fd0bf000004e000570032007230ef00d3
:1039f8006f70ef001e007800104078000080fb0018
:103a08000000400080007800f00f20000080600077
:103a18000000e80010108800700020005083880023
:103a2800560037006fd0bf000004e00048003200a5
:103a38007230ef006f70ef000662a80040002000af
:103a4800508388004d0037006fd0bf000004e000ad
:103a5800410032007230ef006f70ef0000108000fc
:103a6800804078001e0078003140980006a2a90026
:103a78000682a800c0002000508388003f0037005d
:103a88006fd0bf000004e000350032007230ef0054
:103a98006f70ef000662a800500020005083880075
:103aa800360037006fd0bf000004e0002e0032005f
:103ab8007230ef006f70ef000010800080407800d7
:103ac8001e0078004140980006a2a8000682a800bf
:103ad800d000200050838800280037006fd0bf0036
:103ae8000004e000220032007230ef006f70ef0037
:103af8000642a80060002000508388001f0037009d
:103b08006fd0bf000004e0001b0032006f70ef00b0
:103b18006a30ef0010c0b3006df0b700170037002f
:103b28006a30ef0010c0b3006df0b7001300370023
:103b38000000000011003700000000000f003700ef
:103b4800000000000d003700000000000b003700e7
:103b580000000000090037000000000007003700df
:103b680000000000050037000000000003003700d7
:103b78000000000001003700000000006dd0bf0009
:103b88000004a2000004e00003ff3a000080fa00ed
:103b9800000006000000fa000040eb00150b0700cb
:103ba800e90a0700cf0a0700020b07000a0b070003
:103bb80010c0b3000f0b07000080fa0000000600d9
:103bc8000200fa00004f78001fe1a9001e21a90099
:103bd8001e61a900f10880000003200001007000a8
:103be800f00888001421ef0060042000d008880045
:103bf80061428000f0ff28000080600000c0a00043
:103c0800604288000368a9002368a8001e40780065
:103c18000004e000010032001fe1a8000080fa0063
:103c2800000006000600fa00100798002107980017
:103c3800b0848000e30f5000020034000040eb0025
:103c4800230037000000eb00000f78001100370058
:103c58009e0090001e0078004201dd002020210017
:103c68000000410010007800808f500008003a00e2
:103c7800ae0090001e0078004201dd0040202100c7
:103c8800000041000108780010c0b30010003700a0
:103c98001e0fe800b08480009e007800808f5000de
:103ca800ebff3500b08480000000e800b084880095
:103cb800b0848000c200dd00202021000080400088
:103cc8001e019000ae0190000288be0010c0b30033
:103cd8000080fa00000006000400fa0010079800af
:103ce800b08480000000e00002003d000040eb00ce
:103cf800190037001e009000129080002390800069
:103d08000288be0010002000000f78000b0037006a
:103d18001e00e900c200dd002020210000804000d4
:103d28009e0078004209dd00212021008100410029
:103d380031187800211078001e0fe800b084800048
:103d48009e0f5000f2ff3100b08480000000e900af
:103d5800b084880010c0b3000080fa00000006009c
:103d68000400fa00008fbe001e007800f10f50001a
:103d78001a003200f10f500003003e00f00f50000f
:103d8800080032002b00370001072000810f500087
:103d98002400320011072000810f50001d0032005e
:103da800240037009e009000f0ff2700808060000c
:103db800f0ff270000806000c28f8000010028000b
:103dc8008100610001007000c08f8800c08f8000f2
:103dd80000f0a000c08f8800160037009e009000f9
:103de800f0ff270080806000f0ff2700008060005f
:103df800d28f80000100280081006100010070005e
:103e0800d08f8800d08f800000f0a000d08f88006d
:103e1800080037001e009000004078009d0307004e
:103e2800040037001e00900000407800b10307002e
:103e38000000000010c0b3000080fa000000060077
:103e48000200fa00000f78001e00780010017800c8
:103e5800f1ff270081006100010878001e0078004a
:103e680010019000f1ff2700810061001100980007
:103e78001e00780020019000f1ff270081006100fa
:103e8800210098001e00780030019000f1ff270003
:103e980081006100310098001e0078004001900008
:103ea800f1ff270081006100410098000080fa00be
:103eb800000006000000fa0012000700b08f800022
:103ec8000000e800b08f8800b18f8000800c2000cf
:103ed800808f5000090036000000eb00b08f88008a
:103ee800d0838000f08388007a30ef007830ef00cc
:103ef800e01e210011c0b300014878000080fa00dc
:103f0800000006000200fa0052060700e406070057
:103f1800d183800001004000d08388001707070084
:103f2800000f7800c08380009e007800808f5000ca
:103f3800020036009e007800018488009e00780008
:103f4800c18388000080fa00000006000600fa001d
:103f5800000f780011079800220798001e007800cb
:103f6800900090001e007800210098001e00780044
:103f780010009000e20f50001c003200e20f5000c9
:103f880005003e000000e0000a003200e10f50008a
:103f98000c00320078003700e40f50004000320077
:103fa800e40f500037003900e50f5000620032007e
:103fb800710037001e0078001100200021009800d1
:103fc8006d0037001e0090000000e00003003a007a
:103fd8002e0090000000e0005e0032001e00780015
:103fe8002100200021009800630037001e00900087
:103ff8000000e000090032000000eb001007980004
:104008001e00780041002000210098001e00780062
:104018008000eb0031009800570037002e00900018
:10402800e50f500007003a001e007800310020001c
:10403800210098001e0078008000eb0031009800f5
:104048004d0037001e007800300090008000e80026
:104058001e007800310098001e00780030009000a3
:10406800f80f50003d0036001e0078008000eb007d
:10407800310098001e0078001100200021009800ef
:104088003d0037002e009000e50f500035003a0043
:104098001e0078002100200021009800360037001b
:1040a8001e0090000000e000090032000000eb0054
:1040b800100798001e0078002100200021009800b9
:1040c8001e0078008000eb00310098002a003700bd
:1040d8002e009000e50f500007003a001e007800ff
:1040e80051002000210098001e0078008000eb009d
:1040f80031009800200037001e0078003000900042
:104108008000e8001e007800310098001e0078004a
:1041180030009000f80f5000140036001e007800a0
:104128008000eb00310098001e007800110020008c
:1041380021009800100037002e009000e50f500075
:104148000c003a001e007800210020002100980091
:1041580009003700000000000700370000000000d9
:1041680005003700000000000300370000000000d1
:1041780001003700000000000080fa00000006007f
:104188000400fa00000f7800110798001e0078005c
:1041980010009000e20f500056003200e20f50006d
:1041a80005003e000000e0000a003200e10f500068
:1041b800280032000e013700e40f5000aa00320038
:1041c800e40f500097003900e50f5000f20032006c
:1041d800070137005e010700e08380000000d1007e
:1041e800614060000080fb0000f0a7000000ea00ca
:1041f8000000ea004f00de000040780021020700be
:10420800e08380004800de006f406000b9020700cc
:10421800e08380004200de00f043b2009d02070008
:1042280001908000f0ff2700008060000001780006
:10423800f18f8000f0ff2700008060008000780088
:10424800e38f8000f0ff270000806100ea04070088
:10425800e7003700e18f8000000028000080600040
:104268000000e0000a003a00f18f800000002800fa
:10427800008060000000e00005003a000190800026
:1042880000002800008060000000e000d300320039
:1042980001908000f0ff2700008060000001780096
:1042a800f18f8000f0ff2700008060008000780018
:1042b800e38f8000f0ff270000806100ce04070034
:1042c800e18f8000f0ff270000806000e08f880009
:1042d800f18f8000f0ff270000806000f08f8800d9
:1042e80001908000f0ff27000080600000908800a7
:1042f800bf003700c18f8000f0ff270000806000fa
:10430800d6040700ba0037001e0090000000e00045
:1043180021003400c18f8000f0ff2700008060007a
:104328004106200080804000f0702200808f5000fd
:104338000f003c00c18f8000f0ff27000080600064
:104348004006b00080007800f0ff27008080600001
:10435800f0ff270000806000c28f80000100280065
:104368008100610001007000c08f880006003700de
:10437800c18f80000000280080806000007122004a
:1043880001007000c08f88001e0090000000e90046
:104398001007980020003700c18f8000f0ff270029
:1043a80000806000c1f92f00808040004006200096
:1043b800808f50000f003400c18f8000f0ff27006d
:1043c800008060004006b10080007800f0ff270000
:1043d80080806000f0ff270000806000c28f8000ae
:1043e800010028008100610001007000c08f880072
:1043f80006003700c18f8000000028008080600020
:104408004006200001007000c08f88001e00900048
:104418000000e80010079800c08f800000f0a0009e
:10442800c08f88001e0090000000e000b6ff3a0030
:10443800c18f800000002800008060000000e000bc
:1044480068003200c18f8000f0ff27000080600004
:10445800be040700c18f8000f0ff270000806000c5
:10446800c08f880062003700d18f8000f0ff2700de
:1044780000806000970407005d0037001e00900070
:104488000000e00021003400d18f8000f0ff2700f9
:10449800008060004106200080804000f07c200001
:1044a800808f50000f003c00d18f8000f0ff270064
:1044b800008060004006b00080007800f0ff270010
:1044c80080806000f0ff270000806000d28f8000ad
:1044d800010028008100610001007000d08f880071
:1044e80006003700d18f800000002800808060001f
:1044f800007d200001007000d08f88001e00900011
:104508000000e9001007980020003700d18f8000d4
:10451800f0ff270000806000c1f92f008080400074
:1045280040062000808f50000f003400d18f80009b
:10453800f0ff2700008060004006b100800078008e
:10454800f0ff270080806000f0ff270000806000f7
:10455800d28f8000010028008100610001007000f6
:10456800d08f880006003700d18f80000000280017
:10457800808060004006200001007000d08f880015
:104588001e0090000000e80010079800d08f8000ff
:1045980000f0a000d08f88001e0090000000e0000e
:1045a800b6ff3a00d18f800000002800008060002c
:1045b8000000e0000d003200d18f8000f0ff2700de
:1045c800008060007f040700d18f8000f0ff270083
:1045d80000806000d08f88000500370000000000d0
:1045e8000300370000000000010037000000000051
:1045f8000080fa00000006000000fa0065fd0700d0
:1046080040d42100c10120000e09070096050700cb
:1046180060e12100530707008804070060e12100da
:10462800e003070040d42100c1012000050907006c
:104638007c30a800e183800030f02f00808060008b
:104648008007200001007000e08388007d10a8002a
:104658007d30a8007d50a8007d70a900c18f800022
:104668000000280080806000803e2000010070006b
:10467800c08f8800c08f800000f0a000c08f880025
:10468800d18f80000000280080806000803e2000dc
:1046980001007000d08f8800d08f800000f0a0004b
:1046a800d08f8800e01e21008040eb000148780090
:1046b8000000eb00808f88000000eb00908f8800de
:1046c8000000eb00b08f88000000eb00a08f88008e
:1046d80040d42100c1012000da08070010c0b3004f
:1046e80037fd07008000eb000000eb00a4fe070088
:1046f8000100370000000000e01e21001040780093
:104708000004e000fbff3200e01e21008040eb00c7
:104718000148780001848000f0838000010178005e
:1047280080007800e01e210008fe0700808f8000ce
:10473800908f8000908f8000808f8800f0838000a9
:1047480080007800e01e21008dfe0700eaff370098
:104758000000fa003a08070010c0b3006508070017
:1047680010c0b300c7000700400107000080fa002e
:10477800000006000200fa00004f78001e40780092
:104788006b0807002073200001002000ad08070017
:104798000080fa00000006000200fa00000f78000e
:1047a8001e007800004078000043b0006008070051
:1047b8002073200001002000a20807000080fa00f2
:1047c800000006000400fa00100798000000eb0043
:1047d800000f7800050037001e0090001e00400002
:1047e80010407800e3ff07001e0fe8001e0090004d
:1047f8002cf207009e0f5000f7ff3e000080fa00e1
:10480800000006001600fa00200f9800e400470098
:10481800070009008018eb002e0890000000e00057
:1048280005003d00d0c2b300d2ff07002e0890005b
:104838000000ea00200f98002e0890000000e00019
:10484800290034000000eb00000f78001200370048
:10485800ae089000a00020000001780011000900b7
:104868008200d8008000fd00804078001e0178009a
:1048780064004100017778002e09900070662600d8
:104888000090b900c288de004f90de000080500022
:10489800200f98001e0fe8002e0890000000e0008e
:1048a800ebff3a000000eb00100798001e00e9003b
:1048b80010079800080037001e00900064004000b0
:1048c8006e4078000043b000aaff07001e00900069
:1048d8000000e900100798001e0090000000e000aa
:1048e800f5ff3d000200370000c3b300a1ff070039
:1048f8000080fa00000006000a00fa00881f78000d
:104908002007980031079800420798002e00900071
:10491800be009000b4f0070000007800b9ff07005f
:104928004e0090000000e00039003200a06e29001f
:10493800a4ff070018c0b3006011b8002e00900053
:10494800be009000a6f007000000e000010035005e
:104958000044eb000804e000050032002e0090003f
:10496800be00900001f0a2002007980031079800cf
:104978002e009000be009000bcf0070000007800f8
:104988008000eb00d4f007000001be002e0090006c
:10499800be00900025f00700008fbe001900370008
:1049a80002002000031224001e0078009e009000e0
:1049b8001ef10700008fbe001e0078009e009000c8
:1049c800aaf00700000078008eff07001e0078009c
:1049d8009e009000a5f00700000078008000eb0022
:1049e800bdf007000001be001e0078009e00900088
:1049f8000ef00700008fbe004e0090000000e90096
:104a0800400798004e0090000000e000e4ff3a00e4
:104a18004f0478000080fa00000006000200fa0047
:104a2800004f7800e0cfb300c107070020c6b300ed
:104a3800bf0707001e407800bd070700b07e2d00a5
:104a480001002000ff0707000080fa0000000600b0
:104a58000200fa00004f7800e0cfb300b407070067
:104a680010c6b300b20707001e407800b007070061
:104a7800b07e2d0001002000f20707000080fa0038
:104a8800000006000200fa00004f7800e0cfb300f3
:104a9800a70707001e4078000004e000030032006a
:104aa80010c4b300a20707000200370020c4b300f7
:104ab8009f0707002073200001002000e10707007e
:104ac8000080fa00000006000400fa002047980061
:104ad800314798002e409000e14f50000200360008
:104ae80010c0b300204798003e409000ef4f5000a0
:104af80002003600f0c0b30030479800be40900076
:104b0800014f78002e409000e14f500002003a001b
:104b180001c4b3001ecf4000e0cfb30084070700f4
:104b280050c4b300820707001e40780080070700c2
:104b38002073200001002000c20707000080fa004f
:104b4800000006000000fa00e0cfb3007807070075
:104b580060c4b3007607070050bf2600010020009c
:104b6800b80707000080fa00000006000200fa00fb
:104b7800004f7800e0cfb3006d0707001e407800b3
:104b88000004e0000300320070c4b30068070700a7
:104b98000200370080c4b3006507070050bf260035
:104ba80001002000a70707000080fa0000000600a7
:104bb8000000fa00e0cfb3005d07070090c4b3001f
:104bc8005b07070020732000010020009d070700f5
:104bd8000080fa00000006000000fa00e0cfb300f1
:104be80053070700a0c4b300510707002073200033
:104bf80001002000930707000080fa00000006006b
:104c08000200fa00004f7800e0cfb3004807070021
:104c18001e4078000004e00003003200b0c4b30076
:104c28004307070002003700c0c4b300400707006d
:104c38002073200001002000820707000080fa008e
:104c4800000006000000fa00e0cfb30038070700b4
:104c5800e0c4b300360707002073200001002000dd
:104c6800780707000080fa00000006000000fa003c
:104c7800e0cfb3002e07070010c5b3002c070700cc
:104c880050bf2600010020006e0707000080fa00d0
:104c9800000006000200fa00004f780020c3b300ad
:104ca8009e40780080cf50000200360020c3b30039
:104cb800004f78001e4078000004e00002003a002f
:104cc80010c0b300004f7800e0cfb300180707000a
:104cd80020c5b300160707001e4078001407070018
:104ce800c03f220001002000560707000080fa009c
:104cf800000006000200fa00004f78001e4078000d
:104d0800e84f50000200360080c0b300004f780022
:104d18001e4078000004e00002003a0010c0b30012
:104d2800004f7800e0cfb3000107070030c5b3009b
:104d3800ff0607001e407800fd06070020732000cc
:104d4800010020003f0707000080fa00000006006d
:104d58000600fa002047980021079800e0cfb3002a
:104d6800f306070040c5b300f10607002e40900087
:104d7800ef0607000040eb00004f78000600370000
:104d88001e80fb00ae0090000080400010407800bc
:104d9800e70607001e4fe8001e407800e74f500066
:104da800f7ff360050e62000010020002507070025
:104db8000080fa00000006000000fa00e0cfb3000f
:104dc800db06070050c5b300d90607002073200092
:104dd800010020001b0707000080fa000000060001
:104de8000000fa00e0cfb300d106070060c5b300a9
:104df800cf060700207320000100200011070700dc
:104e08000080fa00000006000000fa00e0cfb300be
:104e1800c706070000c7b300c506070040fe21000b
:104e280011002000070707000080fa0000000600b4
:104e38000000fa00e0cfb300bd06070010c7b300ba
:104e4800bb060700a0fb2c0021002000fd06070080
:104e58000080fa00000006000000fa00e0cfb3006e
:104e6800b306070020c7b300b106070040fe2100c3
:104e780011002000f30607000080fa000000060079
:104e88000400fa00889fbe001007980021e2a900dc
:104e980021a2a9002182a90001118000f0cf2f00d2
:104ea800008060000011880020e2a90020c2a9004b
:104eb80020a2a9002082a9002062a9000111800077
:104ec80090ff2f0000806000001188002002a900d8
:104ed80023a2a90023e2a90023c2a9002342a90012
:104ee80011118000f0f32f0000806000101188007d
:104ef80022a2a9001e0090008000eb000001be0065
:104f0800804a22009111200026ef07004c09dd009d
:104f18004404de0008047100c48cde000800780038
:104f28000000e900401188000300370030118000bc
:104f3800004f78001e4fe8001011800061006000eb
:104f48000000e000f9ff3a002422ef000168a90000
:104f580021428000f0ff28008080600000002600c9
:104f680001007000204288002168a800108ea80067
:104f7800008ea9002136800000f82f008080600094
:104f880040022000010070002036880001348000b3
:104f980000fc2f00008060000000a00000348800a2
:104fa8004f04be000080fa00000006000800fa0066
:104fb80020079800614798000040eb00004f7800f8
:104fc8002e0090009040780040c2b30080cf50007f
:104fd800010032001e14a0006e4090000080fb000b
:104fe8000000e900ae00900000804000904078008a
:104ff80060c2b30080cf5000010032001e24a00020
:105008002e0090000080e80090407800a0c3b30014
:1050180080cf5000010032001e34a0002e00900006
:105028006400400090407800a0c3b30080cf5000d7
:10503800010032001e34a0006e4090000080fb008a
:1050480063005000ae00900000804000904078005f
:10505800a0c3b30080cf5000010032001e34a0006e
:105068001e4078000004e0002b003a002e0090005b
:105078006300400090407800214798002e4090003f
:105088000080fb00e80040006e4090000080fb00bc
:10509800808f50001f003a002e0090000000e800aa
:1050a80090407800c009210001487800a00921003b
:1050b8002e419000024878000040eb00104798000d
:1050c8000f0037001e4090000081fb001e4090003a
:1050d8000080fb0065004000ae00900000804000aa
:1050e8001040780080407800c0092100000041008d
:1050f800114098001e4090000040e80010479800ba
:105108009e4090002e40900080cf5000edff390067
:10511800010037001e44a0001e4078000004e00093
:105128000b003a006e4090000080fb000080e90010
:10513800ae00900000804000904078009009210067
:105148000148780090092100104078000f000700fe
:10515800b00921001e48780020848000af06b00006
:1051680061f92f008f804000820921003300090077
:10517800b2187800b25878009106b100000001001a
:10518800af06b1000080fa00000006000200fa0035
:10519800004f780040c2b3005500070000c4b300b8
:1051a800530007001e4078005100070060c2b3009a
:1051b8004f0007000080fa00000006000200fa0015
:1051c800004f7800610821009140780040c6b30084
:1051d80080cf5000020036008670ef002c003700a8
:1051e80087d0bf000080fb00e10f50000e003200a6
:1051f800e20f50001b00320040c2b3009e4078000e
:1052080080cf500021003a001010210041c2b300a5
:105218000148780010c0b30086f0b70010c0b30092
:1052280087f0b7001a00370060c2b3009e407800cc
:1052380080cf500002003a0020c0b30087f0b700ca
:1052480086d0bf000080fb001110210000804000c4
:105258001e48780086d0bf000040e80086f0b700fe
:105268000b0037001e4078000004e00004003a00fc
:1052780086d0bf0080407800101021004bff070047
:105288008770ef00000000000100370000000000f8
:105298000080fa00000006000400fa00000f780001
:1052a800110798009e009000218488001e00780055
:1052b800f3fe07000080fa00000006000200fa0072
:1052c800004f78001e4078000004e000040032001f
:1052d8008670ef0021e2a8002342a80002003700f0
:1052e80021e2a9002342a9000080fa00000006007c
:1052f8000200fa00004f78001e80fb002011880091
:1053080000000000111180000010200000806000e3
:105318000000e000fbff32000080fa0000000600f9
:105328000000fa0030118000004078000080fa0088
:10533800000006000200fa00004f78001e407800c6
:10534800ebff07000080fa00000006000400fa00e6
:10535800004f78001107980040c2b300e4ff07002f
:105368001e407800e2ff0700a0c3b300e0ff07007b
:1053780060c2b300deff07000080fa0000000600ec
:105388000400fa00004f78001107980040c2b300eb
:10539800d7ff070082d0bf000043b000d4ff07004a
:1053a800a0c3b300d2ff070010c3b300d0ff0700ab
:1053b800a0c3b300ceff07001e00fb00801f7800cb
:1053c800606e2900801f78004aef0700e4875700c5
:1053d800a0c3b300c6ff07009e009000811f78009d
:1053e800606e2900801f780042ef0700e4875700ad
:1053f800a0c3b300beff070020c3b300bcff070073
:10540800a0c3b300baff070030c3b300b8ff07005a
:1054180060c2b300b6ff07000080fa000000060073
:105428001000fa00404f9800514f980072079800fa
:10543800fe009000d0cc2c000008b8004308de0025
:10544800000f7800de489000214798001e01780080
:10545800d0cc2c000010b8004308de00ea00b900e8
:1054680000005100200798009e007800d0cc2c0046
:105478000008b8004308de00000f78001e0178001d
:10548800d0cc2c000010b8004308de00ea00b900b8
:1054980000005100300798009e007800d0cc2c0006
:1054a8000008b8004308de00000f78001e017800ed
:1054b800d0cc2c000010b8004308de00ea00b90088
:1054c80000005100400798009e007800d0cc2c00c6
:1054d8000008b8004308de00000f78001e017800bd
:1054e800d0cc2c000010b8004308de00ea00b90058
:1054f80000005100500798002e409000ae409000e8
:105508008140e80021479800804078004e4890008c
:105518006dfd07005e0090009ffc07002e40900084
:10552800ae4090008140e800214798008040780014
:105538004e48900064fd07004e00900096fc07005e
:105548002e409000ae4090008140e800214798002e
:10555800804078004e4890005bfd0700c0c2b30051
:1055680084fc07002e409000ae4090008140e80087
:1055780021479800804078004e48900052fd07006f
:105588003e00900084fc0700ae4090004e4890001a
:105598004dfd07002e0090007ffc07000080fa00f8
:1055a800000006000200fa00000f780068fc0700ff
:1055b8009e007800418488008a30ef000001eb00eb
:1055c8008000eb000000eb000b0007000080fa00f1
:1055d800000006000200fa00004f7800114798000a
:1055e8001e407800c3fd07001e409000a9fd07007b
:1055f8000080fa00000006000600fa00000f78009c
:10560800110798002207980050848000e10f50008d
:10561800100032000040eb0054fd07000040eb0092
:1056280077fd07008040eb000040eb0026fd0700f7
:10563800c064290063fc07008040eb0010c0b30081
:1056480021fd0700d06529005efc0700100020003e
:10565800508488000080fa00000006000200fa006a
:10566800000f780050848000e20f500013003200d1
:1056780010c0b3003dfd07000040eb0060fd0700cf
:10568800f1c0b3000040eb000ffd07008040eb00c5
